:020000040000FA
:0400000011EF00F00C
:100008005F82F0A602D0F0B006D0F2BC9DA003D06B
:100018009EB0F5EC16F05F92110028EF14F0000E78
:100028004B6E000120EE02F0DD51D926DE51DA22B6
:10003800DECFF6FFDECFF7FF050EF76403D008002A
:10004800F55005D0F6CFE9FFF7CFEAFFEF503F0AAA
:10005800D8A419D0110E026E770E036EA7EC17F014
:10006800140E026E740E036EA7EC17F0720E026E79
:10007800750E036EA7EC17F0D60E026E730E036EA4
:10008800A7EC17F012000001DB05DC11D8A477D12A
:10009800930E026E7D0E036EA7EC17F001018C51D2
:1000A8001B6E1C6A1D6A1E6A040E1F6E15EC0AF090
:1000B800AA0E026E7A0E036EA7EC17F0DB0E026E24
:1000C8007D0E036EA7EC17F001018D511B6E1C6AA3
:1000D8001D6A1E6A040E1F6E15EC0AF07B0E026E76
:1000E800790E036EA7EC17F0C90E026E7D0E036E33
:1000F800A7EC17F001018E511B6E1C6A1D6A1E6A5F
:10010800040E1F6E15EC0AF0580E026E790E036E7F
:10011800A7EC17F0A50E026E7D0E036EA7EC17F084
:1001280001018F511B6E1C6A1D6A1E6A040E1F6E28
:1001380015EC0AF0C50E026E780E036EA7EC17F0E8
:10014800230E026E7E0E036EA7EC17F0010190518C
:100158001B6E1C6A1D6A1E6A040E1F6E15EC0AF0DF
:10016800770E026E780E036EA7EC17F0080E026E7B
:100178007E0E036EA7EC17F0010192511B6E1C6AEC
:100188001D6A1E6A040E1F6E15EC0AF0100E026E30
:10019800790E036EA7EC17F0ED0E026E7D0E036E5E
:1001A800A7EC17F0010191511B6E1C6A1D6A1E6AAB
:1001B800040E1F6E15EC0AF0270E026E780E036E01
:1001C800A7EC17F0E40E026E7D0E036EA7EC17F095
:1001D800010193511B6E1C6A1D6A1E6A040E1F6E74
:1001E80015EC0AF0240E026E7B0E036EA7EC17F0D6
:1001F800D20E026E7D0E036EA7EC17F0010194512A
:100208001B6E1C6A1D6A1E6A040E1F6E15EC0AF02E
:100218008A0E026E7A0E036EA7EC17F01A0E026EA3
:100228007E0E036EA7EC17F0010195511B6E1C6A38
:100238001D6A1E6A040E1F6E15EC0AF0410E026E4E
:100248007B0E036EA7EC17F0FF0E026E7D0E036E99
:10025800A7EC17F0010196511B6E1C6A1D6A1E6AF5
:10026800040E1F6E15EC0AF0790E026E7B0E036EFB
:10027800A7EC17F0AE0E026E7D0E036EA7EC17F01A
:10028800010197511B6E1C6A1D6A1E6A040E1F6EBF
:1002980015EC0AF0C90E026E7A0E036EA7EC17F081
:1002A8009C0E026E7D0E036EA7EC17F001019851AB
:1002B8001B6E1C6A1D6A1E6A040E1F6E15EC0AF07E
:1002C800350E026E790E036EA7EC17F0C00E026EA3
:1002D8007D0E036EA7EC17F0A1C11BF0A2C11CF0A4
:1002E8001D6A1E6A040E1F6E15EC0AF0050E026EDA
:1002F8007A0E036EA7EC17F0B70E026E7D0E036E32
:10030800A7EC17F0A3C11BF0A4C11CF01D6A1E6A5C
:10031800040E1F6E15EC0AF0E80E026E7A0E036EDC
:10032800A7EC17F0F60E026E7D0E036EA7EC17F021
:10033800A5C11BF0A6C11CF01D6A1E6A040E1F6E23
:1003480015EC0AF0490E026E7A0E036EA7EC17F050
:10035800110E026E7E0E036EA7EC17F0A7C11BF0FC
:10036800A8C11CF01D6A1E6A040E1F6E15EC0AF067
:10037800E30E026E790E036EA7EC17F01200DCBFD5
:1003880026D2DC5104E1030EDB5DD8A020D24C0E4E
:10039800076E000E086E20EE02F0DD51D926DE5100
:1003A800DA22DECF09F0DDCF0AF0000E0C6E080E5F
:1003B8000B6EA5EC14F0000E536E000120EE04F055
:1003C800DD51D926DE51DA22DECFF6FFDECFF7FF88
:1003D800050EF76403D00800F55005D0F6CFE9FF05
:1003E800F7CFEAFFEF503D0AD8A413D0040E00015E
:1003F800DB19DC11D8A40DD020EE06F0DD51D9268A
:10040800DE51DA22DECF08F0DDCF09F0E2EC0AF0A7
:100418000DD0000120EE04F0DD51D926DE51DA229C
:10042800DECF08F0DDCF09F0E2EC0AF008C056F0A4
:1004380009C057F04C0E0D6E000E0E6EDA0E0F6EE0
:100448007E0E106EE3EC14F00009D8B40DD05650AF
:100458005710D8B409D0575007E1110E565CD8B0E0
:1004680003D056C08CF194D14C0E0D6E000E0E6E5A
:100478008D0E0F6E7E0E106EE3EC14F00009D8B4EA
:1004880009D0575007E1020E565CD8B003D056C0C9
:100498008DF17ED14C0E0D6E000E0E6E7F0E0F6E1E
:1004A8007E0E106EE3EC14F00009D8B409D0575052
:1004B80007E1020E565CD8B003D056C08EF168D161
:1004C8004C0E0D6E000E0E6E5C0E0F6E7E0E106ED4
:1004D800E3EC14F00009D8B409D0575007E1200E16
:1004E800565CD8B003D056C08FF152D14C0E0D6E69
:1004F800000E0E6E540E0F6E7E0E106EE3EC14F0AE
:100508000009D8B40FD0575004E1050E565CD8A0A6
:1005180009D0575007E1330E565CD8B003D056C007
:1005280090F136D14C0E0D6E000E0E6E340E0F6E1D
:100538007E0E106EE3EC14F00009D8B409D05750C1
:1005480007E1020E565CD8B003D056C092F120D114
:100558004C0E0D6E000E0E6EA20E0F6E7E0E106EFD
:10056800E3EC14F00009D8B40FD0575004E10A0E98
:10057800565CD8A009D0575007E1650E565CD8B034
:1005880003D056C091F104D14C0E0D6E000E0E6EC4
:10059800B00E0F6E7E0E106EE3EC14F00009D8B4A6
:1005A80009D0575007E1020E565CD8B003D056C0A8
:1005B80096F1EED04C0E0D6E000E0E6E630E0F6EA1
:1005C8007E0E106EE3EC14F00009D8B409D0575031
:1005D80007E1020E565CD8B003D056C097F1D8D0C8
:1005E8004C0E0D6E000E0E6E940E0F6E7E0E106E7B
:1005F800E3EC14F00009D8B409D0575007E1020E13
:10060800565CD8B003D056C093F1C2D04C0E0D6ED4
:10061800000E0E6E440E0F6E7E0E106EE3EC14F09C
:100628000009D8B409D0575007E1020E565CD8B07B
:1006380003D056C095F1ACD04C0E0D6E000E0E6E68
:10064800860E0F6E7E0E106EE3EC14F00009D8B41F
:1006580009D0575007E1020E565CD8B003D056C0F7
:1006680094F196D04C0E0D6E000E0E6ECF0E0F6EDE
:100678007E0E106EE3EC14F00009D8B40FD057507A
:1006880004E1320E565CD8A009D0575007E1FB0EA2
:10069800565CD8B003D056C098F17AD04C0E0D6E87
:1006A800000E0E6E780E0F6E7E0E106EE3EC14F0D8
:1006B8000009D8B411D0575004E1640E565CD8A094
:1006C8000BD0BD0E565C020E5758D8B005D056C098
:1006D800A1F157C0A2F15CD04C0E0D6E000E0E6E4B
:1006E800710E0F6E7E0E106EE3EC14F00009D8B494
:1006F80011D0575004E1640E565CD8A00BD0EF0E11
:10070800565C020E5758D8B005D056C0A3F157C052
:10071800A4F13ED04C0E0D6E000E0E6EA90E0F6E9B
:100728007E0E106EE3EC14F00009D8B411D05750C7
:1007380004E1640E565CD8A00BD0EF0E565C020E96
:100748005758D8B005D056C0A5F157C0A6F120D04B
:100758004C0E0D6E000E0E6E3C0E0F6E7E0E106E61
:10076800E3EC14F00009D8B40BD0F50E565C010E7A
:100778005758D8B005D056C0A7F157C0A8F108D02F
:10078800010E4B6E060E026E7B0E036EA7EC17F081
:100798004B50D8A412008DEC1BF0B90E026E7C0EE3
:1007A800036EA7EC17F056C01BF057C01CF0000EE4
:1007B8001CBEFF0E1D6E1E6E040E1F6E15EC0AF099
:1007C8006E0E026E770E036EA7EC17F012007A0E0B
:1007D800026E7C0E036EA7EC17F01200000120EEEB
:1007E80002F0DD51D926DE51DA22DECF4BF0DDCF23
:1007F8004CF0010E4B26000E4C224BC0F6FF4CC0AD
:10080800F7FFF86A050EF76403D00800F55005D025
:10081800F6CFE9FFF7CFEAFFEF504D6E4D50076E68
:10082800086AFCEC19F007504F6E0001DB05DC117B
:10083800D8B418D020EE02F0DD51D926DE51DA22E4
:10084800DECFF6FFDECFF7FF050EF76403D0080012
:10085800F55005D0F6CFE9FFF7CFEAFFEF503F0A92
:10086800D8A425D1EB0E026E780E036EA7EC17F014
:100878007E0E026E7D0E036EA7EC17F0500E026E10
:10088800780E036EA7EC17F09F0E026E770E036EBC
:10089800A7EC17F07A0E026E760E036EA7EC17F02F
:1008A800470E026E760E036EA7EC17F0FB0E026E73
:1008B800770E036EA7EC17F06A0E026E7A0E036EBF
:1008C800A7EC17F012005E50D8A406D0AD0E026E49
:1008D8007B0E036EA7EC17F05EA006D0270E026E03
:1008E8007A0E036EA7EC17F05EA406D0930E026E84
:1008F8007B0E036EA7EC17F05EA612005D0E026E6B
:100908007B0E036EA7EC17F012007CEC1BF001C005
:100918001BF002C01CF01D6A1E6A050E1F6E15EC46
:100928000AF06E0E026E770E036EA7EC17F0120037
:100938006EEC1CF001C052F002C053F0525053103C
:10094800D8A407D0130E026E7D0E036EA7EC17F025
:10095800120052045310D8A407D04B0E026E7D0E1D
:10096800036EA7EC17F01200020E52185310D8A409
:1009780007D0580E026E7D0E036EA7EC17F012001A
:10098800CD0E026E7C0E036EA7EC17F012008C0ED3
:10099800036E010E046E7F0E066EC00E056E62ECCD
:1009A80016F0000E0001DC6F020EDB6FDE0EDD6F4D
:1009B800010EDE6FA2EC0BF01200000E506ECD0E91
:1009C800026E770E036EA7EC17F08F0E026E7C0E88
:1009D800036EA7EC17F00BD00F0E53EC1CF015ECC0
:1009E8001CF00009D8B403D021EC1CF0506E1B0E8B
:1009F8005018D8B41200F0D7000E516E3B0E026E9C
:100A0800750E036EA7EC17F0A80E026E750E036E36
:100A1800A7EC17F0DC0E026E7B0E036EA7EC17F046
:100A280010EC1BF001C060F002C061F003C062F07E
:100A380004C063F037D010EC1BF000016051015C7A
:100A48004B6E615102584C6E625103584D6E6351A2
:100A580004584E6E4E504D104C101AE1050E4B5C6A
:100A6800D8B016D010EC1BF001C060F002C061F0E5
:100A780003C062F004C063F0F00E21EC15F0730EB1
:100A880021EC15F0300E21EC15F0F70E21EC15F0E5
:100A9800FAEC17F015EC1CF00009D8B403D021ECDF
:100AA8001CF0516E1B0E5118D8B41200C4D74F5009
:100AB8004B6E4C6A4C50000AD8A412004B50650A81
:100AC800D8B401D7030AD8B462D70B0AD8B475D7FB
:100AD8001D0AD8B41AD7010AD8B48ED7020AD8A4E6
:100AE800120026D7A6C001F0A7C002F03CEC0FF018
:100AF800406EA6C033F0A7C034F0050E356ED8900E
:100B080034323332352EFBD73350070B376E0001A2
:100B1800A751030B386E000E396E3850D8B405D083
:100B28003750D8B402D0010E396E3950D8B402D03B
:100B3800010E01D0000E3D6E8CC141F0000E3A6EE0
:100B48005D50336E346A070ED89033363436E82E4B
:100B5800FBD7B85133243B6E000E34203C6E5DC089
:100B68003FF08FC13EF0E5D03D50D8B410D0A2512F
:100B7800C85DA351C959D8A00AD0000E6C6F000EE9
:100B88006D6F000E6E6F000E6F6F010EBB6F500E13
:100B9800A45DC30EA559D8B0DED0050EA427000E5B
:100BA800A523D9D0000EA56F000EA46F01019451A2
:100BB800D8A403D0400E3F6E0BD000016F516E11C8
:100BC8006D1104E10A0E6C5DD8A004D05DC03FF041
:100BD800010E3A6E3A50D8B4BED040C004F03FC0BF
:100BE80005F041506BEC1BF040C0B4F0000E000162
:100BF800686F000E696F000E6A6F000E6B6F000E53
:100C0800646F000E656F000E666F000E676F020E50
:100C18000DD0A051C85DA151C959D8B009D0B4C0F0
:100C280004F041509EEC1BF0000E0001BB6F93D006
:100C38003D50D8B423D0B4514018D8B41FD00101C6
:100C48009351D8B40DD040C004F03FC005F04150D6
:100C58006BEC1BF0B4C004F041509EEC1BF00CD0C0
:100C6800B4C004F041509EEC1BF040C004F03FC0FB
:100C780005F041506BEC1BF040C0B4F090C133F06C
:100C8800346A356A366A33500001685D34506959F0
:100C980035506A5936506B59D8A02AD0000E686F63
:100CA800000E696F000E6A6F000E6B6F92513B1851
:100CB80004E193513C18D8B41BD001018F51D8B42A
:100CC80013D03EC004F05DC005F041505AEC1BF053
:100CD80001019251D8B408D03E50200F046EB8C01C
:100CE80005F041505AEC1BF03BC092F03CC093F029
:100CF80091C133F0346A356A366A33500001645D55
:100D0800345065593550665936506759D8A023D0A4
:100D1800000E646F000E656F000E666F000E676F41
:100D2800FBEC15F001019551D8B415D019EC1AF067
:100D380012D0BB51336E346A3450000AD8A474D729
:100D48003350000AD8B410D7010AD8B42BD7030AF5
:100D5800D8B45FD769D7050E00016C27000E6D2344
:100D68006E236F23050E6827000E69236A236B2301
:100D7800050E6427000E6523662367231200000111
:100D880020EE02F0DD51D926DE51DA22DECF08F05E
:100D9800DDCF09F0E2EC0AF00850516E000E4E6EFD
:100DA800000120EE02F0DD51D926DE51DA22DECF35
:100DB800F6FFDECFF7FF050EF76403D00800F55005
:100DC80005D0F6CFE9FFF7CFEAFFEF503F0AD8A4E6
:100DD80019D0CB0E026E740E036EA7EC17F0520EEC
:100DE800026E740E036EA7EC17F0410E026E770EBA
:100DF800036EA7EC17F0980E026E730E036EA7EC45
:100E080017F012000001DB05DC11D8A44CD0F30E5A
:100E1800026E7B0E036EA7EC17F0C50E026E7B0EFA
:100E2800036EA7EC17F0210E026E7C0E036EA7EC82
:100E380017F0010E516E010E4F6E51501B6E1C6A59
:100E48001D6A1E6A040E1F6E15EC0AF02C0E026E47
:100E58007E0E036EA7EC17F04F50070B4B6E4C6AD3
:100E6800990E4B24D96E010E4C20DA6EDF504D6E70
:100E78004D501B6E1C6A1D6A1E6A030E1F6E15EC10
:100E88000AF06E0E026E770E036EA7EC17F04F2A6B
:100E9800512A080E4F64D1D70A0E026E7C0E036EDB
:100EA800A7EC17F01200DCBF8FD0DC5104E1030E71
:100EB800DB5DD8A089D020EE04F0DD51D926DE51C3
:100EC800DA22DECFF6FFDECFF7FF050EF76403D098
:100ED8000800F55005D0F6CFE9FFF7CFEAFFEF504D
:100EE8003D0AD8A413D0040E0001DB19DC11D8A4E4
:100EF8000DD020EE06F0DD51D926DE51DA22DECF04
:100F080008F0DDCF09F0E2EC0AF00DD0000120EE88
:100F180004F0DD51D926DE51DA22DECF08F0DDCF2C
:100F280009F0E2EC0AF00850506E5150D8B415D0D0
:100F3800090E516012D0800E50600FD0080E511863
:100F4800D8A402D0000E516E990E5124D96EDA6AD7
:100F5800010EDA2250C0DFFF08D0010E4E6EC10E1E
:100F6800026E790E036EA7EC17F04E50D8A412004B
:100F78008DEC1BF05150D8A402D0080E516E890E8A
:100F8800026E7D0E036EA7EC17F051501B6E1C6AA3
:100F98001D6A1E6A010E1F6E15EC0AF0030E026E22
:100FA8007D0E036EA7EC17F050501B6E1C6A1D6A6D
:100FB8001E6A030E1F6E15EC0AF06E0E026E770E97
:100FC800036EA7EC17F012007A0E026E7C0E036E09
:100FD800A7EC17F01200000E0001E36F420E596EE5
:100FE800010E5A6E000E8B6F000E8A6F000EE56FB1
:100FF800E00EDF6FFF0EE06F59C0D9FF5AC0DAFF6D
:10100800DF50E16FE26BDF51E127E051E223E2516B
:1010180072E15F0EE15DD8B06ED002D0594A5A2A0B
:1010280059C0D9FF5AC0DAFF200EDE18D8B4F6D757
:10103800E00E0001DF6FFF0EE06F59C0D9FF5AC004
:10104800DAFFDF50E16FE26BDF51E127E051E22385
:10105800E25151E15F0EE15DD8B04DD0E551020D8E
:10106800AB0EF324D96E010EF420DA6E59C0DEFF00
:101078005AC0DDFF8A4B8B2B13D0E00EDF6FFF0EBB
:10108800E06FE451E16FE26BDF51E127E051E223C9
:10109800E25110E15F0EE15DD8B00CD0594A5A2AEE
:1010A80059C0D9FF5AC0DAFFDF50E46F200EE419A7
:1010B800D8A4E3D7E00EDF6FFF0EE06F59C0D9FF69
:1010C8005AC0DAFFDF50E16FE26BDF51E127E051F0
:1010D800E223E25110E15F0EE15DD8B00CD059C0B7
:1010E800D9FF5AC0DAFF000EDF6E594A5A2AE52B9B
:1010F800070EE5657DD7000EE66FE651050DB90EC2
:10110800F324F66E720EF420F76E0900F5CFDFF0C7
:101118000900F5CFE0F0DFC0F6FFE0C0F7FF0800F8
:10112800F550240AD8B420D0ABC10DF0ACC10EF0F4
:10113800E651050DB90EF324F66E720EF420F76E23
:101148000900F5CF0FF00A00F5CF10F0E3EC14F02A
:101158000009D8B404D0010E0001E36F05D00001E6
:10116800E62BF90EE665C9D78BBF26D08B5104E173
:10117800020E8A5DD8A020D0ADC10DF0AEC10EF030
:10118800C90E0F6E7E0E106EE3EC14F00009D8B491
:1011980013D021EEADF0DECFF6FFDECFF7FF050E60
:1011A800F76404D03F0EF56E0C0006D0F6CFE9FFC9
:1011B800F7CFEAFF3F0EEF6E0001E351D8B422D01B
:1011C8008AC0DBF08BC0DCF0AB0EDD6F010EDE6F8A
:1011D800E651050D030EF326000EF422B90EF32492
:1011E800F66E720EF420F76E01D812000500FA6E42
:1011F8000900F550FD6E0900F550FE6EF850FF6EBF
:10120800FA501200640E026E7C0E036EA7EC17F003
:1012180012002FEC16F0F29E898C92800F01388113
:10122800000E5AEC15F00F0138918990929000F059
:1012380000F000F000F092820F013883010E5AECA2
:1012480015F00F0138938992929200F000F000F0A7
:1012580000F092840F013885020E5AEC15F00F0148
:1012680038958994929400F000F000F000F092868E
:101278000F013887030E5AEC15F00F01389789963D
:10128800929600F000F000F000F0928A0F01388B7F
:10129800040E5AEC15F00F01389B899A929A00F0C7
:1012A80000F000F000F096800F013C81050E5AEC2A
:1012B80015F00F013C918D90969000F000F000F031
:1012C80000F096820F013C83060E5AEC15F00F01D0
:1012D8003C938D92969200F000F000F000F0968416
:1012E8000F013C85070E5AEC15F00F013C958D94C3
:1012F800969400F000F000F000F093840F01398517
:10130800080E5AEC15F00F0139958A94939400F061
:1013180000F000F000F093860F013987090E5AECAF
:1013280015F00F0139978A96939600F000F000F0B7
:1013380000F0899CF28E0001BD51D8A403D0010EA3
:10134800BD6F1200000E086E380E0824D96EDA6AD6
:10135800010EDA22DF50036E046AEF51035CF0518C
:101368000458D8B02AD0240E0824D96EDA6A010E9F
:10137800DA22000EDF6E2E0E0824D96EDA6A010E0C
:10138800DA22040EDF6006D02E0E0824D96EDA6A3F
:10139800010E29D008C003F0010E046E000E056E80
:1013A800032A03D0D89004360536032EFBD7045001
:1013B8000001AE130550AF132FD02E0E0824D96E9E
:1013C800DA6A010EDA22000EDF6E240E0824D96EC6
:1013D800DA6A010EDA22040EDF6008D0240E08242F
:1013E800D96EDA6A010EDA22DF2A16D008C003F0B5
:1013F800010E046E000E056E032A03D0D890043641
:101408000536032EFBD7041C066E051C076E065016
:101418000001AE170750AF17082A090E086494D7C1
:101428001200000E326E000E316E000E2F6E010E8D
:10143800306E0C0E1F6402D00C0E1F6E1F50D8A405
:1014480002D0010E1F6E1EAE0BD0010E2F6E1B6C4C
:101458001C1ED8B01C2A1D1ED8B01D2A000E1E56F0
:10146800000E356E000E346E1BC001F01CC002F079
:101478001DC003F01EC004F00A0E056E000E066EB5
:10148800000E076E000E086E56EC11F00150300F7A
:10149800336E230E3424D96E000E3520DA6E33C035
:1014A800DFFF1BC00DF01CC00EF01DC00FF01EC0EA
:1014B80010F00A0E116E000E126E000E136E000E62
:1014C800146E98EC10F00DC01BF00EC01CF00FC08D
:1014D8001DF010C01EF0344A352A35BEC5D7355028
:1014E80004E10C0E345CD8A0BFD7000E356E0B0E8D
:1014F800346E230E3424D96E000E3520DA6EDF5098
:10150800336E34503510D8B40FD0300E3318D8A4F9
:101518000BD03050D8B408D0230E3424D96E000E26
:101528003520DA6E200EDF6E34503510D8B404D072
:10153800300E3318D8B40CD0000E306E3150321043
:10154800D8A406D0010E3424316E000E3520326E38
:101558003406D8A0350635AECCD72F50D8B408D02D
:10156800230E3124D96E000E3220DA6E2D0EDF6E76
:10157800000E356E0B0E346E230E3424D96E000E19
:101588003520DA6EDF50336E1F50206E216A2050EE
:10159800345C3550800A226E2150800A2258D8A027
:1015A80004D0200E3318D8B403D0335059EC1CF0B3
:1015B8003406D8A0350635BE1200DED7000E116EEF
:1015C800000E106E000E0F6E000E0E6E02D0084A4E
:1015D800092A08C0F6FF09C0F7FFF86A050EF76484
:1015E80003D00800F55005D0F6CFE9FFF7CFEAFFA2
:1015F800EF50200AD8B4EBD7F70E0A6EFF0E0B6E29
:1016080008C0F6FF09C0F7FFF86A050EF76403D0B3
:101618000800F55005D0F6CFE9FFF7CFEAFFEF5005
:101628000C6E0D6A0A500C260B500D220D500CE161
:10163800050E0C5CD8B008D0CAD7000E0F6E010E8C
:101648000E6E084A092A44D008C0F6FF09C0F7FF01
:10165800F86A050EF76403D00800F55005D0F6CFF8
:10166800E9FFF7CFEAFFEF500A6E0B6A0B50000A4A
:10167800D8A42ED00A502B0AD8B4E3D7060AD8B477
:10168800DCD726D010C001F011C002F0000E046EA5
:101698000A0E036E23EC1BF008C0F6FF09C0F7FF23
:1016A800F86A050EF76403D00800F55005D0F6CFA8
:1016B800E9FFF7CFEAFFEF500A6E0A50015E000E0D
:1016C800025A300E0124106E000E0220116EB9D796
:1016D800D00E0A6EFF0E0B6E08C0F6FF09C0F7FFAA
:1016E800F86A050EF76403D00800F55005D0F6CF68
:1016F800E9FFF7CFEAFFEF500C6E0D6A0A500C268F
:101708000B500D220D5004E10A0E0C5CD8A0BAD77C
:101718000E500F10D8A40DD010C00AF011C00BF055
:101728000A1E0B1E0A4A0B2A0AC008F00BC009F051
:10173800120010C008F011C009F012000001DB050A
:10174800DC11D8B418D020EE02F0DD51D926DE51D4
:10175800DA22DECFF6FFDECFF7FF050EF76403D0FF
:101768000800F55005D0F6CFE9FFF7CFEAFFEF50B4
:101778003F0AD8A413D0DF0E026E760E036EA7ECD4
:1017880017F04E0E026E7C0E036EA7EC17F09E0E3D
:10179800026E780E036EA7EC17F012000001DCBF92
:1017A80019D0DC5104E1020EDB5DD8A013D020EE85
:1017B80002F0DD51D926DE51DA22DECF02F0DDCF8C
:1017C80003F067EC14F0F00E02140001846FFF0EB2
:1017D8000314856F84C048F085C049F0000E466E3A
:1017E80048C003F049C004F0B6EC18F0E90E026EE8
:1017F8007E0E036EA7EC17F0000E4A6E48C001F08B
:1018080049C002F03DEC1CF034EC1CF0484A492A6F
:10181800200E59EC1CF04A50070B070AD8A403D035
:10182800200E59EC1CF04A2A0F0E4A64E7D7100E16
:10183800485E000E495A000E4A6E48C001F049C081
:1018480002F03DEC1CF0476E484A492AE00E426E11
:10185800FF0E436E4750446E456A4250442643503B
:101868004522455008E15F0E445CD8B004D047508B
:1018780059EC1CF003D02E0E59EC1CF04A2A0F0E1E
:101888004A64DBD76E0E026E770E036EA7EC17F074
:10189800462A0F0E4664A4D70001010E85271200C0
:1018A8002BEC1CF024EC17F0000E0001B76F000EB3
:1018B80059EC1CF00001B72B090EB765F8D7F20EEA
:1018C800026E7C0E036EA7EC17F051EC17F00009BE
:1018D800D8A403D05E8063EC13F0010198514DEC5D
:1018E8001CF010EC1BF001C074F002C075F003C0CE
:1018F80076F004C077F008D0C251D8B405D0000EF5
:10190800C26F8B8083EC19F0C80E00017425EB6F51
:10191800000E7521EC6F000E7621ED6F000E772119
:10192800EE6F10EC1BF00001EB51015CEC5102581A
:10193800ED510358EE510458D8A0DED7C8C05BF06B
:10194800C9C05CF0A1C101F0A2C102F0000E046E92
:10195800050E036E23EC1BF001C007F002C008F06F
:10196800000E0A6E640E096ED1EC17F05B50072466
:101978000001A26F5C500820A36F21EEA1F0DECF1A
:10198800EBF0DDCFECF0D890EB37EC37D890EB37B5
:10199800EC37EBC007F0ECC008F0000E0A6E640EDE
:1019A800096ED1EC17F05B5007240001A06F5C5062
:1019B8000820A16F5C5004E1080E5B5CD8A002D03F
:1019C8005C04D8B05E84000E83BA010EBA6FE8C119
:1019D80002F0E9C103F0A7EC17F047EC18F092EC1D
:1019E80015F034EC0EF0FAEC17F0F9D7A1C129F094
:1019F800A2C12AF05B500001C85D1B6E5C50C9593A
:101A08001C6E1BC001F01CC002F0036A046A800E41
:101A1800056E3F0E066E000E076E000E086E7CEC1B
:101A280017F001C00DF002C00EF003C00FF004C0A3
:101A380010F029C011F02AC012F0136A146A98EC49
:101A480010F00DC02BF00EC02CF00FC02DF010C000
:101A58002EF02EAE08D0000E2B6E000E2C6E000E4F
:101A68002D6E000E2E6E2EBE11D02E502D1006E1BA
:101A7800810E2B5C3F0E2C58D8A008D0800E2B6E00
:101A88003F0E2C6E000E2D6E000E2E6E020E1B6E7B
:101A980070C01CF071C01DF072C01EF073C01FF042
:101AA8001B6601D007D01F341F321E321D321C3274
:101AB8001B2EF6D7020E206E2BC021F02CC022F070
:101AC8002DC023F02EC024F0206601D007D0243486
:101AD8002432233222322132202EF6D71C50215CA8
:101AE800256E1D502258266E1E502358276E1F50F3
:101AF8002458286E000170512524706F71512620DA
:101B0800716F72512720726F73512820736F70C0E4
:101B18001BF071C01CF0070E1D6ED8901C321B32D2
:101B28001D2EFBD71B507F0B5D6E70517F0BB86F5E
:101B380012000101A75100019E5D1D6E0101A8510F
:101B480000019F591E6E1DC027F01EC028F0296A8B
:101B58002A6A2AAE08D0000E276E000E286E000EE4
:101B6800296E000E2A6E0101A751A55D1D6EA851B0
:101B7800A6591E6E1DC01FF01EC020F0216A226AE1
:101B880027C001F028C002F029C003F02AC004F0E1
:101B9800800E056E3F0E066E000E076E000E086E74
:101BA8007CEC17F001C00DF002C00EF003C00FF07E
:101BB80004C010F01FC011F020C012F021C013F0B3
:101BC80022C014F098EC10F00DC027F00EC028F0D9
:101BD8000FC029F010C02AF027C001F028C002F079
:101BE80029C003F02AC004F027C005F028C006F079
:101BF80029C007F02AC008F07CEC17F001C00DF0EE
:101C080002C00EF003C00FF004C010F0800E116E79
:101C18003F0E126E000E136E000E146E98EC10F04C
:101C28000DC023F00EC024F00FC025F010C026F020
:101C380026BE11D02650251006E1810E235C3F0EEA
:101C48002458D8A008D0800E236E3F0E246E000EB4
:101C5800256E000E266E23C01BF024C01CF0120057
:101C680015EC1CF00009D8B4120021EC1CF0586ED9
:101C780066D06DEC1AF047EC18F012008DBF120018
:101C88008D5103E18C05D8A012005906D8A05A0638
:101C98008C07D8A08D07080E59EC1CF0200E59ECC3
:101CA8001CF0080E59EC1CF012000D0E59EC1CF03B
:101CB8000A0E59EC1CF000018DBFDDD78D5103E1F0
:101CC8008C05D8A0D8D759C0D9FF5AC0DAFF000E62
:101CD800DF6E31EC10F0EFEC07F0CDD76DEC1AF0B9
:101CE80047EC18F0DBEC12F01200200E586EE00EF4
:101CF800E76FFF0EE86F5850E96FEA6BE751E92785
:101D0800E851EA23EA5134E15F0EE95DD8B01200E8
:101D18008DBF06D08D512CE1280E8C5DD8B01200F5
:101D2800585059EC1CF059C0D9FF5AC0DAFF58C0B6
:101D3800DFFF594A5A2A00018C4B8D2B120058504C
:101D48000001E76FE86BE851000AD8A4D0D7E75143
:101D5800080AD8B493D7010AD8B4C7D7040AD8B4A4
:101D6800A4D71F0AD8B4BAD70A0AD8B482D7BFD71B
:101D78001200000E456E000E446E610E486E000E95
:101D8800476E010E466E46C001F047C002F0000ED5
:101D9800046E050E036E23EC1BF0B90E0124F66EDB
:101DA800720E0220F76E0900F5CF49F00A00F5CF50
:101DB8004AF049C0F6FF4AC0F7FF0800F550240A68
:101DC800D8B447D049C0F6FF4AC0F7FF0800F5501D
:101DD8004818D8A434D049C002F04AC003F0A7EC90
:101DE80017F049C001F04AC002F042EC19F0015066
:101DF8000C08426E0250D8A0E82A0008436E03D0AF
:101E0800200E59EC1CF04206D8A043064228F8E1FF
:101E18004328D8A4F5D7444A452A45BE10D0455092
:101E280004E1060E445CD8A00AD0000E456E000EF0
:101E3800446E6E0E026E770E036EA7EC17F0464ADC
:101E4800472A47BEA0D7475004E1FA0E465CD8A0FF
:101E58009AD7482A7A0E486492D744504510D8B485
:101E680012006E0E026E770E036EA7EC17F01200CA
:101E78000250030B0A6E0250030B0A6E020E0A1878
:101E8800D8A402D0020E07D0030E0A18D8A402D094
:101E9800010E01D0000E086E01C003F002C004F06C
:101EA800050E056ED89004320332052EFBD7035079
:101EB800070B066ED8900230046E0130036E035093
:101EC8007F0B076E0150010B096E000E0724D96EB7
:101ED800DA6A020EDA22DF500D6E08500C0DF3CFCD
:101EE80003F0F4CF04F00D500326000E0422180E60
:101EF80003240B6E000E04200C6E01019751D8A428
:101F080014D00950D8B42AD0020E0618D8B426D056
:101F1800A30E0D24D96EDA6A010EDA22DF50D8B486
:101F28001DD00B06D8A00C0619D0180E0D18D8B461
:101F380010D01D0E0D18D8B40CD0240E0D18D8B41E
:101F480008D0290E0D18D8B404D0300E0D18D8A416
:101F580005D00950D8B402D00B4A0C2A0001985178
:101F68000B240B6E99510C200C6E0B5012008CC177
:101F780010F00001A751116EA6C012F001019605DC
:101F8800D8A40DD01238F00B100B0D6ED89012306B
:101F98000F0B0D100C6E1250E00B0C10126E00019E
:101FA800BB51D8A41200A651A711D8A421D0105013
:101FB800DDEC1BF01050CEEC1BF001019351D8B4AE
:101FC80005D0020E046E1050C7EC15F0C8C05BF0C7
:101FD800C9C05CF01E0E5B240001A26F000E5C20DD
:101FE800A36F190E5B24A06F000E5C20A16F120076
:101FF8001250D8B418D0010E0F6E000E0E6E080ED7
:102008000F18D8A402D0000E0F6E12B008D0D890C6
:102018001230126E0E2A0F2A070E0E64F0D70F50D8
:1020280095EC12F012001104D8A405D0FF0E996F98
:10203800F40E986F1200020E1118D8A405D0000EE5
:10204800996F0C0E986F1200030E1118D8A4120085
:10205800000E996F000E986F12000001B051D8A4BD
:102068002BD0000E126E000E116E11C001F012C0BE
:1020780002F0000E046E2A0E036E23EC1BF0000E15
:102088000124D96E030E0220DA6E000EDF6E114AAB
:10209800122A12BEEAD7125004E1040E115CD8A02D
:1020A800E4D7000E0001896F000E886F000E876F5D
:1020B800000E866F010EB06F420E016E010E026EA9
:1020C80042EC19F001500210D8B4120088C001F097
:1020D80089C002F0000E046E2A0E036E23EC1BF07A
:1020E800000E0124076E030E0220086E420E096ED0
:1020F800010E0A6E000E0C6E280E0B6EA5EC14F085
:1021080088C086F089C087F00001884B892B89BF79
:102118001200895104E1040E885DD8A01200000E57
:10212800896F000E886F1200000E166E14AE0AD06A
:10213800141E131E121E116C000E122213221422DA
:10214800010E166E10AE0AD0101E0F1E0E1E0D6C5C
:10215800000E0E220F221022010E161A000E176E04
:10216800000E186E000E196E000E1A6E1150121025
:1021780013101410D8B42AD0010E156E06D0D890BA
:102188001136123613361436152A14AEF8D7D890ED
:102198001736183619361A3611500D5C12500E586B
:1021A80013500F5814501058D8A009D011500D5E74
:1021B80012500E5A13500F5A1450105A1780D890B4
:1021C8001432133212321132152EE1D71650D8B408
:1021D80008D01A1E191E181E176C000E1822192274
:1021E8001A2217C00DF018C00EF019C00FF01AC04F
:1021F80010F01200000E506E000E4F6E000E556E5D
:10220800380E026E7C0E036EA7EC17F040D04FEC30
:1022180012F010EC1BF001C051F002C052F003C0E4
:1022280053F004C054F002D092EC15F010EC1BF0FF
:102238005150015C4B6E525002584C6E535003582B
:102248004D6E545004584E6E4E504D104C1004E1D3
:10225800FA0E4B5CD8A0E8D70D0E59EC1CF015EC23
:102268001CF00009D8B403D021EC1CF0556E0D0EFB
:102278005518D8A408D0000E556E6E0E026E770E53
:10228800036EA7EC17F0320E4F26000E50221B0EDD
:102298005518D8A4BCD76E0E026E770E036EA7EC45
:1022A80017F01200000E0A6E04AE0AD0041E031EB8
:1022B800021E016C000E022203220422010E0A6E85
:1022C80008AE08D0081E071E061E056C000E062262
:1022D800072208220550061007100810D8B424D089
:1022E800010E096E06D0D890053606360736083630
:1022F800092A08AEF8D70550015C06500258075065
:10230800035808500458D8A008D00550015E06505C
:10231800025A0750035A0850045AD8900832073214
:1023280006320532092EE7D70A50D8B408D0041E61
:10233800031E021E016C000E02220322042201C0A9
:1023480001F002C002F003C003F004C004F0120060
:10235800000E1F6E000E206E000E216E000E226E03
:102368000001A451A511D8B403D0C451D8B43ED0AB
:102378009A51C65D1D6E9B51C7591E6E1DC001F056
:102388001EC002F0036A046A800E056E3E0E066ED9
:10239800000E076E000E086E7CEC17F001C023F0EB
:1023A80002C024F003C025F004C026F023C00DF0BD
:1023B80024C00EF025C00FF026C010F0A3C111F004
:1023C800A4C112F0136A146A98EC10F00DC023F03F
:1023D8000EC024F00FC025F010C026F023C01FF057
:1023E80024C020F025C021F026C022F01FC01BF019
:1023F80020C01CF01200000E436E000E426E000159
:10240800DB05DC11D8A428D0120E026E760E036EFE
:10241800A7EC17F008D015EC1CF00009D8B403D0CD
:1024280021EC1CF0436E1F0E4364F5D7435059EC62
:102438001CF06E0E026E770E036EA7EC17F043C009
:1024480007F0086A51EC1AF0590E07180810D8A4BA
:1024580016D0010E426E13D020EE02F0DD51D926BF
:10246800DE51DA22DECF0DF0DDCF0EF0F70E0F6E63
:102478007E0E106EE3EC14F00009D8A4EAD742509F
:10248800D8B4120063EC13F09E0E026E790E036E40
:10249800A7EC17F012003D0E026E7D0E036EA7EC3E
:1024A80017F069EC1CF001C003F002C004F0B6ECB0
:1024B80018F0210E026E7D0E036EA7EC17F0000EC9
:1024C800FBEC1BF001C01BF002C01CF01D6A1E6A69
:1024D800040E1F6E15EC0AF02F0E026E7D0E036EB1
:1024E800A7EC17F05FEC1CF001C01BF002C01CF059
:1024F8001D6A1E6A040E1F6E15EC0AF0650E026E48
:102508007D0E036EA7EC17F064EC1CF001C01BF005
:1025180002C01CF01D6A1E6A040E1F6E15EC0AF03C
:102528001200096E8CC107F0990E0924D96EDA6A77
:10253800010EDA22DF50086E01018E51D8B405D0A1
:1025480008C004F0075008EC1CF0F00E0101146FED
:10255800730E156F070E166F09C017F178C018F1C2
:1025680079C019F17AC01AF15EC01BF197C11CF14C
:1025780093C11DF194C11EF1F70E1F6F8D51D8B490
:102588001200000E0B6E140E0B24D96EDA6A010EBF
:10259800DA22DF500A6E0A5021EC15F0F70E0A18FD
:1025A800D8B412000B2A3F0E0B64EDD71200420E6E
:1025B800076E010E086E86C001F087C002F0000E9B
:1025C800046E2A0E036E23EC1BF0000E0124096E24
:1025D800030E02200A6E000E0C6E280E0B6EA5EC80
:1025E80014F0000186518711D8A404D0000E876F1B
:1025F800040E866F8607D8A08707420E016E010E6B
:10260800026E42EC19F001C08CF002C08DF0420E4F
:1026180000018C25596E010E8D215A6E59C0D9FFC3
:102628005AC0DAFF000EDF6E420E026E010E036E14
:10263800A7EC17F01200E00E026E7C0E036EA7ECFA
:1026480017F0000178511B6E1C6A1D6A1E6A010E84
:102658001F6E15EC0AF02E0E59EC1CF00001795192
:102668001B6E1C6A1D6A1E6A010E1F6E15EC0AF0AD
:102678002E0E59EC1CF00A0E00017A6103D0300EC0
:1026880059EC1CF000017A511B6E1C6A1D6A1E6A07
:10269800010E1F6E15EC0AF0F10E026E7E0E036E2F
:1026A800A7EC17F0720E026E7D0E036EA7EC17F002
:1026B8006E0E026E770E036EA7EC17F01200010E75
:1026C80001018C6F000E8D6F000E8E6F020E8F6FE2
:1026D800050E906F1E0E916F000E926F000E936F95
:1026E800000E946F000E956F000E966F000E976F98
:1026F800960E986F000E0A6EFA0E0A24F66EF76AA6
:10270800720EF722990E0A24D96EDA6A010EDA22BD
:102718000800F5CFDFFF0A2A070E0A64EDD7020E7C
:102728000101A26FEE0EA16F030EA46FE80EA36F56
:10273800030EA66FE80EA56F000EA86FFA0EA76F1E
:102748008DEC1BF01200000E096E000E0A6E000ED2
:102758000B6E000E0C6E0550061007100810D8B44A
:102768002AD0010E0D6E06D0D890053606360736EB
:1027780008360D2A08AEF8D7D89009360A360B362F
:102788000C360550015C0650025807500358085093
:102798000458D8A009D00550015E0650025A0750C7
:1027A800035A0850045A0980D89008320732063272
:1027B80005320D2EE1D709C001F00AC002F00BC0A6
:1027C80003F00CC004F01200252525252525252514
:1027D8002525252525252525303030303030303049
:1027E8002F2E2E2E2D2C2C2C242424242424242457
:1027F80024242424242424242B2A2A2A2A2A2A2A60
:102808002929292928272624232222222222222272
:102818002222222222222222222222222222222290
:10282800222222222222222221202020202020208F
:1028380020202020202020201F1E1E1E1E1E1E1E9F
:102848001D1D1D1D1C1B1A18D00EF66E270EF76EC7
:10285800000EF86E02EE00F010EE80F00900F5CFE1
:10286800EEFFE550E150FAE1CA0EF66E350EF76E4E
:10287800000EF86E01EEBBF010EE2BF00900F5CF5C
:10288800EEFFE550E150FAE103EE00F0A80EEE6A23
:10289800E806FDE101EE00F0BB0EEE6AE806FDE198
:1028A80000EE60F06B0EEE6AE806FDE15E6A5D6AB6
:1028B8005C6A5B6A5A6A596A5F905F92000EF86EAA
:1028C800000154EF0CF0000E086E000E076E000EAB
:1028D800096E0250046E0350056E024A032A04C0B2
:1028E800F6FF05C0F7FFF86A050EF76403D0080085
:1028F800F55005D0F6CFE9FFF7CFEAFFEF50C1EC6E
:1029080019F0066E0628D8B417D007C004F008C01E
:1029180005F0043A053AF00E051604500F0B05129F
:10292800F00E041606500424076E000E0520086EEB
:10293800092A030E0964CDD707C002F008C003F0C6
:10294800120007C00FF008C010F023D00B06D8A063
:102958000C0609500D6E0A500E6E094A0A2A0DC05F
:10296800F6FF0EC0F7FFF86A0FC0D9FF10C0DAFFF4
:102978000F4A102A050EF76403D00800F55005D059
:10298800F6CFE9FFF7CFEAFFEF50DF6EDF50D8B49C
:102998000DD00B500C10D8B409D0D8D70FC0D9FF20
:1029A80010C0DAFF000EDF6E0F4A102A0B06D8A0FF
:1029B8000C060B28F3E10C28D8B41200EFD71268E4
:1029C800010E136E34D00DC0F6FF0EC0F7FFF86A83
:1029D800050EF76403D00800F55005D0F6CFE9FFDF
:1029E800F7CFEAFFEF50116E1150076E086AFCEC42
:1029F80019F00750146E0D4A0E2A0FC0F6FF10C0CA
:102A0800F7FF0800F550076E086AFCEC19F007504C
:102A1800156E0F4A102A15501418D8B402D0000E9B
:102A2800136E1450D8B407D01550D8B404D0120679
:102A38001228D8A4C8D713501200036E0001BC5145
:102A4800D8A40ED06C0EAC6F010EAD6F6C0EAA6FD1
:102A5800010EAB6F000EA96F000EA86F010EBC6FC0
:102A6800A9BF06D0A95121E1200EA85DD8B0120057
:102A7800AAC0D9FFABC0DAFF03C0DFFFAA4BAB2B5C
:102A88006C0E016E010E026E200E0126000E02224F
:102A98000150AA5D0250AB59D8A004D06C0EAA6FA1
:102AA800010EAB6FA84BA92B12001200026ED40EB8
:102AB8000224D96EDA6A010EDA22DF50016E01466D
:102AC8000146C2500118830B0118C26E00F000F0D5
:102AD80000F000F00F01458300F000F000F000F076
:102AE8000F0145934493448100F000F000F000F09A
:102AF80000F000F000F000F000F000F000F000F04E
:102B08000F014491C282C2B2FED7380E0224D96E98
:102B1800DA6A010EDA22C4CFDFFF12000001C351C6
:102B2800D8B404D0000EC36F0DEC09F00001C251F7
:102B3800D8B413D0000EC26F83EC19F069EC1CF006
:102B4800FF0E01140001A66F030E0214A76FFAEC22
:102B58000CF076EC05F0FDEC18F00001C151D8B48A
:102B68001200000EC16F8B80DFEC19F0ECEC1BF04B
:102B78000001B62B040EB619D8A41200000EB66FC9
:102B880049EC1BF01200056E05040F0BB009066E28
:102B9800065021EC15F00404D8B404D0020E041831
:102BA800D8A407D07D0E21EC15F0000E21EC15F00D
:102BB80006D07C0E21EC15F0000E21EC15F0065025
:102BC80021EC15F00404D8B404D0030E0418D8A4DA
:102BD80007D07F0E21EC15F0000E21EC15F0120045
:102BE8007E0E21EC15F0010E21EC15F012008CC1BF
:102BF80030F09DEC0DF01BC031F01CC032F000012C
:102C08008E51311804E18F513218D8B4120031C0F6
:102C18002BF032C02CF0070E2D6ED8902C322B32B0
:102C28002D2EFBD72B507F0B2E6E010E046E2EC05F
:102C380005F030505AEC1BF031507F0B2F6E210EEF
:102C4800046E2FC005F030505AEC1BF031C08EF0E6
:102C580032C08FF012000F01459F459B459945975B
:102C6800459545934591449F9F0E44174489445187
:102C7800F30B0409446F030E4313030E4317000EAE
:102C8800C26E000EC16EC09EC050F80B0109C06E26
:102C9800C050C70B1009C06E000EC36E000EC46E84
:102CA800010EC26E458F000E0001F06F960EEF6F99
:102CB800000EAF6F000EAE6F929C1200400E076EB2
:102CC800C00E0514056EFF0E0614066E05C001F051
:102CD80006C002F036EC1BF0000EF86E0650F76ED8
:102CE80005C0F6FF09D003C0D9FF04C0DAFFDF50E2
:102CF800F56E034A042A0D0007060728D8A4F3D75F
:102D080005C0F6FFA68EA69CA684A698F29E550E30
:102D1800A76EAA0EA76EA682F28EA6941200000EC7
:102D2800016E240E026EF40E036E000E046E0E5039
:102D3800106E0F50116E126A136A020ED890103678
:102D4800113612361336E82EF9D710C005F011C027
:102D580006F012C007F013C008F0A7EC13F0FF0E3E
:102D68000124146EFF0E0220156E080E706E900E70
:102D7800716E240E726E14C075FF1550766E1200B7
:102D8800000E016E240E026EF40E036E000E046E29
:102D98000E50106E0F50116E126A136A020ED89000
:102DA8001036113612361336E82EF9D710C005F052
:102DB80011C006F012C007F013C008F0A7EC13F01A
:102DC800FF0E0124146EFF0E0220156E080EB86E59
:102DD800900EAB6E240EAC6E14C0AFFF1550B06EE3
:102DE80012009E900001F251CF6EF1C0CEFFC35188
:102DF800D8A4C02B010E7C27000E7D237E237F23C1
:102E0800010EC36FBF2B040EBF6504D0010EC26F45
:102E1800000EBF6FBE2B310EBE6504D0010EC16F10
:102E2800000EBE6F8007000E815B825B835B805162
:102E3800811182118311D8A41200000EC46F1200F0
:102E4800010E0001786F020E796F050E7A6F700E11
:102E58000101E86F770EE96F010EEA6F000E0001BD
:102E6800C46F000E0101E76F1E0EE66F000E5E6E66
:102E780094909492960E0F6E000E0E6EC4EC16F09F
:102E88007A0E0F6E120E0E6E93EC16F0BEEC1BF05F
:102E98002FEC16F0F28EF28C1200010E0E6E8C0ED4
:102EA8000C6E010E0D6E8C0E016E010E026E7F0E01
:102EB800046E800E036E1F0E056EFBEC1AF00CC03C
:102EC800D9FF0DC0DAFFDE2805E1DE28D8A402D03C
:102ED800000E0E6E91EC18F00101A951011804E1E1
:102EE800AA510218D8B402D0000E0E6E0E5012006D
:102EF800000E096E000E0A6E000E0B6E000E0C6EB0
:102F080001A008D00550092606500A2207500B22B6
:102F180008500C22D8900536063607360836D89061
:102F2800043203320232013201500210031004103D
:102F3800D8A4E6D709C001F00AC002F00BC003F01C
:102F48000CC004F012000ED00A0E0618D8A407D040
:102F58000D0E59EC1CF00A0E59EC1CF003D006506B
:102F680059EC1CF00250046E0350056E024A032A05
:102F780004C0F6FF05C0F7FFF86A050EF76403D032
:102F88000800F55005D0F6CFE9FFF7CFEAFFEF507C
:102F9800066E0650D8B41200D7D7000E0C6E000E7D
:102FA8000B6E09500A10D8B41CD0010E0D6E04D057
:102FB800D89009360A360D2A0AAEFAD7D8900B36B9
:102FC8000C360950075C0A500858D8A005D009509B
:102FD800075E0A50085A0B80D8900A3209320D2E23
:102FE800EDD70BC007F00CC008F012000001A85183
:102FF800A911D8B41200A4A81200ACC0D9FFADC062
:10300800DAFFDF5053EC1CF00001AC4BAD2B6C0E1B
:10301800026E010E036E200E0226000E03220250DD
:10302800AC5D0350AD59D8A004D06C0EAC6F010E46
:10303800AD6FA807D8A0A9071200046E04C003F05A
:1030480003460346C2500318830B0318C26E00F0F0
:1030580000F000F000F000F000F000F000F0C28294
:10306800C2B2FED7C4CF05F0066A0550066E056ADF
:10307800C3500524056E000E0620066E05C001F03B
:1030880006C002F01200000E0101426F420E596E96
:10309800010E5A6E000E00018D6F000E8C6F000E2F
:1030A800076E0750020DAB0EF324D96E010EF42003
:1030B800DA6ECA0EDE6E000EDD6E072A070E076492
:1030C800F0D7E20E026E010E036EA7EC17F01200A5
:1030D800030E026E750E036EA7EC17F0AD0E026EAE
:1030E800760E036EA7EC17F0DD0E026E750E036EFA
:1030F800A7EC17F04D0E026E730E036EA7EC17F0D7
:10310800020E026E730E036EA7EC17F08F0E026E9E
:10311800740E036EA7EC17F01200000E066E000E78
:10312800056E8C0E076E010E086E1D0E046E000EE5
:10313800096E0DD007C0D9FF08C0DAFFDF50036E53
:1031480003500526000E0622074A082A092A0450B9
:10315800095CD8A0EFD7BA0E0518016EAB0E061899
:10316800026E120003C005F004C006F00C0E076ED4
:10317800D89006320532072EFBD70550AEEC1BF06F
:103188000450AEEC1BF003C005F004C006F0040EBA
:10319800076ED89006320532072EFBD70550AEECE5
:1031A8001BF003500F0BAEEC1BF012000F01459FF4
:1031B80000F000F000F000F0000EC26E000EC16ECC
:1031C800C08EC050F80B0509C06EC050C70B10095F
:1031D800C06E000EC36E000EC46E010EC26E9382E6
:1031E8000F0139839388398993803981938A398B80
:1031F80012000001B351D8A408D0310EB2650AD02C
:10320800BBEC0FF0010E000104D0C70EB16502D06F
:10321800000EB36F83B808D0FA0EB26102D0050E63
:10322800B227000EB16F1200FA0EB16102D0050E7E
:10323800B127000EB26F1200000E8D6E000E8C6E5C
:10324800000E896E000E8A6E000E8B6E070E966E4B
:103258003F0E926E9368900E946EB70E956E000EA8
:103268000F013A6F3969000E3B6F070E3C6F2F0E46
:10327800386F6168F19E8B848C96120001C003F050
:1032880002C004F002D0014A022A01C0F6FF02C0BF
:10329800F7FFF86A050EF76403D00800F55005D06B
:1032A800F6CFE9FFF7CFEAFFEF500009D8A4EBD734
:1032B8000350015C016E04500258026E12000001B6
:1032C80020EE02F0DD51D926DE51DA22DECFF6FFFC
:1032D800DECFF7FF050EF76403D00800F55005D0E0
:1032E800F6CFE9FFF7CFEAFFEF503F0AD8A4120064
:1032F800A40E026E7C0E036EA7EC17F01200DAEC37
:1033080018F00B0E21EC18F001C0C8F002C0C9F08B
:103318000A0E21EC18F001C0C6F002C0C7F00D0E6D
:1033280021EC18F001C09EF002C09FF00C0E21ECB9
:1033380018F001C096F002C097F01200010E076E57
:10334800200E01180210D8B414D0F70E036EFF0E29
:10335800046E01C005F002C006F0035005260450B3
:103368000622065004E1050E055CD8A002D0000E26
:10337800076E07C001F0026A1200016E2F0E016489
:1033880006D03A0E016003D00150D00F1200400E53
:10339800016406D0470E016003D00150C90F120026
:1033A800600E016406D0670E016003D00150A90FBA
:1033B8001200FF0E12000101EA51D8B412000001F8
:1033C80095BF0AD0955104E10A0E945DD8A004D0A7
:1033D800000E956F000E946F94519511D8B48B829E
:1033E800020E94199511D8B48B92944B952B120018
:1033F800BF0E096EFF0E0A6E07C00BF008C00CF076
:1034080009500B260A500C220C500AE11A0E0B5CCC
:10341800D8B006D0200E0710076E0850086E1200AC
:1034280007C007F008C008F012008CC127F0ACEC08
:1034380011F01BC028F01CC029F000019051281879
:1034480004E191512918D8B4120028C004F029C009
:1034580005F0275035EC1AF028C090F029C091F0FB
:103468001200096E09040F0BE0090A6E0A5021ECDC
:1034780015F004507F0B21EC15F004C006F005C0D0
:1034880007F0070E086E073407320632082EFBD7FE
:1034980006507F0B21EC15F012009F0E096EFF0EEF
:1034A8000A6E07C00BF008C00CF009500B260A5032
:1034B8000C220C5009E11A0E0B5CD8B005D05F0E37
:1034C8000714076E086A120007C007F008C008F062
:1034D80012000D0E59EC1CF0000E036E000E026E69
:1034E800200E59EC1CF0024A032A03BEF9D70350F8
:1034F80004E12A0E025CD8A0F3D70D0E59EC1CF09B
:103508001200E00E036EFF0E046E01C005F002C04B
:1035180006F00350052604500622065006E15F0E09
:10352800055CD8B002D0010E01D0000E016E026A0F
:1035380012009F0E036EFF0E046E01C005F002C05C
:1035480006F00350052604500622065006E11A0E1E
:10355800055CD8B002D0010E01D0000E016E026ADF
:103568001200BF0E036EFF0E046E01C005F002C00C
:1035780006F00350052604500622065006E11A0EEE
:10358800055CD8B002D0010E01D0000E016E026AAF
:103598001200D00E036EFF0E046E01C005F002C0CB
:1035A80006F00350052604500622065006E10A0ECE
:1035B800055CD8B002D0010E01D0000E016E026A7F
:1035C80012000100010001000001000100010100DA
:1035D80001000100000100010001000001020304D4
:0D35E8000506070809BD7EB77E0D3E2000D8
:1035F600000EF86E0450F76E03C0F6FF09D00900FE
:1036060001C0D9FF02C0DAFFF5CFDFFF014A022A67
:1036160005060528D8B41200F2D79D907CC005F0A7
:103626007DC006F07EC007F07FC008F09D8005C013
:1036360001F006C002F007C003F008C004F0120053
:1036460001500302F3CF05F0F4CF06F00150040257
:10365600F350062602500302F350062605C001F079
:1036660006C002F01200000EF86E0250F76E01C09E
:10367600F6FFA68EA69CA684A688F29E550EA76E79
:10368600AA0EA76EA682F28EA694120001018D5193
:10369600D8B41200F00E21EC15F0730E21EC15F0E3
:1036A600300E21EC15F0F70E21EC15F01200066E27
:1036B60006040F0BB009076E075021EC15F00450F5
:1036C6007F0B21EC15F005507F0B21EC15F0120055
:1036D600066E06040F0B9009076E075021EC15F0D5
:1036E60004507F0B21EC15F005507F0B21EC15F0F3
:1036F60012005D50036E046A070ED8900336043636
:10370600E82EFBD70001B8510324016E000E0420F9
:10371600026E120091EC18F001C0A9F102C0AAF1E4
:103726008C0E036E010E046E7F0E066E800E056E05
:1037360062EC16F01200056E05040F0B8009066E8A
:10374600065021EC15F004507F0B21EC15F0000E0D
:1037560021EC15F01200026E0F0E02160A0E026020
:1037660005D00250300F59EC1CF012000250370FF2
:1037760059EC1CF01200540ECD6E000ECC6EE00E0D
:10378600CF6EC00ECE6ECECFF1F0CFCFF2F09E90C0
:103796009D80CD801200046E04040F0BB009056EE7
:1037A600055021EC15F0790E21EC15F0000E21ECF8
:1037B60015F01200046E04040F0BB009056E0550D7
:1037C60021EC15F0780E21EC15F0000E21EC15F029
:1037D6001200E90E0001A45D030EA559D8A012003F
:1037E600C451D8A41200C6C09AF0C7C09BF01200FC
:1037F600046E380E0424D96EDA6A010EDA22DF501E
:10380600036E0350016E026A1200056E05040F0B6B
:10381600C009066E065021EC15F004507F0B21EC12
:1038260015F01200000E9EBA010E016EABA204D076
:10383600AB9EAB8E000E016E01501200000E026EA2
:1038460015EC1CF00009D8A4AECF02F0025012000D
:1038560075EC1CF020EC19F046EC1CF0BEEC1BF0ED
:103866001200036E03380F0BAEEC1BF00350AEECE8
:103876001BF01200000EF86E0250F76E01C0F6FF44
:103886000800F5501200720ED36E040ED26E000EB2
:103896009B6E1200016E01C0EFF00001F06B12008A
:1038A600016EA4A8FED701C073FF1200016E9EA888
:1038B600FED701C0ADFF1200C8C001F0C9C002F0BA
:1038C60012009EC001F09FC002F01200AEC001F0CF
:1038D600AFC002F01200BBC001F0026A120077EC22
:0C38E6001CF01200D09E1200FF00120027
:1072B80000FC7E47C632CA7E47D830F47E477A1D26
:1072C800E47E477A1D4C7E47FE23ED7E473E26D559
:1072D8007E47E407C37E47FC219C7E47E438DF7E77
:1072E8004744179B7E41860D6A7E412600FA7E0040
:1072F8000000434B48454A111417757361676520B0
:10730800696E666F726D6174696F6E3B20206F7471
:10731800686572776973652C206120636F6D6D6194
:107328006E64207768696368206578706563747334
:10733800206174206C65617374206F6E65206172C2
:10734800672C200A00536F6D6520636F6D6D616E49
:1073580064732C207768656E20656E746572656449
:107368002077697468207468652073776974636826
:1073780020272D68656C7027206F7220273F272CE7
:107388002073686F7720636F6D6D616E64200A00EB
:107398004578616D706C653A202020707265736560
:1073A800742033203D2036372020207C20536574FC
:1073B800204D494449205072676D20363720666F4A
:1073C80072205072657365742033200A0A0045786C
:1073D800616D706C653A202020636F6E6669672066
:1073E800206368616E203D203130202020205B53CF
:1073F8006574204D696469205478206368616E6EF5
:10740800656C203D2031305D200A0A0055736167A4
:10741800652023323A2020636F6E666967203C70CE
:107428006172616D3E205B3D5D203C76616C7565E7
:107438003E202020207C2053657420706172616D8D
:107448002E2076616C7565200A005573616765208A
:1074580023323A2020707265736574203C7072651F
:10746800233E205B3D5D203C76616C75653E2020A7
:1074780020207C20536574205072657365742076D3
:10748800616C7565200A007768656E20656E7465A5
:1074980072656420776974686F757420616E792CE1
:1074A8002073686F756C6420616C736F2073686FEC
:1074B8007720636F6D6D616E642075736167652EEB
:1074C800200A0055736167652023313A20207072C5
:1074D80065736574202020207C204C6973742050CB
:1074E8007265736574204D494449205072676D2058
:1074F8006E756D62657273200A0A00436F6D6D6167
:107508006E6420617267277320616E64206F7074E7
:10751800696F6E73206D7573742062652073657072
:107528006172617465642062792073706163657348
:107538002E0A0053656E64696E67205379732E4571
:10754800782E20274944454E5427206D73672063C1
:107558006F6E74696E756F75736C7920746F204DDA
:10756800494449204F5554200A0020202077686557
:107578007265203C706172616D3E206973206120E4
:107588006E69636B6E616D65206C697374656420E8
:1075980062792075736167652023312E200A0A00FD
:1075A800766961204D494449207472616E736D6932
:1075B800742071756575652E20204D65737361673C
:1075C8006520696E74657276616C20697320356D0B
:1075D800732E200A00546F20726563616C6C206101
:1075E8002070726576696F75736C7920656E746545
:1075F80072656420636F6D6D616E642C20686974B8
:10760800204374726C2B522E0A00526573746F7289
:10761800652070657273697374656E742064617433
:107628006120746F20666163746F72792064656687
:1076380061756C74733F2028592F4E293A20002019
:107648002D71203A20204D494449204F555420544B
:1076580058205175657565207465737420287365A5
:107668006E64204944454E54204020356D732920CE
:107678000A00202D6D203A20204D494449204F55BD
:10768800542054582074657374202873656E6420E0
:107698003078304620636F6E74696E756F75736CE1
:1076A8007929200A00546F206C697374206176610F
:1076B800696C61626C6520636F6D6D616E64732CBB
:1076C800207479706520276C6327206F72202763E8
:1076D8006D6473272E0A0044756D702061207061F7
:1076E8006765202832353620627974657329206FE2
:1076F8006620666C6173682070726F6772616D20B6
:107708006D656D6F72792E0A005573616765202368
:10771800313A2020636F6E666967202020207C2024
:107728004C69737420636F6E666967276E20706199
:1077380072616D2773200A0A00202020776865721D
:1077480065203C707265233E20697320746865204B
:10775800507265736574206E756D6265722028318C
:107768002E2E3829200A0A004261756572207B5244
:10777800454D497D2048616E64736574206D6B3298
:10778800202D2D205365727669636520506F7274C1
:1077980020434C49200A00202D66203A20205772A9
:1077A80069746520466C6173682064617461206245
:1077B8006C6F636B20286465737472756374697683
:1077C8006529200A0053656E64696E672030783039
:1077D8004620636F6E74696E756F75736C7920746B
:1077E8006F204D49444920545820554152542E2E5B
:1077F8002E0A00202D70203A202053686F77204DE4
:1078080049444920507265737375726520646174C8
:10781800612076616C75652028313462290A002060
:10782800204D696469204D6F64756C6174696F6E71
:1078380020496E74657276616C202831302E2E31A5
:107848003030206D73290A00202D65203A202053FE
:10785800686F7720737461727475702073656C66D5
:107868002D74657374204572726F7273200A00203C
:10787800204D6964692045787072657373696F6E0D
:1078880020496E74657276616C2028352E2E35304D
:10789800206D73290A002D2D207768657265206197
:1078A8006464722069732073746172742061646403
:1078B800726573732028686578292E0A0020204D88
:1078C8006964692045787072657373696F6E2043C7
:1078D80043206E756D6265722028322C372C313149
:1078E800290A0055736167653A2020646961672039
:1078F800203C6F7074696F6E3E20205B6172673147
:107908005D202E2E2E200A00202053656E64203123
:10791800342D6269742045787072657373696F6E6F
:1079280020646174612028302C31290A00202054F9
:107938006F7563682053656E73652054687265734C
:10794800686F6C6420286D61782E323530290A0002
:1079580020204D6964692050726F672E204368614A
:107968006E676520456E61626C65642028302C3135
:10797800290A0020204D696469205379732E4578BF
:10798800636C2E4D736720456E61626C65642028B8
:10799800302C31290A002A2044656661756C7420F0
:1079A800636F6E66696775726174696F6E20726560
:1079B80073746F7265642E0A002120496E76616CBB
:1079C800696420707265736574206F72204D494434
:1079D80049207072676D2023200A0020204D6F64B3
:1079E800756C6174696F6E20446561642D62616EA7
:1079F8006420286D61782E353030290A0020205007
:107A0800726573737572652053656E736F72205358
:107A180070616E20286D61782E373530290A002173
:107A2800204572726F723A20436F6E666967204410
:107A3800617461202864656661756C746564290ADF
:107A48000020204D6F64756C6174696F6E204D6104
:107A580078696D756D20286D61782E313030302948
:107A68000A00202D73203A202053686F77206E6F0C
:107A78007465206F6E2F6F6666205374617465207D
:107A88000A00202056656C6F636974792053656E0F
:107A9800736520456E61626C65642028302C31293D
:107AA8000A0020204D69646920426173696320439C
:107AB80068616E6E656C2028312E2E313629200AB9
:107AC80000202046696E676572696E672053636897
:107AD800656D652028302C312C322C2E2E290A0079
:107AE800202050697463682D42656E64205370616C
:107AF8006E20286D61782E31303030290A0021201F
:107B0800496E76616C6964206E69636B6E616D6540
:107B1800206F722076616C75652E0A0020204C65F6
:107B28006761746F204D6F646520456E61626C6596
:107B3800642028302C31290A002020506974636899
:107B48002042656E6420456E61626C656420283051
:107B58002C31290A0021204572726F723A204D6F2C
:107B680064756C6174696F6E2053656E736F720A09
:107B7800002020546F75636820506164204C61793F
:107B88006F75742028302C31290A00212045727223
:107B98006F723A2050726573737572652053656E03
:107BA800736F720A002A204E6F2073656C662D74FD
:107BB800657374206572726F72732E0A0050726555
:107BC800736574207C204D494449205072676D20AC
:107BD80023200A00486974205B4573635D20746F35
:107BE80020657869742E2E2E200A005F5F5F5F5F24
:107BF8005F5F5F5F5F5F5F5F5F5F5F5F5F5F5F5F8D
:107C08000A005F5F5F5F5F5F5F7C5F5F5F5F5F5F13
:107C18005F5F5F5F5F5F5F0A006060606060606019
:107C28007C606060606060606060606060600A00E6
:107C3800486974205B4573635D20746F20717569B2
:107C4800742E200A0A0055736167653A202064750E
:107C58006D70205B616464725D200A003F20556E80
:107C6800646566696E656420636F6D6D616E642E10
:107C78000A002120496E76616C696420636F6D6D1E
:107C8800616E642E200A00486974205B4573635D49
:107C980020746F20657869742E200A005573616717
:107CA800653A20202A205B72656D61726B5D200A3F
:107CB800002A204E65772076616C756520736176A1
:107CC80065643A2000554E444546494E45442028AF
:107CD8006572726F72290A004669726D7761726502
:107CE8002076657273696F6E20000D0A2A204D4355
:107CF80055207265736574202A0A00203A204D4980
:107D08004449205072676D203D20004F46462F4958
:107D1800444C45202830290A00207C2050616430DA
:107D28005F4144433A2000207C205072657373758C
:107D380072653A2000546F756368506164733A2025
:107D480030780050454E44494E47202831290A00D2
:107D5800504C4159494E47202832290A00207C209E
:107D68004D6F64756C276E3A200041707220203583
:107D78002032303232003C6F7074696F6E3E200AD8
:107D8800002A2050726573657420006368616E2054
:107D980020202000746872657320202000657870A8
:107DA8006E636320200066696E677363202000702D
:107DB800627370616E20200070727370616E202093
:107DC8000070726368656E20200076656C73656E5E
:107DD80020200073797378656E2020006C656761D8
:107DE800746F2020006D6F64696E742020006D6FC1
:107DF800646D61782020007061646C6179202000D6
:107E08006578706E31346220006D6F6462616E64F3
:107E180020007062656E64656E20006578706E691A
:107E28006E7420002020207C202020006578706E51
:107E3800313462006D6F6462616E64007062656EF9
:107E480064656E0064656661756C74006578706E53
:107E5800696E74006578706E63630066696E677337
:107E68006300636F6E6669670070627370616E00AD
:107E780070727370616E0070726368656E0076650B
:107E88006C73656E0073797378656E006C656761F5
:107E9800746F00707265736574006D6F64696E74D9
:107EA800006D6F646D6178007061646C6179003792
:107EB800463030200064756D702000776174636807
:107EC800002D68656C700074687265730064696180
:107ED80067006368616E0064756D7000636D64733C
:107EE80000203A2000766572002C20006C63002D7B
:077EF800790024002A0000BC
:020000040020DA
:08000000FFFFFFFFFFFFFFFF00
:020000040030CA
:0E000000FF281F3CFFBF81FF0FC00FE00F4025
:00000001FF
