:0400000011EF00F00C
:100008005F82F0A602D0F0B006D0F2BC9DA003D06B
:100018009EB03CEC1FF05F9211009AEF1AF0000EB0
:100028004E6E000E4F6EC4EC22F0506E020E471852
:100038004810D8A42CD020EE02F04950D9264A50B6
:10004800DA22DECF4BF0DDCF4CF04BC0D9FF4CC0ED
:10005800DAFF3F0EDE18D8A41AD00E0E026E710E0B
:10006800036E59EC1DF01A0E026E700E036E59ECF9
:100078001DF09F0E026E720E036E59EC1DF0580EA5
:10008800026E700E036E59EC1DF078EF04F0470411
:100098004810D8A4CBD1020E026E7D0E036E59EC27
:1000A8001DF050501B6E1C6A1D6A1E6A010E1F6EE1
:1000B800E9EC0FF06A0E026E780E036E59EC1DF033
:1000C8009F0E026E7D0E036E59EC1DF0B70E502484
:1000D800D96EDA6A000EDA22DF504B6E4B501B6E77
:1000E8001C6A1D6A1E6A040E1F6EE9EC0FF0080EEA
:1000F800026E7A0E036E59EC1DF0020E026E7E0E31
:10010800036E59EC1DF0B90E5024D96EDA6A000E50
:10011800DA22DF504B6E4B501B6E1C6A1D6A1E6A3A
:10012800040E1F6EE9EC0FF0900E026E790E036E4E
:1001380059EC1DF0F00E026E7D0E036E59EC1DF0A9
:10014800BB0E5024D96EDA6A000EDA22DF504B6EED
:100158004B501B6E1C6A1D6A1E6A040E1F6EE9EC6A
:100168000FF0250E026E7A0E036E59EC1DF0A80EE4
:10017800026E7D0E036E59EC1DF0BD0E5024D96E33
:10018800DA6A000EDA22DF504B6E4B501B6E1C6A87
:100198001D6A1E6A040E1F6EE9EC0FF0960E026EC1
:1001A8007A0E036E59EC1DF0C30E026E7D0E036EBF
:1001B80059EC1DF0BF0E5024D96EDA6A000EDA220F
:1001C800DF504B6E4B501B6E1C6A1D6A1E6A040E74
:1001D8001F6EE9EC0FF0D00E026E780E036E59EC2C
:1001E8001DF0D50E026E7D0E036E59EC1DF0C10E8A
:1001F8005024D96EDA6A000EDA22DF504B6E4B506B
:100208001B6E1C6A1D6A1E6A040E1F6EE9EC0FF055
:10021800110E026E790E036E59EC1DF0260E026E59
:100228007E0E036E59EC1DF0C30E5024D96EDA6AA7
:10023800000EDA22DF504B6E4B501B6E1C6A1D6A93
:100248001E6A040E1F6EE9EC0FF0480E026E780E5F
:10025800036E59EC1DF0B10E026E7D0E036E59EC63
:100268001DF0C50E5024D96EDA6A000EDA22DF506E
:100278004B6E4B501B6E1C6A1D6A1E6A040E1F6E65
:10028800E9EC0FF0AE0E026E790E036E59EC1DF01C
:100298000B0E026E7E0E036E59EC1DF0C70E502435
:1002A800D96EDA6A000EDA22DF504B6E4B501B6EA5
:1002B8001C6A1D6A1E6A040E1F6EE9EC0FF0420EDE
:1002C800026E7A0E036E59EC1DF0F90E026E7D0E69
:1002D800036E59EC1DF0C90E5024D96EDA6A000E6F
:1002E800DA22DF504B6E4B501B6E1C6A1D6A1E6A69
:1002F800040E1F6EE9EC0FF0710E026E790E036E9C
:1003080059EC1DF06D0E026E740E036E59EC1DF063
:10031800DE0E026E7D0E036E59EC1DF00001CB510E
:100328001B6E1C6A1D6A1E6A040E1F6EE9EC0FF034
:10033800CC0E026E790E036E59EC1DF0BA0E026EE9
:100348007D0E036E59EC1DF00001CC511B6E000EA2
:100358001BBEFF0E1C6E1D6E1E6E040E1F6EE9EC9A
:100368000FF0260E026E780E036E59EC1DF0CC0EBF
:10037800026E7D0E036E59EC1DF00001CD511B6E0F
:100388001C6A1D6A1E6A040E1F6EE9EC0FF0790ED6
:10039800026E770E036E59EC1DF0E70E026E7D0EAD
:1003A800036E59EC1DF0CEC01BF0CFC01CF01D6AC7
:1003B8001E6A040E1F6EE9EC0FF04B0E026E760EED
:1003C800036E59EC1DF0140E026E7E0E036E59EC8E
:1003D8001DF0D0C01BF0D1C01CF01D6A1E6A040EAF
:1003E8001F6EE9EC0FF0310E026E770E036E59ECBA
:1003F8001DF01D0E026E7E0E036E59EC1DF0D2C06C
:100408001BF0D3C01CF01D6A1E6A040E1F6EE9ECB7
:100418000FF0040E026E780E036E59EC1DF0CB0E31
:10042800026E740E036E59EC1DF05ED2020E471870
:100438004810D8A403D0010E4F6E56D248BE54D2ED
:10044800485004E1030E475CD8A04ED2DE0E016E80
:10045800000E026E20EE02F04950D9264A50DA22E8
:10046800DECF03F0DDCF04F0000E066E080E056E39
:10047800A6EC1CF0000E0001E56F20EE04F04950D8
:10048800D9264A50DA22DECF4BF0DDCF4CF04BC0F4
:10049800D9FF4CC0DAFF3D0EDE18D8A412D0040EE6
:1004A80047184810D8A40DD020EE06F04950D92698
:1004B8004A50DA22DECF08F0DDCF09F00CEC14F058
:1004C8000CD020EE04F04950D9264A50DA22DECF6B
:1004D80008F0DDCF09F00CEC14F008C051F009C0A9
:1004E80052F0DE0E0D6E000E0E6ED30E0F6E7E0EE7
:1004F800106E7EEC1BF00009D8A452BE13D05250E7
:1005080003E15104D8A00ED052BE06D052500AE1E1
:10051800110E515CD8B006D0B70E5024D96EDA6AE5
:10052800000E01D1DE0E0D6E000E0E6E8E0E0F6ED9
:100538007E0E106E7EEC1BF00009D8A452BE0ED0C1
:1005480052BE06D052500AE1020E515CD8B006D015
:10055800B90E5024D96EDA6A000EE5D0DE0E0D6EA3
:10056800000E0E6E800E0F6E7E0E106E7EEC1BF06F
:100578000009D8A452BE0ED052BE06D052500AE18D
:10058800020E515CD8B006D0BB0E5024D96EDA6A80
:10059800000EC9D0DE0E0D6E000E0E6ED80E0F6E58
:1005A8007E0E106E7EEC1BF00009D8A452BE0ED051
:1005B80052BE06D052500AE1020E515CD8B006D0A5
:1005C800BD0E5024D96EDA6A000EADD0DE0E0D6E67
:1005D800000E0E6E640E0F6E7E0E106E7EEC1BF01B
:1005E8000009D8A452BE0ED052BE06D052500AE11D
:1005F800200E515CD8B006D0C10E5024D96EDA6AEC
:10060800000E91D0DE0E0D6E000E0E6E470E0F6EB0
:100618007E0E106E7EEC1BF00009D8A452BE14D0DA
:10062800525004E1050E515CD8A00ED052BE06D03F
:1006380052500AE1330E515CD8B006D0C30E502494
:10064800D96EDA6A000E6FD0DE0E0D6E000E0E6ED9
:10065800AA0E0F6E7E0E106E7EEC1BF00009D8A459
:1006680052BE0ED052BE06D052500AE1020E515C64
:10067800D8B006D0C50E5024D96EDA6A000E53D011
:10068800DE0E0D6E000E0E6E950E0F6E7E0E106E47
:100698007EEC1BF00009D8A452BE0ED052BE06D084
:1006A80052500AE1020E515CD8B006D0C70E502451
:1006B800D96EDA6A000E37D0DE0E0D6E000E0E6EA1
:1006C800BC0E0F6E7E0E106E7EEC1BF00009D8A4D7
:1006D80052BE0ED052BE06D052500AE1020E515CF4
:1006E800D8B006D0BF0E5024D96EDA6A000E1BD0DF
:1006F800DE0E0D6E000E0E6E870E0F6E7E0E106EE5
:100708007EEC1BF00009D8A452BE11D052BE06D010
:1007180052500DE1020E515CD8B009D0C90E5024D8
:10072800D96EDA6A000EDA2251C0DFFFBFD0DE0EC2
:100738000D6E000E0E6E6B0E0F6E7E0E106E7EEC42
:100748001BF00009D8A452BE0DD052BE06D052509C
:1007580009E1080E515CD8B005D051C0CBF0010EAC
:100768004F6EA4D0DE0E0D6E000E0E6EB60E0F6E1E
:100778007E0E106E7EEC1BF00009D8B413D052AE7A
:1007880006D0E80E515CFF0E5258D8A00BD052BECE
:1007980006D0525007E1190E515CD8B003D051C0B1
:1007A800CCF0DDD7DE0E0D6E000E0E6EC80E0F6E8D
:1007B8007E0E106E7EEC1BF00009D8A452BE11D03C
:1007C800525004E1320E515CD8A00BD052BE06D074
:1007D800525007E1FB0E515CD8B003D051C0CDF0A8
:1007E80065D0DE0E0D6E000E0E6E790E0F6E7E0E4B
:1007F800106E7EEC1BF00009D8A452BE13D05250E4
:1008080004E1640E515CD8A00DD052BE06D0E90EAA
:10081800515C030E5258D8B005D051C0CEF052C02A
:10082800CFF044D0DE0E0D6E000E0E6EA30E0F6ECE
:100838007E0E106E7EEC1BF00009D8A452BE13D0B9
:10084800525004E1640E515CD8A00DD052BE06D0BF
:10085800E90E515C030E5258D8B005D051C0D0F003
:1008680052C0D1F023D0DE0E0D6E000E0E6E370E84
:100878000F6E7E0E106E7EEC1BF00009D8A452BEDF
:100888000DD052BE06D0850E515C030E5258D8B01A
:1008980005D051C0D2F052C0D3F008D0010E4E6E30
:1008A800EA0E026E790E036E59EC1DF04E50D8A474
:1008B8001BD0ACEC21F0140E026E7C0E036E59ECCA
:1008C8001DF051C01BF052C01CF0000E1CBEFF0EE4
:1008D8001D6E1E6E010E1F6EE9EC0FF0CB0E026E40
:1008E800740E036E59EC1DF04F50D8B412003B0E35
:1008F800026E7C0E036E59EC1DF00001CB51D8A49A
:1009080007D0BF0E026E770E036E59EC1DF01AD099
:10091800CB05D8A407D0550E026E770E036E59EC9E
:100928001DF010D0010ECB6507D05E0E026E7A0E58
:10093800036E59EC1DF006D0CB0E026E740E036EDA
:1009480059EC1DF0D70E026E7C0E036E59EC1DF0AB
:100958000001CC511B6E000E1BBEFF0E1C6E1D6EDF
:100968001E6E040E1F6EE9EC0FF0C80E026E7C0EB0
:10097800036E59EC1DF0F40E0001CC19D8A407D071
:10098800850E026E7C0E036E59EC1DF01200F90EF6
:10099800CC19D8A407D0800E026E7D0E036E59ECD8
:1009A8001DF01200CC51D8A407D0520E026E7D0E55
:1009B800036E59EC1DF01200050ECC19D8A407D00F
:1009C800610E026E7C0E036E59EC1DF012000C0EC7
:1009D800CC19D8A407D07F0E026E7B0E036E59EC9B
:1009E8001DF01200CB0E026E740E036E59EC1DF052
:1009F800120020EE02F04950D9264A50DA2210EEB1
:100A080001F0DE50E126DD50E222E7504B6E4B50FC
:100A1800076E086ADBEC1FF00750556E4704481054
:100A2800D8B412D020EE02F04950D9264A50DA2222
:100A3800DECF4BF0DDCF4CF04BC0D9FF4CC0DAFF16
:100A48003F0EDE18D8A408D30C0E026E770E036E84
:100A580059EC1DF0750E026E7D0E036E59EC1DF0FB
:100A6800D50E026E750E036E59EC1DF0830E026EE4
:100A7800750E036E59EC1DF0FD0E026E750E036EB9
:100A880059EC1DF0240E026E760E036E59EC1DF023
:100A9800C00E026E760E036E59EC1DF00B0E026E40
:100AA800740E036E59EC1DF0F10E026E780E036E93
:100AB80059EC1DF0E60E026E760E036E59EC1DF031
:100AC8003C0E026E740E036E59EC1DF02A0E026E77
:100AD800750E036E59EC1DF01200020EE3EC19F0CE
:100AE8000009D8A407D08C0E026E780E036E59EC5C
:100AF8001DF012000D0E06EC21F04B6E4B505A6E95
:100B08005B6A1A0E5A185B10D8A407D0EA0E026E58
:100B18007B0E036E59EC1DF012D02A0E5A185B108A
:100B2800D8A407D0FF0E026E7B0E036E59EC1DF0A1
:100B380006D0F70E026E7A0E036E59EC1DF0490EC0
:100B4800026E710E036E59EC1DF0840E026E710E6A
:100B5800036E59EC1DF096D0010E06EC21F04B6E99
:100B68004B505A6E5B6A5A505B6E5A6A020E06EC1C
:100B780021F04B6E4B505A26000E5B224F0E026E30
:100B88007E0E036E59EC1DF05AC04BF05BC04CF062
:100B9800040E4D6E4C344C324B324D2EFBD74BC0AD
:100BA8001BF04CC01CF0000E1CBEFF0E1D6E1E6E0E
:100BB800060E1F6EE9EC0FF0030E06EC21F04B6EEB
:100BC8004B505A6E5B6A5A505B6E5A6A040E06ECBA
:100BD80021F04B6E4B505A26000E5B22560E026EC9
:100BE8007E0E036E59EC1DF05AC04BF05BC04CF002
:100BF800040E4D6E4C344C324B324D2EFBD74BC04D
:100C08001BF04CC01CF0000E1CBEFF0E1D6E1E6EAD
:100C1800060E1F6EE9EC0FF0050E06EC21F04B6E88
:100C28004B505A6E5B6A5A505B6E5A6A060E06EC57
:100C380021F04B6E4B505A26000E5B225D0E026E61
:100C48007E0E036E59EC1DF05AC04BF05BC04CF0A1
:100C5800040E4D6E4C344C324B324D2EFBD74BC0EC
:100C68001BF04CC01CF0000E1CBEFF0E1D6E1E6E4D
:100C7800060E1F6EE9EC0FF00D0E9FEC22F0C80E69
:100C88003CEC22F025EC22F00009D8B465D7CB0E55
:100C9800026E740E036E59EC1DF01200990E026E6E
:100CA800760E036E59EC1DF0740E026E730E036E11
:100CB80059EC1DF0A70E026E710E036E59EC1DF073
:100CC8002DEC21F001C060F002C061F003C062F0B9
:100CD80004C063F03AD05EEC1AF02DEC21F000016C
:100CE8006051015C4B6E615102584C6E6251035861
:100CF8004D6E635104584E6E4E504D104C1004E129
:100D0800C90E4B5CD8A021D02DEC21F001C060F0B9
:100D180002C061F003C062F004C063F0A50E026E69
:100D28007D0E036E59EC1DF06BEC22F001C01BF038
:100D380002C01CF003C01DF004C01EF0050E1F6E9B
:100D4800E9EC0FF00D0E9FEC22F025EC22F00009E3
:100D5800D8B4C1D7CB0E026E740E036E59EC1DF0D9
:100D68001200000E546E000E536E2DEC21F001C0DF
:100D78004FF002C050F003C051F004C052F005D04B
:100D88000A0E8FEC1EF0534A542A2DEC21F04F50D6
:100D9800015C4B6E505002584C6E515003584D6ECA
:100DA800525004584E6E4E504D104C1004E1640ED3
:100DB8004B5CD8A0E5D753C01BF054C01CF01D6A8B
:100DC8001E6A060E1F6EE9EC0FF0310E026E790EE8
:100DD800036E59EC1DF012005E50D8A406D0B10E77
:100DE800026E7A0E036E59EC1DF05EA206D0AC0EB0
:100DF800026E750E036E59EC1DF05EA006D0570EFC
:100E0800026E750E036E59EC1DF05EA406D0510EED
:100E1800026E790E036E59EC1DF05EA61200AE0E3E
:100E2800026E780E036E59EC1DF012007A0E026EF7
:100E38007A0E036E59EC1DF083BA07D08B0E026E42
:100E48007D0E036E59EC1DF012006A0E026E7D0EC7
:100E5800036E59EC1DF01200380E026E7D0E036E03
:100E680059EC1DF0A5EC22F001C01BF002C01CF0EB
:100E78001D6A1E6A040E1F6EE9EC0FF0CB0E026E9F
:100E8800740E036E59EC1DF0450E026E7D0E036E56
:100E980059EC1DF0AAEC22F001C01BF002C01CF0B6
:100EA8001D6A1E6A040E1F6EE9EC0FF0CB0E026E6F
:100EB800740E036E59EC1DF01200BDEC22F04B6E5F
:100EC8004B50586E596A58505910D8A407D0E60E9E
:100ED800026E7C0E036E59EC1DF012005804591076
:100EE800D8A407D01E0E026E7D0E036E59EC1DF0BD
:100EF8001200020E58185910D8A407D02B0E026EF3
:100F08007D0E036E59EC1DF01200280E026E7C0E49
:100F1800036E59EC1DF01200030E47184810D8A4B0
:100F280014D020EE04F04950D9264A50DA22DECFF8
:100F38004BF0DDCF4CF04BC0D9FF4CC0DAFF310E7F
:100F4800DE18D8A402D0010E01D0000E0001AD6F4A
:100F5800AD51D8B41200BF0E026E710E036E59EC7B
:100F68001DF01200000E566EFC0E026E740E036E1B
:100F780059EC1DF0C00E026E7B0E036E59EC1DF08D
:100F88000BD00F0E99EC22F025EC22F00009D8B412
:100F980003D046EC22F0566E1B0E5618D8B4120039
:100FA800F0D7000E576E680E026E720E036E59EC83
:100FB8001DF0D50E026E720E036E59EC1DF0E00E98
:100FC800026E7A0E036E59EC1DF02DEC21F001C073
:100FD80060F002C061F003C062F004C063F037D073
:100FE8002DEC21F000016051015C4B6E61510258FB
:100FF8004C6E625103584D6E635104584E6E4E50FC
:101008004D104C101AE1050E4B5CD8B016D02DECE3
:1010180021F001C060F002C061F003C062F004C0BA
:1010280063F0F00ED5EC1AF0730ED5EC1AF0300E12
:10103800D5EC1AF0F70ED5EC1AF0D4EC1DF025EC2F
:1010480022F00009D8B403D046EC22F0576E1B0EEC
:101058005718D8B41200C4D755504B6E4C6A4C5030
:10106800000AD8A412004B50610AD8B436D5030A36
:10107800D8B414D6060AD8B474D6010AD8B4ACD6F3
:10108800080AD8B4D3D6030AD8B446D7010AD8B4C4
:1010980014D71E0AD8B485D7020AD8B4DDD6070AF1
:1010A800D8A412005FD701C003F002C004F0D890A2
:1010B80004320332D8900432033203503F0B0B6ED4
:1010C8000250030B066ED8900230046E0130036E96
:1010D8000350010B0A6E0150010B096E09C007F09D
:1010E800800E0B24D96EDA6A020EDA22DF50056E02
:1010F80005C008F03E0E0B18D8A408D00A50D8A492
:1011080003D00950D8B402D03F0E086E380E0B1821
:10111800D8A408D00A50D8A403D00950D8B402D013
:10112800420E086E300E0B18D8A408D00A50D8A466
:1011380003D00950D8B402D0440E086E200E0B1804
:10114800D8A408D00A50D8A403D00950D8B402D0E3
:10115800460E086E1E0E0B18D8A408D00A50D8A444
:1011680003D00950D8B402D04B0E086E180E0B18D5
:10117800D8A408D00A50D8A403D00950D8B402D0B3
:101188004E0E086E0E0E0B18D8A408D00A50D8A41C
:1011980003D00950D8B402D0500E086E0C0E0B18AC
:1011A800D8A408D00A50D8A403D00950D8B402D083
:1011B800520E086E0001CB51D8A430D03F0E0B1848
:1011C800D8A408D00A50D8B405D00950D8A402D061
:1011D8003C0E086E3F0E0B18D8A408D00A50D8A4AD
:1011E80005D00950D8B402D03D0E086E1F0E0B185A
:1011F800D8A408D00A50D8B405D00950D8A402D031
:10120800480E086E1F0E0B18D8A45FD00A50D8A439
:101218005CD00950D8B459D0490E56D0CB05D8A4C3
:1012280054D03F0E0B18D8A408D00A50D8B405D013
:101238000750D8A402D03C0E086E3F0E0B18D8A455
:1012480008D00A50D8B405D00750D8B402D03D0E03
:10125800086E3C0E0B18D8A408D00A50D8A405D0A4
:101268000750D8B402D0420E086E1F0E0B18D8A42F
:1012780008D00A50D8B405D00750D8A402D0480ED8
:10128800086E1F0E0B18D8A408D00A50D8B405D081
:101298000750D8B402D0490E086E100E0B18D8A407
:1012A80008D00A50D8A405D00750D8B402D0490EA7
:1012B800086E1C0E0B18D8A408D00A50D8A405D064
:1012C8000750D8B402D04E0E086E0604D8A402D037
:1012D8000C0E085E020E0618D8A402D00C0E0826C2
:1012E800010ECB6571D006A241D005C008F03F0EB3
:1012F8000B18D8A408D00A50D8B405D00950D8A4DF
:1013080002D03C0E086E3F0E0B18D8A408D00A5025
:10131800D8A405D00950D8B402D03D0E086E3E0EB0
:101328000B18D8A408D00A50D8A403D00950D8B4B0
:1013380002D03F0E086E3D0E0B18D8A405D00A50F7
:10134800D8B402D0410E086E1C0E0B18D8A405D0D4
:101358000A50D8A402D0460E086E180E0B18D8A44E
:1013680033D00A50D8A430D0470E2DD00604D8A4C4
:1013780023D0000E0B24D96EDA6A020EDA22DF506F
:10138800086E370E0B18D8A405D00A50D8B402D06E
:10139800590E086E2E0E0B18D8A405D00A50D8B4D2
:1013A80002D0550E086E2D0E0B18D8A40DD00A5079
:1013B800D8B40AD0550E07D0400E0B24D96EDA6A7D
:1013C800020EDA22DF50086ECC51082608501200AF
:1013D80090C001F091C002F057EC08F0456E90C043
:1013E8003AF091C03BF0050E3C6ED8903B323A3251
:1013F8003C2EFBD73A50070B3F6E00019151030B6F
:10140800406E000E416E4050D8B405D03F50D8B45D
:1014180002D0010E416E4150D8B402D0010E01D065
:10142800000E436EB70E5D24D96EDA6A000EDA221A
:10143800DF50466E000E426EAAC044F0010ECB6526
:10144800CBD0010E436EC8D04350D8B412D08A51C5
:10145800E85D8B51E959D8A00CD0000E01014E6F00
:10146800000E4F6F000E506F000E516F010E0001FD
:10147800AB6F500E8E5DC30E8F59D8B004D0050ED9
:101488008E27000E8F23F50E8E5D010E8F59D8A082
:10149800B5D0000EA96FA9C0AAF0B0D0000E8F6F0A
:1014A800000E8E6FC90E5D24D96EDA6A000EDA223C
:1014B800DF50D8A403D05A0E446E0BD0010151510D
:1014C80050114F1104E10A0E4E5DD8A004D0AAC0F5
:1014D80044F0010E426E4250D8B490D045C004F09A
:1014E80044C005F046509BEC21F045C0A4F0000133
:1014F800AD51D8B403D0455085EC17F0000E01016A
:101508004A6F000E4B6F000E4C6F000E4D6F000EB1
:10151800466F000E476F000E486F000E496F020EAF
:101528001BD08851E85D8951E959D8B018D0B90E57
:101538005D24D96EDA6A000EDA22DF50D8B406D0FC
:10154800000E046E4650CDEC21F005D0A4C004F086
:101558004650CDEC21F0000E0001AB6F4FD0435048
:10156800D8B44CD0A4514518D8B448D0B90E5D248D
:10157800D96EDA6A000EDA22DF50D8B408D045C036
:1015880004F044C005F046509BEC21F022D0C70E71
:101598005D24D96EDA6A000EDA22DF50D8B40DD095
:1015A80045C004F044C005F046509BEC21F0A4C0AF
:1015B80004F04650CDEC21F00CD0A4C004F0465005
:1015C800CDEC21F045C004F044C005F046509BEC3A
:1015D80021F045C0A4F012D0AB513A6E3B6A3B50A3
:1015E800000AD8A4B8D73A50000AD8B42DD7010AAF
:1015F800D8B454D7030AD8B494D7ADD7260E00016F
:101608008E5D020E8F59D8B047D0C30E5D24D96EB7
:10161800DA6A000EDA22DF503A6E3AC03BF03C6AD2
:101628003D6A3E6A3B5001014A5D3C504B593D5072
:101638004C593E504D59D8A00AD0000E4A6F000EA2
:101648004B6F000E4C6F000E4D6F21EC1AF001012C
:1016580049514811471104E11E0E465DD8A01CD01F
:10166800000E466F000E476F000E486F000E496F60
:10167800BF0E5D24D96EDA6A000EDA22DF50D8A4D4
:10168800D5EC1CF0BD0E5D24D96EDA6A000EDA22A4
:10169800DF50D8A41AEC1FF0050E01014E27000EEA
:1016A8004F2350235123050E4A27000E4B234C236A
:1016B8004D23050E4627000E4723482349231200D1
:1016C800206E050E06EC21F01B6E1B50256E266A57
:1016D80025501C6E1B6A000E1B14256EFF0E1C1471
:1016E800266E060E06EC21F01B6E1B502526000EFA
:1016F800262225C01BF026C01CF01C341C321B32CD
:101708001C341C321B321BC025F01CC026F0020EF4
:101718001B6E64C01CF065C01DF066C01EF067C07B
:101728001FF01B6601D007D01F341F321E321D3236
:101738001C321B2EF6D71C500001645F1D50655BE0
:101748001E50665B1F50675B25C01BF026C01CF04F
:10175800000E1CBEFF0E1D6E1E6E060ED8901B36A8
:101768001C361D361E36E82EF9D71B5064271C5030
:1017780065231D5066231E5067234F0EA86503D0AE
:101788002050D8B411D064C042F165C043F166C09E
:1017980044F167C045F1000E706F000E716F000EC6
:1017A800726F000E736F120064510101425D1B6E6F
:1017B80000016551010143591C6E00016651010188
:1017C80044591D6E00016751010145591E6E1CC028
:1017D8001BF01DC01CF01EC01DF01E6A1DBE1E6839
:1017E8001BC027F01CC028F01DC029F01EC02AF01D
:1017F8002ABE11D02A50291006E1DD0E275C050EFD
:101808002858D8A008D0DC0E276E050E286E000ECA
:10181800296E000E2A6E2AAE12D0240E275CFA0E0C
:101828002858FF0E2958FF0E2A58D8B008D0240E81
:10183800276EFA0E286EFF0E296EFF0E2A6E2ABE3C
:1018480031D02A502910281004E1320E275CD8A084
:1018580029D0CE0E2724016EFF0E2820026EFF0E1F
:101868002920036EFF0E2A20046ED00E056E070E87
:10187800066E000E076E000E086E2EEC1DF001C0FD
:101888000DF002C00EF003C00FF004C010F0AA0E55
:10189800116E050E126E000E136E000E146E64ECBF
:1018A80016F034D02AAE3BD0CF0E275CFF0E285856
:1018B800FF0E2958FF0E2A58D8B031D0320E2724EF
:1018C800016E000E2820026E000E2920036E000E05
:1018D8002A20046ED00E056E070E066E000E076EE7
:1018E800000E086E2EEC1DF001C00DF002C00EF0C7
:1018F80003C00FF004C010F0AA0E116E050E126E90
:10190800000E136E000E146E64EC16F00DC021F07C
:101918000EC022F00FC023F010C024F008D0000E33
:10192800216E000E226E000E236E000E246E21C062
:1019380070F022C071F023C072F024C073F012005E
:10194800000E0001F06F000EEF6F000EEE6F520EEA
:10195800826F010E836F010EF26FF251020D920E2B
:10196800F324D96E010EF420DA6E000EDE6E000E3E
:10197800DD6EF22B050EF265F0D7000EF26FE00E69
:10198800EA6FFF0EEB6F82C0D9FF83C0DAFFDF502A
:10199800EC6FED6BEA51EC27EB51ED23ED5171E162
:1019A8005F0EEC5DD8B06DD002D0824B832B82C025
:1019B800D9FF83C0DAFF200EDE18D8B4F6D7E00EC0
:1019C800EA6FFF0EEB6F82C0D9FF83C0DAFFDF50EA
:1019D800EC6FED6BEA51EC27EB51ED23ED5151E142
:1019E8005F0EEC5DD8B04DD0F251020D920EF3248B
:1019F800D96E010EF420DA6E82C0DEFF83C0DDFFEF
:101A0800EF4BF02B13D0E00EEA6FFF0EEB6FF151A6
:101A1800EC6FED6BEA51EC27EB51ED23ED5110E142
:101A28005F0EEC5DD8B00CD0824B832B82C0D9FFFF
:101A380083C0DAFFDF50F16F200EF119D8A4E3D785
:101A4800E00EEA6FFF0EEB6F82C0D9FF83C0DAFFAA
:101A5800DF50EC6FED6BEA51EC27EB51ED23ED51C4
:101A680010E15F0EEC5DD8B00CD082C0D9FF83C006
:101A7800DAFF000EDF6E824B832BF22B050EF26528
:101A88007ED7000EF26FF251050DFD0EF324F66EAF
:101A98006E0EF420F76E0900F5CFEAF00900F5CFD5
:101AA800EBF0EAC0F6FFEBC0F7FF0800F550240A98
:101AB800D8B420D092C10DF093C10EF0F251050DAB
:101AC800FD0EF324F66E6E0EF420F76E0900F5CFC6
:101AD8000FF00A00F5CF10F07EEC1BF00009D8B427
:101AE80004D0010E0001EE6F05D00001F22BF90EB3
:101AF800F265C9D7F0BF19D0F05104E1020EEF5DCD
:101B0800D8A013D094C10DF095C10EF0C20E0F6E7F
:101B18007E0E106E7EEC1BF00009D8B406D094C17E
:101B2800D9FF95C1DAFF3F0EDF6E0001EE51D8B440
:101B380022D0EFC047F0F0C048F0920E496E010E77
:101B48004A6EF251050D030EF326000EF422FD0E27
:101B5800F324F66E6E0EF420F76E01D8120005001D
:101B6800FA6E0900F550FD6E0900F550FE6EF8504A
:101B7800FF6EFA501200950E026E7B0E036E59EC42
:101B88001DF0120020EE02F04950D9264A50DA2200
:101B9800DECF08F0DDCF09F00CEC14F00850516EE0
:101BA800000E4E6E20EE02F04950D9264A50DA2235
:101BB800DECF4BF0DDCF4CF04BC0D9FF4CC0DAFF85
:101BC8003F0EDE18D8A419D0F80E026E710E036EFF
:101BD80059EC1DF0950E026E700E036E59EC1DF057
:101BE8009E0E026E740E036E59EC1DF0DC0E026E32
:101BF8006F0E036E59EC1DF0120047044810D8A46C
:101C08004CD00E0E026E7B0E036E59EC1DF0C90E01
:101C1800026E7A0E036E59EC1DF03C0E026E7B0EBE
:101C2800036E59EC1DF0010E516E010E4F6E5150AE
:101C38001B6E1C6A1D6A1E6A040E1F6EE9EC0FF00B
:101C48002F0E026E7E0E036E59EC1DF04F50070BDF
:101C58004B6E4C6AD40E4B24D96E000E4C20DA6EB3
:101C6800DF504D6E4D501B6E1C6A1D6A1E6A030EB6
:101C78001F6EE9EC0FF0CB0E026E740E036E59EC7A
:101C88001DF04F2A512A080E4F64D1D7250E026E37
:101C98007B0E036E59EC1DF0120048BE87D04850E9
:101CA80004E1030E475CD8A081D020EE04F049502F
:101CB800D9264A50DA22DECF4BF0DDCF4CF04BC0AC
:101CC800D9FF4CC0DAFF3D0EDE18D8A412D0040E9E
:101CD80047184810D8A40DD020EE06F04950D92650
:101CE8004A50DA22DECF08F0DDCF09F00CEC14F010
:101CF8000CD020EE04F04950D9264A50DA22DECF23
:101D080008F0DDCF09F00CEC14F00850506E51507B
:101D1800D8B415D0090E516012D0800E50600FD083
:101D2800080E5118D8A402D0000E516ED40E5124BA
:101D3800D96EDA6A000EDA2250C0DFFF08D0010E31
:101D48004E6EE20E026E770E036E59EC1DF04E5089
:101D5800D8A41200ACEC21F05150D8A402D0080E3F
:101D6800516E950E026E7D0E036E59EC1DF05150AA
:101D78001B6E1C6A1D6A1E6A010E1F6EE9EC0FF0CD
:101D8800B80E026E7C0E036E59EC1DF050501B6E9F
:101D98001C6A1D6A1E6A030E1F6EE9EC0FF0CB0E5B
:101DA800026E740E036E59EC1DF01200AB0E026E3B
:101DB8007B0E036E59EC1DF01200B1EC1BF0F29E85
:101DC800898C92800F013881000E0EEC1BF00F01F8
:101DD80038918990929000F000F000F000F0928223
:101DE8000F013883010E0EEC1BF00F013893899216
:101DF800929200F000F000F000F092840F01388514
:101E0800020E0EEC1BF00F0138958994929400F0A5
:101E180000F000F000F092860F013887030E0EECF8
:101E28001BF00F0138978996929600F000F000F0A9
:101E380000F0928A0F01388B040E0EEC1BF00F0194
:101E4800389B899A929A00F000F000F000F0968092
:101E58000F013C81050E0EEC1BF00F013C918D909B
:101E6800969000F000F000F000F096820F013C839D
:101E7800060E0EEC1BF00F013C938D92969200F02B
:101E880000F000F000F096840F013C85070E0EEC80
:101E98001BF00F013C958D94969400F000F000F033
:101EA80000F093840F013985080E0EEC1BF00F012A
:101EB80039958A94939400F000F000F000F093862E
:101EC8000F013987090E0EEC1BF00F0139978A961E
:101ED800939600F000F000F000F0899CF28E00016B
:101EE800AF51D8A403D0010EAF6F1200000E086ED8
:101EF800380E0824D96EDA6A010EDA22DF50036E32
:101F0800046AFB51035CFC510458D8B02AD0240E53
:101F18000824D96EDA6A010EDA22000EDF6E2E0E60
:101F28000824D96EDA6A010EDA22040EDF6006D0C0
:101F38002E0E0824D96EDA6A010E29D008C003F0E3
:101F4800010E046E000E056E032A03D0D8900436E5
:101F58000536032EFBD7045000019813055099133A
:101F68002FD02E0E0824D96EDA6A010EDA22000E5E
:101F7800DF6E240E0824D96EDA6A010EDA22040E06
:101F8800DF6008D0240E0824D96EDA6A010EDA223E
:101F9800DF2A16D008C003F0010E046E000E056E8D
:101FA800032A03D0D89004360536032EFBD7041C29
:101FB800066E051C076E0650000198170750991702
:101FC800082A090E086494D71200000E326E000E1B
:101FD800316E000E2F6E010E306E0C0E1F6402D093
:101FE8000C0E1F6E1F50D8A402D0010E1F6E1EAE1D
:101FF8000BD0010E2F6E1B6C1C1ED8B01C2A1D1E88
:10200800D8B01D2A000E1E56000E356E000E346E16
:102018001BC001F01CC002F01DC003F01EC004F07C
:102028000A0E056E000E066E000E076E000E086E94
:10203800DDEC17F00150300F336E230E3424D96EC7
:10204800000E3520DA6E33C0DFFF1BC00DF01CC058
:102058000EF01DC00FF01EC010F00A0E116E000E1B
:10206800126E000E136E000E146E64EC16F00DC0A6
:102078001BF00EC01CF00FC01DF010C01EF0344A3B
:10208800352A35BEC5D7355004E10C0E345CD8A0CE
:10209800BFD7000E356E0B0E346E230E3424D96E66
:1020A800000E3520DA6EDF50336E34503510D8B458
:1020B8000FD0300E3318D8A40BD03050D8B408D075
:1020C800230E3424D96E000E3520DA6E200EDF6E12
:1020D80034503510D8B404D0300E3318D8B40CD0DE
:1020E800000E306E31503210D8A406D0010E3424C0
:1020F800316E000E3520326E3406D8A0350635AE66
:10210800CCD72F50D8B408D0230E3124D96E000E66
:102118003220DA6E2D0EDF6E000E356E0B0E346E29
:10212800230E3424D96E000E3520DA6EDF50336E5C
:102138001F50206E216A2050345C3550800A226E70
:102148002150800A2258D8A004D0200E3318D8B4C1
:1021580003D033509FEC22F03406D8A0350635BEA4
:102168001200DED700019B51D8A413D0000E9C6F3B
:10217800000E0101526F520E0001826F010E836F33
:10218800C00E026E010E036E59EC1DF0010E000127
:102198009B6F25EC22F00009D8B4120046EC22F01F
:1021A8005C6E74D063EC20F0000E00019C6F000E92
:1021B8000101526F520E0001826F010E836FC00E33
:1021C800026E010E036E59EC1DF012009C51D8B43A
:1021D80012008207D8A083079C07080E9FEC22F004
:1021E800200E9FEC22F0080E9FEC22F012000D0E3C
:1021F8009FEC22F00A0E9FEC22F000019C51D8B40B
:10220800D3D782C0D9FF83C0DAFF000EDF6EFDECA2
:1022180015F0A4EC0CF0C8D763EC20F0000E000118
:102228009C6F000E0101526F520E0001826F010E69
:10223800836FC00E026E010E036E59EC1DF05FEC49
:1022480019F01200200E5C6EE00EF36FFF0EF46FB3
:102258005C50F56FF66BF351F527F451F623F65100
:102268002EE15F0EF55DD8B012001E0E9C611200C3
:102278005C509FEC22F082C0D9FF83C0DAFF5CC0BB
:10228800DFFF0001824B832B9C2B12005C50000166
:10229800F36FF46BF451000AD8A4D6D7F351080AA7
:1022A800D8B494D7010AD8B4CDD7040AD8B49FD7E4
:1022B8001F0AD8B4B1D70A0AD8B474D7C5D7120040
:1022C800CEC029F0CFC02AF000018C51E85D016E24
:1022D8008D51E959026E036AD8A003060350046EB3
:1022E800800E056E3F0E066E000E076E000E086E1D
:1022F8002EEC1DF001C00DF002C00EF003C00FF06F
:1023080004C010F029C011F02AC012F0136A146A30
:1023180064EC16F00DC02BF00EC02CF00FC02DF0A1
:1023280010C02EF02EAE08D0000E2B6E000E2C6EB4
:10233800000E2D6E000E2E6E2EBE11D02E502D10BA
:1023480006E1810E2B5C3F0E2C58D8A008D0800ED9
:102358002B6E3F0E2C6E000E2D6E000E2E6E020E92
:102368001B6E68C01CF069C01DF06AC01EF06BC00F
:102378001FF01B6601D007D01F341F321E321D32DA
:102388001C321B2EF6D7020E206E2BC021F02CC05B
:1023980022F02DC023F02EC024F0206601D007D0F3
:1023A80024342432233222322132202EF6D71C50F4
:1023B800215C256E1D502258266E1E502358276E0C
:1023C8001F502458286E000168512524686F6951F0
:1023D8002620696F6A5127206A6F6B5128206B6F1E
:1023E800070E1B6E68C01CF069C01DF06AC01EF0A5
:1023F8006BC01FF01B6601D007D01F341F321E327E
:102408001D321C321B2EF6D71C507F0B0001AA6F01
:1024180068517F0BA96F120047044810D8B412D036
:1024280020EE02F04950D9264A50DA22DECF4BF08E
:10243800DDCF4CF04BC0D9FF4CC0DAFF3F0EDE18A1
:10244800D8A413D0D90E026E730E036E59EC1DF08A
:10245800690E026E7B0E036E59EC1DF0720E026E51
:10246800760E036E59EC1DF0120048BE19D0485084
:1024780004E1020E475CD8A013D020EE02F04950C8
:10248800D9264A50DA22DECF02F0DDCF03F077EC0E
:102498001CF0F00E021400017C6FFF0E03147D6F18
:1024A8007CC051F07DC052F0000E4F6E51C003F059
:1024B80052C004F06BEC1EF0E70E026E7E0E036E47
:1024C80059EC1DF0000E536E51C001F052C002F0DD
:1024D80062EC22F059EC22F0514A522A200E9FEC6D
:1024E80022F05350070B070AD8A403D0200E9FEC04
:1024F80022F0532A0F0E5364E7D7100E515E000ED8
:10250800525A000E536E51C001F052C002F062ECF4
:1025180022F0506E514A522AE00E4B6EFF0E4C6E5E
:1025280050504D6E4E6A4B504D264C504E224E50D8
:1025380008E15F0E4D5CD8B004D050509FEC22F0FB
:1025480003D02E0E9FEC22F0532A0F0E5364DBD7D4
:10255800CB0E026E740E036E59EC1DF04F2A0F0E4F
:102568004F64A4D70001010E7D27120050EC22F021
:10257800ACEC1DF0000E0001A66F000E9FEC22F0DF
:102588000001A62B090EA665F8D7A70E026E7C0ED1
:10259800036E59EC1DF003EC1DF00009D8A403D01C
:1025A8005E8033EC18F00001CD5193EC22F02DEC55
:1025B80021F001C06CF002C06DF003C06EF004C0E1
:1025C8006FF007D0B451D8B404D0000EB46F79ECD2
:1025D80021F02DEC21F000016C51015CF76F6D5179
:1025E8000258F86F6E510358F96F6F510458FA6F1B
:1025F800FA51F911F81104E1C80EF75DD8A0E2D735
:102608008B80E8C08CF0E9C08DF0CEC001F0CFC05F
:1026180002F0000E046E050E036E40EC21F001C0BE
:1026280007F002C008F0000E0A6E640E096E83EC13
:102638001DF000018C5107248A6F8D5108208B6F83
:10264800CEC001F0CFC002F0000E046E030E036E80
:1026580040EC21F001C007F002C008F0000E0A6E3D
:10266800640E096E83EC1DF000018C510724886FFD
:102678008D510820896F8D5104E1080E8C5DD8A01A
:1026880002D08D05D8B05E84000E83BA010E5D6E4F
:10269800C4C102F0C5C103F059EC1DF0000E486E2C
:1026A800010E476E000E496E000E4A6E1BEC19F0C3
:1026B8005EEC1AF0B6EC10F0D4EC1DF0F9D700017E
:1026C800D251865D246ED3518759256E266AD8A0CB
:1026D80026062650276E27AE08D0000E246E000E60
:1026E800256E000E266E000E276ED251D05D206E2C
:1026F800D351D159216E226AD8A022062250236EC6
:1027080024C001F025C002F026C003F027C004F061
:10271800800E056E3F0E066E000E076E000E086EE8
:102728002EEC1DF001C00DF002C00EF003C00FF03A
:1027380004C010F020C011F021C012F022C013F024
:1027480023C014F064EC16F00DC024F00EC025F080
:102758000FC026F010C027F027BE11D02750261032
:1027680006E1810E245C3F0E2558D8A008D0800EC3
:10277800246E3F0E256E000E266E000E276E24C0B6
:1027880001F025C002F026C003F027C004F024C0E1
:1027980005F025C006F026C007F027C008F02EEC8B
:1027A8001DF001C00DF002C00EF003C00FF004C010
:1027B80010F0800E116E3F0E126E000E136E000E9A
:1027C800146E64EC16F00DC024F00EC025F00FC096
:1027D80026F010C027F024507F0B0001A76F070ECA
:1027E8001B6E24C01CF025C01DF026C01EF027C09B
:1027F8001FF01B6601D007D01F341F321E321D3256
:102808001C321B2EF6D71C507F0B0001A86F12003C
:10281800000E116E000E106E000E0F6E000E0E6E82
:1028280002D0084A092A08C0D9FF09C0DAFF200ED9
:10283800DE18D8B4F6D7F70E0A6EFF0E0B6E08C076
:10284800D9FF09C0DAFFDF500C6E0D6A0A500C265A
:102858000B500D220D500CE1050E0C5CD8B008D0C1
:10286800E0D7000E0F6E010E0E6E084A092A2ED010
:1028780008C0D9FF09C0DAFFDF500A6E0B6A0B5097
:10288800000AD8A423D00A502B0AD8B4EED7060AD7
:10289800D8B4E7D71BD010C001F011C002F0000E69
:1028A800046E0A0E036E40EC21F008C0D9FF09C07F
:1028B800DAFFDF500A6E0A50015E000E025A300E2F
:1028C8000124106E000E0220116ECFD7D00E0A6EB2
:1028D800FF0E0B6E08C0D9FF09C0DAFFDF500C6E7F
:1028E8000D6A0A500C260B500D220D5004E10A0EF9
:1028F8000C5CD8A0D0D70E500F10D8A40DD010C0A3
:102908000AF011C00BF00A1E0B1E0A4A0B2A0AC055
:1029180008F00BC009F0120010C008F011C009F04F
:102928001200000E4E6E000E4D6E610E516E000EBE
:10293800506E010E4F6E4FC001F050C002F0000EF5
:10294800046E050E036E40EC21F0FD0E0124F66EB8
:102958006E0E0220F76E0900F5CF52F00A00F5CF8F
:1029680053F052C0F6FF53C0F7FF0800F550240A91
:10297800D8B447D052C0F6FF53C0F7FF0800F5504F
:102988005118D8A434D052C002F053C003F059EC07
:102998001DF052C001F053C002F05EEC1FF0015070
:1029A8000C084B6E0250D8A0E82A00084C6E03D0E1
:1029B800200E9FEC22F04B06D8A04C064B28F8E1DD
:1029C8004C28D8A4F5D74D4A4E2A4EBE10D04E50AA
:1029D80004E1060E4D5CD8A00AD0000E4E6E000E23
:1029E8004D6ECB0E026E740E036E59EC1DF04F4AFD
:1029F800502A50BEA0D7505004E1FA0E4F5CD8A020
:102A08009AD7512A7A0E516492D74D504E10D8B4A5
:102A18001200CB0E026E740E036E59EC1DF01200FC
:102A28000C6EB70E5D24D96EDA6A000EDA22DF501A
:102A38000B6E0C50070B076E086AD40E0724D96E6C
:102A4800000E0820DA6EDF50096EBB0E5D24D96EC9
:102A5800DA6A000EDA22DF50D8B415D0B90E5D2438
:102A6800D96EDA6A000EDA22DF50D8B407D00C50DB
:102A7800070B046E0B5018EC22F005D009C004F0C7
:102A88000B5018EC22F0F00E0101146F730E156F45
:102A9800070E166F0C50070B176F74C018F175C02E
:102AA80019F176C01AF15EC01BF1CBC01CF1C70E3C
:102AB8005D24D96EDA6A000EDA22DF501D6FC90E66
:102AC8005D24D96EDA6A000EDA22DF501E6FF70E27
:102AD8001F6FB90E5D24D96EDA6A000EDA22DF5054
:102AE800D8B41200000E0D6E140E0D24D96EDA6AD9
:102AF800010EDA22DF500A6E0A50D5EC1AF0F70EF2
:102B08000A18D8B412000D2A3F0E0D64EDD7120032
:102B1800B70E5D24D96EDA6A000EDA22DF50106E25
:102B280000019151136ECBA10ED01438F00B100B8D
:102B38000F6ED89014300F0B0F100E6E1450E00B60
:102B48000E10146E02D090C014F0AB51D8A412002D
:102B580090519111D8A404D01050EDEC21F012003E
:102B68001350D8A417D01450D8B414D0010E116E35
:102B7800010E126E12501418D8A404D0115014EC7F
:102B880015F0120012501224126E112A1250D8B4E5
:102B98001200F0D71304D8A408D01450D8A405D034
:102BA800F40ECC6FACEC21F012001350D8B406D060
:102BB800200E1418D8A402D0F90EF3D7030E131858
:102BC800D8A405D01450D8A402D0000EEAD71350C8
:102BD800D8B406D0800E1418D8A402D0050EE1D7B8
:102BE800020E1318D8A412001450D8A412000C0E08
:102BF800D8D700019A51D8A42BD0000E0C6E000E25
:102C08000B6E0BC009F00CC00AF0050ED8900936FF
:102C18000A36E82EFBD7000E0924D96E030E0A20C7
:102C2800DA6E000EDF6E0B4A0C2A0CBEEAD70C5087
:102C380004E1040E0B5CD8A0E4D7000E0001816FFC
:102C4800000E806F000E7F6F000E7E6F010E9A6F70
:102C5800520E016E010E026E5EEC1FF00150021062
:102C6800D8B4120080C009F081C00AF0050ED890CF
:102C780009360A36E82EFBD7000E0924016E030E2A
:102C88000A20026E520E036E010E046E000E066ECE
:102C98001E0E056EA6EC1CF080C07EF081C07FF091
:102CA8000001804B812B81BF1200815104E1040E89
:102CB800805DD8A01200000E816F000E806F120098
:102CC800000E166E14AE0AD0141E131E121E116CBE
:102CD800000E122213221422010E166E10AE0AD014
:102CE800101E0F1E0E1E0D6C000E0E220F2210223B
:102CF800010E161A000E176E000E186E000E196ED1
:102D0800000E1A6E1150121013101410D8B42AD0D5
:102D1800010E156E06D0D8901136123613361436B9
:102D2800152A14AEF8D7D8901736183619361A3629
:102D380011500D5C12500E5813500F581450105863
:102D4800D8A009D011500D5E12500E5A13500F5AC8
:102D58001450105A1780D89014321332123211328C
:102D6800152EE1D71650D8B408D01A1E191E181EF1
:102D7800176C000E182219221A2217C00DF018C05D
:102D88000EF019C00FF01AC010F012005555555525
:102D980055555555585858585858585858585858B7
:102DA8005858585860606057606060605B5A545467
:102DB8005B5454545757565656565555515A5352B4
:102DC800505153524F4E4E504D4D4C594949494917
:102DD8004949494947474747474747474A4A4A4A67
:102DE8004A4A4A4A4C4C4C4C49494C4B303030309A
:102DF8003030303049494949494949494961616157
:102E0800555555554E4E4E4E4D4D4C4B49494949D9
:102E180049494949545454545352515048484848D0
:102E2800484848484F4E4E4E4D4D4C4A47464646F8
:102E38004646464646464646464646464544444431
:102E480044444444434242424141403E000E506E95
:102E5800000E4F6E000E556E530E026E7B0E036E03
:102E680059EC1DF043D0D5EC18F0200E9FEC22F061
:102E78002DEC21F001C051F002C052F003C053F014
:102E880004C054F002D05EEC1AF02DEC21F0515041
:102E9800015C4B6E525002584C6E535003584D6EA5
:102EA800545004584E6E4E504D104C1004E1A70E6D
:102EB8004B5CD8A0E8D70D0E9FEC22F025EC22F051
:102EC8000009D8B403D046EC22F0556E0D0E551803
:102ED800D8A408D0000E556ECB0E026E740E036E89
:102EE80059EC1DF0320E4F26000E50221B0E5518BD
:102EF800D8A4B9D7CB0E026E740E036E59EC1DF030
:102F08001200386E38C001F0026A000E046E0C0E12
:102F1800036EA1EC19F00104376E38C001F0026AA3
:102F2800000E046E0C0E036E46EC1BF00150396E59
:102F3800FC0E026E7E0E036E59EC1DF0AA0E3924AB
:102F4800D96EDA6A010EDA22DF509FEC22F09E0E6B
:102F58003924D96EDA6A010EDA222D0EDE18D8B4B9
:102F680009D09E0E3924D96EDA6A010EDA22DF50B2
:102F78009FEC22F037501B6E1C6A1D6A1E6A010EF8
:102F88001F6EE9EC0FF0FC0E026E7E0E036E59EC1C
:102F98001DF038501B6E1C6A1D6A1E6A030E1F6ED8
:102FA800E9EC0FF0CB0E026E740E036E59EC1DF0B7
:102FB8001200000E0A6E04AE0AD0041E031E021E82
:102FC800016C000E022203220422010E0A6E08AED2
:102FD80008D0081E071E061E056C000E06220722D2
:102FE80008220550061007100810D8B424D0010E86
:102FF800096E06D0D8900536063607360836092AEF
:1030080008AEF8D70550015C06500258075003581F
:1030180008500458D8A008D00550015E0650025A3E
:103028000750035A0850045AD8900832073206321B
:103038000532092EE7D70A50D8B408D0041E031E5B
:10304800021E016C000E02220322042201C001F0BC
:1030580002C002F003C003F004C004F01200010E25
:103068000001B76F000EB96F010EBB6F000EBD6F88
:10307800000EBF6F020EC16F050EC36F010EC56F44
:10308800010EC76F000EC96F010EB86F010EBA6F3F
:10309800000EBC6F000EBE6F000EC06F020EC26F36
:1030A800050EC46F000EC66F010EC86F000ECA6F02
:1030B800000ECB6F000ECC6F960ECD6F020ECF6F49
:1030C800EE0ECE6F020ED16FEE0ED06F010ED36FE3
:1030D800F40ED26F000E0A6E3E0E0A24F66EF76AE0
:1030E8006F0EF722D40E0A24D96EDA6A000EDA229D
:1030F8000800F5CFDFFF0A2A070E0A64EDD7ACEC0B
:1031080021F01200000E4C6E000E4B6E4704481062
:10311800D8A428D03F0E026E730E036E59EC1DF032
:1031280008D025EC22F00009D8B403D046EC22F0F0
:103138004C6E1F0E4C64F5D74C509FEC22F0CB0E12
:10314800026E740E036E59EC1DF04CC007F0086A4D
:1031580014EC20F0590E07180810D8A416D0010E48
:103168004B6E13D020EE02F04950D9264A50DA228D
:10317800DECF0DF0DDCF0EF0F50E0F6E7E0E106E69
:103188007EEC1BF00009D8A4EAD74B50D8B4120043
:1031980033EC18F09C0E026E770E036E59EC1DF09E
:1031A8001200100E026E7D0E036E59EC1DF0AFEC8E
:1031B80022F001C003F002C004F06BEC1EF0F40E24
:1031C800026E7C0E036E59EC1DF0000E0BEC22F023
:1031D80001C01BF002C01CF01D6A1E6A030E1F6EA0
:1031E800E9EC0FF0960E026E7C0E036E59EC1DF0A2
:1031F800B7EC22F0366E36501B6E1C6A1D6A1E6ACA
:10320800030E1F6EE9EC0FF04E0E026E7C0E036E7D
:1032180059EC1DF0BAEC22F0366E36501B6E1C6A63
:103228001D6A1E6A030E1F6EE9EC0FF01200730E82
:10323800026E7C0E036E59EC1DF0000174511B6E7A
:103248001C6A1D6A1E6A010E1F6EE9EC0FF02E0E35
:103258009FEC22F0000175511B6E1C6A1D6A1E6AE4
:10326800010E1F6EE9EC0FF02E0E9FEC22F00A0EF5
:103278000001766103D0300E9FEC22F000017651F8
:103288001B6E1C6A1D6A1E6A010E1F6EE9EC0FF0A8
:10329800EF0E026E7E0E036E59EC1DF05E0E026E8E
:1032A8007D0E036E59EC1DF0CB0E026E740E036E8C
:1032B80059EC1DF01200520E016E010E026E7EC016
:1032C80009F07FC00AF0050ED89009360A36E82EB4
:1032D800FBD7000E0924036E030E0A20046E000EAD
:1032E800066E1E0E056EA6EC1CF000017E517F11C5
:1032F800D8A404D0000E7F6F040E7E6F7E07D8A07E
:103308007F07520E016E010E026E5EEC1FF0015037
:1033180000019C6F520E9C25826F836B010E8323E4
:1033280082C0D9FF83C0DAFF000EDF6E520E026E34
:10333800010E036E59EC1DF01200000E066E04AE6D
:1033480006D0036C041ED8B0042A010E066E02AE25
:1033580006D0016C021ED8B0022A010E061A000E11
:10336800086E000E076E03500410D8B41CD0010E6E
:10337800056E04D0D89003360436052A04AEFAD771
:10338800D890073608360350015C04500258D8A07C
:1033980005D00350015E0450025A0780D8900432C9
:1033A8000332052EEDD70650D8B404D0076C081E9A
:1033B800D8B0082A07C001F008C002F01200056E54
:1033C800480E66EC21F00D0E06EC21F0076E1A0E81
:1033D8000718D8A402D0010E05D02A0E0718D8A4C1
:1033E80003D0020E066E02D0000E1200010E026E0D
:1033F8002A0EFCEC21F02A0E06EC21F0076E0704D9
:10340800D8B402D0000E066E070E056406D0020E70
:10341800026E0E0EFCEC21F00ED0030E056406D0F1
:10342800010E026E0E0EFCEC21F005D0000E026EAD
:103438000E0EFCEC21F006501200C10E5D24D96E70
:10344800DA6A000EDA22DF50096EB70E5D24D96EF3
:10345800DA6A000EDA22DF50086E0950D8B40ED0AE
:103468000001A351AA19D8B409D009C004F0AAC010
:1034780005F008508AEC21F0AAC0A3F00950D8B48E
:1034880012000001A251A919D8B41200C50E5D247A
:10349800D96EDA6A000EDA22DF50D8B41200095069
:1034A800200F046EA9C005F008508AEC21F0A9C0CD
:1034B800A2F012000001B551D8B404D0000EB56FC7
:1034C800E1EC0EF00001B451D8B41CD0000EB46F7A
:1034D80079EC21F064EC11F063EC13F0AFEC22F01E
:1034E800FF0E01140001906F030E0214916FECECB3
:1034F80009F0D5EC1EF00001FF51D8B403D0000E3E
:1035080064EC0BF00001B351D8B41200000EB36F95
:10351800A52B040EA519D8A41200000EA56F000E45
:1035280083BA010E5D6E30EC20F01200940EF66E38
:103538002D0EF76E000EF86E02EE00F010EEC0F0E1
:103548000900F5CFEEFFE550E150FAE1340EF66ED2
:10355800420EF76E000EF86E01EE9EF010EE26F0A9
:103568000900F5CFEEFFE550E150FAE103EE00F077
:10357800800EEE6AE806FDE101EE00F09E0EEE6AAE
:10358800E806FDE100EE60F08A0EEE6AE806FDE16D
:103598005E6A5D6A5F905F92000EF86E0001BAEF96
:1035A80012F0036E0001AE51D8A40ED0720E966FC1
:1035B800010E976F720E946F010E956F000E936F48
:1035C800000E926F010EAE6F93BF06D0935121E1AA
:1035D800200E925DD8B0120094C0D9FF95C0DAFFD2
:1035E80003C0DFFF944B952B720E016E010E026E25
:1035F800200E0126000E02220150945D02509559BA
:10360800D8A004D0720E946F010E956F924B932B35
:1036180012001200026EB60E0224D96EDA6A010E8A
:10362800DA22DF50016E01460146C2500118830BB1
:103638000118C26E00F000F000F000F00F014583A1
:1036480000F000F000F000F00F014593449344812E
:1036580000F000F000F000F000F000F000F000F0E2
:1036680000F000F000F000F00F014491C282C2B2F5
:10367800FED7380E0224D96EDA6A010EDA22C4CFD8
:10368800DFFF1200000E066E02AE06D0016C021EAD
:10369800D8B0022A010E066E04AE04D0036C041ED4
:1036A800D8B0042A03500410D8B418D0010E056EFF
:1036B80004D0D89003360436052A04AEFAD703504E
:1036C800015C04500258D8A004D00350015E045095
:1036D800025AD89004320332052EF1D70650D8B4D6
:1036E80004D0016C021ED8B0022A01C001F002C049
:1036F80002F012001268010E136E29D00DC0D9FF16
:103708000EC0DAFFDF50116E1150076E086ADBEC4D
:103718001FF00750146E0D4A0E2A0FC0F6FF10C096
:10372800F7FF0800F550076E086ADBEC1FF007503A
:10373800156E0F4A102A15501418D8B402D0000E6E
:10374800136E1450D8B407D01550D8B404D012064C
:103758001228D8A4D3D7135012000F01459F459BB8
:1037680045994597459545934591449F9F0E441724
:1037780044894451F30B0409446F030E4313030EA9
:103788004317000EC26E000EC16EC09EC050F80BEB
:103798000109C06EC050C70B1009C06E000EC36E81
:1037A800000EC46E010EC26E458F000E0001FC6F44
:1037B800960EFB6F000E996F000E986F929C120088
:1037C800400E076EC00E0514056EFF0E0614066E39
:1037D80005C001F006C002F053EC21F0000EF86EAF
:1037E8000650F76E05C0F6FF09D003C0D9FF04C024
:1037F800DAFFDF50F56E034A042A0D000706072892
:10380800D8A4F3D705C0F6FFA68EA69CA684A698D2
:10381800F29E550EA76EAA0EA76EA682F28EA694E9
:103828001200000E0D6E240E0E6EF40E0F6E000EBA
:10383800106E1B501D6E1C501E6E1F6A206A020EF1
:10384800D8901D361E361F362036E82EF9D71DC0F3
:1038580011F01EC012F01FC013F020C014F064EC69
:1038680016F0FF0E0D24216EFF0E0E20226E080E9C
:10387800706E900E716E240E726E21C075FF22500C
:10388800766E1200000E0D6E240E0E6EF40E0F6E84
:10389800000E106E1B501D6E1C501E6E1F6A206A93
:1038A800020ED8901D361E361F362036E82EF9D760
:1038B8001DC011F01EC012F01FC013F020C014F07C
:1038C80064EC16F0FF0E0D24216EFF0E0E20226E02
:1038D800080EB86E900EAB6E240EAC6E21C0AFFF12
:1038E8002250B06E1200000E086E000E076E000E19
:1038F800096E02C0D9FF03C0DAFF024A032ADF506B
:10390800BDEC1FF0066E0628D8B417D007C004F027
:1039180008C005F0043A053AF00E051604500F0BDE
:103928000512F00E041606500424076E000E05203A
:10393800086E092A030E0964DCD707C002F008C024
:1039480003F0120001C007F002C008F014D0050609
:10395800D8A0060603C0D9FF04C0DAFF034A042A28
:1039680007C0E1FF08C0E2FF074A082ADFCFE7FFE8
:10397800E750D8B40DD005500610D8B409D0E7D711
:1039880007C0D9FF08C0DAFF000EDF6E074A082A11
:103998000506D8A006060528F3E10628D8B41200C3
:1039A800EFD7B70E5D24D96EDA6A000EDA22DF503F
:1039B800086E0001A051A819D8B409D0010E046EF0
:1039C800A8C005F008508AEC21F0A8C0A0F00001BA
:1039D800A151A719D8B41200C50E5D24D96EDA6AB0
:1039E800000EDA22DF50D8B41200210E046EA7C0F0
:1039F80005F008508AEC21F0A7C0A1F01200010ED2
:103A08000E6EB70E0C6E000E0D6EB70E016E000E28
:103A1800026E7F0E046E800E036E270E056EF1ECAB
:103A280020F00CC0D9FF0DC0DAFFDE2805E1DE2842
:103A3800D8A402D0000E0E6E46EC1EF00001DC5138
:103A4800011804E1DD510218D8B402D0000E0E6E40
:103A58000E501200000E096E000E0A6E000E0B6E5C
:103A6800000E0C6E01A008D00550092606500A2247
:103A780007500B2208500C22D89005360636073618
:103A88000836D89004320332023201320150021053
:103A980003100410D8A4E6D709C001F00AC002F048
:103AA8000BC003F00CC004F012000ED00A0E06186A
:103AB800D8A407D00D0E9FEC22F00A0E9FEC22F03E
:103AC80003D006509FEC22F00250046E0350056E9E
:103AD800024A032A04C0F6FF05C0F7FFF86A050E7C
:103AE800F76403D00800F55005D0F6CFE9FFF7CF0B
:103AF800EAFFEF50066E0650D8B41200D7D7000E72
:103B08000C6E000E0B6E09500A10D8B41CD0010EB2
:103B18000D6E04D0D89009360A360D2A0AAEFAD7A7
:103B2800D8900B360C360950075C0A500858D8A0B4
:103B380005D00950075E0A50085A0B80D8900A32FF
:103B480009320D2EEDD70BC007F00CC008F012009B
:103B5800010E0001746F050E756F000E766FCD0EA5
:103B68000101C46F740EC56F000E5E6E949094923E
:103B7800960E1C6E000E1B6E46EC1CF07A0E1C6E28
:103B8800120E1B6E15EC1CF0DDEC21F0B1EC1BF0F5
:103B9800020EE3EC19F00001FF6FF28EF28C1200B6
:103BA800000192519311D8B41200A4A8120096C033
:103BB800D9FF97C0DAFFDF5099EC22F00001964B4D
:103BC800972B720E026E010E036E200E0226000E57
:103BD80003220250965D03509759D8A004D0720E64
:103BE800966F010E976F9207D8A093071200046E84
:103BF80004C003F003460346C2500318830B03189E
:103C0800C26E00F000F000F000F000F000F000F0EC
:103C180000F0C282C2B2FED7C4CF05F0066A0550D2
:103C2800066E056AC3500524056E000E0620066E52
:103C380005C001F006C002F01200300E026E720ECE
:103C4800036E59EC1DF0A70E026E730E036E59EC4D
:103C58001DF00A0E026E730E036E59EC1DF0910EE4
:103C6800026E6F0E036E59EC1DF0460E026E6F0E5B
:103C7800036E59EC1DF0D20E026E700E036E59ECF5
:103C88001DF01200000E056E000E046EB70E066ED3
:103C9800000E076E250E086E000E096E0DD006C0C8
:103CA800D9FF07C0DAFFDF50036E03500426000E69
:103CB8000522064A072A092A0850095CD8A0EFD726
:103CC800BA0E0418016EAB0E0518026E120003C07E
:103CD80005F004C006F00C0E076ED89006320532C7
:103CE800072EFBD70550BDEC21F00450BDEC21F0A8
:103CF80003C005F004C006F0040E076ED890063223
:103D08000532072EFBD70550BDEC21F003500F0BF1
:103D1800BDEC21F01200016E1CD000F000F000F0A4
:103D280000F000F000F000F000F000F000F000F00B
:103D380000F000F000F000F000F000F000F000F0FB
:103D480000F000F000F000F000F000F000F000F0EB
:103D580000F001060128D8B41200DFD70F01459FF3
:103D680000F000F000F000F0000EC26E000EC16E10
:103D7800C08EC050F80B0509C06EC050C70B1009A3
:103D8800C06E000EC36E000EC46E010EC26E93822A
:103D98000F0139839388398993803981938A398BC4
:103DA800120000019F51D8A408D0310E9E650AD098
:103DB8008CEC15F0010E000104D0C70E9D6502D0F1
:103DC800000E9F6F83B808D0FA0E9E6102D0050ED0
:103DD8009E27000E9D6F1200FA0E9D6102D0050EFF
:103DE8009D27000E9E6F1200000E8D6E000E8C6EC9
:103DF800000E896E000E8A6E000E8B6E070E966E90
:103E08003F0E926E9368900E946EB70E956E000EEC
:103E18000F013A6F3969000E3B6F070E3C6F2F0E8A
:103E2800386F6168F19E8B848C961200B70E5D2402
:103E3800D96EDA6A000EDA22DF500B6E7FEC1FF0C3
:103E480001C00CF002C00DF0000184510C1804E10F
:103E580085510D18D8B412000CC004F00DC005F03F
:103E68000B50F8EC1FF00CC084F00DC085F0120068
:103E78009E900001FE51CF6EFDC0CEFFB551D8A473
:103E8800B22B010E7827000E79237A237B23010EAB
:103E9800B56FB12B040EB16504D0010EB46F000EDE
:103EA800B16FB02B310EB0651200010EB36F000E6A
:103EB800B06F120001C003F002C004F002D0014A42
:103EC800022A01C0F6FF02C0F7FFF86A050EF76480
:103ED80003D00800F55005D0F6CFE9FFF7CFEAFF89
:103EE800EF500009D8A4EBD70350015C016E0450D1
:103EF8000258026E120070C003F071C004F072C064
:103F080005F073C006F0020ED89003360436053665
:103F18000636E82EF9D703C007F004C008F005C03C
:103F280009F006C00AF0000E0724016E200E0820D2
:103F3800026E1200010E076E200E01180210D8B48E
:103F480014D0F70E036EFF0E046E01C005F002C018
:103F580006F00350052604500622065004E1050E1B
:103F6800055CD8A002D0000E076E07C001F0026AF7
:103F78001200016E2F0E016406D03A0E016003D0C4
:103F88000150D00F1200400E016406D0470E0160A8
:103F980003D00150C90F1200600E016406D0670EED
:103FA800016003D00150A90F1200FF0E1200BF0ECE
:103FB800096EFF0E0A6E07C00BF008C00CF009501E
:103FC8000B260A500C220C500AE11A0E0B5CD8B0D2
:103FD80006D0200E0710076E0850086E120007C0A2
:103FE80007F008C008F01200096E09040F0BE00979
:103FF8000A6E0A50D5EC1AF004507F0BD5EC1AF073
:1040080004C006F005C007F0070E086ED890073206
:104018000632082EFBD706507F0BD5EC1AF012009B
:104028009F0E096EFF0E0A6E07C00BF008C00CF059
:1040380009500B260A500C220C5009E11A0E0B5C91
:10404800D8B005D05F0E0714076E086A120007C0C3
:1040580007F008C008F01200B90E5D24D96EDA6ABC
:10406800000EDA22DF50D8B412000001AB51D8A4F8
:104078001200F00ED5EC1AF0730ED5EC1AF0300ED3
:10408800D5EC1AF0F70ED5EC1AF0120020EE02F07B
:104098004950D9264A50DA22DECF4BF0DDCF4CF01A
:1040A8004BC0D9FF4CC0DAFF3F0EDE18D8A412006F
:1040B800D50E026E7B0E036E59EC1DF012000D0E2C
:1040C8009FEC22F0000E036E000E026E200E9FEC95
:1040D80022F0024A032A03BEF9D7035004E1200E56
:1040E800025CD8A0F3D70D0E9FEC22F01200E00E70
:1040F800036EFF0E046E01C005F002C006F0035007
:10410800052604500622065006E15F0E055CD8B06D
:1041180002D0010E01D0000E016E026A12009F0E3D
:10412800036EFF0E046E01C005F002C006F00350D6
:10413800052604500622065006E11A0E055CD8B082
:1041480002D0010E01D0000E016E026A1200BF0EED
:10415800036EFF0E046E01C005F002C006F00350A6
:10416800052604500622065006E11A0E055CD8B052
:1041780002D0010E01D0000E016E026A1200D00EAC
:10418800036EFF0E046E01C005F002C006F0035076
:10419800052604500622065006E10A0E055CD8B032
:1041A80002D0010E01D0000E016E026A1200016EEB
:1041B800A49EC7B0FED76B86A4AEFED7A49E6FCFD1
:1041C80002F00150D8B402D06B9A01D06B8A6B8888
:1041D800A4AEFED7A49E02501200000EF86E045042
:1041E800F76E03C0F6FF09D0090001C0D9FF02C06D
:1041F800DAFFF5CFDFFF014A022A05060528D8B401
:104208001200F2D7036E7CEC22F03A0E31EC22F069
:10421800035031EC22F084EC22F03B0E31EC22F01A
:10422800000EDBEC20F0046E045012002D232D62EA
:104238002D2D232D622D622D434344454546464787
:1042480041414242000102030405060708090D3EE8
:1042580020009D9078C005F079C006F07AC007F07C
:104268007BC008F09D8005C001F006C002F007C0C1
:1042780003F008C004F0120001500302F3CF05F068
:10428800F4CF06F001500402F35006260250030250
:10429800F350062605C001F006C002F01200000E19
:1042A800F86E0250F76E01C0F6FFA68EA69CA68493
:1042B800A688F29E550EA76EAA0EA76EA682F28E4B
:1042C800A6941200016E280E6C6E000E6B6E800EA6
:1042D8006D6E480E0118D8A402D0090E01D0270E21
:1042E8006E6EA49EA49C6B901200B2EC1EF00B0E96
:1042F800FBEC1DF001C0E8F002C0E9F00D0EFBEC8C
:104308001DF001C086F002C087F01200066E060498
:104318000F0BB009076E0750D5EC1AF004507F0B4D
:10432800D5EC1AF005507F0BD5EC1AF01200066E8A
:1043380006040F0B9009076E0750D5EC1AF00450CD
:104348007F0BD5EC1AF005507F0BD5EC1AF0120054
:1043580046EC1EF001C0DCF002C0DDF0B70E036EC3
:10436800000E046E7F0E066E800E056EE4EC1BF0E8
:104378001200026E0F0E02160A0E026005D00250DD
:10438800300F9FEC22F012000250370F9FEC22F002
:104398001200056E05040F0B8009066E0650D5EC59
:1043A8001AF004507F0BD5EC1AF0000ED5EC1AF079
:1043B8001200540ECD6E000ECC6EE00ECF6EC00E05
:1043C800CE6ECECFFDF0CFCFFEF09E909D80CD80FB
:1043D8001200046E04040F0BB009056E0550D5ECED
:1043E8001AF0780ED5EC1AF0000ED5EC1AF012007F
:1043F800036E7CEC22F03A0E31EC22F0035031ECE3
:1044080022F0025031EC22F074EC22F01200046E1B
:10441800380E0424D96EDA6A010EDA22DF50036EF0
:104428000350016E026A1200056E05040F0BC009E5
:10443800066E0650D5EC1AF004507F0BD5EC1AF036
:104448001200000E9EBA010E016EABA204D0AB9E04
:10445800AB8E000E016E01501200016EA49E6DB06D
:10446800FED701C06FFFA4AEFED7A49E6B5012000A
:10447800026E03D0640E8FEC1EF002060228D8B438
:104488001200F8D7000E026E25EC22F00009D8A41D
:10449800AECF02F002501200C0EC22F0F8EC1EF091
:1044A8008CEC22F0DDEC21F01200036E03380F0BC8
:1044B800BDEC21F00350BDEC21F01200000EF86EA7
:1044C8000250F76E01C0F6FF0800F550120070C0E8
:1044D80001F071C002F072C003F073C004F0120062
:1044E800A49E6DB0FED76B84A4AEFED7A49E120026
:1044F800A49E6DB0FED76B80A4AEFED7A49E12001A
:10450800A49E6DB0FED76B82A4AEFED7A49E120007
:10451800720ED36E040ED26E000E9B6E1200016EE8
:1045280001C0FBF00001FC6B1200016EA4A8FED7CD
:1045380001C073FF1200016E9EA8FED701C0ADFF37
:104548001200E8C001F0E9C002F0120086C001F0D4
:1045580087C002F0120098C001F099C002F0120062
:10456800C2EC22F012000001AA5112000001A85169
:1045780012000001AB511200D09E1200FF00120081
:044588005D50120070
:106EFC0000FA7E479440C37E47423CF27E472A29E3
:106F0C00E27E472A293F7E470C31EB7E473632CE54
:106F1C007E47FA09B07E47542E9D7E476845DD7E3C
:106F2C004720249C7E418C1B727E412600F87E00FB
:106F3C000000000405060708090E757361676520DB
:106F4C00696E666F726D6174696F6E3B20206F7431
:106F5C00686572776973652C206120636F6D6D6154
:106F6C006E642077686963682065787065637473F4
:106F7C00206174206C65617374206F6E6520617282
:106F8C00672C200A00536F6D6520636F6D6D616E09
:106F9C0064732C207768656E20656E746572656409
:106FAC0020776974682074686520737769746368E6
:106FBC0020272D68656C7027206F7220273F272CA7
:106FCC002073686F7720636F6D6D616E64200A00AB
:106FDC004578616D706C653A202020707265736520
:106FEC00742033203D2036372020207C20536574BC
:106FFC00204D494449205072676D20363720666F0A
:10700C0072205072657365742033200A0A00557320
:10701C006167652023323A2020636F6E66696720B2
:10702C003C706172616D3E205B3D5D203C76616C15
:10703C0075653E202020207C205365742070617281
:10704C00616D2E2076616C7565200A004578616D46
:10705C00706C653A202020636F6E66696720206330
:10706C0068616E203D2031302020207C20536574D7
:10707C00204D696469205478206368616E6E656C7C
:10708C00203D203130200A0A0055736167652023AA
:10709C00323A2020707265736574203C70726523DF
:1070AC003E205B3D5D203C76616C75653E2020206A
:1070BC00207C205365742050726573657420766152
:1070CC006C7565200A007768656E20656E74657254
:1070DC00656420776974686F757420616E792C20F3
:1070EC0073686F756C6420616C736F2073686F7755
:1070FC0020636F6D6D616E642075736167652E2002
:10710C000A0055736167652023313A2020636F6E46
:10711C00666967205B2B5D2020207C20204C6973E6
:10712C007420636F6E6669672E20706172616D27C3
:10713C0073205B2B206D6F72655D0A0A004E6F72B7
:10714C006D616C2068616E64736574206F7065721C
:10715C006174696F6E2073757370656E64656420FD
:10716C007768696C65206F757470757474696E6777
:10717C002061786973200A00616363656C657261D4
:10718C0074696F6E2072617720646174612028319C
:10719C0032206269747329202D2D20486974206176
:1071AC006E79206B657920746F20657869742E2E4A
:1071BC002E0A002A204E6F74652D4F6E2064697361
:1071CC00706C6179206163746976617465642E20DA
:1071DC00456E746572202764696167202D6E2720C7
:1071EC00746F2063616E63656C2E0A005573616762
:1071FC00652023313A20207072657365742020203D
:10720C00207C204C69737420507265736574204D1A
:10721C00494449205072676D206E756D62657273BA
:10722C00200A0A00436F6D6D616E642061726727DE
:10723C007320616E64206F7074696F6E73206D754E
:10724C00737420626520736570617261746564206B
:10725C006279207370616365732E0A0053656E64E6
:10726C00696E67205379732E45782E202749444543
:10727C004E5427206D736720636F6E74696E756F43
:10728C0075736C7920746F204D494449204F5554C7
:10729C00200A002020207768657265203C7061729E
:1072AC00616D3E2069732061206E69636B6E616D48
:1072BC0065206C69737465642062792075736167ED
:1072CC00652023312E200A0A00766961204D49443D
:1072DC0049207472616E736D697420717565756582
:1072EC002E20204D65737361676520696E7465721D
:1072FC0076616C20697320356D732E200A00546FF3
:10730C0020726563616C6C20612070726576696FA8
:10731C0075736C7920656E746572656420636F6D2E
:10732C006D616E642C20686974204374726C2B52EE
:10733C002E0A00526573746F7265207065727369E2
:10734C007374656E74206461746120746F2066615F
:10735C0063746F72792064656661756C74733F2019
:10736C0028592F4E293A200056616C7565206469A6
:10737C0073706C617965642069732074696C742016
:10738C00706F736974696F6E202872616E67652007
:10739C002B2F2D32303030292E0A00546F206C697F
:1073AC00737420617661696C61626C6520636F6DCA
:1073BC006D616E64732C207479706520276C632763
:1073CC00206F722027636D6473272E0A0044756D3D
:1073DC007020612070616765202832353620627913
:1073EC0074657329206F6620666C617368207072F7
:1073FC006F6772616D206D656D6F72792E0A00205A
:10740C002D6E203A202053746172742F73746F7038
:10741C00204E6F74652D4F6E206576656E74206CF2
:10742C006F672028617267203D20307C31290A006B
:10743C00202D74203A20204D494449205458206472
:10744C0072697665722074657374202873656E6436
:10745C002030783046206E6F6E2D73746F70290A51
:10746C00002D2D2D2D2D2D2D2048616E64736574EE
:10747C0020506172616D6574657273202D2D2D2DF8
:10748C002D2D2D2D2D2D2D2D2D2D2D2D2D2D2D2D20
:10749C000A002020207768657265203C7072652395
:1074AC003E20697320746865205072657365742082
:1074BC006E756D6265722028312E2E3829200A0ACD
:1074CC00004261756572207B52454D497D204861B3
:1074DC006E64736574206D6B32202D2D2053657294
:1074EC007669636520506F727420434C49200A0002
:1074FC0053656E64696E67203078304620636F6E1A
:10750C0074696E756F75736C7920746F204D494476
:10751C004920545820554152542E2E2E0A00202D0D
:10752C0071203A20204D494449205458205175650A
:10753C007565207465737420284944454E54206D3C
:10754C007367204020356D73290A00212045727223
:10755C006F723A20436F6E666967206461746120B4
:10756C00636F7272757074656420286465666175EA
:10757C006C746564290A00202D62203A202053681F
:10758C006F772070697463682042656E6420636F46
:10759C006E74726F6C6C65722064617461200A0089
:1075AC0021204572726F723A20436F6E66696720B4
:1075BC0064617461206578636565647320626C6FC7
:1075CC00636B2073697A650A00202D61203A2020B4
:1075DC0053686F77204D4D41383435312F3220416F
:1075EC006363656C2E207261772064617461200A7C
:1075FC0000202D64203A20205465737420736F662C
:10760C0074776172652044656C61792066756E6370
:10761C0074696F6E73200A00202D65203A20205368
:10762C00686F7720737461727475702073656C6603
:10763C002D74657374204572726F7273200A00206A
:10764C002050726573737572652053656E736F721B
:10765C0020414443205370616E20286D61782E3197
:10766C00303030290A002D2D207768657265206135
:10767C006464722069732073746172742061646431
:10768C00726573732028686578292E0A005072651C
:10769C007373204D6F642050616420746F2061639C
:1076AC007469766174652070697463682D62656EA7
:1076BC00642E0A00202D6D203A202053686F77200D
:1076CC004D6F64652053776974636820696E7075BB
:1076DC0074207374617465200A00202D73203A2085
:1076EC002053686F772053656E736F7220726177C9
:1076FC00204144432072656164696E6773200A00FF
:10770C0055736167653A20206469616720203C6F7E
:10771C007074696F6E3E20205B617267315D202E44
:10772C002E2E200A0020204D6F64756C6174696FD9
:10773C006E2046756C6C2D7363616C6520286D61D1
:10774C00782E31303030290A0052454D4920616C79
:10775C007465726E617465202D2D20706164204CEF
:10776C004834207368617270656E730A002020546F
:10777C006F7563682053656E73652054687265730A
:10778C00686F6C6420286D61782E323530290A00C0
:10779C002A2044656661756C7420636F6E66696738
:1077AC0075726174696F6E20726573746F72656443
:1077BC002E0A0052454D49207374616E64617264E7
:1077CC00202D2D207061642052483520666C617428
:1077DC0074656E730A002120496E76616C696420B1
:1077EC00707265736574206F72204D494449207026
:1077FC0072676D2023200A0020204D6F64756C6128
:10780C0074696F6E20446561642D62616E6420281A
:10781C006D61782E393030290A002020506974634C
:10782C0068204F666673657420282B2F2D32342008
:10783C0073656D69746F6E6573290A002020457835
:10784C007072657373696F6E20496E7465727661C0
:10785C006C2028352E2E3530206D73290A00204DD2
:10786C0049444920506172616D6574657273202DB5
:10787C002D2D2D2D2D2D2D2D2D2D2D2D2D2D0A007C
:10788C0021204D4D41383435312F322064657669D5
:10789C006365206E6F742064657465637465642E13
:1078AC000A0021204572726F723A204D6F64756C1C
:1078BC006174696F6E2053656E736F7220666175AB
:1078CC006C740A0020204D6F64756C6174696F6E66
:1078DC0020284343312920456E61626C6520283095
:1078EC002C31290A00202D6F203A202053686F7705
:1078FC00206E6F7465204F6E2F4F66662073746117
:10790C007465200A00202045787072657373696F66
:10791C006E204343206E756D6265722028302E2ECA
:10792C003331290A00206C6F6F70733B202031308B
:10793C00303020282B2F2D3130292065787065634D
:10794C007465640A0021204572726F723A2050727D
:10795C006573737572652053656E736F7220666103
:10796C00756C740A00202056656C6F6369747920FD
:10797C0053656E736520456E61626C652028302CF2
:10798C0031290A0020205379732E4578636C2E2000
:10799C004D736720456E61626C652028302C31294F
:1079AC000A00202043432031342D62697420446145
:1079BC00746120456E61626C6528302C31290A0097
:1079CC00202046696E676572696E6720536368652F
:1079DC006D652028302C312C322C33290A002120C3
:1079EC00496E76616C6964206E69636B6E616D655E
:1079FC00206F722076616C75652E0A0020204D492F
:107A0C004449204F5554204368616E6E656C2028A4
:107A1C00312E2E313629200A00202050726F672E0D
:107A2C00204368616E676520456E61626C65202835
:107A3C00302C31290A0020204C656761746F204D71
:107A4C006F646520456E61626C652028302C31298D
:107A5C000A004261726F717565207265636F7264A2
:107A6C00657220656D756C6174696F6E0A002020FB
:107A7C004D6F64652073776974636820696E7075E7
:107A8C00742073746174653A20002020506974630B
:107A9C00682042656E6420456E61626C65202830FA
:107AAC002C31290A002A204E6F2073656C662D74C8
:107ABC00657374206572726F72732E0A0050726552
:107ACC00736574207C204D494449205072676D20A9
:107ADC0023200A00486974205B4573635D20746F32
:107AEC0020657869742E2E2E200A002120556E6B8D
:107AFC006E6F776E20493243206465766963652E1C
:107B0C000A005F5F5F5F5F5F5F5F5F5F5F5F5F5F2D
:107B1C005F5F5F5F5F5F5F0A005F5F5F5F5F5F5F1D
:107B2C007C5F5F5F5F5F5F5F5F5F5F5F5F5F0A00F0
:107B3C00606060606060607C60606060606060601D
:107B4C0060606060600A00486974205B4573635D27
:107B5C0020746F20717569742E200A0A00557361A8
:107B6C0067653A202064756D70205B616464725D9A
:107B7C00200A00536F7072616E6F2F4465736361DE
:107B8C006E7420284335290A003F20556E646566C3
:107B9C00696E656420636F6D6D616E642E0A0021E1
:107BAC0020496E76616C696420636F6D6D616E64E3
:107BBC002E200A00486974205B4573635D20746F46
:107BCC0020657869742E200A0055736167653A2028
:107BDC00202A205B72656D61726B5D200A002A2081
:107BEC004D4D41383435312064657465637465647A
:107BFC002E0A002A204D4D413834353220646574EC
:107C0C0065637465642E0A002A204E6577207661C0
:107C1C006C75652073617665643A2000554E444559
:107C2C0046494E454420286572726F72290A0046F7
:107C3C00696E676572696E6720736368656D653A16
:107C4C002000207C204D6F64756C6174696F6E2E02
:107C5C0048693A2000416C746F2F547265626C65F0
:107C6C0020284634290A004669726D7761726520B6
:107C7C0076657273696F6E2000477265617420427D
:107C8C0061737320284333290A00207C20507265CD
:107C9C0073737572652E48693A20000D0A2A204DBF
:107CAC004355207265736574202A0A00203A204DD2
:107CBC00494449205072676D203D20002073656D4A
:107CCC0069746F6E6573202020200050697463689E
:107CDC00204F66667365743A20004F46462F494420
:107CEC004C45202830290A00207C20506164305FEC
:107CFC004144433A20002D2D2D2D2D2D2D204D6F3F
:107D0C0064652000546F756368506164733A203069
:107D1C00780050454E44494E47202831290A0050DE
:107D2C004C4159494E47202832290A00507265733C
:107D3C00737572653A202020004D6F64756C617408
:107D4C00696F6E3A200054656E6F72202843342997
:107D5C000A004D61722020342032303235004869DF
:107D6C00676820283129200A003C6F7074696F6E97
:107D7C003E200A004261737320284633290A004CC6
:107D8C006F7720283029200A002A205072657365ED
:107D9C007420006368616E20202020007062656E84
:107DAC002020202000636331346220202000706981
:107DBC00746368202020006D6F64656E20202000A5
:107DCC007468726573202020006578706E63632080
:107DDC00200066696E677363202000707273706197
:107DEC006E20200070726368656E20200076656CD2
:107DFC0073656E20200073797378656E2020006C9B
:107E0C00656761746F2020006D6F646D6178202050
:107E1C00006D6F6462616E6420006578706E696ECF
:107E2C007420002020207C202020006D6F64626173
:107E3C006E640064656661756C74006578706E695B
:107E4C006E7400202020583A2000207C20593A20C3
:107E5C0000207C205A3A20006578706E63630066BF
:107E6C00696E67736300636F6E6669670070727327
:107E7C0070616E0070726368656E0076656C736518
:107E8C006E0073797378656E006C656761746F0052
:107E9C00707265736574006D6F646D6178006363F7
:107EAC0031346200776174636800706974636800D0
:107EBC006D6F64656E002D68656C7000746872651A
:107ECC00730064696167006368616E007062656E5F
:107EDC000064756D7000636D647300203A20007649
:107EEC006572002C20006C63002D790024002A00A0
:037EFC000900007A
:020000040020DA
:08000000FFFFFFFFFFFFFFFF00
:020000040030CA
:0E000000FF281F3CFFBF81FF0FC00FE00F4025
:00000001FF
