:0400000011EF00F00C
:100008005F82F0A602D0F0B006D0F2BC9DA003D06B
:100018009EB06EEC1FF05F921100CBEF1AF0000E4D
:100028004E6E000E4F6EF5EC22F0506E020E471821
:100038004810D8A42CD020EE02F04950D9264A50B6
:10004800DA22DECF4BF0DDCF4CF04BC0D9FF4CC0ED
:10005800DAFF3F0EDE18D8A41AD00E0E026E710E0B
:10006800036E8AEC1DF01A0E026E700E036E8AEC97
:100078001DF09F0E026E720E036E8AEC1DF0580E74
:10008800026E700E036E8AEC1DF078EF04F04704E0
:100098004810D8A4CBD1020E026E7D0E036E8AECF6
:1000A8001DF050501B6E1C6A1D6A1E6A010E1F6EE1
:1000B800BEEC0FF06A0E026E780E036E8AEC1DF02D
:1000C8009F0E026E7D0E036E8AEC1DF0B80E502452
:1000D800D96EDA6A000EDA22DF504B6E4B501B6E77
:1000E8001C6A1D6A1E6A040E1F6EBEEC0FF0080E15
:1000F800026E7A0E036E8AEC1DF0020E026E7E0E00
:10010800036E8AEC1DF0BA0E5024D96EDA6A000E1E
:10011800DA22DF504B6E4B501B6E1C6A1D6A1E6A3A
:10012800040E1F6EBEEC0FF0900E026E790E036E79
:100138008AEC1DF0F00E026E7D0E036E8AEC1DF047
:10014800BC0E5024D96EDA6A000EDA22DF504B6EEC
:100158004B501B6E1C6A1D6A1E6A040E1F6EBEEC95
:100168000FF0250E026E7A0E036E8AEC1DF0A80EB3
:10017800026E7D0E036E8AEC1DF0BE0E5024D96E01
:10018800DA6A000EDA22DF504B6E4B501B6E1C6A87
:100198001D6A1E6A040E1F6EBEEC0FF0960E026EEC
:1001A8007A0E036E8AEC1DF0C30E026E7D0E036E8E
:1001B8008AEC1DF0C00E5024D96EDA6A000EDA22DD
:1001C800DF504B6E4B501B6E1C6A1D6A1E6A040E74
:1001D8001F6EBEEC0FF0D00E026E780E036E8AEC26
:1001E8001DF0D50E026E7D0E036E8AEC1DF0C20E58
:1001F8005024D96EDA6A000EDA22DF504B6E4B506B
:100208001B6E1C6A1D6A1E6A040E1F6EBEEC0FF080
:10021800110E026E790E036E8AEC1DF0260E026E28
:100228007E0E036E8AEC1DF0C40E5024D96EDA6A75
:10023800000EDA22DF504B6E4B501B6E1C6A1D6A93
:100248001E6A040E1F6EBEEC0FF0480E026E780E8A
:10025800036E8AEC1DF0B10E026E7D0E036E8AEC01
:100268001DF0C60E5024D96EDA6A000EDA22DF506D
:100278004B6E4B501B6E1C6A1D6A1E6A040E1F6E65
:10028800BEEC0FF0AE0E026E790E036E8AEC1DF016
:100298000B0E026E7E0E036E8AEC1DF0C80E502403
:1002A800D96EDA6A000EDA22DF504B6E4B501B6EA5
:1002B8001C6A1D6A1E6A040E1F6EBEEC0FF0420E09
:1002C800026E7A0E036E8AEC1DF0F90E026E7D0E38
:1002D800036E8AEC1DF0CA0E5024D96EDA6A000E3D
:1002E800DA22DF504B6E4B501B6E1C6A1D6A1E6A69
:1002F800040E1F6EBEEC0FF0710E026E790E036EC7
:100308008AEC1DF06D0E026E740E036E8AEC1DF001
:10031800DE0E026E7D0E036E8AEC1DF00001CC51DC
:100328001B6E1C6A1D6A1E6A040E1F6EBEEC0FF05F
:10033800CC0E026E790E036E8AEC1DF0BA0E026EB8
:100348007D0E036E8AEC1DF00001CD511B6E000E70
:100358001BBEFF0E1C6E1D6E1E6E040E1F6EBEECC5
:100368000FF0260E026E780E036E8AEC1DF0CC0E8E
:10037800026E7D0E036E8AEC1DF00001CE511B6EDD
:100388001C6A1D6A1E6A040E1F6EBEEC0FF0790E01
:10039800026E770E036E8AEC1DF0E70E026E7D0E7C
:1003A800036E8AEC1DF0CFC01BF0D0C01CF01D6A94
:1003B8001E6A040E1F6EBEEC0FF04B0E026E760E18
:1003C800036E8AEC1DF0140E026E7E0E036E8AEC2C
:1003D8001DF0D1C01BF0D2C01CF01D6A1E6A040EAD
:1003E8001F6EBEEC0FF0310E026E770E036E8AECB4
:1003F8001DF01D0E026E7E0E036E8AEC1DF0D3C03A
:100408001BF0D4C01CF01D6A1E6A040E1F6EBEECE1
:100418000FF0040E026E780E036E8AEC1DF0CB0E00
:10042800026E740E036E8AEC1DF05ED2020E47183F
:100438004810D8A403D0010E4F6E56D248BE54D2ED
:10044800485004E1030E475CD8A04ED2DF0E016E7F
:10045800000E026E20EE02F04950D9264A50DA22E8
:10046800DECF03F0DDCF04F0000E066E080E056E39
:10047800D7EC1CF0000E0001E66F20EE04F04950A6
:10048800D9264A50DA22DECF4BF0DDCF4CF04BC0F4
:10049800D9FF4CC0DAFF3D0EDE18D8A412D0040EE6
:1004A80047184810D8A40DD020EE06F04950D92698
:1004B8004A50DA22DECF08F0DDCF09F0FAEC13F06B
:1004C8000CD020EE04F04950D9264A50DA22DECF6B
:1004D80008F0DDCF09F0FAEC13F008C051F009C0BC
:1004E80052F0DF0E0D6E000E0E6ED30E0F6E7E0EE6
:1004F800106EAFEC1BF00009D8A452BE13D05250B6
:1005080003E15104D8A00ED052BE06D052500AE1E1
:10051800110E515CD8B006D0B80E5024D96EDA6AE4
:10052800000E01D1DF0E0D6E000E0E6E8E0E0F6ED8
:100538007E0E106EAFEC1BF00009D8A452BE0ED090
:1005480052BE06D052500AE1020E515CD8B006D015
:10055800BA0E5024D96EDA6A000EE5D0DF0E0D6EA1
:10056800000E0E6E800E0F6E7E0E106EAFEC1BF03E
:100578000009D8A452BE0ED052BE06D052500AE18D
:10058800020E515CD8B006D0BC0E5024D96EDA6A7F
:10059800000EC9D0DF0E0D6E000E0E6ED80E0F6E57
:1005A8007E0E106EAFEC1BF00009D8A452BE0ED020
:1005B80052BE06D052500AE1020E515CD8B006D0A5
:1005C800BE0E5024D96EDA6A000EADD0DF0E0D6E65
:1005D800000E0E6E640E0F6E7E0E106EAFEC1BF0EA
:1005E8000009D8A452BE0ED052BE06D052500AE11D
:1005F800200E515CD8B006D0C20E5024D96EDA6AEB
:10060800000E91D0DF0E0D6E000E0E6E470E0F6EAF
:100618007E0E106EAFEC1BF00009D8A452BE14D0A9
:10062800525004E1050E515CD8A00ED052BE06D03F
:1006380052500AE1330E515CD8B006D0C40E502493
:10064800D96EDA6A000E6FD0DF0E0D6E000E0E6ED8
:10065800AA0E0F6E7E0E106EAFEC1BF00009D8A428
:1006680052BE0ED052BE06D052500AE1020E515C64
:10067800D8B006D0C60E5024D96EDA6A000E53D010
:10068800DF0E0D6E000E0E6E950E0F6E7E0E106E46
:10069800AFEC1BF00009D8A452BE0ED052BE06D053
:1006A80052500AE1020E515CD8B006D0C80E502450
:1006B800D96EDA6A000E37D0DF0E0D6E000E0E6EA0
:1006C800BC0E0F6E7E0E106EAFEC1BF00009D8A4A6
:1006D80052BE0ED052BE06D052500AE1020E515CF4
:1006E800D8B006D0C00E5024D96EDA6A000E1BD0DE
:1006F800DF0E0D6E000E0E6E870E0F6E7E0E106EE4
:10070800AFEC1BF00009D8A452BE11D052BE06D0DF
:1007180052500DE1020E515CD8B009D0CA0E5024D7
:10072800D96EDA6A000EDA2251C0DFFFBFD0DF0EC1
:100738000D6E000E0E6E6B0E0F6E7E0E106EAFEC11
:100748001BF00009D8A452BE0DD052BE06D052509C
:1007580009E1080E515CD8B005D051C0CCF0010EAB
:100768004F6EA4D0DF0E0D6E000E0E6EB60E0F6E1D
:100778007E0E106EAFEC1BF00009D8B413D052AE49
:1007880006D0E80E515CFF0E5258D8A00BD052BECE
:1007980006D0525007E1190E515CD8B003D051C0B1
:1007A800CDF0DDD7DF0E0D6E000E0E6EC80E0F6E8B
:1007B8007E0E106EAFEC1BF00009D8A452BE11D00B
:1007C800525004E1320E515CD8A00BD052BE06D074
:1007D800525007E1FB0E515CD8B003D051C0CEF0A7
:1007E80065D0DF0E0D6E000E0E6E790E0F6E7E0E4A
:1007F800106EAFEC1BF00009D8A452BE13D05250B3
:1008080004E1640E515CD8A00DD052BE06D0E90EAA
:10081800515C030E5258D8B005D051C0CFF052C029
:10082800D0F044D0DF0E0D6E000E0E6EA30E0F6ECC
:100838007E0E106EAFEC1BF00009D8A452BE13D088
:10084800525004E1640E515CD8A00DD052BE06D0BF
:10085800E90E515C030E5258D8B005D051C0D1F002
:1008680052C0D2F023D0DF0E0D6E000E0E6E370E82
:100878000F6E7E0E106EAFEC1BF00009D8A452BEAE
:100888000DD052BE06D0850E515C030E5258D8B01A
:1008980005D051C0D3F052C0D4F008D0010E4E6E2E
:1008A800EA0E026E790E036E8AEC1DF04E50D8A443
:1008B8001BD0DEEC21F0140E026E7C0E036E8AEC67
:1008C8001DF051C01BF052C01CF0000E1CBEFF0EE4
:1008D8001D6E1E6E010E1F6EBEEC0FF0CB0E026E6B
:1008E800740E036E8AEC1DF04F50D8B412003B0E04
:1008F800026E7C0E036E8AEC1DF00001CC51D8A468
:1009080007D0BF0E026E770E036E8AEC1DF01AD068
:10091800CC05D8A407D0550E026E770E036E8AEC6C
:100928001DF010D0010ECC6507D05E0E026E7A0E57
:10093800036E8AEC1DF006D0CB0E026E740E036EA9
:100948008AEC1DF0D70E026E7C0E036E8AEC1DF049
:100958000001CD511B6E000E1BBEFF0E1C6E1D6EDE
:100968001E6E040E1F6EBEEC0FF0C80E026E7C0EDB
:10097800036E8AEC1DF0F40E0001CD19D8A407D03F
:10098800850E026E7C0E036E8AEC1DF01200F90EC5
:10099800CD19D8A407D0800E026E7D0E036E8AECA6
:1009A8001DF01200CD51D8A407D0520E026E7D0E54
:1009B800036E8AEC1DF01200050ECD19D8A407D0DD
:1009C800610E026E7C0E036E8AEC1DF012000C0E96
:1009D800CD19D8A407D07F0E026E7B0E036E8AEC69
:1009E8001DF01200CB0E026E740E036E8AEC1DF021
:1009F800120020EE02F04950D9264A50DA2210EEB1
:100A080001F0DE50E126DD50E222E7504B6E4B50FC
:100A1800076E086A0DEC20F00750556E4704481021
:100A2800D8B412D020EE02F04950D9264A50DA2222
:100A3800DECF4BF0DDCF4CF04BC0D9FF4CC0DAFF16
:100A48003F0EDE18D8A40DD30C0E026E770E036E7F
:100A58008AEC1DF0750E026E7D0E036E8AEC1DF099
:100A6800D50E026E750E036E8AEC1DF0830E026EB3
:100A7800750E036E8AEC1DF0FD0E026E750E036E88
:100A88008AEC1DF0240E026E760E036E8AEC1DF0C1
:100A9800C00E026E760E036E8AEC1DF00B0E026E0F
:100AA800740E036E8AEC1DF0F10E026E780E036E62
:100AB8008AEC1DF0E60E026E760E036E8AEC1DF0CF
:100AC8003C0E026E740E036E8AEC1DF02A0E026E46
:100AD800750E036E8AEC1DF01200020E14EC1AF06B
:100AE8000009D8A407D08C0E026E780E036E8AEC2B
:100AF8001DF012000D0E38EC21F04B6E4B505A6E63
:100B08005B6A1A0E5A185B10D8A407D0EA0E026E58
:100B18007B0E036E8AEC1DF012D02A0E5A185B1059
:100B2800D8A407D0FF0E026E7B0E036E8AEC1DF070
:100B380006D0F70E026E7A0E036E8AEC1DF0490E8F
:100B4800026E710E036E8AEC1DF0840E026E710E39
:100B5800036E8AEC1DF096D0010E38EC21F04B6E36
:100B68004B505A6E5B6A5A505B6E5A6A020E38ECEA
:100B780021F04B6E4B505A26000E5B224F0E026E30
:100B88007E0E036E8AEC1DF05AC04BF05BC04CF031
:100B9800040E4D6E4C344C324B324D2EFBD74BC0AD
:100BA8001BF04CC01CF0000E1CBEFF0E1D6E1E6E0E
:100BB800060E1F6EBEEC0FF0030E38EC21F04B6EE4
:100BC8004B505A6E5B6A5A505B6E5A6A040E38EC88
:100BD80021F04B6E4B505A26000E5B22560E026EC9
:100BE8007E0E036E8AEC1DF05AC04BF05BC04CF0D1
:100BF800040E4D6E4C344C324B324D2EFBD74BC04D
:100C08001BF04CC01CF0000E1CBEFF0E1D6E1E6EAD
:100C1800060E1F6EBEEC0FF0050E38EC21F04B6E81
:100C28004B505A6E5B6A5A505B6E5A6A060E38EC25
:100C380021F04B6E4B505A26000E5B225D0E026E61
:100C48007E0E036E8AEC1DF05AC04BF05BC04CF070
:100C5800040E4D6E4C344C324B324D2EFBD74BC0EC
:100C68001BF04CC01CF0000E1CBEFF0E1D6E1E6E4D
:100C7800060E1F6EBEEC0FF00D0ED1EC22F0C80E62
:100C88006EEC22F057EC22F00009D8B465D7CB0EF1
:100C9800026E740E036E8AEC1DF01200990E026E3D
:100CA800760E036E8AEC1DF0740E026E730E036EE0
:100CB8008AEC1DF0A70E026E710E036E8AEC1DF011
:100CC8005FEC21F001C060F002C061F003C062F087
:100CD80004C063F03AD08FEC1AF05FEC21F0000109
:100CE8006051015C4B6E615102584C6E6251035861
:100CF8004D6E635104584E6E4E504D104C1004E129
:100D0800C90E4B5CD8A021D05FEC21F001C060F087
:100D180002C061F003C062F004C063F0A50E026E69
:100D28007D0E036E8AEC1DF09DEC22F001C01BF0D5
:100D380002C01CF003C01DF004C01EF0050E1F6E9B
:100D4800BEEC0FF00D0ED1EC22F057EC22F00009AA
:100D5800D8B4C1D7CB0E026E740E036E8AEC1DF0A8
:100D68001200000E546E000E536E5FEC21F001C0AD
:100D78004FF002C050F003C051F004C052F005D04B
:100D88000A0EC1EC1EF0534A542A5FEC21F04F5072
:100D9800015C4B6E505002584C6E515003584D6ECA
:100DA800525004584E6E4E504D104C1004E1640ED3
:100DB8004B5CD8A0E5D753C01BF054C01CF01D6A8B
:100DC8001E6A060E1F6EBEEC0FF0310E026E790E13
:100DD800036E8AEC1DF012000001AE51D8A406D0B3
:100DE800B10E026E7A0E036E8AEC1DF00001AEA3FE
:100DF80006D0AC0E026E750E036E8AEC1DF0000173
:100E0800AEA106D0570E026E750E036E8AEC1DF069
:100E18000001AEA506D0510E026E790E036E8AEC63
:100E28001DF00001AEA71200AE0E026E780E036E22
:100E38008AEC1DF012007A0E026E7A0E036E8AECAE
:100E48001DF083BA07D08B0E026E7D0E036E8AECFE
:100E58001DF012006A0E026E7D0E036E8AEC1DF004
:100E68001200380E026E7D0E036E8AEC1DF0D7EC70
:100E780022F001C01BF002C01CF01D6A1E6A040E9D
:100E88001F6EBEEC0FF0CB0E026E740E036E8AEC72
:100E98001DF0450E026E7D0E036E8AEC1DF0DCEC33
:100EA80022F001C01BF002C01CF01D6A1E6A040E6D
:100EB8001F6EBEEC0FF0CB0E026E740E036E8AEC42
:100EC8001DF01200ECEC22F04B6E4B50586E596A34
:100ED80058505910D8A407D0E60E026E7C0E036E47
:100EE8008AEC1DF0120058045910D8A407D01E0E21
:100EF800026E7D0E036E8AEC1DF01200020E581869
:100F08005910D8A407D02B0E026E7D0E036E8AEC02
:100F18001DF01200280E026E7C0E036E8AEC1DF086
:100F28001200030E47184810D8A414D020EE04F07D
:100F38004950D9264A50DA22DECF4BF0DDCF4CF0AB
:100F48004BC0D9FF4CC0DAFF310EDE18D8A402D04E
:100F5800010E01D0000E0001AD6FAD51D8B41200E2
:100F6800BF0E026E710E036E8AEC1DF01200000EA9
:100F7800566EFC0E026E740E036E8AEC1DF0C00EE7
:100F8800026E7B0E036E8AEC1DF00BD00F0ECBECBD
:100F980022F057EC22F00009D8B403D078EC22F004
:100FA800566E1B0E5618D8B41200F0D7000E576EA6
:100FB800680E026E720E036E8AEC1DF0D50E026E7C
:100FC800720E036E8AEC1DF0E00E026E7A0E036E4E
:100FD8008AEC1DF05FEC21F001C060F002C061F006
:100FE80003C062F004C063F037D05FEC21F0000169
:100FF8006051015C4B6E615102584C6E625103584E
:101008004D6E635104584E6E4E504D104C101AE1FF
:10101800050E4B5CD8B016D05FEC21F001C060F033
:1010280002C061F003C062F004C063F0F00E06EC89
:101038001BF0730E06EC1BF0300E06EC1BF0F70EDF
:1010480006EC1BF006EC1EF057EC22F00009D8B4B1
:1010580003D078EC22F0576E1B0E5718D8B4120044
:10106800C4D755504B6E4C6A4C50000AD8A4120095
:101078004B50610AD8B431D5030AD8B40FD6060A42
:10108800D8B46FD6010AD8B4A7D6080AD8B4D3D62C
:10109800030AD8B446D7010AD8B414D71E0AD8B45C
:1010A80085D7020AD8B4DDD6070AD8A412005FD7BC
:1010B80001C003F002C004F0D89004320332D89083
:1010C8000432033203503F0B0B6E0250030B066EC3
:1010D800D8900230046E0130036E0350010B0A6E83
:1010E8000150010B096E09C007F0800E0B24D96E60
:1010F800DA6A020EDA22DF50056E05C008F03E0EED
:101108000B18D8A408D00A50D8A403D00950D8B4D2
:1011180002D03F0E086E380E0B18D8A408D00A501B
:10112800D8A403D00950D8B402D0420E086E300EAD
:101138000B18D8A408D00A50D8A403D00950D8B4A2
:1011480002D0440E086E200E0B18D8A408D00A50FE
:10115800D8A403D00950D8B402D0460E086E1E0E8B
:101168000B18D8A408D00A50D8A403D00950D8B472
:1011780002D04B0E086E180E0B18D8A408D00A50CF
:10118800D8A403D00950D8B402D04E0E086E0E0E63
:101198000B18D8A408D00A50D8A403D00950D8B442
:1011A80002D0500E086E0C0E0B18D8A408D00A50A6
:1011B800D8A403D00950D8B402D0520E086E00014A
:1011C800CC51D8A430D03F0E0B18D8A408D00A5060
:1011D800D8B405D00950D8A402D03C0E086E3F0EF2
:1011E8000B18D8A408D00A50D8A405D00950D8B4F0
:1011F80002D03D0E086E1F0E0B18D8A408D00A5056
:10120800D8B405D00950D8A402D0480E086E1F0ED5
:101218000B18D8A45FD00A50D8A45CD00950D8B411
:1012280059D0490E56D0CC05D8A454D03F0E0B182F
:10123800D8A408D00A50D8B405D00750D8A402D0F2
:101248003C0E086E3F0E0B18D8A408D00A50D8B42C
:1012580005D00750D8B402D03D0E086E3C0E0B18CE
:10126800D8A408D00A50D8A405D00750D8B402D0C2
:10127800420E086E1F0E0B18D8A408D00A50D8B416
:1012880005D00750D8A402D0480E086E1F0E0B18C0
:10129800D8A408D00A50D8B405D00750D8B402D082
:1012A800490E086E100E0B18D8A408D00A50D8A4FE
:1012B80005D00750D8B402D0490E086E1C0E0B1882
:1012C800D8A408D00A50D8A405D00750D8B402D062
:1012D8004E0E086E0604D8A402D00C0E085E020E4C
:1012E8000618D8A402D00C0E0826010ECC6571D0C1
:1012F80006A241D005C008F03F0E0B18D8A408D0AC
:101308000A50D8B405D00950D8A402D03C0E086EB3
:101318003F0E0B18D8A408D00A50D8A405D00950FD
:10132800D8B402D03D0E086E3E0E0B18D8A408D0D3
:101338000A50D8A403D00950D8B402D03F0E086E82
:101348003D0E0B18D8A405D00A50D8B402D0410ECF
:10135800086E1C0E0B18D8A405D00A50D8A402D0C9
:10136800460E086E180E0B18D8A433D00A50D8A40D
:1013780030D0470E2DD00604D8A423D0000E0B245D
:10138800D96EDA6A020EDA22DF50086E370E0B18B1
:10139800D8A405D00A50D8B402D0590E086E2E0E23
:1013A8000B18D8A405D00A50D8B402D0550E086E30
:1013B8002D0E0B18D8A40DD00A50D8B40AD0550E4B
:1013C80007D0400E0B24D96EDA6A020EDA22DF50FB
:1013D800086ECD5108260850120092C001F093C043
:1013E80002F05CEC08F0466E92C03AF093C03BF015
:1013F800050E3C6ED8903B323A323C2EFBD73A5021
:10140800070B3F6E00019351030B406E000E416EB7
:101418004050D8B405D03F50D8B402D0010E416E28
:101428004150D8B402D0010E01D0000E436EB80E60
:101438005E24D96EDA6A000EDA22DF50456E000E9D
:10144800426E5DC044F0010ECC65E9D0010E436EDA
:10145800E6D04350D8B412D08C51E95D8D51EA5989
:10146800D8A00CD0000E01014E6F000E4F6F000E79
:10147800506F000E516F010E0001AB6F500E905D62
:10148800C30E9159D8B0DDD0050E9027000E9123D8
:10149800D8D0000E916F000E906FCA0E5E24D96EE0
:1014A800DA6A000EDA22DF50D8A403D0400E446E68
:1014B8000BD00101515150114F1104E10F0E4E5D37
:1014C800D8A004D05DC044F0010E426E4250D8B49A
:1014D800B8D046C004F044C005F04550CDEC21F02A
:1014E80046C0A5F00001AD51D8B403D0465073EC06
:1014F80017F0000E01014A6F000E4B6F000E4C6F83
:10150800000E4D6F000E466F000E476F000E486FBD
:10151800000E496F020E0CD08A51E95D8B51EA59D1
:10152800D8B009D0A5C004F04550FFEC21F0000E5A
:101538000001AB6F86D04350D8B428D0A5514618C7
:10154800D8B424D0C80E5E24D96EDA6A000EDA2226
:10155800DF50D8B40DD046C004F044C005F0455063
:10156800CDEC21F0A5C004F04550FFEC21F00CD0E3
:10157800A5C004F04550FFEC21F046C004F044C07B
:1015880005F04550CDEC21F046C0A5F0C40E5E2410
:10159800D96EDA6A000EDA22DF503A6E3AC03BF0B2
:1015A8003C6A3D6A3E6A3B5001014A5D3C504B59DA
:1015B8003D504C593E504D59D8A00AD0000E4A6FA4
:1015C800000E4B6F000E4C6F000E4D6F52EC1AF070
:1015D800010149514811471104E11E0E465DD8A08A
:1015E80030D0000E466F000E476F000E486F000E99
:1015F800496FC00E5E24D96EDA6A000EDA22DF5017
:10160800D8A406EC1DF0BE0E5E24D96EDA6A000E70
:10161800DA22DF50D8B415D04CEC1FF012D0AB5101
:101628003A6E3B6A3B50000AD8A481D73A50000A68
:10163800D8B40FD7010AD8B42CD7030AD8B46CD7BA
:1016480076D7050E01014E27000E4F235023512354
:10165800050E4A27000E4B234C234D23050E462723
:10166800000E4723482349231200206E050E38EC4C
:1016780021F01B6E1B50256E266A25501C6E1B6AB6
:10168800000E1B14256EFF0E1C14266E060E38EC79
:1016980021F01B6E1B502526000E262225C01BF0AC
:1016A80026C01CF01C341C321B321C341C321B326A
:1016B8001BC025F01CC026F0020E1B6E64C01CF077
:1016C80065C01DF066C01EF067C01FF01B6601D024
:1016D80007D01F341F321E321D321C321B2EF6D784
:1016E8001C500001645F1D50655B1E50665B1F50F7
:1016F800675B25C01BF026C01CF0000E1CBEFF0E49
:101708001D6E1E6E060ED8901B361C361D361E36F4
:10171800E82EF9D71B5064271C5065231D506623FB
:101728001E5067234F0EA96503D02050D8B411D09E
:1017380064C042F165C043F166C044F167C045F139
:10174800000E706F000E716F000E726F000E736FD7
:10175800120064510101425D1B6E000165510101D7
:1017680043591C6E00016651010144591D6E000168
:101778006751010145591E6E1CC01BF01DC01CF0AD
:101788001EC01DF01E6A1DBE1E681BC027F01CC0AF
:1017980028F01DC029F01EC02AF02ABE11D02A50F8
:1017A800291006E1DD0E275C050E2858D8A008D0C0
:1017B800DC0E276E050E286E000E296E000E2A6EAE
:1017C8002AAE12D0240E275CFA0E2858FF0E29588C
:1017D800FF0E2A58D8B008D0240E276EFA0E286EAD
:1017E800FF0E296EFF0E2A6E2ABE31D02A5029100C
:1017F800281004E1320E275CD8A029D0CE0E272469
:10180800016EFF0E2820026EFF0E2920036EFF0EC8
:101818002A20046ED00E056E070E066E000E076EA7
:10182800000E086E5FEC1DF001C00DF002C00EF056
:1018380003C00FF004C010F0AA0E116E050E126E50
:10184800000E136E000E146E52EC16F034D02AAE51
:101858003BD0CF0E275CFF0E2858FF0E2958FF0EED
:101868002A58D8B031D0320E2724016E000E282015
:10187800026E000E2920036E000E2A20046ED00E80
:10188800056E070E066E000E076E000E086E5FEC02
:101898001DF001C00DF002C00EF003C00FF004C02F
:1018A80010F0AA0E116E050E126E000E136E000EC9
:1018B800146E52EC16F00DC021F00EC022F00FC0CD
:1018C80023F010C024F008D0000E216E000E226E06
:1018D800000E236E000E246E21C070F022C071F03D
:1018E80023C072F024C073F01200000E0001F16FE3
:1018F800000EF06F000EEF6F520E846F010E856FB1
:10190800010EF36FF351020D920EF324D96E010EFE
:10191800F420DA6E000EDE6E000EDD6EF32B050E7F
:10192800F365F0D7000EF36FE00EEB6FFF0EEC6F70
:1019380084C0D9FF85C0DAFFDF50ED6FEE6BEB5145
:10194800ED27EC51EE23EE5171E15F0EED5DD8B05D
:101958006DD002D0844B852B84C0D9FF85C0DAFFB7
:10196800200EDE18D8B4F6D7E00EEB6FFF0EEC6F42
:1019780084C0D9FF85C0DAFFDF50ED6FEE6BEB5105
:10198800ED27EC51EE23EE5151E15F0EED5DD8B03D
:101998004DD0F351020D920EF324D96E010EF420AE
:1019A800DA6E84C0DEFF85C0DDFFF04BF12B13D06B
:1019B800E00EEB6FFF0EEC6FF251ED6FEE6BEB513B
:1019C800ED27EC51EE23EE5110E15F0EED5DD8B03E
:1019D8000CD0844B852B84C0D9FF85C0DAFFDF503B
:1019E800F26F200EF219D8A4E3D7E00EEB6FFF0ECA
:1019F800EC6F84C0D9FF85C0DAFFDF50ED6FEE6B66
:101A0800EB51ED27EC51EE23EE5110E15F0EED5D49
:101A1800D8B00CD084C0D9FF85C0DAFF000EDF6EC5
:101A2800844B852BF32B050EF3657ED7000EF36FE1
:101A3800F351050DFD0EF324F66E6E0EF420F76ECD
:101A48000900F5CFEBF00900F5CFECF0EBC0F6FF9D
:101A5800ECC0F7FF0800F550240AD8B420D092C192
:101A68000DF093C10EF0F351050DFD0EF324F66E43
:101A78006E0EF420F76E0900F5CF0FF00A00F5CFCF
:101A880010F0AFEC1BF00009D8B404D0010E00012F
:101A9800EF6F05D00001F32BF90EF365C9D7F1BF3D
:101AA80019D0F15104E1020EF05DD8A013D094C111
:101AB8000DF095C10EF0C20E0F6E7E0E106EAFECDB
:101AC8001BF00009D8B406D094C1D9FF95C1DAFF3C
:101AD8003F0EDF6E0001EF51D8B422D0F0C047F0BE
:101AE800F1C048F0920E496E010E4A6EF351050D91
:101AF800030EF326000EF422FD0EF324F66E6E0E8E
:101B0800F420F76E01D812000500FA6E0900F550AE
:101B1800FD6E0900F550FE6EF850FF6EFA50120087
:101B2800950E026E7B0E036E8AEC1DF0120020EEFD
:101B380002F04950D9264A50DA22DECF08F0DDCF2C
:101B480009F0FAEC13F00850516E000E4E6E20EEBC
:101B580002F04950D9264A50DA22DECF4BF0DDCFC9
:101B68004CF04BC0D9FF4CC0DAFF3F0EDE18D8A4AA
:101B780019D0F80E026E710E036E8AEC1DF0950EE8
:101B8800026E700E036E8AEC1DF09E0E026E740ECD
:101B9800036E8AEC1DF0DC0E026E6F0E036E8AEC8B
:101BA8001DF0120047044810D8A44CD00E0E026E47
:101BB8007B0E036E8AEC1DF0C90E026E7A0E036E60
:101BC8008AEC1DF03C0E026E7B0E036E8AEC1DF053
:101BD800010E516E010E4F6E51501B6E1C6A1D6A2C
:101BE8001E6A040E1F6EBEEC0FF02F0E026E7E0EE4
:101BF800036E8AEC1DF04F50070B4B6E4C6AD50EE6
:101C08004B24D96E000E4C20DA6EDF504D6E4D50CD
:101C18001B6E1C6A1D6A1E6A030E1F6EBEEC0FF057
:101C2800CB0E026E740E036E8AEC1DF04F2A512AF9
:101C3800080E4F64D1D7250E026E7B0E036E8AEC18
:101C48001DF0120048BE87D0485004E1030E475CDF
:101C5800D8A081D020EE04F04950D9264A50DA2283
:101C6800DECF4BF0DDCF4CF04BC0D9FF4CC0DAFFD4
:101C78003D0EDE18D8A412D0040E47184810D8A478
:101C88000DD020EE06F04950D9264A50DA22DECF90
:101C980008F0DDCF09F0FAEC13F00CD020EE04F0D8
:101CA8004950D9264A50DA22DECF08F0DDCF09F0B4
:101CB800FAEC13F00850506E5150D8B415D0090EF4
:101CC800516012D0800E50600FD0080E5118D8A461
:101CD80002D0000E516ED50E5124D96EDA6A000E6C
:101CE800DA2250C0DFFF08D0010E4E6EE20E026EFF
:101CF800770E036E8AEC1DF04E50D8A41200DEEC6D
:101D080021F05150D8A402D0080E516E950E026EE3
:101D18007D0E036E8AEC1DF051501B6E1C6A1D6A05
:101D28001E6A010E1F6EBEEC0FF0B80E026E7C0E1E
:101D3800036E8AEC1DF050501B6E1C6A1D6A1E6AE9
:101D4800030E1F6EBEEC0FF0CB0E026E740E036E08
:101D58008AEC1DF01200AB0E026E7B0E036E8AEC4D
:101D68001DF01200E2EC1BF0F29E898C92800F01AC
:101D78003881000E3FEC1BF00F013891899092904A
:101D880000F000F000F000F092820F013883010E9D
:101D98003FEC1BF00F0138938992929200F000F00B
:101DA80000F000F092840F013885020E3FEC1BF022
:101DB8000F0138958994929400F000F000F000F03B
:101DC80092860F013887030E3FEC1BF00F013897FE
:101DD8008996929600F000F000F000F0928A0F01C8
:101DE800388B040E3FEC1BF00F01389B899A929AAE
:101DF80000F000F000F000F096800F013C81050E25
:101E08003FEC1BF00F013C918D90969000F000F094
:101E180000F000F096820F013C83060E3FEC1BF0A9
:101E28000F013C938D92969200F000F000F000F0C4
:101E380096840F013C85070E3FEC1BF00F013C9583
:101E48008D94969400F000F000F000F093840F0158
:101E58003985080E3FEC1BF00F0139958A9493944D
:101E680000F000F000F000F093860F013987090EAA
:101E78003FEC1BF00F0139978A96939600F000F01B
:101E880000F000F0899CF28E0001B051D8A403D074
:101E9800010EB06F1200000E086E380E0824D96EBD
:101EA800DA6A010EDA22DF50036E046AFC51035C21
:101EB800FD510458D8B02AD0240E0824D96EDA6A05
:101EC800010EDA22000EDF6E2E0E0824D96EDA6AB1
:101ED800010EDA22040EDF6006D02E0E0824D96E19
:101EE800DA6A010E29D008C003F0010E046E000E54
:101EF800056E032A03D0D89004360536032EFBD787
:101F0800045000019A1305509B132FD02E0E08245D
:101F1800D96EDA6A010EDA22000EDF6E240E08246A
:101F2800D96EDA6A010EDA22040EDF6008D0240EB8
:101F38000824D96EDA6A010EDA22DF2A16D008C020
:101F480003F0010E046E000E056E032A03D0D8902C
:101F580004360536032EFBD7041C066E051C076ED7
:101F6800065000019A1707509B17082A090E0864A3
:101F780094D71200000E326E000E316E000E2F6ED6
:101F8800010E306E0C0E1F6402D00C0E1F6E1F5017
:101F9800D8A402D0010E1F6E1EAE0BD0010E2F6EFC
:101FA8001B6C1C1ED8B01C2A1D1ED8B01D2A000E82
:101FB8001E56000E356E000E346E1BC001F01CC09C
:101FC80002F01DC003F01EC004F00A0E056E000EDC
:101FD800066E000E076E000E086ECBEC17F001506F
:101FE800300F336E230E3424D96E000E3520DA6E8E
:101FF80033C0DFFF1BC00DF01CC00EF01DC00FF07A
:102008001EC010F00A0E116E000E126E000E136E36
:10201800000E146E52EC16F00DC01BF00EC01CF032
:102028000FC01DF010C01EF0344A352A35BEC5D782
:10203800355004E10C0E345CD8A0BFD7000E356EC5
:102048000B0E346E230E3424D96E000E3520DA6E52
:10205800DF50336E34503510D8B40FD0300E3318EB
:10206800D8A40BD03050D8B408D0230E3424D96E5D
:10207800000E3520DA6E200EDF6E34503510D8B4DD
:1020880004D0300E3318D8B40CD0000E306E315056
:102098003210D8A406D0010E3424316E000E35203B
:1020A800326E3406D8A0350635AECCD72F50D8B40A
:1020B80008D0230E3124D96E000E3220DA6E2D0E90
:1020C800DF6E000E356E0B0E346E230E3424D96E7F
:1020D800000E3520DA6EDF50336E1F50206E216AF5
:1020E8002050345C3550800A226E2150800A2258D4
:1020F800D8A004D0200E3318D8B403D03350D1EC74
:1021080022F03406D8A0350635BE1200DED700010D
:102118009D51D8A415D0000E836F000E826F000E5B
:102128000101526F520E0001846F010E856FC00EBF
:10213800026E010E036E8AEC1DF0010E00019D6F08
:1021480057EC22F00009D8B4120078EC22F05C6E4B
:1021580088D095EC20F0000E0001836F000E826F8E
:10216800000E0101526F520E0001846F010E856F3F
:10217800C00E026E010E036E8AEC1DF0120083BFC2
:102188001200835103E18205D8A012008407D8A069
:1021980085078207D8A08307080ED1EC22F0200E0D
:1021A800D1EC22F0080ED1EC22F012000D0ED1EC89
:1021B80022F00A0ED1EC22F0000183BFCCD7835164
:1021C80003E18205D8A0C7D784C0D9FF85C0DAFF4C
:1021D800000EDF6EEBEC15F079EC0CF0BCD795EC4B
:1021E80020F0000E0001836F000E826F000E0101C7
:1021F800526F520E0001846F010E856FC00E026E81
:10220800010E036E8AEC1DF009EC19F01200200E85
:102218005C6EE00EF46FFF0EF56F5C50F66FF76BB7
:10222800F451F627F551F723F75134E15F0EF65DC7
:10223800D8B0120083BF06D083512CE11E0E825DF8
:10224800D8B012005C50D1EC22F084C0D9FF85C010
:10225800DAFF5CC0DFFF0001844B852B824B832BA8
:1022680012005C500001F46FF56BF551000AD8A418
:10227800D0D7F451080AD8B482D7010AD8B4C7D73E
:10228800040AD8B493D71F0AD8B4A9D70A0AD8B46D
:1022980060D7BFD7120082EC22F0DDEC1DF0000EF3
:1022A8000001A76F000ED1EC22F00001A72B090E48
:1022B800A765F8D7A70E026E7C0E036E8AEC1DF098
:1022C80034EC1DF00009D8A404D00001AE8121EC43
:1022D80018F00001CE51C5EC22F05FEC21F001C0EE
:1022E8006CF002C06DF003C06EF004C06FF007D050
:1022F800B551D8B404D0000EB56FABEC21F05FEC4B
:1023080021F000016C51015CF86F6D510258F96FB2
:102318006E510358FA6F6F510458FB6FFB51FA1155
:10232800F91104E1C80EF85DD8A0E2D78B80E9C0A6
:102338008EF0EAC08FF0CFC001F0D0C002F0000EDE
:10234800046E050E036E72EC21F001C007F002C0A6
:1023580008F0000E0A6E640E096EB4EC1DF0000160
:102368008E5107248C6F8F5108208D6F20EECFF08F
:10237800DECFF8F0DDCFF9F0D890F837F937D890FC
:10238800F837F937F8C007F0F9C008F0000E0A6E00
:10239800640E096EB4EC1DF000018E5107248A6F9B
:1023A8008F5108208B6F8F5104E1080E8E5DD8A0E5
:1023B80002D08F05D8B0AE85000E83BA010E5E6ECE
:1023C800C4C102F0C5C103F08AEC1DF0000E486ECE
:1023D800010E476E000E496E000E4A6E4DEC19F064
:1023E8008FEC1AF08BEC10F006EC1EF0F9D7CFC08A
:1023F80029F0D0C02AF000018E51E95D016E8F519D
:10240800EA59026E036AD8A003060350046E800ED0
:10241800056E3F0E066E000E076E000E086E5FEC2E
:102428001DF001C00DF002C00EF003C00FF004C093
:1024380010F029C011F02AC012F0136A146A52EC85
:1024480016F00DC02BF00EC02CF00FC02DF010C0F0
:102458002EF02EAE08D0000E2B6E000E2C6E000E45
:102468002D6E000E2E6E2EBE11D02E502D1006E1B0
:10247800810E2B5C3F0E2C58D8A008D0800E2B6EF6
:102488003F0E2C6E000E2D6E000E2E6E020E1B6E71
:1024980068C01CF069C01DF06AC01EF06BC01FF058
:1024A8001B6601D007D01F341F321E321D321C326A
:1024B8001B2EF6D7020E206E2BC021F02CC022F066
:1024C8002DC023F02EC024F0206601D007D024347C
:1024D8002432233222322132202EF6D71C50215C9E
:1024E800256E1D502258266E1E502358276E1F50E9
:1024F8002458286E000168512524686F69512620E8
:10250800696F6A5127206A6F6B5128206B6F070E1D
:102518001B6E68C01CF069C01DF06AC01EF06BC05D
:102528001FF01B6601D007D01F341F321E321D3228
:102538001C321B2EF6D71C507F0B5D6E00016851B4
:102548007F0BAA6F120047044810D8B412D020EEAF
:1025580002F04950D9264A50DA22DECF4BF0DDCFBF
:102568004CF04BC0D9FF4CC0DAFF3F0EDE18D8A4A0
:1025780013D0D90E026E730E036E8AEC1DF0690E2D
:10258800026E7B0E036E8AEC1DF0720E026E760EE2
:10259800036E8AEC1DF0120048BE19D0485004E1C1
:1025A800020E475CD8A013D020EE02F04950D9267D
:1025B8004A50DA22DECF02F0DDCF03F0A8EC1CF09F
:1025C800F00E021400017C6FFF0E03147D6F7CC0B7
:1025D80051F07DC052F0000E4F6E51C003F052C052
:1025E80004F09DEC1EF0E70E026E7E0E036E8AEC80
:1025F8001DF0000E536E51C001F052C002F094EC71
:1026080022F08BEC22F0514A522A200ED1EC22F013
:102618005350070B070AD8A403D0200ED1EC22F0A0
:10262800532A0F0E5364E7D7100E515E000E525A0C
:10263800000E536E51C001F052C002F094EC22F02B
:10264800506E514A522AE00E4B6EFF0E4C6E50509F
:102658004D6E4E6A4B504D264C504E224E5008E15E
:102668005F0E4D5CD8B004D05050D1EC22F003D0AE
:102678002E0ED1EC22F0532A0F0E5364DBD7CB0E6B
:10268800026E740E036E8AEC1DF04F2A0F0E4F6413
:10269800A4D70001010E7D2712000001D351885DE7
:1026A800246ED4518959256E266AD8A0260626504C
:1026B800276E27AE08D0000E246E000E256E000E81
:1026C800266E000E276ED351D15D206ED451D2599B
:1026D800216E226AD8A022062250236E24C001F05F
:1026E80025C002F026C003F027C004F0800E056E56
:1026F8003F0E066E000E076E000E086E5FEC1DF0B2
:1027080001C00DF002C00EF003C00FF004C010F0BD
:1027180020C011F021C012F022C013F023C014F021
:1027280052EC16F00DC024F00EC025F00FC026F0B4
:1027380010C027F027BE11D02750261006E1810EC1
:10274800245C3F0E2558D8A008D0800E246E3F0E7A
:10275800256E000E266E000E276E24C001F025C0DF
:1027680002F026C003F027C004F024C005F025C0FD
:1027780006F026C007F027C008F05FEC1DF001C086
:102788000DF002C00EF003C00FF004C010F0800E70
:10279800116E3F0E126E000E136E000E146E52EC88
:1027A80016F00DC024F00EC025F00FC026F010C0A2
:1027B80027F024507F0B0001A86F070E1B6E24C062
:1027C8001CF025C01DF026C01EF027C01FF01B6698
:1027D80001D007D01F341F321E321D321C321B2E6F
:1027E800F6D71C507F0B0001A96F1200000E116E66
:1027F800000E106E000E0F6E000E0E6E02D0084A0C
:10280800092A08C0D9FF09C0DAFF200EDE18D8B49B
:10281800F6D7F70E0A6EFF0E0B6E08C0D9FF09C077
:10282800DAFFDF500C6E0D6A0A500C260B500D2291
:102838000D500CE1050E0C5CD8B008D0E0D7000EA6
:102848000F6E010E0E6E084A092A2ED008C0D9FF55
:1028580009C0DAFFDF500A6E0B6A0B50000AD8A4D1
:1028680023D00A502B0AD8B4EED7060AD8B4E7D733
:102878001BD010C001F011C002F0000E046E0A0E49
:10288800036E72EC21F008C0D9FF09C0DAFFDF50EF
:102898000A6E0A50015E000E025A300E0124106EB4
:1028A800000E0220116ECFD7D00E0A6EFF0E0B6EEF
:1028B80008C0D9FF09C0DAFFDF500C6E0D6A0A5054
:1028C8000C260B500D220D5004E10A0E0C5CD8A00A
:1028D800D0D70E500F10D8A40DD010C00AF011C0D8
:1028E8000BF00A1E0B1E0A4A0B2A0AC008F00BC07E
:1028F80009F0120010C008F011C009F01200000E13
:102908004E6E000E4D6E610E516E000E506E010E31
:102918004F6E4FC001F050C002F0000E046E050E5D
:10292800036E72EC21F0FD0E0124F66E6E0E02208D
:10293800F76E0900F5CF52F00A00F5CF53F052C0F8
:10294800F6FF53C0F7FF0800F550240AD8B447D063
:1029580052C0F6FF53C0F7FF0800F5505118D8A42D
:1029680034D052C002F053C003F08AEC1DF052C0BC
:1029780001F053C002F090EC1FF001500C084B6EB0
:102988000250D8A0E82A00084C6E03D0200ED1ECE3
:1029980022F04B06D8A04C064B28F8E14C28D8A4C6
:1029A800F5D74D4A4E2A4EBE10D04E5004E1060EC1
:1029B8004D5CD8A00AD0000E4E6E000E4D6ECB0EA8
:1029C800026E740E036E8AEC1DF04F4A502A50BEF8
:1029D800A0D7505004E1FA0E4F5CD8A09AD7512ADC
:1029E8007A0E516492D74D504E10D8B41200CB0EC7
:1029F800026E740E036E8AEC1DF012000C6EB80E97
:102A08005E24D96EDA6A000EDA22DF500B6E0C50A3
:102A1800070B076E086AD50E0724D96E000E08202A
:102A2800DA6EDF50096EBC0E5E24D96EDA6A000ECB
:102A3800DA22DF50D8B415D0BA0E5E24D96EDA6A1D
:102A4800000EDA22DF50D8B407D00C50070B046E02
:102A58000B504AEC22F005D009C004F00B504AECA8
:102A680022F0F00E0101146F730E156F070E166F2A
:102A78000C50070B176F74C018F175C019F176C0A8
:102A88001AF1AEC01BF1CCC01CF1C80E5E24D96E81
:102A9800DA6A000EDA22DF501D6FCA0E5E24D96E84
:102AA800DA6A000EDA22DF501E6FF70E1F6FBA0EB9
:102AB8005E24D96EDA6A000EDA22DF50D8B412002A
:102AC800000E0D6E140E0D24D96EDA6A010EDA228C
:102AD800DF500A6E0A5006EC1BF0F70E0A18D8B43D
:102AE80012000D2A3F0E0D64EDD71200B80E5E24B9
:102AF800D96EDA6A000EDA22DF50106E00019351A7
:102B0800136ECCA10ED01438F00B100B0F6ED890AA
:102B180014300F0B0F100E6E1450E00B0E10146EC5
:102B280002D092C014F0AB51D8A412009251931164
:102B3800D8A404D010501FEC22F012001350D8A4CF
:102B480017D01450D8B414D0010E116E010E126EA5
:102B580012501418D8A404D0115002EC15F0120029
:102B680012501224126E112A1250D8B41200F0D743
:102B78001304D8A408D01450D8A405D0F40ECD6FEF
:102B8800DEEC21F012001350D8B406D0200E141831
:102B9800D8A402D0F90EF3D7030E1318D8A405D081
:102BA8001450D8A402D0000EEAD71350D8B406D0D7
:102BB800800E1418D8A402D0050EE1D7020E1318FF
:102BC800D8A412001450D8A412000C0ED8D70001B3
:102BD8009C51D8A42BD0000E0C6E000E0B6E0BC0AF
:102BE80009F00CC00AF0050ED89009360A36E82E0E
:102BF800FBD7000E0924D96E030E0A20DA6E000EE8
:102C0800DF6E0B4A0C2A0CBEEAD70C5004E1040E06
:102C18000B5CD8A0E4D7000E0001816F000E806F16
:102C2800000E7F6F000E7E6F010E9C6F520E016EBC
:102C3800010E026E90EC1FF001500210D8B4120081
:102C480080C009F081C00AF0050ED89009360A360E
:102C5800E82EFBD7000E0924016E030E0A20026E2F
:102C6800520E036E010E046E000E066E1E0E056EE9
:102C7800D7EC1CF080C07EF081C07FF00001804B53
:102C8800812B81BF1200815104E1040E805DD8A020
:102C98001200000E816F000E806F1200000E166E7B
:102CA80014AE0AD0141E131E121E116C000E12222E
:102CB80013221422010E166E10AE0AD0101E0F1E1B
:102CC8000E1E0D6C000E0E220F221022010E161A77
:102CD800000E176E000E186E000E196E000E1A6E9A
:102CE8001150121013101410D8B42AD0010E156EFA
:102CF80006D0D8901136123613361436152A14AE6B
:102D0800F8D7D8901736183619361A3611500D5C80
:102D180012500E5813500F5814501058D8A009D0FC
:102D280011500D5E12500E5A13500F5A1450105A6B
:102D38001780D8901432133212321132152EE1D77F
:102D48001650D8B408D01A1E191E181E176C000E7B
:102D5800182219221A2217C00DF018C00EF019C037
:102D68000FF01AC010F012005555555555555555C8
:102D780058585858585858585858585858585858CB
:102D880060606057606060605B5A54545B54545490
:102D98005757565656565555515A535250515352E5
:102DA8004F4E4E504D4D4C59494949494949494959
:102DB80047474747474747474A4A4A4A4A4A4A4A83
:102DC8004C4C4C4C49494C4B303030303030303022
:102DD80049494949494949494961616155555555E3
:102DE8004E4E4E4E4D4D4C4B49494949494949492A
:102DF80054545454535251504848484848484848F5
:102E08004F4E4E4E4D4D4C4A474646464646464620
:102E18004646464646464646454444444444444459
:102E2800434242424141403E000E506E000E4F6EFA
:102E3800000E556E530E026E7B0E036E8AEC1DF06B
:102E480043D0C3EC18F0200ED1EC22F05FEC21F057
:102E580001C051F002C052F003C053F004C054F056
:102E680002D08FEC1AF05FEC21F05150015C4B6EF0
:102E7800525002584C6E535003584D6E54500458DB
:102E88004E6E4E504D104C1004E1A70E4B5CD8A06E
:102E9800E8D70D0ED1EC22F057EC22F00009D8B497
:102EA80003D078EC22F0556E0D0E5518D8A408D032
:102EB800000E556ECB0E026E740E036E8AEC1DF07A
:102EC800320E4F26000E50221B0E5518D8A4B9D723
:102ED800CB0E026E740E036E8AEC1DF01200386E73
:102EE80038C001F0026A000E046E0C0E036E91ECFD
:102EF80019F00104376E38C001F0026A000E046E42
:102F08000C0E036E77EC1BF00150396EFC0E026E4E
:102F18007E0E036E8AEC1DF0AA0E3924D96EDA6A89
:102F2800010EDA22DF50D1EC22F09E0E3924D96E40
:102F3800DA6A010EDA222D0EDE18D8B409D09E0EF8
:102F48003924D96EDA6A010EDA22DF50D1EC22F088
:102F580037501B6E1C6A1D6A1E6A010E1F6EBEEC7E
:102F68000FF0FC0E026E7E0E036E8AEC1DF03850D8
:102F78001B6E1C6A1D6A1E6A030E1F6EBEEC0FF0E4
:102F8800CB0E026E740E036E8AEC1DF01200000E5A
:102F98000A6E04AE0AD0041E031E021E016C000E47
:102FA800022203220422010E0A6E08AE08D0081E6F
:102FB800071E061E056C000E062207220822055071
:102FC800061007100810D8B424D0010E096E06D0D8
:102FD800D8900536063607360836092A08AEF8D7D7
:102FE8000550015C06500258075003580850045811
:102FF800D8A008D00550015E0650025A0750035A5F
:103008000850045AD8900832073206320532092E81
:10301800E7D70A50D8B408D0041E031E021E016C5C
:10302800000E02220322042201C001F002C002F0B5
:1030380003C003F004C004F01200010E0001B86FD1
:10304800000EBA6F000EBC6F000EBE6F000EC06F90
:10305800020EC26F050EC46F000EC66F010EC86F58
:10306800000ECA6F010EB96F010EBB6F000EBD6F67
:10307800000EBF6F000EC16F020EC36F050EC56F45
:10308800000EC76F010EC96F000ECB6F000ECC6F1C
:10309800000ECD6F960ECE6F020ED06FEE0ECF6F74
:1030A800020ED26FEE0ED16F010ED46FF40ED36FF5
:1030B800000E0A6E3E0E0A24F66EF76A6F0EF722AD
:1030C800D50E0A24D96EDA6A000EDA220800F5CF86
:1030D800DFFF0A2A070E0A64EDD7DEEC21F01200A2
:1030E800000E4C6E000E4B6E47044810D8A428D032
:1030F8003F0E026E730E036E8AEC1DF008D057EC7B
:1031080022F00009D8B403D078EC22F04C6E1F0EE0
:103118004C64F5D74C50D1EC22F0CB0E026E740EF5
:10312800036E8AEC1DF04CC007F0086A46EC20F0EC
:10313800590E07180810D8A416D0010E4B6E13D0DC
:1031480020EE02F04950D9264A50DA22DECF0DF09F
:10315800DDCF0EF0F50E0F6E7E0E106EAFEC1BF08D
:103168000009D8A4EAD74B50D8B4120021EC18F0C3
:103178009C0E026E770E036E8AEC1DF01200100E84
:10318800026E7D0E036E8AEC1DF0E1EC22F001C0A8
:1031980003F002C004F09DEC1EF0F40E026E7C0EEB
:1031A800036E8AEC1DF0000E3DEC22F001C01BF00E
:1031B80002C01CF01D6A1E6A030E1F6EBEEC0FF0E3
:1031C800960E026E7C0E036E8AEC1DF0F1EC22F076
:1031D800366E36501B6E1C6A1D6A1E6A030E1F6E01
:1031E800BEEC0FF04E0E026E7C0E036E8AEC1DF0E4
:1031F800E9EC22F0366E36501B6E1C6A1D6A1E6A98
:10320800030E1F6EBEEC0FF01200520E016E010E7F
:10321800026E7EC009F07FC00AF0050ED89009360C
:103228000A36E82EFBD7000E0924036E030E0A2087
:10323800046E000E066E1E0E056ED7EC1CF0000123
:103248007E517F11D8A404D0000E7F6F040E7E6FCC
:103258007E07D8A07F07520E016E010E026E90EC19
:103268001FF001C082F002C083F0520E00018225D7
:10327800846F010E8321856F84C0D9FF85C0DAFF72
:10328800000EDF6E520E026E010E036E8AEC1DF008
:103298001200730E026E7C0E036E8AEC1DF00001A4
:1032A80074511B6E1C6A1D6A1E6A010E1F6EBEECED
:1032B8000FF02E0ED1EC22F0000175511B6E1C6A26
:1032C8001D6A1E6A010E1F6EBEEC0FF02E0ED1ECA9
:1032D80022F00A0E0001766103D0300ED1EC22F004
:1032E800000176511B6E1C6A1D6A1E6A010E1F6E54
:1032F800BEEC0FF0EF0E026E7E0E036E8AEC1DF030
:103308005E0E026E7D0E036E8AEC1DF0CB0E026E11
:10331800740E036E8AEC1DF01200000E066E04AEE9
:1033280006D0036C041ED8B0042A010E066E02AE45
:1033380006D0016C021ED8B0022A010E061A000E31
:10334800086E000E076E03500410D8B41CD0010E8E
:10335800056E04D0D89003360436052A04AEFAD791
:10336800D890073608360350015C04500258D8A09C
:1033780005D00350015E0450025A0780D8900432E9
:103388000332052EEDD70650D8B404D0076C081EBA
:10339800D8B0082A07C001F008C002F01200000ED9
:1033A800096E000E0A6E000E0B6E000E0C6E0550B4
:1033B800061007100810D8B42AD0010E0D6E06D0DA
:1033C800D89005360636073608360D2A08AEF8D7DF
:1033D800D89009360A360B360C360550015C065073
:1033E80002580750035808500458D8A009D005506F
:1033F800015E0650025A0750035A0850045A0980C1
:10340800D89008320732063205320D2EE1D709C0AE
:1034180001F00AC002F00BC003F00CC004F0120067
:10342800056E480E98EC21F00D0E38EC21F0076E71
:103438001A0E0718D8A402D0010E05D02A0E0718B4
:10344800D8A403D0020E066E02D0000E1200010EA0
:10345800026E2A0E2EEC22F02A0E38EC21F0076EAE
:103468000704D8B402D0000E066E070E056406D015
:10347800020E026E0E0E2EEC22F00ED0030E056424
:1034880006D0010E026E0E0E2EEC22F005D0000EB4
:10349800026E0E0E2EEC22F006501200C20E5E24B2
:1034A800D96EDA6A000EDA22DF50096EB80E5E2491
:1034B800D96EDA6A000EDA22DF50086E0950D8B4E5
:1034C8000ED00001A4515D18D8B409D009C004F089
:1034D8005DC005F00850BCEC21F05DC0A4F00950B7
:1034E800D8B412000001A351AA19D8B41200C60E0C
:1034F8005E24D96EDA6A000EDA22DF50D8B41200E0
:103508000950200F046EAAC005F00850BCEC21F049
:10351800AAC0A3F012000001B651D8B404D0000E1E
:10352800B66FB6EC0EF00001B551D8B41CD0000E41
:10353800B56FABEC21F0E1EC22F0FF0E01140001B5
:10354800926F030E0214936FFBEC11F051EC13F021
:10355800F1EC09F007EC1FF00101C651D8B403D013
:10356800000E39EC0BF00001B451D8B41200000E73
:10357800B46FA62B040EA619D8A41200000EA66FCD
:10358800000E83BA010E5E6E62EC20F01200700E1F
:10359800F66E2D0EF76E000EF86E02EE00F010EECD
:1035A800C0F00900F5CFEEFFE550E150FAE1980EC2
:1035B800F66E420EF76E000EF86E01EE9EF010EEFB
:1035C80026F00900F5CFEEFFE550E150FAE103EEF1
:1035D80000F0800EEE6AE806FDE101EE00F09E0EB6
:1035E800EE6AE806FDE100EE60F08B0EEE6AE80692
:1035F800FDE15E6A5D6A5F905F92000EF86E000101
:103608004FEF11F0036E0001AF51D8A40ED0720E27
:10361800986F010E996F720E966F010E976F000EDC
:10362800956F000E946F010EAF6F95BF06D0955140
:1036380021E1200E945DD8B0120096C0D9FF97C042
:10364800DAFF03C0DFFF964B972B720E016E010E57
:10365800026E200E0126000E02220150965D0250D5
:103668009759D8A004D0720E966F010E976F944B9D
:10367800952B12001200026EB60E0224D96EDA6A79
:10368800010EDA22DF50016E01460146C2500118D0
:10369800830B0118C26E00F000F000F000F00F017B
:1036A800458300F000F000F000F00F0145934493CB
:1036B800448100F000F000F000F000F000F000F0AD
:1036C80000F000F000F000F000F00F014491C28219
:1036D800C2B2FED7380E0224D96EDA6A010EDA2297
:1036E800C4CFDFFF1200000E066E02AE06D0016CDA
:1036F800021ED8B0022A010E066E04AE04D0036C76
:10370800041ED8B0042A03500410D8B418D0010EEF
:10371800056E04D0D89003360436052A04AEFAD7CD
:103728000350015C04500258D8A004D00350015E35
:103738000450025AD89004320332052EF1D70650AD
:10374800D8B404D0016C021ED8B0022A01C001F01E
:1037580002C002F012001268010E136E29D00DC0CB
:10376800D9FF0EC0DAFFDF50116E1150076E086ADC
:103778000DEC20F00750146E0D4A0E2A0FC0F6FF0C
:1037880010C0F7FF0800F550076E086A0DEC20F02E
:103798000750156E0F4A102A15501418D8B402D0C5
:1037A800000E136E1450D8B407D01550D8B404D0F6
:1037B80012061228D8A4D3D7135012000F01459F20
:1037C800459B45994597459545934591449F9F0E3F
:1037D800441744894451F30B0409446F030E4313FF
:1037E800030E4317000EC26E000EC16EC09EC0507D
:1037F800F80B0109C06EC050C70B1009C06E000E4F
:10380800C36E000EC46E010EC26E458F000E00011D
:10381800FD6F960EFC6F000E9B6F000E9A6F929CC8
:103828001200400E076EC00E0514056EFF0E06143A
:10383800066E05C001F006C002F085EC21F0000E0E
:10384800F86E0650F76E05C0F6FF09D003C0D9FF21
:1038580004C0DAFFDF50F56E034A042A0D0007069C
:103868000728D8A4F3D705C0F6FFA68EA69CA68481
:10387800A698F29E550EA76EAA0EA76EA682F28E85
:10388800A6941200000E016E240E026EF40E036E52
:10389800000E046E0E50106E0F50116E126A136AED
:1038A800020ED8901036113612361336E82EF9D794
:1038B80010C005F011C006F012C007F013C008F0E0
:1038C800D3EC19F0FF0E0124146EFF0E0220156EC2
:1038D800080E706E900E716E240E726E14C075FF15
:1038E8001550766E1200000E016E240E026EF40E54
:1038F800036E000E046E0E50106E0F50116E126A99
:10390800136A020ED8901036113612361336E82E86
:10391800F9D710C005F011C006F012C007F013C0A7
:1039280008F0D3EC19F0FF0E0124146EFF0E0220EC
:10393800156E080EB86E900EAB6E240EAC6E14C0E9
:10394800AFFF1550B06E1200000E086E000E076E25
:10395800000E096E02C0D9FF03C0DAFF024A032A2B
:10396800DF50EFEC1FF0066E0628D8B417D007C05A
:1039780004F008C005F0043A053AF00E05160450A4
:103988000F0B0512F00E041606500424076E000EE5
:103998000520086E092A030E0964DCD707C002F067
:1039A80008C003F0120001C007F002C008F014D0EC
:1039B8000506D8A0060603C0D9FF04C0DAFF034AEB
:1039C800042A07C0E1FF08C0E2FF074A082ADFCF40
:1039D800E7FFE750D8B40DD005500610D8B409D089
:1039E800E7D707C0D9FF08C0DAFF000EDF6E074A25
:1039F800082A0506D8A006060528F3E10628D8B443
:103A08001200EFD7B80E5E24D96EDA6A000EDA22F9
:103A1800DF50086E0001A151A919D8B409D0010ED0
:103A2800046EA9C005F00850BCEC21F0A9C0A1F0B3
:103A38000001A251A819D8B41200C60E5E24D96E8E
:103A4800DA6A000EDA22DF50D8B41200210E046EB2
:103A5800A8C005F00850BCEC21F0A8C0A2F01200E4
:103A6800010E0E6EB80E0C6E000E0D6EB80E016EC5
:103A7800000E026E7F0E046E800E036E270E056E1A
:103A880023EC21F00CC0D9FF0DC0DAFFDE2805E1D8
:103A9800DE28D8A402D0000E0E6E78EC1EF00001CD
:103AA800DD51011804E1DE510218D8B402D0000E2D
:103AB8000E6E0E501200000E096E000E0A6E000EF9
:103AC8000B6E000E0C6E01A008D00550092606509A
:103AD8000A2207500B2208500C22D89005360636C9
:103AE80007360836D89004320332023201320150C8
:103AF800021003100410D8A4E6D709C001F00AC0C8
:103B080002F00BC003F00CC004F012000ED00A0E35
:103B18000618D8A407D00D0ED1EC22F00A0ED1EC6D
:103B280022F003D00650D1EC22F00250046E03506C
:103B3800056E024A032A04C0F6FF05C0F7FFF86ABB
:103B4800050EF76403D00800F55005D0F6CFE9FF5D
:103B5800F7CFEAFFEF50066E0650D8B41200D7D759
:103B6800000E0C6E000E0B6E09500A10D8B41CD053
:103B7800010E0D6E04D0D89009360A360D2A0AAE09
:103B8800FAD7D8900B360C360950075C0A500858FB
:103B9800D8A005D00950075E0A50085A0B80D89063
:103BA8000A3209320D2EEDD70BC007F00CC008F011
:103BB8001200010E0001746F040E756F320E766FDD
:103BC800CD0E0101C46F740EC56F000E0001AE6FFB
:103BD80094909492960E0F6E000E0E6E77EC1CF079
:103BE8007A0E0F6E120E0E6E46EC1CF00FEC22F0E1
:103BF800E2EC1BF0020E14EC1AF00101C66FF28E13
:103C0800F28C1200000194519511D8B41200A4A8A6
:103C1800120098C0D9FF99C0DAFFDF50CBEC22F030
:103C28000001984B992B720E026E010E036E200E46
:103C38000226000E03220250985D03509959D8A01D
:103C480004D0720E986F010E996F9407D8A095074B
:103C58001200046E04C003F003460346C250031862
:103C6800830B0318C26E00F000F000F000F000F0C3
:103C780000F000F000F0C282C2B2FED7C4CF05F057
:103C8800066A0550066E056AC3500524056E000EC7
:103C98000620066E05C001F006C002F01200300EC4
:103CA800026E720E036E8AEC1DF0A70E026E730E82
:103CB800036E8AEC1DF00A0E026E730E036E8AEC18
:103CC8001DF0910E026E6F0E036E8AEC1DF0460E0B
:103CD800026E6F0E036E8AEC1DF0D20E026E700E2D
:103CE800036E8AEC1DF01200000E056E000E046EC5
:103CF800B80E066E000E076E250E086E000E096ED1
:103D08000DD006C0D9FF07C0DAFFDF50036E03509D
:103D18000426000E0522064A072A092A0850095CCB
:103D2800D8A0EFD7BA0E0418016EAB0E0518026EB4
:103D3800120003C005F004C006F00C0E076ED89000
:103D480006320532072EFBD70550EFEC21F0045060
:103D5800EFEC21F003C005F004C006F0040E076E76
:103D6800D89006320532072EFBD70550EFEC21F02C
:103D780003500F0BEFEC21F01200016E1CD000F085
:103D880000F000F000F000F000F000F000F000F0AB
:103D980000F000F000F000F000F000F000F000F09B
:103DA80000F000F000F000F000F000F000F000F08B
:103DB80000F000F000F001060128D8B41200DFD7A7
:103DC8000F01459F00F000F000F000F0000EC26EF9
:103DD800000EC16EC08EC050F80B0509C06EC050F1
:103DE800C70B1009C06E000EC36E000EC46E010E24
:103DF800C26E93820F013983938839899380398100
:103E0800938A398B12000001A051D8A408D0310E32
:103E18009F650AD07AEC15F0010E000104D0C70E98
:103E28009E6502D0000EA06F83B808D0FA0E9F617D
:103E380002D0050E9F27000E9E6F1200FA0E9E619B
:103E480002D0050E9E27000E9F6F1200000E8D6E89
:103E5800000E8C6E000E896E000E8A6E000E8B6E40
:103E6800070E966E3F0E926E9368900E946EB70E84
:103E7800956E000E0F013A6F3969000E3B6F070E01
:103E88003C6F2F0E386F6168F19E8B848C96120000
:103E9800B80E5E24D96EDA6A000EDA22DF500B6E95
:103EA800B1EC1FF001C00CF002C00DF0000186510A
:103EB8000C1804E187510D18D8B412000CC004F096
:103EC8000DC005F00B502AEC20F00CC086F00DC098
:103ED80087F012009E900001FF51CF6EFEC0CEFF0A
:103EE800B651D8A4B32B010E7827000E79237A2374
:103EF8007B23010EB66FB22B040EB26504D0010EFF
:103F0800B56F000EB26FB12B310EB1651200010E04
:103F1800B46F000EB16F120001C003F002C004F0CC
:103F280002D0014A022A01C0F6FF02C0F7FFF86A70
:103F3800050EF76403D00800F55005D0F6CFE9FF69
:103F4800F7CFEAFFEF500009D8A4EBD70350015C84
:103F5800016E04500258026E120070C003F071C066
:103F680004F072C005F073C006F0020ED890033654
:103F7800043605360636E82EF9D703C007F004C024
:103F880008F005C009F006C00AF0000E0724016E0B
:103F9800200E0820026E1200010E076E200E011876
:103FA8000210D8B414D0F70E036EFF0E046E01C0D1
:103FB80005F002C006F003500526045006220650FC
:103FC80004E1050E055CD8A002D0000E076E07C0FC
:103FD80001F0026A1200016E2F0E016406D03A0E3B
:103FE800016003D00150D00F1200400E016406D0CA
:103FF800470E016003D00150C90F1200600E016422
:1040080006D0670E016003D00150A90F1200FF0E01
:104018001200BF0E096EFF0E0A6E07C00BF008C033
:104028000CF009500B260A500C220C500AE11A0E0B
:104038000B5CD8B006D0200E0710076E0850086E2B
:10404800120007C007F008C008F01200096E090442
:104058000F0BE0090A6E0A5006EC1BF004507F0BA8
:1040680006EC1BF004C006F005C007F0070E086E4A
:10407800D89007320632082EFBD706507F0B06EC85
:104088001BF012009F0E096EFF0E0A6E07C00BF0A0
:1040980008C00CF009500B260A500C220C5009E1FC
:1040A8001A0E0B5CD8B005D05F0E0714076E086AAD
:1040B800120007C007F008C008F01200BA0E5E240C
:1040C800D96EDA6A000EDA22DF50D8B41200000185
:1040D800AB51D8A41200F00E06EC1BF0730E06ECE0
:1040E8001BF0300E06EC1BF0F70E06EC1BF012006E
:1040F80020EE02F04950D9264A50DA22DECF4BF0A2
:10410800DDCF4CF04BC0D9FF4CC0DAFF3F0EDE18B4
:10411800D8A41200D50E026E7B0E036E8AEC1DF039
:1041280012000D0ED1EC22F0000E036E000E026E8E
:10413800200ED1EC22F0024A032A03BEF9D703501D
:1041480004E1200E025CD8A0F3D70D0ED1EC22F0CA
:104158001200E00E036EFF0E046E01C005F002C0EF
:1041680006F00350052604500622065006E15F0EAD
:10417800055CD8B002D0010E01D0000E016E026AB3
:1041880012009F0E036EFF0E046E01C005F002C000
:1041980006F00350052604500622065006E11A0EC2
:1041A800055CD8B002D0010E01D0000E016E026A83
:1041B8001200BF0E036EFF0E046E01C005F002C0B0
:1041C80006F00350052604500622065006E11A0E92
:1041D800055CD8B002D0010E01D0000E016E026A53
:1041E8001200D00E036EFF0E046E01C005F002C06F
:1041F80006F00350052604500622065006E10A0E72
:10420800055CD8B002D0010E01D0000E016E026A22
:104218001200016EA49EC7B0FED76B86A4AEFED76F
:10422800A49E6FCF02F00150D8B402D06B9A01D08F
:104238006B8A6B88A4AEFED7A49E02501200000EB3
:10424800F86E0450F76E03C0F6FF09D0090001C0EC
:10425800D9FF02C0DAFFF5CFDFFF014A022A0506BF
:104268000528D8B41200F2D7036EAEEC22F03A0E4D
:1042780063EC22F0035063EC22F0B6EC22F03B0E24
:1042880063EC22F0000E0DEC21F0046E04501200D5
:104298002D232D622D2D232D622D622D4343444560
:1042A80045464647414142420001020304050607CC
:1042B80008090D3E20009D9078C005F079C006F0F1
:1042C8007AC007F07BC008F09D8005C001F006C0E9
:1042D80002F007C003F008C004F012000150030206
:1042E800F3CF05F0F4CF06F001500402F350062690
:1042F80002500302F350062605C001F006C002F082
:104308001200000EF86E0250F76E01C0F6FFA68E7E
:10431800A69CA684A688F29E550EA76EAA0EA76E26
:10432800A682F28EA6941200016E280E6C6E000E04
:104338006B6E800E6D6E480E0118D8A402D0090E5F
:1043480001D0270E6E6EA49EA49C6B901200E4EC24
:104358001EF00B0E2DEC1EF001C0E9F002C0EAF0D1
:104368000D0E2DEC1EF001C088F002C089F012007D
:10437800066E06040F0BB009076E075006EC1BF01B
:1043880004507F0B06EC1BF005507F0B06EC1BF06E
:104398001200066E06040F0B9009076E075006EC14
:1043A8001BF004507F0B06EC1BF005507F0B06EC4E
:1043B8001BF0120078EC1EF001C0DDF002C0DEF048
:1043C800B80E036E000E046E7F0E066E800E056E2C
:1043D80015EC1CF01200026E0F0E02160A0E026097
:1043E80005D00250300FD1EC22F012000250370FE6
:1043F800D1EC22F01200056E05040F0B8009066E41
:10440800065006EC1BF004507F0B06EC1BF0000E68
:1044180006EC1BF01200540ECD6E000ECC6EE00EB2
:10442800CF6EC00ECE6ECECFFEF0CFCFFFF09E90F7
:104438009D80CD801200046E04040F0BB009056E38
:10444800055006EC1BF0780E06EC1BF0000E06EC8F
:104458001BF01200036EAEEC22F03A0E63EC22F071
:10446800035063EC22F0025063EC22F0A6EC22F039
:104478001200046E380E0424D96EDA6A010EDA22AC
:10448800DF50036E0350016E026A1200056E0504C8
:104498000F0BC009066E065006EC1BF004507F0B8C
:1044A80006EC1BF01200000E9EBA010E016EABA2C4
:1044B80004D0AB9EAB8E000E016E01501200016E4F
:1044C800A49E6DB0FED701C06FFFA4AEFED7A49E18
:1044D8006B501200026E03D0640EC1EC1EF002068F
:1044E8000228D8B41200F8D7000E026E57EC22F05A
:1044F8000009D8A4AECF02F002501200EFEC22F06F
:104508002AEC1FF0BEEC22F00FEC22F01200036E32
:1045180003380F0BEFEC21F00350EFEC21F0120001
:10452800000EF86E0250F76E01C0F6FF0800F55055
:10453800120070C001F071C002F072C003F073C0C5
:1045480004F01200A49E6DB0FED76B84A4AEFED713
:10455800A49E1200A49E6DB0FED76B80A4AEFED7B9
:10456800A49E1200A49E6DB0FED76B82A4AEFED7A7
:10457800A49E1200720ED36E040ED26E000E9B6EB5
:104588001200016E01C0FCF00001FD6B1200016E0B
:10459800A4A8FED701C073FF1200016E9EA8FED723
:1045A80001C0ADFF1200E9C001F0EAC002F012003C
:1045B80088C001F089C002F012009AC001F09BC0C7
:1045C80002F01200F3EC22F012000001A9511200CF
:1045D8000001AB511200D09E12005D501200FF0086
:0645E80012005E501200FB
:106EFC0000FA7E47F840C37E47A63CF27E4706293F
:106F0C00E27E4706293F7E47E830EB7E479A32CE39
:106F1C007E47FA09B07E47302E9D7E47CC45DD7EFC
:106F2C00474E259C7E41361B727E412600F87E0022
:106F3C000000434B48454A1114177573616765206F
:106F4C00696E666F726D6174696F6E3B20206F7431
:106F5C00686572776973652C206120636F6D6D6154
:106F6C006E642077686963682065787065637473F4
:106F7C00206174206C65617374206F6E6520617282
:106F8C00672C200A00536F6D6520636F6D6D616E09
:106F9C0064732C207768656E20656E746572656409
:106FAC0020776974682074686520737769746368E6
:106FBC0020272D68656C7027206F7220273F272CA7
:106FCC002073686F7720636F6D6D616E64200A00AB
:106FDC004578616D706C653A202020707265736520
:106FEC00742033203D2036372020207C20536574BC
:106FFC00204D494449205072676D20363720666F0A
:10700C0072205072657365742033200A0A00557320
:10701C006167652023323A2020636F6E66696720B2
:10702C003C706172616D3E205B3D5D203C76616C15
:10703C0075653E202020207C205365742070617281
:10704C00616D2E2076616C7565200A004578616D46
:10705C00706C653A202020636F6E66696720206330
:10706C0068616E203D2031302020207C20536574D7
:10707C00204D696469205478206368616E6E656C7C
:10708C00203D203130200A0A0055736167652023AA
:10709C00323A2020707265736574203C70726523DF
:1070AC003E205B3D5D203C76616C75653E2020206A
:1070BC00207C205365742050726573657420766152
:1070CC006C7565200A007768656E20656E74657254
:1070DC00656420776974686F757420616E792C20F3
:1070EC0073686F756C6420616C736F2073686F7755
:1070FC0020636F6D6D616E642075736167652E2002
:10710C000A0055736167652023313A2020636F6E46
:10711C00666967205B2B5D2020207C20204C6973E6
:10712C007420636F6E6669672E20706172616D27C3
:10713C0073205B2B206D6F72655D0A0A004E6F72B7
:10714C006D616C2068616E64736574206F7065721C
:10715C006174696F6E2073757370656E64656420FD
:10716C007768696C65206F757470757474696E6777
:10717C002061786973200A00616363656C657261D4
:10718C0074696F6E2072617720646174612028319C
:10719C0032206269747329202D2D20486974206176
:1071AC006E79206B657920746F20657869742E2E4A
:1071BC002E0A002A204E6F74652D4F6E2064697361
:1071CC00706C6179206163746976617465642E20DA
:1071DC00456E746572202764696167202D6E2720C7
:1071EC00746F2063616E63656C2E0A005573616762
:1071FC00652023313A20207072657365742020203D
:10720C00207C204C69737420507265736574204D1A
:10721C00494449205072676D206E756D62657273BA
:10722C00200A0A00436F6D6D616E642061726727DE
:10723C007320616E64206F7074696F6E73206D754E
:10724C00737420626520736570617261746564206B
:10725C006279207370616365732E0A0053656E64E6
:10726C00696E67205379732E45782E202749444543
:10727C004E5427206D736720636F6E74696E756F43
:10728C0075736C7920746F204D494449204F5554C7
:10729C00200A002020207768657265203C7061729E
:1072AC00616D3E2069732061206E69636B6E616D48
:1072BC0065206C69737465642062792075736167ED
:1072CC00652023312E200A0A00766961204D49443D
:1072DC0049207472616E736D697420717565756582
:1072EC002E20204D65737361676520696E7465721D
:1072FC0076616C20697320356D732E200A00546FF3
:10730C0020726563616C6C20612070726576696FA8
:10731C0075736C7920656E746572656420636F6D2E
:10732C006D616E642C20686974204374726C2B52EE
:10733C002E0A00526573746F7265207065727369E2
:10734C007374656E74206461746120746F2066615F
:10735C0063746F72792064656661756C74733F2019
:10736C0028592F4E293A200056616C7565206469A6
:10737C0073706C617965642069732074696C742016
:10738C00706F736974696F6E202872616E67652007
:10739C002B2F2D32303030292E0A00546F206C697F
:1073AC00737420617661696C61626C6520636F6DCA
:1073BC006D616E64732C207479706520276C632763
:1073CC00206F722027636D6473272E0A0044756D3D
:1073DC007020612070616765202832353620627913
:1073EC0074657329206F6620666C617368207072F7
:1073FC006F6772616D206D656D6F72792E0A00205A
:10740C002D6E203A202053746172742F73746F7038
:10741C00204E6F74652D4F6E206576656E74206CF2
:10742C006F672028617267203D20307C31290A006B
:10743C00202D74203A20204D494449205458206472
:10744C0072697665722074657374202873656E6436
:10745C002030783046206E6F6E2D73746F70290A51
:10746C00002D2D2D2D2D2D2D2048616E64736574EE
:10747C0020506172616D6574657273202D2D2D2DF8
:10748C002D2D2D2D2D2D2D2D2D2D2D2D2D2D2D2D20
:10749C000A002020207768657265203C7072652395
:1074AC003E20697320746865205072657365742082
:1074BC006E756D6265722028312E2E3829200A0ACD
:1074CC00004261756572207B52454D497D204861B3
:1074DC006E64736574206D6B32202D2D2053657294
:1074EC007669636520506F727420434C49200A0002
:1074FC0053656E64696E67203078304620636F6E1A
:10750C0074696E756F75736C7920746F204D494476
:10751C004920545820554152542E2E2E0A00202D0D
:10752C0071203A20204D494449205458205175650A
:10753C007565207465737420284944454E54206D3C
:10754C007367204020356D73290A00212045727223
:10755C006F723A20436F6E666967206461746120B4
:10756C00636F7272757074656420286465666175EA
:10757C006C746564290A00202D62203A202053681F
:10758C006F772070697463682042656E6420636F46
:10759C006E74726F6C6C65722064617461200A0089
:1075AC0021204572726F723A20436F6E66696720B4
:1075BC0064617461206578636565647320626C6FC7
:1075CC00636B2073697A650A00202D61203A2020B4
:1075DC0053686F77204D4D41383435312F3220416F
:1075EC006363656C2E207261772064617461200A7C
:1075FC0000202D64203A20205465737420736F662C
:10760C0074776172652044656C61792066756E6370
:10761C0074696F6E73200A00202D65203A20205368
:10762C00686F7720737461727475702073656C6603
:10763C002D74657374204572726F7273200A00206A
:10764C002050726573737572652053656E736F721B
:10765C0020414443205370616E20286D61782E3197
:10766C00303030290A002D2D207768657265206135
:10767C006464722069732073746172742061646431
:10768C00726573732028686578292E0A005072651C
:10769C007373204D6F642050616420746F2061639C
:1076AC007469766174652070697463682D62656EA7
:1076BC00642E0A00202D6D203A202053686F77200D
:1076CC004D6F64652053776974636820696E7075BB
:1076DC0074207374617465200A00202D73203A2085
:1076EC002053686F772053656E736F7220726177C9
:1076FC00204144432072656164696E6773200A00FF
:10770C0055736167653A20206469616720203C6F7E
:10771C007074696F6E3E20205B617267315D202E44
:10772C002E2E200A0020204D6F64756C6174696FD9
:10773C006E2046756C6C2D7363616C6520286D61D1
:10774C00782E31303030290A0052454D4920616C79
:10775C007465726E617465202D2D20706164204CEF
:10776C004834207368617270656E730A002020546F
:10777C006F7563682053656E73652054687265730A
:10778C00686F6C6420286D61782E323530290A00C0
:10779C002A2044656661756C7420636F6E66696738
:1077AC0075726174696F6E20726573746F72656443
:1077BC002E0A0052454D49207374616E64617264E7
:1077CC00202D2D207061642052483520666C617428
:1077DC0074656E730A002120496E76616C696420B1
:1077EC00707265736574206F72204D494449207026
:1077FC0072676D2023200A0020204D6F64756C6128
:10780C0074696F6E20446561642D62616E6420281A
:10781C006D61782E393030290A002020506974634C
:10782C0068204F666673657420282B2F2D32342008
:10783C0073656D69746F6E6573290A002020457835
:10784C007072657373696F6E20496E7465727661C0
:10785C006C2028352E2E3530206D73290A00204DD2
:10786C0049444920506172616D6574657273202DB5
:10787C002D2D2D2D2D2D2D2D2D2D2D2D2D2D0A007C
:10788C0021204D4D41383435312F322064657669D5
:10789C006365206E6F742064657465637465642E13
:1078AC000A0021204572726F723A204D6F64756C1C
:1078BC006174696F6E2053656E736F7220666175AB
:1078CC006C740A0020204D6F64756C6174696F6E66
:1078DC0020284343312920456E61626C6520283095
:1078EC002C31290A00202D6F203A202053686F7705
:1078FC00206E6F7465204F6E2F4F66662073746117
:10790C007465200A00202045787072657373696F66
:10791C006E204343206E756D6265722028302E2ECA
:10792C003331290A00206C6F6F70733B202031308B
:10793C00303020282B2F2D3130292065787065634D
:10794C007465640A0021204572726F723A2050727D
:10795C006573737572652053656E736F7220666103
:10796C00756C740A00202056656C6F6369747920FD
:10797C0053656E736520456E61626C652028302CF2
:10798C0031290A0020205379732E4578636C2E2000
:10799C004D736720456E61626C652028302C31294F
:1079AC000A00202043432031342D62697420446145
:1079BC00746120456E61626C6528302C31290A0097
:1079CC00202046696E676572696E6720536368652F
:1079DC006D652028302C312C322C33290A002120C3
:1079EC00496E76616C6964206E69636B6E616D655E
:1079FC00206F722076616C75652E0A0020204D492F
:107A0C004449204F5554204368616E6E656C2028A4
:107A1C00312E2E313629200A00202050726F672E0D
:107A2C00204368616E676520456E61626C65202835
:107A3C00302C31290A0020204C656761746F204D71
:107A4C006F646520456E61626C652028302C31298D
:107A5C000A004261726F717565207265636F7264A2
:107A6C00657220656D756C6174696F6E0A002020FB
:107A7C004D6F64652073776974636820696E7075E7
:107A8C00742073746174653A20002020506974630B
:107A9C00682042656E6420456E61626C65202830FA
:107AAC002C31290A002A204E6F2073656C662D74C8
:107ABC00657374206572726F72732E0A0050726552
:107ACC00736574207C204D494449205072676D20A9
:107ADC0023200A00486974205B4573635D20746F32
:107AEC0020657869742E2E2E200A002120556E6B8D
:107AFC006E6F776E20493243206465766963652E1C
:107B0C000A005F5F5F5F5F5F5F5F5F5F5F5F5F5F2D
:107B1C005F5F5F5F5F5F5F0A005F5F5F5F5F5F5F1D
:107B2C007C5F5F5F5F5F5F5F5F5F5F5F5F5F0A00F0
:107B3C00606060606060607C60606060606060601D
:107B4C0060606060600A00486974205B4573635D27
:107B5C0020746F20717569742E200A0A00557361A8
:107B6C0067653A202064756D70205B616464725D9A
:107B7C00200A00536F7072616E6F2F4465736361DE
:107B8C006E7420284335290A003F20556E646566C3
:107B9C00696E656420636F6D6D616E642E0A0021E1
:107BAC0020496E76616C696420636F6D6D616E64E3
:107BBC002E200A00486974205B4573635D20746F46
:107BCC0020657869742E200A0055736167653A2028
:107BDC00202A205B72656D61726B5D200A002A2081
:107BEC004D4D41383435312064657465637465647A
:107BFC002E0A002A204D4D413834353220646574EC
:107C0C0065637465642E0A002A204E6577207661C0
:107C1C006C75652073617665643A2000554E444559
:107C2C0046494E454420286572726F72290A0046F7
:107C3C00696E676572696E6720736368656D653A16
:107C4C002000207C204D6F64756C6174696F6E2E02
:107C5C0048693A2000416C746F2F547265626C65F0
:107C6C0020284634290A004669726D7761726520B6
:107C7C0076657273696F6E2000477265617420427D
:107C8C0061737320284333290A00207C20507265CD
:107C9C0073737572652E48693A20000D0A2A204DBF
:107CAC004355207265736574202A0A00203A204DD2
:107CBC00494449205072676D203D20002073656D4A
:107CCC0069746F6E6573202020200050697463689E
:107CDC00204F66667365743A20004F46462F494420
:107CEC004C45202830290A00207C20506164305FEC
:107CFC004144433A20002D2D2D2D2D2D2D204D6F3F
:107D0C0064652000546F756368506164733A203069
:107D1C00780050454E44494E47202831290A0050DE
:107D2C004C4159494E47202832290A00507265733C
:107D3C00737572653A202020004D6F64756C617408
:107D4C00696F6E3A200054656E6F72202843342997
:107D5C000A004170722031352032303233004869CC
:107D6C00676820283129200A003C6F7074696F6E97
:107D7C003E200A004261737320284633290A004CC6
:107D8C006F7720283029200A002A205072657365ED
:107D9C007420006368616E20202020007062656E84
:107DAC002020202000636331346220202000706981
:107DBC00746368202020006D6F64656E20202000A5
:107DCC007468726573202020006578706E63632080
:107DDC00200066696E677363202000707273706197
:107DEC006E20200070726368656E20200076656CD2
:107DFC0073656E20200073797378656E2020006C9B
:107E0C00656761746F2020006D6F646D6178202050
:107E1C00006D6F6462616E6420006578706E696ECF
:107E2C007420002020207C202020006D6F64626173
:107E3C006E640064656661756C74006578706E695B
:107E4C006E7400202020583A2000207C20593A20C3
:107E5C0000207C205A3A20006578706E63630066BF
:107E6C00696E67736300636F6E6669670070727327
:107E7C0070616E0070726368656E0076656C736518
:107E8C006E0073797378656E006C656761746F0052
:107E9C00707265736574006D6F646D6178006363F7
:107EAC0031346200776174636800706974636800D0
:107EBC006D6F64656E002D68656C7000746872651A
:107ECC00730064696167006368616E007062656E5F
:107EDC000064756D7000636D647300203A20007649
:107EEC006572002C20006C63002D790024002A00A0
:037EFC000900007A
:020000040020DA
:08000000FFFFFFFFFFFFFFFF00
:020000040030CA
:0E000000FF281F3CFFBF81FF0FC00FE00F4025
:00000001FF
