:0400000049EF00F0D4
:100008005182FACF01F0FBCF02F0E9CF03F0EACF3B
:1000180004F0E1CF05F0E2CF06F0D9CF07F0DACF50
:1000280008F0F3CF09F0F4CF0AF0F6CF0BF0F7CFD2
:100038000CF0F8CF0DF0F5CF0EF0F0A602D0F0B02E
:1000480006D0F2BC9DA003D09EB0BFEC1BF00EC042
:10005800F5FF0DC0F8FF0CC0F7FF0BC0F6FF0AC094
:10006800F4FF09C0F3FF08C0DAFF07C0D9FF06C0D4
:10007800E2FF05C0E1FF04C0EAFF03C0E9FF02C0D8
:10008800FBFF01C0FAFF519211008BEF1AF0000E2E
:100098000001E46F000120EE02F0E251D926E3519D
:1000A800DA22DECFF6FFDECFF7FF050EF76403D0C6
:1000B8000800F55005D0F6CFE9FFF7CFEAFFEF507B
:1000C8003F0AD8A421D0C30E0001DB6F730E0001D4
:1000D800DC6F60EC1CF0660E0001DB6F710E000136
:1000E800DC6F60EC1CF0C00E0001DB6F720E0001CB
:1000F800DC6F60EC1CF0280E0001DB6F710E000154
:10010800DC6F60EC1CF012000001E0050001E11159
:10011800D8A4BBD1860E0001DB6F7D0E0001DC6F19
:1001280060EC1CF00001AB51296E2A6A2B6A2C6A1C
:10013800040E2D6EDCEC0DF0BD0E0001DB6F790EA8
:100148000001DC6F60EC1CF0E90E0001DB6F7D0E36
:100158000001DC6F60EC1CF00001AC51296E2A6ACA
:100168002B6A2C6A040E2D6EDCEC0DF0070E0001D4
:10017800DB6F780E0001DC6F60EC1CF0A10E000153
:10018800DB6F7D0E0001DC6F60EC1CF00001AD51EF
:10019800296E2A6A2B6A2C6A040E2D6EDCEC0DF08F
:1001A800520E0001DB6F770E0001DC6F60EC1CF073
:1001B800980E0001DB6F7D0E0001DC6F60EC1CF017
:1001C8000001AE51296E2A6A2B6A2C6A040E2D6E24
:1001D800DCEC0DF0770E0001DB6F770E0001DC6FB1
:1001E80060EC1CF0FB0E0001DB6F7D0E0001DC6F84
:1001F80060EC1CF00001AF51296E2A6A2B6A2C6A48
:10020800040E2D6EDCEC0DF09C0E0001DB6F770EFA
:100218000001DC6F60EC1CF0F20E0001DB6F7D0E5C
:100228000001DC6F60EC1CF00001B051296E2A6AF5
:100238002B6A2C6A040E2D6EDCEC0DF0070E000103
:10024800DB6F770E0001DC6F60EC1CF08F0E000195
:10025800DB6F7D0E0001DC6F60EC1CF00001B1511A
:10026800296E2A6A2B6A2C6A040E2D6EDCEC0DF0BE
:10027800C00E0001DB6F770E0001DC6F60EC1CF034
:10028800AA0E0001DB6F7D0E0001DC6F60EC1CF034
:100298000001B251296E2A6A2B6A2C6A040E2D6E4F
:1002A800DCEC0DF0920E0001DB6F7A0E0001DC6FC2
:1002B80060EC1CF0E00E0001DB6F7D0E0001DC6FCE
:1002C80060EC1CF00001B351296E2A6A2B6A2C6A73
:1002D800040E2D6EDCEC0DF09D0E0001DB6F790E27
:1002E8000001DC6F60EC1CF0D70E0001DB6F7D0EA7
:1002F8000001DC6F60EC1CF00001B451296E2A6A21
:100308002B6A2C6A040E2D6EDCEC0DF0CB0E00016E
:10031800DB6F7A0E0001DC6F60EC1CF00D0E000143
:10032800DB6F7E0E0001DC6F60EC1CF00001B55144
:10033800296E2A6A2B6A2C6A040E2D6EDCEC0DF0ED
:100348001D0E0001DB6F7B0E0001DC6F60EC1CF002
:10035800BC0E0001DB6F7D0E0001DC6F60EC1CF051
:100368000001B651296E2A6A2B6A2C6A040E2D6E7A
:10037800DCEC0DF01A0E0001DB6F7A0E0001DC6F69
:1003880060EC1CF0B30E0001DB6F7D0E0001DC6F2A
:1003980060EC1CF00001B751296E2A6A2B6A2C6A9E
:1003A800040E2D6EDCEC0DF0E40E0001DB6F770E11
:1003B8000001DC6F60EC1CF0CE0E0001DB6F7D0EDF
:1003C8000001DC6F60EC1CF0C0C029F0C1C02AF04D
:1003D8002B6A2C6A040E2D6EDCEC0DF0B30E0001B6
:1003E800DB6F780E0001DC6F60EC1CF0C50E0001BD
:1003F800DB6F7D0E0001DC6F60EC1CF0C2C029F0E1
:10040800C3C02AF02B6A2C6A040E2D6EDCEC0DF0AA
:10041800750E0001DB6F7A0E0001DC6F60EC1CF0DA
:10042800040E0001DB6F7E0E0001DC6F60EC1CF037
:10043800C4C029F0C5C02AF02B6A2C6A040E2D6EA0
:10044800DCEC0DF07D0E0001DB6F790E0001DC6F36
:1004580060EC1CF0160E0001DB6F7E0E0001DC6FF5
:1004680060EC1CF0C6C029F0C7C02AF02B6A2C6AC1
:10047800040E2D6EDCEC0DF0910E0001DB6F780E92
:100488000001DC6F60EC1CF012000001E1BF62D2D9
:100498000001E15105E1030E0001E05DD8A05AD248
:1004A800E50E156E000E166E000120EE02F0E25108
:1004B800D926E351DA22DECF17F0DDCF18F0000E8F
:1004C8001A6E080E196E09EC1BF0000E0001EC6F95
:1004D800000120EE04F0E251D926E351DA22DECF02
:1004E800F6FFDECFF7FF050EF76403D00800F550DE
:1004F80005D0F6CFE9FFF7CFEAFFEF503D0AD8A4C1
:1005080015D0040E0001E0190001E111D8A40ED0A5
:10051800000120EE06F0E251D926E351DA22DECFBF
:1005280015F0DDCF16F07AEC10F00DD0000120EEBA
:1005380004F0E251D926E351DA22DECF15F0DDCFFF
:1005480016F07AEC10F015C0EFF016C0F0F0E50EDA
:10055800156E000E166EDA0E176E7E0E186EF6EC1D
:100568001BF00009D8B411D00001EF510001F011BF
:10057800D8B40BD00001F05108E1110E0001EF5D75
:10058800D8B003D0EFC0ABF0C3D1E50E156E000EA6
:10059800166E690E176E7E0E186EF6EC1BF00009CB
:1005A800D8B40BD00001F05108E1020E0001EF5D54
:1005B800D8B003D0EFC0ACF0ABD1E50E156E000E8D
:1005C800166EB10E176E7E0E186EF6EC1BF0000953
:1005D800D8B40BD00001F05108E1200E0001EF5D06
:1005E800D8B003D0EFC0ADF093D1E50E156E000E74
:1005F800166EAB0E176E7E0E186EF6EC1BF0000929
:10060800D8B40BD00001F05108E1200E0001EF5DD5
:10061800D8B003D0EFC0AEF07BD1E50E156E000E5A
:10062800166E7E0E176E7E0E186EF6EC1BF0000925
:10063800D8B413D00001F05105E1050E0001EF5DBB
:10064800D8A00BD00001F05108E1330E0001EF5D96
:10065800D8B003D0EFC0AFF05BD1E50E156E000E39
:10066800166E770E176E7E0E186EF6EC1BF00009EC
:10067800D8B413D00001F05105E10A0E0001EF5D76
:10068800D8A00BD00001F05108E1650E0001EF5D24
:10069800D8B003D0EFC0B0F03BD1E50E156E000E18
:1006A800166EA50E176E7E0E186EF6EC1BF000097E
:1006B800D8B40BD00001F05108E1020E0001EF5D43
:1006C800D8B003D0EFC0B1F023D1E50E156E000EFF
:1006D800166E8C0E176E7E0E186EF6EC1BF0000967
:1006E800D8B40BD00001F05108E1020E0001EF5D13
:1006F800D8B003D0EFC0B5F00BD1E50E156E000EE3
:10070800166E3F0E176E7E0E186EF6EC1BF0000983
:10071800D8B40BD00001F05108E1020E0001EF5DE2
:10072800D8B003D0EFC0B6F0F3D0E50E156E000ECA
:10073800166EB70E176E7E0E186EF6EC1BF00009DB
:10074800D8B40BD00001F05108E1020E0001EF5DB2
:10075800D8B003D0EFC0B2F0DBD0E50E156E000EB6
:10076800166E5B0E176E7E0E186EF6EC1BF0000907
:10077800D8B40BD00001F05108E1020E0001EF5D82
:10078800D8B003D0EFC0B4F0C3D0E50E156E000E9C
:10079800166E620E176E7E0E186EF6EC1BF00009D0
:1007A800D8B40BD00001F05108E1020E0001EF5D52
:1007B800D8B003D0EFC0B3F0ABD0E50E156E000E85
:1007C800166EBD0E176E7E0E186EF6EC1BF0000945
:1007D800D8B413D00001F05105E1320E0001EF5DED
:1007E800D8A00BD00001F05108E1FB0E0001EF5D2D
:1007F800D8B003D0EFC0B7F08BD0E50E156E000E61
:10080800166E540E176E7E0E186EF6EC1BF000096D
:10081800D8B415D00001F05105E1640E0001EF5D78
:10082800D8A00DD0BD0E0001EF5D020E0001F059F9
:10083800D8B005D0EFC0C0F0F0C0C1F069D0E50E67
:10084800156E000E166E4D0E176E7E0E186EF6ECB7
:100858001BF00009D8B415D00001F05105E1640E71
:100868000001EF5DD8A00DD0EF0E0001EF5D020E84
:100878000001F059D8B005D0EFC0C2F0F0C0C3F005
:1008880047D0E50E156E000E166E850E176E7E0E9D
:10089800186EF6EC1BF00009D8B415D00001F05121
:1008A80005E1640E0001EF5DD8A00DD0EF0E000148
:1008B800EF5D020E0001F059D8B005D0EFC0C4F0CA
:1008C800F0C0C5F025D0E50E156E000E166E2F0E81
:1008D800176E7E0E186EF6EC1BF00009D8B40DD01A
:1008E800F50E0001EF5D010E0001F059D8B005D0FA
:1008F800EFC0C6F0F0C0C7F00BD0010E0001E46FE6
:10090800570E0001DB6F7A0E0001DC6F60EC1CF003
:100918000001E4510001D8A4120045EC21F08C0E2E
:100928000001DB6F7C0E0001DC6F60EC1CF0EFC097
:1009380029F0F0C02AF02B6A2C6A040E2D6EDCEC2C
:100948000DF07F0E0001DB6F740E0001DC6F60ECB0
:100958001CF01200030E0001DB6F7B0E0001DC6F40
:1009680060EC1CF01200000120EE02F0EB51D926D9
:10097800EC51DA22DECFEDF0DDCFEEF0010E000112
:10098800ED27000EEE23EDC0F6FFEEC0F7FFF86A84
:10099800050EF76403D00800F55005D0F6CFE9FF3F
:1009A800F7CFEAFFEF5029EC22F00001F16F0001C8
:1009B800E9050001EA11D8B419D0000120EE02F0CF
:1009C800EB51D926EC51DA22DECFF6FFDECFF7FF66
:1009D800050EF76403D00800F55005D0F6CFE9FFFF
:1009E800F7CFEAFFEF503F0AD8A4CFD22D0E00016F
:1009F800DB6F770E0001DC6F60EC1CF05D0E000110
:100A0800DB6F7D0E0001DC6F60EC1CF0E10E000175
:100A1800DB6F760E0001DC6F60EC1CF0BA0E000193
:100A2800DB6F760E0001DC6F60EC1CF0AF0E00018E
:100A3800DB6F740E0001DC6F60EC1CF0EA0E000145
:100A4800DB6F750E0001DC6F60EC1CF0810E00019D
:100A5800DB6F740E0001DC6F60EC1CF0DD0E000132
:100A6800DB6F740E0001DC6F60EC1CF0AF0E000150
:100A7800DB6F7A0E0001DC6F60EC1CF0920E000157
:100A8800DB6F750E0001DC6F60EC1CF05D0E000181
:100A9800DB6F790E0001DC6F60EC1CF0BE0E00010C
:100AA800DB6F750E0001DC6F60EC1CF06A0E000154
:100AB800DB6F760E0001DC6F60EC1CF012000001A9
:100AC80020EE04F0EB51D926EC51DA22DECFF6FF06
:100AD800DECFF7FF050EF76403D00800F55005D008
:100AE800F6CFE9FFF7CFEAFFEF5015EC22F000014F
:100AF800F96F310E0001F919D8B404D0480E00017D
:100B0800F919D8B48B84300E0001F919D8B405D07E
:100B18004C0E0001F919D8A412008B941200660E2D
:100B28000001DB6F750E0001DC6F60EC1CF0390E04
:100B38000001DB6F7A0E0001DC6F60EC1CF05F0EC9
:100B48000001DB6F730E0001DC6F60EC1CF0990E86
:100B58000001DB6F7B0E0001DC6F60EC1CF0F29E85
:100B6800898C00F000F000F000F000F000F000F0D8
:100B780000F000F000F000F000F000F000F000F0ED
:100B880000F000F000F000F000F0899C00F000F0A8
:100B980000F000F000F000F000F000F000F000F0CD
:100BA80000F000F0DDD70001A751D8A408D06A0EE4
:100BB8000001DB6F7B0E0001DC6F60EC1CF00001B4
:100BC800A7A108D0D50E0001DB6F780E0001DC6FFD
:100BD80060EC1CF00001A7A508D0370E0001DB6F00
:100BE8007B0E0001DC6F60EC1CF00001A7A712006F
:100BF800E70E0001DB6F7A0E0001DC6F60EC1CF081
:100C08001200C8EC20F00FC060F010C061F011C0F5
:100C180062F012C063F0000E0001A86F02D0B3ECBE
:100C28001DF0C80E000160250001ED6F000E0001E7
:100C380061210001EE6F000E000162210001EF6FDB
:100C4800000E000163210001F06FC8EC20F00001E4
:100C5800ED510F5C0001EE5110580001EF51115891
:100C68000001F0511258D8A0DAD7A8C00FF0106AC6
:100C7800000E126E020E116E88EC19F00F50000172
:100C8800F26F510E0001DB6F7B0E0001DC6F60EC30
:100C98001CF00001F251296E2A6A2B6A2C6A010E97
:100CA8002D6EDCEC0DF07F0E0001DB6F740E000181
:100CB800DC6F60EC1CF0120056EC21F00FC029F03C
:100CC80010C02AF02B6A2C6A050E2D6EDCEC0DF094
:100CD8007F0E0001DB6F740E0001DC6F60EC1CF00E
:100CE80012007BEC22F00FC0F7F010C0F8F0000102
:100CF800F7510001F811D8A409D0E60E0001DB6F06
:100D08007C0E0001DC6F60EC1CF012000001F7059E
:100D18000001F811D8A409D01E0E0001DB6F7D0E6A
:100D28000001DC6F60EC1CF01200020E0001F719E4
:100D38000001F811D8A409D02B0E0001DB6F7D0E3D
:100D48000001DC6F60EC1CF01200A00E0001DB6FEC
:100D58007C0E0001DC6F60EC1CF01200AB0E116E13
:100D6800000E126E7F0E146EC00E136E93EC1CF004
:100D7800000E0001E16F020EE06FCF0E0001E26F7E
:100D8800010E0001E36F44EC12F012000001FE5165
:100D9800D8A402D0010E01D0000E0001FE6F12008F
:100DA800000E0001F36FB4EC20F00B0E0001DB6FB6
:100DB800750E0001DC6F60EC1CF04E0E0001DB6F5D
:100DC8007C0E0001DC6F60EC1CF00CD00F0E5BECAD
:100DD80022F0FEEC21F00009D8B404D01FEC22F078
:100DE8000001F36F1B0E0001F319D8A4EFD782ECB2
:100DF80022F01200000E0001F46FB4EC20F0890E0E
:100E08000001DB6F720E0001DC6F60EC1CF0F60E67
:100E18000001DB6F720E0001DC6F60EC1CF0B00E9D
:100E28000001DB6F7B0E0001DC6F60EC1CF0C8EC8E
:100E380020F00FC060F010C061F011C062F012C065
:100E480063F045D0050E000160250001ED6F000E2E
:100E5800000161210001EE6F000E00016221000116
:100E6800EF6F000E000163210001F06FC8EC20F065
:100E78000001ED510F5C0001EE5110580001EF51D7
:100E880011580001F0511258D8A016D0F00E0DECF0
:100E980018F0730E0DEC18F0300E0DEC18F0F70E7C
:100EA8000DEC18F0C8EC20F00FC060F010C061F035
:100EB80011C062F012C063F086EC1DF0FEEC21F068
:100EC8000009D8B404D01FEC22F00001F46F1B0E07
:100ED8000001F419D8A4B6D782EC22F01200000160
:100EE80020EE04F0EB51D926EC51DA22DECF15F0D2
:100EF800DDCF16F07AEC10F015C0F5F016C0F6F05C
:100F0800030E0001E9190001EA11D8A40AD0000172
:100F1800F5510001F611D8B404D0F5C0E2F1F6C0DD
:100F2800E3F1B4EC20F0150E0001DB6F760E000142
:100F3800DC6F60EC1CF0E2C129F0E3C12AF0000E7E
:100F48002ABEFF0E2B6E2C6E010E2D6EDCEC0DF002
:100F5800680E0001DB6F7D0E0001DC6F60EC1CF099
:100F6800920E0001DB6F760E0001DC6F60EC1CF066
:100F7800120082EC22F01200DC0E0001DB6F790E09
:100F88000001DC6F60EC1CF012000001F151630AF3
:100F9800D8B495D5070AD8B4C2D5010AD8B403D6AF
:100FA800030AD8B4DBD60E0AD8B4F0D6050AD8B4EA
:100FB800F7D6020AD8B425D61F0AD8B47DD6010AB6
:100FC800D8B418D7020AD8B48CD6050AD8B487D7AB
:100FD8000E0AD8B4CED7D0D7000E0101D86F000EB4
:100FE8000101D96F520E0001A06F010E0001A16F1F
:100FF800000E00019D6F000E9C6F000E0101DF6F57
:10100800000EDE6F0101DFBF08D00101DF5161E191
:10101800080E0101DE5DD8B05CD0A0C0D9FFA1C028
:10102800DAFFDF50B5EC21F0D8A053D003D000018F
:10103800A04BA12BA0C0D9FFA1C0DAFF200EDE185B
:10104800D8B4F5D7A0C0D9FFA1C0DAFFDF50B5ECFE
:1010580021F0D8A03ED0D8900101DE35D96E01012B
:10106800DF35DA6E9C0ED926010EDA22A0C0DEFF2B
:10107800A1C0DDFF00019C4B9D2B09D00101D75178
:10108800B5EC21F0D8A00FD00001A04BA12BA0C037
:10109800D9FFA1C0DAFFDF500101D76F200E01018F
:1010A800D719D8A4EBD7A0C0D9FFA1C0DAFFDF5069
:1010B800B5EC21F0D8A00DD0A0C0D9FFA1C0DAFFAF
:1010C800000EDF6E0001A04BA12B0101DE4BDF2BD0
:1010D80099D7000E0101DF6F000EDE6F0101DFBF3F
:1010E80008D00101DF514FE1FA0E0101DE5DD8B0F1
:1010F8004AD0DEC10FF0DFC110F0000E126E050EEF
:10110800116EEEEC20F09F0E0F24F66E700E10207C
:10111800F76E0900F5CFF2F00900F5CFF3F0F2C051
:10112800F6FFF3C0F7FF0800F550240AD8B42BD017
:101138009CC115F09DC116F0DEC10FF0DFC110F0A3
:10114800000E126E050E116EEEEC20F09F0E0F24AD
:10115800F66E700E1020F76E0900F5CF17F00A0032
:10116800F5CF18F0F6EC1BF00009D8B408D0010E42
:101178000101D86FDEC1DAF1DFC1DBF104D0010172
:10118800DE4BDF2BABD7000E0101DF6F000EDE6FE9
:101198000101DFBF08D00101DF514FE1FA0E010163
:1011A800DE5DD8B04AD0DEC10FF0DFC110F0000E0E
:1011B800126E050E116EEEEC20F0D10E0F24F66EB5
:1011C800700E1020F76E0900F5CFF2F00900F5CF88
:1011D800F3F0F2C0F6FFF3C0F7FF0800F550240A59
:1011E800D8B42BD09CC115F09DC116F0DEC10FF00C
:1011F800DFC110F0000E126E050E116EEEEC20F03D
:10120800D10E0F24F66E700E1020F76E0900F5CF80
:1012180017F00A00F5CF18F0F6EC1BF00009D8B467
:1012280008D0010E0101D96FDEC1DAF1DFC1DBF1AF
:1012380004D00101DE4BDF2BABD700019DBF28D0C6
:1012480000019D5105E1020E00019C5DD8A020D04F
:101258009EC115F09FC116F0CF0E176E7E0E186E48
:10126800F6EC1BF00009D8B413D021EE9EF0DECFC7
:10127800F6FFDECFF7FF050EF76404D03F0EF56EDC
:101288000C0006D0F6CFE9FFF7CFEAFF3F0EEF6E6E
:101298000101D9510101D8B431D0DAC10FF0DBC155
:1012A80010F0000E126E050E116EEEEC20F0030E1B
:1012B8000F26000E1022D10E0F24F66E700E10208D
:1012C800F76E0900F5CFDCF10A00F5CFDDF19CC01F
:1012D800E0F09DC0E1F09C0E0001E26F010E0001FC
:1012E800E36F01D8120005000101FA6EDC51FD6EB2
:1012F800DD51FE6EF850FF6EFA5012000101D85110
:101308000101D8B431D0DAC10FF0DBC110F0000E02
:10131800126E050E116EEEEC20F0030E0F26000E75
:1013280010229F0E0F24F66E700E1020F76E090023
:10133800F5CFDCF10A00F5CFDDF19CC0E0F09DC0EF
:10134800E1F09C0E0001E26F010E0001E36F01D88D
:10135800120005000101FA6EDC51FD6EDD51FE6ED2
:10136800F850FF6EFA501200380E0001DB6F7C0E49
:101378000001DC6F60EC1CF0000E0001E16F010E53
:10138800E06F000E0001E26F000E0001E36F8AECCF
:101398001FF01200ABC0DAF0000E0001D16F45500B
:1013A8000001CD6FCE6B070ED8900001CD37CE3738
:1013B800E82EFAD744500001CD250001D46F000E65
:1013C8000001CE210001D56F45C0D8F076EC22F09F
:1013D8000FC090F010C091F0FF0E000190150001B1
:1013E800D26F030E000191150001D36FD2C00FF028
:1013F800D3C010F05CEC14F00001D96FD2C00FF02C
:10140800D3C010F0E8EC1FF00001D76FADC0D6F0E4
:101418001CD10001D7510001D8B413D000018C5160
:101428004F5C00018D515058D8A00BD0000E01011F
:101438004A6F000E4B6F000E4C6F000E4D6F010E81
:10144800476E500E00018E5DC30E00018F59D8B053
:1014580007D1050E00018E27000E8F2301D1000E43
:1014680000018F6F000E8E6F0001B351D8A404D015
:10147800400E0001D86F0ED001014D5101014C11F1
:1014880001014B1105E10A0E01014A5DD8A005D002
:1014980045C0D8F0010E0001D16F0001D151000103
:1014A800D8B4DED0D9C014F0D8C015F00001DA5194
:1014B80034EC21F0D9C0A3F0000E0101466F000EF4
:1014C800476F000E486F000E496F000E0101426F12
:1014D800000E436F000E446F000E456F020E0FD0D2
:1014E80000018A514F5C00018B515058D8B009D087
:1014F800A3C014F00001DA5186EC21F0A4D0476EA5
:10150800AFD00001D7510001D8B429D00001A351B0
:101518000001D919D8B423D00001B251D8B40FD0E2
:10152800D9C014F0D8C015F00001DA5134EC21F01C
:10153800A3C014F00001DA5186EC21F00ED0A3C04C
:1015480014F00001DA5186EC21F0D9C014F0D8C0AB
:1015580015F00001DA5134EC21F0D9C0A3F0AFC086
:10156800CDF00001CE6BCF6BD06B0001CD510101E6
:10157800465D0001CE51010147590001CF510101DB
:1015880048590001D05101014959D8A032D0000E64
:101598000101466F000E476F000E486F000E496F3D
:1015A80000017C510001D41906E100017D510001C0
:1015B800D519D8B41ED00001AD51D8B416D0D6C0B4
:1015C80014F045C015F00001DA5123EC21F00001B8
:1015D800B151D8B40AD00001D651200F146E44C0BE
:1015E80015F00001DA5123EC21F0D4C07CF0D5C00D
:1015F8007DF0B0C0CDF00001CE6BCF6BD06B000199
:10160800CD510101425D0001CE5101014359000154
:10161800CF51010144590001D05101014559D8A0C9
:101628001FD0000E0101426F000E436F000E446F81
:10163800000E456FCAEC1AF00001B451D8B410D0AE
:1016480005EC20F00DD0000E5AD74750000AD8B448
:10165800E0D6010AD8B403D7030AD8B441D7F3D7E0
:10166800050E01014A27000E4B234C234D23050E7E
:1016780001014627000E472348234923050E01018F
:101688004227000E4323442345231200000120EE85
:1016980002F0E251D926E351DA22DECF15F0DDCF90
:1016A80016F07AEC10F015500001EA6F000E0001F8
:1016B800E76F000120EE02F0E251D926E351DA2269
:1016C800DECFF6FFDECFF7FF050EF76403D0080084
:1016D800F55005D0F6CFE9FFF7CFEAFFEF503F0A04
:1016E800D8A421D0E10E0001DB6F710E0001DC6F80
:1016F80060EC1CF0A40E0001DB6F710E0001DC6FC2
:1017080060EC1CF0520E0001DB6F740E0001DC6F00
:1017180060EC1CF0EA0E0001DB6F700E0001DC6F5C
:1017280060EC1CF012000001E0050001E111D8A4F2
:1017380066D0020E0001DB6F790E0001DC6F60ECF1
:101748001CF0820E0001DB6F7B0E0001DC6F60EC89
:101758001CF0F50E0001DB6F7B0E0001DC6F60EC06
:101768001CF0010E0001EA6F010E0001E86F080E7F
:101778000001E86501D03AD00001EA51296E2A6AD1
:101788002B6A2C6A040E2D6EDCEC0DF01F0E000186
:10179800DB6F7E0E0001DC6F60EC1CF00001E8518D
:1017A800070B0001E46FE56BB80E0001E425D96E64
:1017B800000E0001E521DA6EDF500001E66F00013E
:1017C800E651296E2A6A2B6A2C6A030E2D6EDCEC10
:1017D8000DF07F0E0001DB6F740E0001DC6F60EC12
:1017E8001CF00001E82B0001EA2BC1D7DE0E000136
:1017F800DB6F7B0E0001DC6F60EC1CF01200000157
:10180800E1BFAED00001E15105E1030E0001E05D4A
:10181800D8A0A6D0000120EE04F0E251D926E35169
:10182800DA22DECFF6FFDECFF7FF050EF76403D02E
:101838000800F55005D0F6CFE9FFF7CFEAFFEF50E3
:101848003D0AD8A415D0040E0001E0190001E111E9
:10185800D8A40ED0000120EE06F0E251D926E351BB
:10186800DA22DECF15F0DDCF16F07AEC10F00DD0CD
:10187800000120EE04F0E251D926E351DA22DECF4E
:1018880015F0DDCF16F07AEC10F015500001E96F75
:101898000001EA510001D8B41CD0090E0001EA6128
:1018A80018D0800E0001E96114D0080E0001EA1971
:1018B800D8A403D0000E0001EA6F0001EA51010D1F
:1018C800B80EF324D96E000EF420DA6EE9C0DFFFFB
:1018D8000BD0010E0001E76F4D0E0001DB6F780E93
:1018E8000001DC6F60EC1CF00001E7510001D8A496
:1018F800120045EC21F00001EA510001D8A403D000
:10190800080E0001EA6F730E0001DB6F7D0E000107
:10191800DC6F60EC1CF00001EA51296E2A6A2B6A20
:101928002C6A010E2D6EDCEC0DF0D60E0001DB6F7B
:101938007C0E0001DC6F60EC1CF00001E951296E9F
:101948002A6A2B6A2C6A030E2D6EDCEC0DF07F0ED2
:101958000001DB6F740E0001DC6F60EC1CF01200FC
:10196800FB0E0001DB6F790E0001DC6F60EC1CF0F0
:10197800120043EC19F0F29E898C92800F01388195
:10198800000E47EC1BF00F0138918990929000F0FF
:1019980000F000F000F092820F013883010E47EC4E
:1019A8001BF00F0138938992929200F000F000F03A
:1019B80000F092840F013885020E47EC1BF00F01EE
:1019C80038958994929400F000F000F000F0928627
:1019D8000F013887030E47EC1BF00F0138978996E3
:1019E800929600F000F000F000F0928A0F01388B18
:1019F800040E47EC1BF00F01389B899A929A00F06D
:101A080000F000F000F096800F013C81050E47ECD5
:101A18001BF00F013C918D90969000F000F000F0C3
:101A280000F096820F013C83060E47EC1BF00F0175
:101A38003C938D92969200F000F000F000F09684AE
:101A48000F013C85070E47EC1BF00F013C958D9468
:101A5800969400F000F000F000F093840F013985AF
:101A6800080E47EC1BF00F0139958A94939400F007
:101A780000F000F000F093860F013987090E47EC5B
:101A88001BF00F0139978A96939600F000F000F04A
:101A980000F0899CF28E0001925100019311D8A4A4
:101AA80006D0000E0001936F010E926F1200000E17
:101AB800166E090E166401D012001650010D380E6C
:101AC800F324D96E010EF420DA6EDF50116E126A1B
:101AD8000101E051115C0101E1511258D8B030D038
:101AE8001650010D240EF324D96E010EF420DA6E7F
:101AF800000EDF6E1650010D2E0EF324D96E010E66
:101B0800F420DA6E040EDF6007D01650010D2E0E99
:101B1800F324D96E010E2FD016C011F0010E126EEB
:101B2800000E136E112A03D0D89012361336112ED8
:101B3800FBD712500001941313500001951336D0AF
:101B48001650010D2E0EF324D96E010EF420DA6E14
:101B5800000EDF6E1650010D240EF324D96E010E0F
:101B6800F420DA6E040EDF600AD01650010D240E40
:101B7800F324D96E010EF420DA6EDF2A17D016C0CE
:101B880011F0010E126E000E136E112A03D0D890B8
:101B980012361336112EFBD7121C146E131C156E39
:101BA800145000019417155000019517162A81D773
:101BB800000E0001DC6F000EDB6F000E0001D96F14
:101BC800010E0001DA6F0C0E2D6402D00C0E2D6E82
:101BD8002D50D8A402D0010E2D6E2CAE0BD0010EC4
:101BE8000001D96F2C1E2B1E2A1E296C000E2A22DA
:101BF8002B222C22000E0001DF6F000EDE6F000189
:101C0800DF5143E10C0E0001DE5DD8B03ED029C0A3
:101C18000FF02AC010F02BC011F02CC012F00A0EE1
:101C2800136E000E146E000E156E000E166E11EC7B
:101C380017F00F50300F0001DD6FCD0E0001DE25CB
:101C4800D96E000E0001DF21DA6EDDC0DFFF29C08A
:101C58001BF02AC01CF02BC01DF02CC01EF00A0E71
:101C68001F6E000E206E000E216E000E226E9BEC81
:101C780015F01BC029F01CC02AF01DC02BF01EC097
:101C88002CF00001DE4BDF2BBAD7000E0001DF6F0E
:101C98000B0EDE6F0001DF514DE10C0E0001DE5D21
:101CA800D8B048D0CD0E0001DE25D96E000E000157
:101CB800DF21DA6EDF500001DD6F0001DE51000127
:101CC800DF11D8B414D0300E0001DD19D8A40FD01C
:101CD8000001DA510001D8B40AD0CD0E0001DE258A
:101CE800D96E000E0001DF21DA6E200EDF6E0001D2
:101CF800DE510001DF11D8B405D0300E0001DD1926
:101D0800D8B413D0000E0001DA6F0001DB510001D6
:101D1800DC11D8A40AD0010E0001DE250001DB6F1A
:101D2800000E0001DF210001DC6F0001DE07D8A0F2
:101D3800DF07B0D70001D9510001D8B40AD0CD0EC1
:101D48000001DB25D96E000E0001DC21DA6E2D0EB4
:101D5800DF6E000E0001DF6F0B0EDE6F0001DF513A
:101D680029E10C0E0001DE5DD8B01200CD0E000195
:101D7800DE25D96E000E0001DF21DA6EDF5000018A
:101D8800DD6F2D502E6E2F6A2E500001DE5D2F5014
:101D98000001DF59D8A005D0200E0001DD19D8B404
:101DA80004D00001DD5161EC22F00001DE07D8A06B
:101DB800DF07D4D712006C0E0001E96F71EC22F036
:101DC8000FC0E7F010C0E8F00001E1BF2CD000011F
:101DD800E15105E1020E0001E05DD8A024D0000128
:101DE80020EE02F0E251D926E351DA22DECFE4F008
:101DF800DDCFE5F0010E0001E427000EE523E4C085
:101E0800F6FFE5C0F7FFF86A050EF76403D008008F
:101E1800F55005D0F6CFE9FFF7CFEAFFEF5029ECF0
:101E280022F00001E96F6C0E0001E919D8A494D0E2
:101E3800F70E0001DB6F780E0001DC6F60EC1CF020
:101E48006F0E0001DB6F780E0001DC6F60EC1CF098
:101E58003B0E0001DB6F790E0001DC6F60EC1CF0BB
:101E6800000E0001EC6F5AD00001EC51296E2A6A6D
:101E78002B6A2C6A050E2D6EDCEC0DF0280E000185
:101E8800DB6F7E0E0001DC6F60EC1CF00001EC5192
:101E9800A6EC21F00FC029F010C02AF02B6A2C6A9A
:101EA800050E2D6EDCEC0DF0270E0001DB6F7E0EAB
:101EB8000001DC6F60EC1CF00001EC5101EC21F03A
:101EC8000FC0EAF010C0EBF00001EBBF15D0000125
:101ED800EB5104E10001EA05D8A00ED0EAC029F0D0
:101EE800EBC02AF0000E2ABEFF0E2B6E2C6E050EDC
:101EF8002D6EDCEC0DF008D0930E0001DB6F7E0E2A
:101F08000001DC6F60EC1CF07F0E0001DB6F740ECB
:101F18000001DC6F60EC1CF00001EC2B0001EC51BF
:101F28000001E46FE56B0001E7510001E45D000189
:101F3800E551800A0001E66F0001E851800A0001BE
:101F4800E659D8A091D7190E0001DB6F790E000170
:101F5800DC6F60EC1CF01200780E0001DB6F7C0E69
:101F68000001DC6F60EC1CF0630E0001DB6F7C0E7F
:101F78000001DC6F60EC1CF01200000E0001EC6F39
:101F8800000EEB6F9F0E0001E76F700E0001E86F07
:101F9800000E0001EA6F000EE96F0001EABF0AD0E7
:101FA8000001EA5106E1020E0001E95DD8B08FD0C8
:101FB80001D08DD0000E0001F06F000EEF6F000110
:101FC800F0BF08D00001F05172E1FA0E0001EF5D98
:101FD800D8B06DD0EFC00FF0F0C010F0000E126E48
:101FE800050E116EEEEC20F0E7C0E3F0E8C0E4F077
:101FF8000F500001E32710500001E423E3C0F6FF6F
:10200800E4C0F7FF0900F5CFEDF00A00F5CFEEF0D8
:10201800EDC0F6FFEEC0F7FF0800F550240AD8B46B
:1020280046D0EDC0DBF0EEC0DCF060EC1CF0EDC09B
:102038000FF0EEC010F061EC1EF00F1E101E0F4ADC
:10204800102A0C0E0F240001E56F000E102000016D
:10205800E66F03D0200E61EC22F00001E507D8A05E
:10206800E6070001E529F6E10001E629D8A4F2D740
:102078000001EB4BEC2B0001ECBF15D00001EC513B
:1020880005E1060E0001EB5DD8A00DD0000E0001A1
:10209800EC6F000EEB6F7F0E0001DB6F740E00011A
:1020A800DC6F60EC1CF00001EF4BF02B88D7D10EF1
:1020B8000001E76F700E0001E86F0001E94BEA2BA1
:1020C8000001EABF77D70001EA5101E16CD70001AE
:1020D800EB510001EC11D8B412007F0E0001DB6F48
:1020E800740E0001DC6F60EC1CF0120002D0154A7F
:1020F800162A15C0F6FF16C0F7FFF86A050EF76432
:1021080003D00800F55005D0F6CFE9FFF7CFEAFF76
:10211800EF50200AD8B4EBD715C0F6FF16C0F7FF6A
:10212800F86A050EF76403D00800F55005D0F6CF1D
:10213800E9FFF7CFEAFFEF50090AD8B4D8D7000E65
:102148001B6E000E1A6E000E196E15C0F6FF16C033
:10215800F7FFF86A050EF76403D00800F55005D0BC
:10216800F6CFE9FFF7CFEAFFEF502D0AD8A402D047
:10217800192A3AD015C0F6FF16C0F7FFF86A050EFF
:10218800F76403D00800F55005D0F6CFE9FFF7CF84
:10219800EAFFEF502B0AD8A429D026D01AC00FF096
:1021A8001BC010F0000E126E0A0E116EEEEC20F03D
:1021B80015C0F6FF16C0F7FFF86A050EF76403D0DE
:1021C8000800F55005D0F6CFE9FFF7CFEAFFEF504A
:1021D800176E186A0F50172610501822D00E1724A1
:1021E8001A6EFF0E18201B6E154A162A15C0F6FF28
:1021F80016C0F7FFF86A050EF76403D00800F5501B
:1022080005D0F6CFE9FFF7CFEAFFEF50E2EC21F077
:10221800D8B0C4D71950D8B40DD01AC017F01BC005
:1022280018F0171E181E174A182A17C015F018C0DC
:1022380016F012001AC015F01BC016F0120020EE9E
:10224800C6F0DECF2BF0DDCF2CF02B1E2C1E2B4A38
:102258002C2A000188512B26000189512C222BC0E1
:1022680031F02CC032F0336A346A34AE08D0000E34
:10227800316E000E326E000E336E000E346E20EE9C
:10228800C6F0DECF2BF0DDCF2CF02B1E2C1E2B4AF8
:102298002C2A0001C4512B242D6E0001C5512C207D
:1022A8002E6E31C00FF032C010F033C011F034C0C0
:1022B80012F0800E136E3F0E146E000E156E000E97
:1022C800166E0CEC1EF00FC01BF010C01CF011C0F5
:1022D8001DF012C01EF02DC01FF02EC020F0216A84
:1022E800226A9BEC15F01BC031F01CC032F01DC0F7
:1022F80033F01EC034F031C00FF032C010F033C0DC
:1023080011F034C012F031C013F032C014F033C0F1
:1023180015F034C016F00CEC1EF00FC01BF010C006
:102328001CF011C01DF012C01EF0800E1F6E3F0E73
:10233800206E000E216E000E226E9BEC15F01BC065
:102348002FF01CC030F0810E2F5C3F0E3058D8A003
:1023580004D03F0E306E800E2F6E2FC029F030C093
:102368002AF0120033EC22F0C4EC1CF0000E436E8D
:10237800090E436401D005D0000E61EC22F0432A17
:10238800F7D7C50E106E7C0E116E22EC20F0E0EC33
:102398001DF00009D8A404D00001A78161EC16F053
:1023A8000001B75155EC22F0C8EC20F00FC04EF1F7
:1023B80010C04FF111C050F112C051F108D04B506C
:1023C800D8B405D0000E4B6E8B80ABEC1FF0C80E56
:1023D80001014E250001F56F000E01014F2100019A
:1023E800F66F000E010150210001F76F000E010188
:1023F80051210001F86FC8EC20F00001F5510F5C85
:102408000001F65110580001F75111580001F85118
:102418001258D8A0D4D74FC03FF050C040F01E0E7D
:102428003F2400018C6F000E402000018D6F190EB3
:102438003F2400018A6F000E402000018B6F40503E
:1024480004E11E0E3F5CD8A006D0405004E1FB0E0C
:102458003F5CD8A002D00001A785000E83BA010E08
:10246800466EFCC010F0FDC011F022EC20F057ECD5
:102478001DF0B3EC1DF059EC13F086EC1DF0F9D704
:102488000001E1BF16D00001E15105E1020E000193
:10249800E05DD8A00ED09EC110F09FC111F04BECAA
:1024A8001AF0F00E10140001966FFF0E11140001BF
:1024B800976F96C0E6F097C0E7F0000E0001E56F51
:1024C8000F0E0001E56501D064D0E6C011F0E7C049
:1024D80012F020EC1FF0E90E0001DB6F7E0E000108
:1024E800DC6F60EC1CF0000E0001E86F0F0E0001BD
:1024F800E86501D01AD0E6C00FF0E7C010F045EC4F
:1025080022F03CEC22F00001E64BE72B200E61ECB8
:1025180022F00001E851070B070AD8A403D0200EC7
:1025280061EC22F00001E82BE1D7100E0001E65F14
:10253800000EE75B000E0001E86F0F0E0001E86572
:1025480001D01CD0E6C00FF0E7C010F045EC22F037
:102558000001E46F0001E64BE72B0001E451B5EC04
:1025680021F0D8A005D00001E45161EC22F003D09D
:102578002E0E61EC22F00001E82BDFD77F0E000160
:10258800DB6F740E0001DC6F60EC1CF00001E52BC2
:1025980097D70001010E97271200ABC021F076EC07
:1025A80022F00FC090F010C091F000019151226EFE
:1025B80090C023F00001B505D8A410D023C01CF0AA
:1025C800010E1C161C38F00B1E6ED89023300F0B12
:1025D8001E101D6E2350E00B1D10236E4750D8A40B
:1025E80012000001905100019111D8A424D021506B
:1025F800D3EC21F02150C4EC21F00001B251D8B441
:1026080005D0020E146E21502CEC1CF04FC03FF088
:1026180050C040F01E0E3F2400018C6F000E402079
:1026280000018D6F190E3F2400018A6F000E4020B3
:1026380000018B6F12002350D8B41AD0010E206EFF
:10264800000E1F6E070E1F6401D00ED0080E201852
:10265800D8A402D0000E206E23B006D0D890233024
:10266800236E1F2A202AEED72050F8EC18F012000B
:102678002204D8A406D0FF0E0001836FF40E826FE7
:102688001200020E2218D8A406D0000E0001836F93
:102698000C0E826F1200030E2218D8A41200000E2E
:1026A8000001836F000E826F1200FEEC21F000091A
:1026B800D8B412001FEC22F00001F46F6AD05AEC73
:1026C80020F057EC1DF0120000019FBF120000011E
:1026D8009F5104E100019E05D8A012000001A00747
:1026E800D8A0A10700019E07D8A09F07080E61EC9B
:1026F80022F0200E61EC22F0080E61EC22F01200AC
:102708000D0E61EC22F00A0E61EC22F000019FBF71
:1027180011D000019F5104E100019E05D8A00AD004
:10272800A0C0D9FFA1C0DAFF000EDF6E34EC15F0AF
:10273800F0EC07F057EC1DF012005AEC20F057ECC3
:102748001DF0ACEC18F01200200E0001F46F00012F
:10275800F451B5EC21F0D8A0120000019FBF08D0B9
:1027680000019F5128E1280E00019E5DD8B012009B
:102778000001F45161EC22F0A0C0D9FFA1C0DAFF3A
:10278800F4C0DFFF0001A04BA12B00019E4B9F2B43
:1027980012000001F451080AD8B496D7010AD8B437
:1027A800D3D7040AD8B4ACD71F0AD8B4C6D70A0AF4
:1027B800D8B485D7CCD71200000120EE02F0E25140
:1027C800D926E351DA22DECFE4F0DDCFE5F0010EC1
:1027D8000001E427000EE523E4C0F6FFE5C0F7FF9B
:1027E800F86A050EF76403D00800F55005D0F6CF57
:1027F800E9FFF7CFEAFFEF5029EC22F00001E66F7E
:10280800000120EE02F0E251D926E351DA22DECFB0
:10281800F6FFDECFF7FF050EF76403D00800F5508A
:1028280005D0F6CFE9FFF7CFEAFFEF503F0AD8A46B
:1028380019D0920E0001DB6F730E0001DC6F60ECA3
:102848001CF0C70E0001DB6F7B0E0001DC6F60EC33
:102858001CF0390E0001DB6F750E0001DC6F60ECB7
:102868001CF01200670E0001E619D8A403D0470E29
:1028780085EC1BF0720E0001E619D8A403D0520EA5
:1028880085EC1BF00001AC51D8B409D07D0E0001D5
:10289800DB6F7D0E0001DC6F60EC1CF01200450E52
:1028A8000001DB6F7D0E0001DC6F60EC1CF0120094
:1028B8001050030B196E020E1918D8A402D0020E7C
:1028C80007D0030E1918D8A402D0010E01D0000EAB
:1028D800176E0FC011F010C012F0050E136ED890CD
:1028E80012321132132EFBD71150070B156ED890E8
:1028F8001030126E0F30116E11507F0B166E0F5084
:10290800010B146E1650010D000EF324D96E030E40
:10291800F420DA6EDF50186E17500C0DF35018249F
:10292800180F1A6E1850E80F1B6E0001B651D8A484
:1029380014D01450D8B425D0020E1518D8B421D00C
:102948001B50010DAC0EF324D96E010EF420DA6E83
:10295800DF50D8B416D01A0614D0180E1B18D8B4E5
:102968000FD01D0E1B18D8B40BD0240E1B18D8B4CA
:1029780007D0290E1B18D8B403D0300E1B18D8B4B2
:102988001A2A1A50000182251A6E1A501200000ED7
:102998000001EC6F0C0E0001DB6F7C0E0001DC6F98
:1029A80060EC1CF04FD05EEC18F0C8EC20F00FC0C3
:1029B800E8F010C0E9F011C0EAF012C0EBF002D064
:1029C800B3EC1DF0320E0001E8250001E46F000EA3
:1029D8000001E9210001E56F000E0001EA21000174
:1029E800E66F000E0001EB210001E76FC8EC20F054
:1029F8000001E4510F5C0001E55110580001E65157
:102A080011580001E7511258D8A0DAD70D0E61EC21
:102A180022F0FEEC21F00009D8B404D01FEC22F01B
:102A28000001EC6F0D0E0001EC19D8A40BD0000EBC
:102A38000001EC6F7F0E0001DB6F740E0001DC6F8C
:102A480060EC1CF01B0E0001EC19D8A4ACD77F0E6B
:102A58000001DB6F740E0001DC6F60EC1CF01200EB
:102A68004E50D8A42BD0000E206E000E1F6E2050A2
:102A780019E1040E1F5CD8B015D01FC00FF020C09C
:102A880010F0000E126E2A0E116EEEEC20F0000E01
:102A98000F24D96E020E1020DA6E000EDF6E1F4A68
:102AA800202AE5D7000E00019B6F000E9A6F000EDA
:102AB8000001996F000E986F010E4E6E520E0F6E48
:102AC800010E106E61EC1EF00F501010D8B41200F9
:102AD8009AC00FF09BC010F0000E126E2A0E116EF5
:102AE800EEEC20F0000E0F24156E020E1020166E6C
:102AF800520E176E010E186E000E1A6E280E196E01
:102B080009EC1BF09AC098F09BC099F000019A4B11
:102B18009B2B00019B5105E1040E00019A5DD8A092
:102B28001200000E00019B6F000E9A6F1200000E3B
:102B3800246E22AE0AD0221E211E201E1F6C000EFB
:102B4800202221222222010E246E1EAE0AD01E1E31
:102B58001D1E1C1E1B6C000E1C221D221E22010E97
:102B6800241A000E256E000E266E000E276E000E2B
:102B7800286E1F50201021102210D8B42AD0010E20
:102B8800236E06D0D8901F36203621362236232AC7
:102B980022AEF8D7D89025362636273628361F5045
:102BA8001B5C20501C5821501D5822501E58D8A07C
:102BB80009D01F501B5E20501C5A21501D5A22500C
:102BC8001E5A2580D8902232213220321F32232EDD
:102BD800E1D72450D8B408D0281E271E261E256CFD
:102BE800000E26222722282225C01BF026C01CF012
:102BF80027C01DF028C01EF01200000E0001E56F6E
:102C0800000E0001E46F0001E0050001E111D8A405
:102C18002DD0510E0001DB6F720E0001DC6F60ECED
:102C28001CF009D0FEEC21F00009D8B404D01FEC48
:102C380022F00001E56F1F0E0001E565F3D70001E2
:102C4800E55161EC22F07F0E0001DB6F740E00018C
:102C5800DC6F60EC1CF00001E55115EC22F0590A1C
:102C6800D8A41BD0010E0001E46F17D0000120EE9C
:102C780002F0E251D926E351DA22DECF15F0DDCF9A
:102C880016F0F70E176E7E0E186EF6EC1BF00009A4
:102C9800D8B403D0010E0001E46F0001E451000133
:102CA800D8B4120085EC22F02A0E0001DB6F780EF2
:102CB8000001DC6F60EC1CF01200010E0001AB6F2C
:102CC800000E0001AC6F020E0001AD6F010E000195
:102CD800AE6F050E0001AF6F1E0E0001B06F010E42
:102CE8000001B16F000E0001B26F010E0001B36F59
:102CF800000E0001B46F000E0001B56F000E000158
:102D0800B66F960E0001B76F000E186E070E1864A6
:102D180001D015D01850010D970EF324F66E700EE1
:102D2800F420F76E1850010DB80EF324D96E000E7A
:102D3800F420DA6E0800F5CFDFFF182AE7D7010E76
:102D48000001C16FF40EC06F020E0001C36FEE0EDA
:102D5800C26F020E0001C56FEE0EC46F010E0001B6
:102D6800C76FF40EC66F45EC21F01200C0C02CF0FE
:102D7800C1C02DF03FC029F040C02AF0291E2A1EEC
:102D8800294A2A2A4F50292650502A2229C00FF0B2
:102D98002AC010F0116A126A800E136E3F0E146E6C
:102DA800000E156E000E166E0CEC1EF00FC01BF018
:102DB80010C01CF011C01DF012C01EF02CC01FF076
:102DC8002DC020F0216A226A9BEC15F01BC02EF062
:102DD8001CC02FF02FAE04D0000E2F6E000E2E6EEA
:102DE8002FBE0AD0810E2E5C3F0E2F58D8A004D0DB
:102DF8003F0E2F6E800E2E6E2EC029F02FC02AF0A7
:102E0800070E2B6E2A342A3229322B2EFBD7295053
:102E1800456E2E507F0B446E1200000E186E12AED7
:102E28000AD0121E111E101E0F6C000E1022112245
:102E38001222010E186E16AE08D0161E151E141E8C
:102E4800136C000E1422152216221350141015109C
:102E58001610D8B424D0010E176E06D0D8901336A9
:102E6800143615361636172A16AEF8D713500F5CD7
:102E7800145010581550115816501258D8A008D090
:102E880013500F5E1450105A1550115A1650125AFA
:102E9800D8901632153214321332172EE7D718503D
:102EA800D8B408D0121E111E101E0F6C000E10226E
:102EB800112212220FC00FF010C010F011C011F033
:102EC80012C012F01200000E2E6E000E2D6E0001C0
:102ED8008E5100018F11D8B403D04D50D8B442D0D0
:102EE80084C02BF085C02CF02B1E2C1E2B4A2C2ABC
:102EF8000001CA512B260001CB512C222BC00FF008
:102F08002CC010F0116A126A800E136E3E0E146EF9
:102F1800000E156E000E166E0CEC1EF00FC02FF092
:102F280010C030F011C031F012C032F02FC01BF0C9
:102F380030C01CF031C01DF032C01EF0C2C01FF0FE
:102F4800C3C020F0216A226A9BEC15F01BC02FF049
:102F58001CC030F01DC031F01EC032F02FC02DF063
:102F680030C02EF02DC029F02EC02AF01200FCC06F
:102F7800DBF0FDC0DCF060EC1CF0B30E0001DB6F91
:102F88007C0E0001DC6F60EC1CF000016C51296EB6
:102F98002A6A2B6A2C6A010E2D6EDCEC0DF02E0EBF
:102FA80061EC22F000016D51296E2A6A2B6A2C6AA5
:102FB800010E2D6EDCEC0DF02E0E61EC22F00A0EE7
:102FC80000016E6103D0300E61EC22F000016E51F9
:102FD800296E2A6A2B6A2C6A010E2D6EDCEC0DF024
:102FE800F10E0001DB6F7E0E0001DC6F60EC1CF05F
:102FF800510E0001DB6F7D0E0001DC6F60EC1CF0F0
:103008007F0E0001DB6F740E0001DC6F60EC1CF0BA
:103018001200136E13C011F0126A00017051000102
:103028007111D8A416D07C0E0001766F010E000134
:10303800776F7C0E0001746F010E0001756F000E32
:103048000001736F000E726F000E0001716F010EA8
:10305800706F000173BF08D00001735128E1200E82
:103068000001725DD8B023D074C0D9FF75C0DAFFF3
:1030780013C0DFFF0001744B752B7C0E0F6E010E21
:10308800106E200E0F26000E10220F500001745DE6
:10309800105000017559D8A006D07C0E0001746F3D
:1030A800010E0001756F0001724B732B120011683D
:1030B80012681200100E0001DB6F7D0E0001DC6F3C
:1030C80060EC1CF076EC22F00FC011F010C012F08A
:1030D80020EC1FF0F40E0001DB6F7C0E0001DC6FAA
:1030E80060EC1CF0000EA6EC21F00FC029F010C017
:1030F8002AF02B6A2C6A040E2D6EDCEC0DF0020E01
:103108000001DB6F7D0E0001DC6F60EC1CF067ECEA
:1031180022F00FC029F010C02AF02B6A2C6A040E86
:103128002D6EDCEC0DF0380E0001DB6F7D0E00011A
:10313800DC6F60EC1CF06CEC22F00FC029F010C0C2
:103148002AF02B6A2C6A040E2D6EDCEC0DF01200AE
:10315800520E156E010E166E98C00FF099C010F041
:10316800000E126E2A0E116EEEEC20F0000E0F24E7
:10317800176E020E1020186E000E1A6E280E196EA9
:1031880009EC1BF00001985100019911D8A405D051
:10319800000E0001996F040E986F00019807D8A0DF
:1031A8009907520E0F6E010E106E61EC1EF00FC0E3
:1031B8009EF010C09FF0520E00019E250001A06FE6
:1031C800010E00019F210001A16FA0C0D9FFA1C07D
:1031D800DAFF000EDF6E520E0001DB6F010E0001F8
:1031E800DC6F60EC1CF01200196EABC017F01950C0
:1031F800010DB80EF324D96E000EF420DA6EDF50FC
:10320800186E18C014F01750F1EC21F0F00E0101FF
:10321800146F730E0101156F070E0101166F19C0A7
:1032280017F16CC018F16DC019F16EC01AF1A7C082
:103238001BF1B6C01CF1B2C01DF1B3C01EF1F70EF0
:1032480001011F6F0001AC51D8B41200000E1B6EB3
:103258003F0E1B6401D012001B50010D140EF32405
:10326800D96E010EF420DA6EDF501A6E1A500DEC8A
:1032780018F0F70E1A18D8B412001B2AE9D70F0154
:10328800459F0F01459B0F0145990F0145970F0178
:1032980045950F0145930F0145910F01449F9F0EDE
:1032A8000F0144170F0144890F014451F30B04091E
:1032B800446F030E0F0143130F014395439743993E
:1032C800439B439D439F000EC26E000EC16EC09E7D
:1032D800C050F80B0109C06EC050C70B1009C06E72
:1032E800000EC36E000EC46E010EC26E0F01458F34
:1032F800000E0101E16F960EE06F000E0001956F60
:10330800000E946F929C1200000E146E12AE06D03E
:10331800116C121ED8B0122A010E146E10AE06D00F
:103328000F6C101ED8B0102A010E141A000E166E5B
:10333800000E156E11501210D8B41CD0010E136E69
:1033480004D0D89011361236132A12AEFAD7D89074
:103358001536163611500F5C12501058D8A005D0EB
:1033680011500F5E1250105A1580D8901232113237
:10337800132EEDD71450D8B404D0156C161ED8B03F
:10338800162A15C00FF016C010F01200000E176EA6
:10339800000E186E000E196E000E1A6E13501410DF
:1033A80015101610D8B42AD0010E1B6E06D0D8906E
:1033B80013361436153616361B2A16AEF8D7D8909B
:1033C8001736183619361A3613500F5C1450105821
:1033D8001550115816501258D8A009D013500F5E26
:1033E8001450105A1550115A1650125A1780D89066
:1033F80016321532143213321B2EE1D717C00FF0D4
:1034080018C010F019C011F01AC012F012002525CA
:10341800252525252525252525252525252530303E
:103428003030303030302F2E2E2E2D2C2C2C2424C2
:1034380024242424242424242424242424242B2A37
:103448002A2A2A2A2A2A29292929282726242322F6
:103458002222222222222222222222222222222244
:103468002222222222222222222222222222212037
:1034780020202020202020202020202020201F1E47
:103488001E1E1E1E1E1E1D1D1D1D1C1B1A18000E95
:10349800166E000E156E000E176E030E176401D01F
:1034A80031D01050126E1150136E104A112A12C0EA
:1034B800F6FF13C0F7FFF86A050EF76403D008009B
:1034C800F55005D0F6CFE9FFF7CFEAFFEF50CAEC89
:1034D8001FF0146E1428D8B415D015C012F016C0F9
:1034E80013F0123A133AF00E131612500F0B131270
:1034F800F00E121614501224156E000E1320166EBC
:10350800172ACBD715C010F016C011F01200160EEE
:10351800F66E340EF76E000EF86E03EE00F010EE45
:1035280080F00900F5CFEEFFE550E150FAE1120E08
:10353800F66E410EF76E000EF86E01EEACF010EE6E
:103548002BF00900F5CFEEFFE550E150FAE102EE6D
:1035580000F0A80EEE6AE806FDE101EE00F0AC0E00
:10356800EE6AE806FDE100EE60F06D0EEE6AE80630
:10357800FDE100EE3FF0120EEE6AE806FDE1519023
:103588005192000EF86E0001B6EF11F0ABC03AF0A0
:10359800AEC03DF03D50D8B412001F0E3D6401D0BE
:1035A800120023EC11F029C03BF02AC03CF00001C6
:1035B80078513B1805E1000179513C18D8B4120044
:1035C8003BC035F03CC036F0070E376ED890363227
:1035D8003532372EFBD735507F0B386E3DC014F08F
:1035E80038C015F03A5023EC21F03B507F0B396E70
:1035F8003D50200F146E39C015F03A5023EC21F0DD
:103608003BC078F03CC079F0120015C01DF016C020
:103618001EF023D01906D8A01A0617501B6E185092
:103628001C6E174A182A1BC0F6FF1CC0F7FFF86A61
:103638001DC0D9FF1EC0DAFF1D4A1E2A050EF764F9
:1036480003D00800F55005D0F6CFE9FFF7CFEAFF21
:10365800EF50DF6EDF50D8B40DD019501A10D8B41F
:1036680009D0D8D71DC0D9FF1EC0DAFF000EDF6E03
:103678001D4A1E2A1906D8A01A061928F3E11A2885
:10368800D8B41200EFD7106E1050010DC50EF324F8
:10369800D96E010EF420DA6EDF500F6E0F460F461A
:1036A800C2500F18830B0F18C26E00F000F000F024
:1036B80000F00F01458300F000F000F000F00F016A
:1036C80045930F0144930F01448100F000F000F08E
:1036D80000F000F000F000F000F000F000F000F062
:1036E80000F00F014491C282C2B2FED71050010D02
:1036F800380EF324D96E010EF420DA6EC4CFDFFF42
:103708001200186E520E1818D8A417D0010E000116
:10371800AC6F020E0001AD6F010E0001AE6F050E19
:103728000001AF6F140E0001B06F010E0001B16F00
:10373800010E0001B26F000E16D0000E0001AC6F32
:10374800070E0001AD6F010E0001AE6F050E0001FE
:10375800AF6F1E0E0001B06F010E0001B16F000EB9
:103768000001B26F010E0001B36F000E0001B46FCB
:1037780045EC21F012009E900001FB51CF6EFAC07B
:10378800CEFF4C50D8B402D00001A82B010E000186
:103798006427000E652366236723010E4C6E492AB1
:1037A800040E496404D0010E4B6E000E496E482A7F
:1037B800310E486404D0010E4A6E000E486E0001B6
:1037C8006807000E695B6A5B6B5B0001685100016A
:1037D800691100016A1100016B11D8A41200000ED2
:1037E8004D6E12001968010E1A6E2CD015C0F6FF26
:1037F80016C0F7FFF86A050EF76403D00800F55005
:1038080005D0F6CFE9FFF7CFEAFFEF5029EC22F019
:103818001B6E154A162A17C0F6FF18C0F7FF0800D6
:10382800F55029EC22F01C6E174A182A1C501B1858
:10383800D8B402D0000E1A6E1B50D8B407D01C5052
:10384800D8B404D019061928D8A4D0D71A50120011
:10385800156E15040F0BB009166E16500DEC18F006
:103868001404D8B404D0020E1418D8A407D07D0EBE
:103878000DEC18F0000E0DEC18F006D07C0E0DECD7
:1038880018F0000E0DEC18F016500DEC18F014049A
:10389800D8B404D0030E1418D8A407D07F0E0DECAA
:1038A80018F0000E0DEC18F012007E0E0DEC18F05A
:1038B800010E0DEC18F0120012D0B3EC1DF09EA80A
:1038C800FCD70A0E3E18D8A407D00D0E61EC22F0E2
:1038D8000A0E61EC22F003D03E5061EC22F00001A8
:1038E800DB510001DD6F0001DC510001DE6F0001DA
:1038F800DB4BDC2BDDC0F6FFDEC0F7FFF86A050EF8
:10390800F76403D00800F55005D0F6CFE9FFF7CFEC
:10391800EAFFEF503E6E3E50D8B41200CED7400EAC
:10392800156EC00E1314136EFF0E1414146E13C00C
:103938000FF014C010F0DBEC20F0000EF86E1450FD
:10394800F76E13C0F6FF09D011C0D9FF12C0DAFF15
:10395800DF50F56E114A122A0D0015061528D8A455
:10396800F3D713C0F6FFA68EA69CA684A698F29E4F
:10397800550EA76EAA0EA76EA682F28EA694120006
:10398800000E00016C6F090E00016D6F3C0E000106
:103998006E6F230E0001FC6F740E0001FD6F010EA7
:1039A8000001FE6F000E4D6E000E0101E36F1E0E4A
:1039B800E26F000E0001A76F94909492960E1D6E10
:1039C800000E1C6E26EC1DF07A0E1D6E120E1C6E7B
:1039D800F5EC1CF096EC21F043EC19F0F28EF28C29
:1039E8001200000E0F6E240E106EF40E116E000EF3
:1039F800126E1C501E6E1D501F6E206A216A020E28
:103A0800D8901E361F3620362136E82EF9D71EC02C
:103A180013F01FC014F020C015F021C016F0CAEC36
:103A280019F0FF0E0F24226EFF0E1020236E080ED1
:103A3800706E900E716E240E726E22C075FF235048
:103A4800766E1200000E0F6E240E106EF40E116EBC
:103A5800000E126E1C501E6E1D501F6E206A216AC9
:103A6800020ED8901E361F3620362136E82EF9D79A
:103A78001EC013F01FC014F020C015F021C016F0AE
:103A8800CAEC19F0FF0E0F24226EFF0E1020236ED1
:103A9800080EB86E900EAB6E240EAC6E22C0AFFF4F
:103AA8002350B06E1200000E0101526F520E000139
:103AB800A06F010E0001A16F000E00019F6F000EA4
:103AC8009E6F000E0001DF6F070E0001DF6501D059
:103AD80010D00001DF51020D9C0EF324D96E010EA7
:103AE800F420DA6ECC0EDE6E000EDD6E0001DF2BE8
:103AF800EBD7D30E0001DB6F010E0001DC6F60EC29
:103B08001CF012000001725100017311D8B41200A8
:103B1800A4A8120076C0D9FF77C0DAFFDF505BECAB
:103B280022F00001764B772B7C0E106E010E116E81
:103B3800200E1026000E112210500001765D115043
:103B480000017759D8A006D07C0E0001766F010ECF
:103B58000001776F00017207D8A0730712004C505C
:103B6800D8B404D0000E4C6EBDEC0CF04B50D8B459
:103B78000AD0000E4B6EABEC1FF0BAEC16F0CEEC90
:103B880009F044EC1FF04A50D8B41200000E4A6EF7
:103B98008B80FBEC1EF076EC21F00001A52B040EC7
:103BA8000001A519D8A41200000E0001A56F73EC3E
:103BB80020F012EC21F01200010E1C6EAB0E1A6EF2
:103BC800000E1B6EAB0E0F6E000E106E7F0E126E87
:103BD800800E116E1F0E136E9FEC20F01AC0D9FFD5
:103BE8001BC0DAFFDE2805E1DE28D8A402D0000ECB
:103BF8001C6ED6EC1EF00001C8510F1805E100013B
:103C0800C9511018D8B402D0000E1C6E1C501200F6
:103C1800000E176E000E186E000E196E000E1A6E4A
:103C28000FA008D013501726145018221550192227
:103C380016501A22D8901336143615361636D890E0
:103C48001232113210320F320F50101011101210A0
:103C5800D8A4E6D717C00FF018C010F019C011F09B
:103C68001AC012F01200126E000E146E000E136EBF
:103C780012C011F011461146C2501118830B1118C9
:103C8800C26E00F000F000F000F000F000F000F06C
:103C980000F0C282C2B2FED7C4CF13F0146A135028
:103CA800146E136AC3501324136E000E1420146E7E
:103CB80013C00FF014C010F012000FC013F010C0A2
:103CC80014F002D0134A142A13C0F6FF14C0F7FFE9
:103CD800F86A050EF76403D00800F55005D0F6CF52
:103CE800E9FFF7CFEAFFEF500009D8A4EBD70FC0E0
:103CF80011F010C012F0111E121E114A122A135090
:103D080011240F6E14501220106E1200000E8D6ECA
:103D1800000E8C6E000E896E000E8A6E000E8B6E81
:103D2800070E966E3F0E926E9368900E946EB70EC5
:103D3800956E000E0F013A6F0F013969000E0F01E1
:103D48003B6F070E0F013C6F2F0E0F01386F616834
:103D5800F19E8B848C9612000F01459F00F000F0B5
:103D680000F000F0000EC26E000EC16EC08EC05092
:103D7800F80B0509C06EC050C70B1009C06E000EC5
:103D8800C36E000EC46E010EC26E93820F0139839A
:103D980093880F01398993800F013981938A0F0124
:103DA800398B1200000E146E000E136EAB0E156EDA
:103DB800000E166E1D0E126E000E176E0DD015C079
:103DC800D9FF16C0DAFFDF50116E11501326000E0E
:103DD8001422154A162A172A1250175CD8A0EFD7B2
:103DE800BA0E13180F6EAB0E1418106E12000001E5
:103DF800FE51D8B4120000017FBF0DD000017F51E1
:103E080005E10A0E00017E5DD8A005D0000E000174
:103E18007F6F000E7E6F00017E5100017F11D8B4C4
:103E28008B82020E00017E1900017F11D8B48B929B
:103E380000017E4B7F2B120011C013F012C014F04A
:103E48000C0E156ED89014321332152EFBD7135062
:103E580066EC21F0125066EC21F011C013F012C08C
:103E680014F0040E156ED89014321332152EFBD7A9
:103E7800135066EC21F011500F0B66EC21F0120084
:103E88000001A2510001D8A407D0310E42640AD023
:103E9800D1EC12F0010E04D0C70E416403D0000E1D
:103EA8000001A26F83B808D0FA0E426002D0050E56
:103EB8004226000E416E1200FA0E416002D0050E35
:103EC8004126000E426E1200000120EE02F0E2517F
:103ED800D926E351DA22DECFF6FFDECFF7FF050E53
:103EE800F76403D00800F55005D0F6CFE9FFF7CF07
:103EF800EAFFEF503F0AD8A41200220E0001DB6F40
:103F08007C0E0001DC6F60EC1CF01200400E00011A
:103F1800DB6F760E0001DC6F60EC1CF0190E0001FF
:103F2800DB6F720E0001DC6F60EC1CF0F30E000119
:103F3800DB6F730E0001DC6F60EC1CF02B0E0001D0
:103F4800DB6F730E0001DC6F60EC1CF01200B0EC4C
:103F58001EF00B0E37EC1EF00FC04FF010C050F0E3
:103F68000A0E37EC1EF00FC0CAF010C0CBF00D0ED1
:103F780037EC1EF00FC088F010C089F00C0E37EC3B
:103F88001EF00FC080F010C081F012000F6E2F0ECF
:103F98000F6406D03A0E0F6003D00F50D00F1200F6
:103FA800400E0F6406D0470E0F6003D00F50C90FA4
:103FB8001200600E0F6406D0670E0F6003D00F501A
:103FC800A90F1200FF0E12000FC011F010C012F05E
:103FD800050E136ED89012321132132EFBD71150E2
:103FE800070B156E1050030B146E000E166E14504E
:103FF800D8B405D01550D8B402D0010E166E16509C
:104008001200ABC033F067EC17F029C034F02AC0B7
:1040180035F000017A51341805E100017B5135185B
:10402800D8B4120034C014F035C015F033503EEC4B
:1040380020F034C07AF035C07BF012000ED00A0EA2
:104048001218D8A407D00D0E61EC22F00A0E61EC0C
:1040580022F003D0125061EC22F010C0F6FF11C01C
:10406800F7FF104A112A0800F5CF12F01250D8B401
:104078001200E5D7196E19040F0BE0091A6E1A50D1
:104088000DEC18F014507F0B0DEC18F014C016F05E
:1040980015C017F0070E186ED89017321632182E62
:1040A800FBD716507F0B0DEC18F012000D0E61ECCB
:1040B80022F0000E116E000E106E11BE06D01150C7
:1040C8000AE12A0E105CD8B006D0200E61EC22F06E
:1040D800104A112AF2D70D0E61EC22F0120083AAC1
:1040E80002D0010E01D0000E4618D8B409D083BA08
:1040F80004D0470E85EC1BF003D0520E85EC1BF064
:10410800000E83BA010E466E120001000100010084
:10411800000100010001010001000100000100018F
:10412800000100000102030405060708099F7E99A3
:054138007E0D3E200099
:10413E00000EF86E1250F76E11C0F6FF09D009008E
:10414E000FC0D9FF10C0DAFFF5CFDFFF0F4A102ADC
:10415E0013061328D8B41200F2D7E2C10FF0E3C150
:10416E0010F0EA0E126E600E116EEEEC20F00FC023
:10417E0068F010C069F000016A6B6B6B010E4D6E3A
:10418E0012009D9064C013F065C014F066C015F067
:10419E0067C016F09D8013C00FF014C010F015C04C
:1041AE0011F016C012F01200000EF86E1050F76EDD
:1041BE000FC0F6FFA68EA69CA684A688F29E550E6C
:1041CE00A76EAA0EA76EA682F28EA69412000F50AC
:1041DE001102F3CF13F0F4CF14F00F501202F3507C
:1041EE00142610501102F350142613C00FF014C0F1
:1041FE0010F01200136E1350020D000EF324D96E40
:10420E00010EF420DA6EDECF11F0DDCF12F0125077
:10421E000F6E106A12000001AC51D8B41200F00EED
:10422E000DEC18F0730E0DEC18F0300E0DEC18F0BE
:10423E00F70E0DEC18F01200166E16040F0BB009E7
:10424E00176E17500DEC18F014507F0B0DEC18F084
:10425E0015507F0B0DEC18F01200166E16040F0B96
:10426E009009176E17500DEC18F014507F0B0DECD3
:10427E0018F015507F0B0DEC18F01200D6EC1EF056
:10428E000FC0C8F010C0C9F0AB0E116E000E126E4A
:10429E007F0E146E800E136E93EC1CF012004550C0
:1042AE00116E126A070ED89011361236E82EFBD711
:1042BE00445011240F6E000E1220106E1200106E5C
:1042CE000F0E10160A0E106005D01050300F61EC54
:1042DE0022F012001050370F61EC22F01200E90E9E
:1042EE0000018E5D030E00018F59D8A012004D50B3
:1042FE00D8A41200CAC084F0CBC085F01200156E8F
:10430E0015040F0B8009166E16500DEC18F0145094
:10431E007F0B0DEC18F0000E0DEC18F01200540E81
:10432E00CD6E000ECC6EE00ECF6EC00ECE6ECECF2A
:10433E00FAF0CFCFFBF09E909D80CD801200126ED2
:10434E001250010D380EF324D96E010EF420DA6EE0
:10435E00DF50116E11500F6E106A1200116E000EAA
:10436E00106E7F0E116005D01F0E116402D0010E6B
:10437E00106E10C00FF00F301200146E14040F0BDD
:10438E00B009156E15500DEC18F0790E0DEC18F0F5
:10439E00000E0DEC18F01200146E14040F0BB00981
:1043AE00156E15500DEC18F0780E0DEC18F0000E81
:1043BE000DEC18F01200116E000E106E3A0E116018
:1043CE0005D02F0E116402D0010E106E10C00FF02A
:1043DE000F301200156E15040F0BC009166E165015
:1043EE000DEC18F014507F0B0DEC18F01200000EAF
:1043FE009EBA010E0F6EABA204D0AB9EAB8E000E1A
:10440E000F6E0F501200E0C0E9F0E1C0EAF0E2C01A
:10441E00EBF0E3C0ECF0B7EC04F012000F6E7B0E85
:10442E000F6004D0600E0F6401D00F9A0F5012006F
:10443E00000E106EFEEC21F00009D8A4AECF10F0E5
:10444E00105012000F6E5B0E0F6004D0400E0F6402
:10445E0001D00F8A0F50120088EC22F08AEC1EF069
:10446E004EEC22F096EC21F01200116E11380F0B6B
:10447E0066EC21F0115066EC21F01200000EF86E81
:10448E001050F76E0FC0F6FF0800F5501200720EB6
:10449E00D36E040ED26E000E9B6E12000F6E0FC006
:1044AE00E0F10101E16B12000F6EA4A8FED70FC060
:1044BE0073FF12000F6E9EA8FED70FC0ADFF120045
:1044CE004FC00FF050C010F0120088C00FF089C01E
:1044DE0010F01200000E106E0A0E0F6E120094C035
:1044EE000FF095C010F0120047C00FF0106A1200C6
:1044FE008AEC22F01200000E4D6E120061EC16F0E6
:0A450E001200D09E1200FF00120000
:1070960000434B48454A111417FC7E47D03ED07E2C
:1070A60047143FF47E47821F377E47022CED7E470A
:1070B600762FDF7E471444C97E479629E47E4788AB
:1070C60024717E47FE44FA7E00143F707E47941674
:1070D600467E479600D57E47C027C37E47BE1DFA2B
:1070E6007E0000004578616D706C653A2020207046
:1070F60072657365742033203D2036372020207C4E
:1071060020536574204D494449205072676D2036DE
:107116003720666F72205072657365742033200ABB
:107126000A004578616D706C653A202020636F6EA9
:1071360066696720206368616E203D20313020201B
:1071460020205B536574204D696469205478206360
:1071560068616E6E656C203D2031305D200A0A0044
:1071660055736167652023323A2020636F6E666926
:1071760067203C706172616D3E205B3D5D203C7610
:10718600616C75653E202020207C2053657420703C
:107196006172616D2E2076616C7565200A005573EB
:1071A6006167652023323A2020707265736574200A
:1071B6003C707265233E205B3D5D203C76616C75BC
:1071C600653E202020207C20536574205072657314
:1071D60065742076616C7565200A00557361676574
:1071E6002023313A20207072657365742020202098
:1071F6007C204C69737420507265736574204D4908
:107206004449205072676D206E756D6265727320F9
:107216000A0A00436F6D6D616E64206172672773A1
:1072260020616E64206F7074696F6E73206D757364
:107236007420626520736570617261746564206292
:1072460079207370616365732E0A00526573746FDB
:10725600726520636F6E66696775726174696F6EB9
:10726600206461746120746F20666163746F727943
:107276002064656661756C74733F2028592F4E290A
:107286003A200053656E64696E67205379732E4504
:10729600782E20274944454E5427206D7367206376
:1072A6006F6E74696E756F75736C7920746F204D8F
:1072B600494449204F5554200A002020207768650C
:1072C6007265203C706172616D3E20697320612099
:1072D6006E69636B6E616D65206C6973746564209D
:1072E60062792075736167652023312E200A0A00B2
:1072F600766961204D494449207472616E736D69E7
:10730600742071756575652E20204D6573736167F0
:107316006520696E74657276616C20697320356DBF
:10732600732E200A00546F20726563616C6C2070A6
:10733600726576696F75736C7920656E74657265B2
:107346006420636F6D6D616E64732C2068697420B0
:107356004374726C2B522E0A005450322070756C96
:10736600736573204869676820666F7220352069E7
:107376007465726174696F6E73206F662044454C44
:1073860041595F31757328292E200A0053657420F0
:107396006F7065726174696E67206D6F64652C200D
:1073A600692E652E20636F6E6669677572617469F2
:1073B6006F6E2070726F66696C652E0A0055736178
:1073C60067652023313A2020636F6E666967202047
:1073D60020207C204C69737420636F6E6669672772
:1073E6006E20706172616D2773200A0A00466F7203
:1073F60020636F6D6D616E642075736167652068CB
:10740600656C702C20656E7465723A20273C636D3E
:10741600645F6E616D653E203F27200A00426175FC
:107426006572207B52454D497D2048616E647365C7
:1074360074206D6B32202D2D20536572766963653D
:1074460020506F727420434C49200A002020207778
:1074560068657265203C707265233E2069732074EE
:10746600686520507265736574206E756D6265720D
:107476002028312E2E3829200A0A00202D6D203A88
:1074860020204D494449204F5554205458207465B6
:107496007374202873656E64203078304620636FDD
:1074A6006E74696E2E29200A00202D66203A20204F
:1074B600577269746520466C6173682064617461F3
:1074C60020626C6F636B20286465737472756374D5
:1074D60069766529200A00202D71203A20204D4921
:1074E6004449204F555420545820517565756520E0
:1074F6007465737420284944454E54204020356DE8
:107506007329200A0053656E64696E6720307830EF
:107516004620636F6E74696E756F75736C7920742F
:107526006F204D49444920545820554152542E2E1F
:107536002E0A0020202D72203A2052454D492073F4
:10754600796E74682C20202D67203A2067656E6559
:107556007269632073796E7468206D6F64650A00C2
:107566005465737420657865637574696F6E2074ED
:10757600696D65206F662044454C41595F317573CE
:107586002829206D6163726F2E200A00202D70203D
:107596003A202053686F77204D4944492050726540
:1075A600737375726520646174612076616C7565AC
:1075B6002028313462290A00202D76203A202041E5
:1075C6006374697661746520646961672E206D6FE6
:1075D6006465205B74696D656F75742C206D696ECA
:1075E600735D0A00202D68203A2020486561727478
:1075F60062656174204C4544206469732F656E6131
:10760600626C652028746F67676C6529200A002AFA
:1076160020446961676E6F73746963206D6F64657A
:10762600206973206163746976652E2E2E20546955
:107636006D656F757420696E2000546F206C6973D8
:107646007420617661696C61626C6520636F6D6D33
:10765600616E64732C20656E7465723A20276C63C4
:1076660027200A00202D78203A20204578697420AA
:107676002863616E63656C2920646961676E6F7348
:10768600746963206D6F64652E200A00202055738F
:1076960065202764696167202D782720636D642043
:1076A600746F2063616E63656C20616E7974696DB9
:1076B600652E0A00202D65203A202053686F77201A
:1076C600737461727475702073656C662D7465735E
:1076D60074204572726F7273200A00202D64203A5E
:1076E6002020546573742044656C61792066756E3C
:1076F6006374696F6E206F72206D6163726F200A0A
:107706000020204D696469204D6F64756C61746951
:107716006F6E20496E74657276616C202831302E4A
:107726002E313030290A0055736167653A2020648E
:1077360069616720203C6F7074696F6E3E20205B24
:10774600617267315D202E2E2E200A0020204D69A1
:1077560064692045787072657373696F6E20434360
:10776600206E756D6265722028302E2E3331290AFF
:107776000020204D696469204D6F64756C617469E1
:107786006F6E204343206E756D6265722028302E21
:107796002E3331290A0020204D696469204578700E
:1077A60072657373696F6E20496E74657276616C6B
:1077B6002028352E2E3530290A00202053656E6488
:1077C60020322D627974652045787072657373690D
:1077D6006F6E206D73672028302C31290A00202017
:1077E600546F7563682053656E73652054687265BF
:1077F60073686F6C6420286D61782E323530290AE3
:107806000020204D696469205379732E4578636C96
:107816002E4D736720456E61626C65642028302C9E
:1078260031290A002A2044656661756C7420636FED
:107836006E66696775726174696F6E2072657374BE
:107846006F7265642E0A002120496E76616C696448
:1078560020707265736574206F72204D494449200B
:107866007072676D2023200A002020506164232057
:10787600207C20204144432072617720207C2020F8
:1078860046696C7465726564200A0020204D6F6439
:10789600756C6174696F6E20446561642D62616EFA
:1078A6006420286D61782E353030290A002020505A
:1078B600726573737572652053656E736F722053AC
:1078C60070616E20286D61782E373030290A0021CC
:1078D600204572726F723A20436F6E666967204464
:1078E600617461202864656661756C746564290A33
:1078F600005F5F5F5F5F5F5F5F5F5F5F5F5F5F5FF1
:107906005F5F5F5F5F5F5F5F5F5F5F5F5F5F5F5F81
:107916005F0A005F5F5F5F5F5F5F5F7C5F5F5F5F08
:107926005F5F5F5F5F5F5F7C5F5F5F5F5F5F5F5F44
:107936005F5F5F0A0060606060606060607C6060DE
:107946006060606060606060607C60606060606015
:1079560060606060600A00202D73203A2020536822
:107966006F77206E6F7465206F6E2F6F666620537B
:1079760074617465200A0020204D6F64756C617413
:10798600696F6E204D6178696D756D20286D61781F
:107996002E373530290A00202056656C6F636974CE
:1079A600792053656E736520456E61626C6564204F
:1079B60028302C31290A0020204D69646920426153
:1079C600736963204368616E6E656C2028312E2EC4
:1079D600313629200A002120576861743F20284942
:1079E6006E76616C696420636D64206F7074696F74
:1079F6006E29200A002120576861743F20202854F0
:107A060072793A20707265736574202D68656C70A2
:107A160029200A00202046696E676572696E672014
:107A2600536368656D652028302C312C322C2E2E40
:107A3600290A00436F6E6E6563742073636F706509
:107A46002070726F626520746F205450322E200AA7
:107A5600002120496E76616C6964206E69636B6EE5
:107A6600616D65206F722076616C75652E0A002047
:107A76002050697463682D42656E64205370616E90
:107A860020286D61782E373530290A0020204C6574
:107A96006761746F204D6F646520456E61626C6529
:107AA600642028302C31290A00202D6F203A20200E
:107AB6005461736B204F76657272756E20636865CC
:107AC600636B200A00202050697463682042656E4B
:107AD6006420456E61626C65642028302C31290A69
:107AE6000021204572726F723A204D6F64756C6189
:107AF60074696F6E2053656E736F720A002120578A
:107B06006861743F20205472792027636F6E66691E
:107B160067203F27200A002020546F756368205095
:107B26006164204C61796F75742028302C31290AE4
:107B36000021204572726F723A2050726573737518
:107B460072652053656E736F720A005461736B2001
:107B56006F76657272756E7320696E203130306D86
:107B6600733A20002A204E6F2073656C662D74656B
:107B76007374206572726F72732E0A005072657389
:107B86006574207C204D494449205072676D20233E
:107B9600200A005265736574204D435520746F208A
:107BA600657869742E2E2E200A00486974205B457C
:107BB60073635D20746F20657869742E2E2E200AFB
:107BC6000055736167653A20206D6F6465207B2DD3
:107BD600727C2D677D200A005F5F5F5F5F5F5F7C61
:107BE6005F5F5F5F5F5F5F5F5F5F5F5F5F0A006052
:107BF6006060606060607C60606060606060606063
:107C0600606060600A00486974205B4573635D20AC
:107C1600746F20717569742E200A0A0055736167A6
:107C2600653A20202A205B636F6D6D656E745D205A
:107C36000A003F20556E646566696E656420636F51
:107C46006D6D616E642E0A00486974205B4573632E
:107C56005D20746F20657869742E200A0055736163
:107C660067653A20207473656E73205B2D6C5D200A
:107C76000A002120496E76616C6964206F70746910
:107C86006F6E2E200A002A204E65772076616C756D
:107C9600652073617665643A2000554E4445464931
:107CA6004E454420286572726F72290A0046697231
:107CB6006D776172652076657273696F6E20000D4F
:107CC6000A2A204D4355207265736574202A0A00DE
:107CD600203A204D494449205072676D203D2000CE
:107CE6004F46462F49444C45202830290A00207C1F
:107CF60020506164305F4144433A2000207C20508C
:107D0600726573737572653A2000546F75636850B7
:107D16006164733A2030780050454E44494E4720FE
:107D26002831290A00504C4159494E47202832290A
:107D36000A00207C204D6F64756C276E3A20003D4A
:107D46002047656E65726963200A004A616E2031BC
:107D5600302032303230003C6F7074696F6E3E20D6
:107D66000A00206D696E757465732E0A002A20500C
:107D7600726573657420003D2052454D49200A0006
:107D86006368616E202020200065787032622020B2
:107D960020006D6F64636320202000657870636344
:107DA600202020006C6567656E20202000746872B4
:107DB60065732020200066696E677363202000705B
:107DC600627370616E20200070727370616E202085
:107DD6000062656E64656E20200076656C73656E64
:107DE60020200073797378656E2020006D6F6469BA
:107DF6006E74202000657870696E742020006D6FA7
:107E0600646D61782020007061646C6179202000C7
:107E16006D6F6462616E6420002020207C2020202B
:107E260000202020207C2020006D6F6462616E643B
:107E36000064656661756C740066696E67736300DD
:107E4600636F6E6669670070627370616E00707250
:107E56007370616E0062656E64656E0076656C7344
:107E6600656E0073797378656E00707265736574FC
:107E7600006D6F64696E7400657870696E74006D6C
:107E86006F646D6178007061646C617900202D2DDE
:107E96002D200037463030200064756D7020006557
:107EA60078703262006D6F64636300657870636337
:107EB600006C6567656E007468726573007473653F
:107EC6006E73007761746368002D68656C70006D71
:107ED6006F6465006368616E00646961670064755C
:107EE6006D7000203A2000766572002C20006C63CD
:097EF600002D790024002A00008F
:020000040020DA
:08000000FFFFFFFFFFFFFFFF00
:020000040030CA
:0E000000FF281F3CFFBF81FF0FC00FE00F4025
:00000001FF
