:0400000011EF00F00C
:100008005F82F0A602D0F0B006D0F2BC9DA003D06B
:100018009EB00EEC1DF05F92110040EF18F0000E3C
:10002800506E000E516EE5EC1FF0526E20EE02F09D
:100038004B50D9264C50DA22DECF4DF0DDCF4EF0B2
:100048004DC0D9FF4EC0DAFF3F0EDE18D8A41AD033
:10005800CF0E026E720E036E06EC1BF0180E026EC7
:10006800720E036E06EC1BF0EA0E026E730E036E40
:1000780006EC1BF0DA0E026E710E036E06EC1BF036
:100088009CEF04F049044A10D8A4D3D10F0E026E95
:100098007D0E036E06EC1BF052501B6E1C6A1D6A27
:1000A8001E6A010E1F6E10EC0EF0630E026E750EC6
:1000B800036E06EC1BF09F0E026E7D0E036E06ECBF
:1000C8001BF0B00E5224D96EDA6A000EDA22DF5025
:1000D8004D6E4D501B6E1C6A1D6A1E6A040E1F6E03
:1000E80010EC0EF0470E026E7A0E036E06EC1BF053
:1000F800F00E026E7D0E036E06EC1BF0B20E52245B
:10010800D96EDA6A000EDA22DF504D6E4D501B6E42
:100118001C6A1D6A1E6A040E1F6E10EC0EF0B40EE7
:10012800026E780E036E06EC1BF0DE0E026E7D0E7C
:10013800036E06EC1BF0B40E5224D96EDA6A000E78
:10014800DA22DF504D6E4D501B6E1C6A1D6A1E6A06
:10015800040E1F6E10EC0EF0910E026E780E036EF8
:1001680006EC1BF0BA0E026E7D0E036E06EC1BF059
:10017800B60E5224D96EDA6A000EDA22DF504D6EBE
:100188004D501B6E1C6A1D6A1E6A040E1F6E10EC11
:100198000EF0180E026E770E036E06EC1BF0140EAE
:1001A800026E7E0E036E06EC1BF0B80E5224D96E5A
:1001B800DA6A000EDA22DF504D6E4D501B6E1C6A53
:1001C8001D6A1E6A040E1F6E10EC0EF0000E026E01
:1001D800780E036E06EC1BF0F90E026E7D0E036EB0
:1001E80006EC1BF0BA0E5224D96EDA6A000EDA2237
:1001F800DF504D6E4D501B6E1C6A1D6A1E6A040E40
:100208001F6E10EC0EF0C00E026E7A0E036E06EC36
:100218001BF0E70E026E7D0E036E06EC1BF0BC0EA3
:100228005224D96EDA6A000EDA22DF504D6E4D5034
:100238001B6E1C6A1D6A1E6A040E1F6E10EC0EF0FF
:10024800070E026E7A0E036E06EC1BF0260E026E87
:100258007E0E036E06EC1BF0BE0E5224D96EDA6ACF
:10026800000EDA22DF504D6E4D501B6E1C6A1D6A5F
:100278001E6A040E1F6E10EC0EF0DD0E026E7A0E72
:10028800036E06EC1BF0540E026E750E036E06EC40
:100298001BF02F0E026E7E0E036E06EC1BF00001A3
:1002A800CB511B6E1C6A1D6A1E6A040E1F6E10EC71
:1002B8000EF0670E026E770E036E06EC1BF0020E50
:1002C800026E7E0E036E06EC1BF00001CC511B6E15
:1002D8001C6A1D6A1E6A040E1F6E10EC0EF0C60E14
:1002E800026E760E036E06EC1BF0C30E026E7D0ED8
:1002F800036E06EC1BF00001C0511B6E1C6A1D6AE0
:100308001E6A040E1F6E10EC0EF0840E026E7A0E3A
:10031800036E06EC1BF0A80E026E7D0E036E06EC53
:100328001BF00001CD511B6E000E1BBEFF0E1C6E94
:100338001D6E1E6E040E1F6E10EC0EF0250E026E62
:10034800780E036E06EC1BF0B10E026E7D0E036E86
:1003580006EC1BF00001C1511B6E1C6A1D6A1E6A67
:10036800040E1F6E10EC0EF06E0E026E780E036E09
:1003780006EC1BF0D50E026E7D0E036E06EC1BF02C
:10038800C3C01BF0C4C01CF01D6A1E6A040E1F6E99
:1003980010EC0EF0610E026E790E036E06EC1BF087
:1003A800CC0E026E7D0E036E06EC1BF0C5C01BF072
:1003B800C6C01CF01D6A1E6A040E1F6E10EC0EF0FB
:1003C800660E026E7A0E036E06EC1BF00B0E026EC2
:1003D8007E0E036E06EC1BF0C7C01BF0C8C01CF0F5
:1003E8001D6A1E6A040E1F6E10EC0EF0A50E026E3A
:1003F800790E036E06EC1BF01D0E026E7E0E036E68
:1004080006EC1BF0C9C01BF0CAC01CF01D6A1E6AAE
:10041800040E1F6E10EC0EF03F0E026E790E036E86
:1004280006EC1BF0E20E026E750E036E06EC1BF076
:100438007FD2020E49184A10D8A403D0010E516E7B
:1004480077D24ABE75D24A5004E1030E495CD8A05F
:100458006FD2D80E016E000E026E20EE02F04B50E5
:10046800D9264C50DA22DECF03F0DDCF04F0000E9F
:10047800066E080E056E81EC1AF0000E0001DF6FA3
:1004880020EE04F04B50D9264C50DA22DECF4DF046
:10049800DDCF4EF04DC0D9FF4EC0DAFF3D0EDE185D
:1004A800D8A412D0040E49184A10D8A40DD020EEB2
:1004B80006F04B50D9264C50DA22DECF08F0DDCFBB
:1004C80009F0ECEC10F00CD020EE04F04B50D926DB
:1004D8004C50DA22DECF08F0DDCF09F0ECEC10F05A
:1004E80008C053F009C054F0D80E0F6E000E106EFD
:1004F800D90E116E7E0E126E59EC19F00009D8A4AF
:1005080054BE13D0545003E15304D8A00ED054BEA7
:1005180006D054500AE1110E535CD8B006D0B00E84
:100528005224D96EDA6A000EC3D0D80E0F6E000EB0
:10053800106E990E116E7E0E126E59EC19F00009AC
:10054800D8A454BE0ED054BE06D054500AE1020EB0
:10055800535CD8B006D0B20E5224D96EDA6A000EB7
:10056800A7D0D80E0F6E000E106E8B0E116E7E0E79
:10057800126E59EC19F00009D8A454BE0ED054BE1E
:1005880006D054500AE1020E535CD8B006D0B40E1F
:100598005224D96EDA6A000E8BD0D80E0F6E000E78
:1005A800106E680E116E7E0E126E59EC19F000096D
:1005B800D8A454BE0ED054BE06D054500AE1200E22
:1005C800535CD8B006D0B60E5224D96EDA6A000E43
:1005D8006FD0D80E0F6E000E106E400E116E7E0E8C
:1005E800126E59EC19F00009D8A454BE0ED054BEAE
:1005F80006D054500AE1020E535CD8B006D0B80EAB
:100608005224D96EDA6A000E53D0D80E0F6E000E3F
:10061800106EA00E116E7E0E126E59EC19F00009C4
:10062800D8A454BE0ED054BE06D054500AE1020ECF
:10063800535CD8B006D0BA0E5224D96EDA6A000ECE
:1006480037D0D80E0F6E000E106E500E116E7E0E43
:10065800126E59EC19F00009D8A454BE0ED054BE3D
:1006680006D054500AE1020E535CD8B006D0BE0E34
:100678005224D96EDA6A000E1BD0D80E0F6E000E07
:10068800106E920E116E7E0E126E59EC19F0000962
:10069800D8A454BE11D054BE06D054500DE1020E59
:1006A800535CD8B009D0BC0E5224D96EDA6A000E59
:1006B800DA2253C0DFFF1ED1D80E0F6E000E106E67
:1006C800AE0E116E7E0E126E59EC19F00009D8A408
:1006D80054BE11D0545004E10A0E535CD8A00BD07C
:1006E80054BE06D0545007E1650E535CD8B003D011
:1006F80053C0CCF0FFD0D80E0F6E000E106E600EF7
:10070800116E7E0E126E59EC19F00009D8A454BE71
:1007180011D0545004E1050E535CD8A00BD054BE40
:1007280006D0545007E1330E535CD8B003D053C001
:10073800CBF0E0D0D80E0F6E000E106E6F0E116E5B
:100748007E0E126E59EC19F00009D8A454BE0DD0D3
:1007580054BE06D0545009E1080E535CD8B005D0F9
:1007680053C0C0F0010E516EC5D0D80E0F6E000EEA
:10077800106EC20E116E7E0E126E59EC19F0000941
:10078800D8B413D054AE06D0E80E535CFF0E5458BC
:10079800D8A00BD054BE06D0545007E1190E535CB4
:1007A800D8B003D053C0CDF0DDD7D80E0F6E000EF1
:1007B800106ECE0E116E7E0E126E59EC19F00009F5
:1007C800D8A454BE11D0545004E1320E535CD8A0C2
:1007D8000BD054BE06D0545007E1FB0E535CD8B082
:1007E80003D053C0C1F086D0D80E0F6E000E106E25
:1007F800840E116E7E0E126E59EC19F00009D8A401
:1008080054BE13D0545004E1640E535CD8A00DD0EC
:1008180054BE06D0E90E535C030E5458D8B005D028
:1008280053C0C3F054C0C4F065D0D80E0F6E000E8C
:10083800106E7D0E116E7E0E126E59EC19F00009C5
:10084800D8A454BE13D0545004E1640E535CD8A00D
:100858000DD054BE06D0E90E535C030E5458D8B0E0
:1008680005D053C0C5F054C0C6F044D0D80E0F6EA2
:10087800000E106EB50E116E7E0E126E59EC19F048
:100888000009D8A454BE13D0545004E1640E535C3C
:10089800D8A00DD054BE06D0E90E535C030E5458B0
:1008A800D8B005D053C0C7F054C0C8F023D0D80E74
:1008B8000F6E000E106E480E116E7E0E126E59EC01
:1008C80019F00009D8A454BE0DD054BE06D0210E8C
:1008D800535C030E5458D8B005D053C0C9F054C067
:1008E800CAF008D0010E506EA20E026E7A0E036E88
:1008F80006EC1BF05050D8A41BD001EC1FF0370EAB
:10090800026E7C0E036E06EC1BF053C01BF054C045
:100918001CF0000E1CBEFF0E1D6E1E6E010E1F6E1B
:1009280010EC0EF0E20E026E750E036E06EC1BF074
:100938005150D8B412005E0E026E7C0E036E06ECA7
:100948001BF00001C051D8A407D0FA0E026E780E31
:10095800036E06EC1BF01AD0C005D8A407D04A0EC7
:10096800026E780E036E06EC1BF010D0010EC06507
:1009780007D0C60E026E790E036E06EC1BF006D089
:10098800E20E026E750E036E06EC1BF0D60E026EBA
:100998007C0E036E06EC1BF00001CD511B6E000EA1
:1009A8001BBEFF0E1C6E1D6E1E6E040E1F6E10EC1D
:1009B8000EF0C70E026E7C0E036E06EC1BF0F40EF2
:1009C8000001CD19D8A407D0950E026E7C0E036ED7
:1009D80006EC1BF01200F90ECD19D8A407D0800E32
:1009E800026E7D0E036E06EC1BF01200CD51D8A4EA
:1009F80007D0520E026E7D0E036E06EC1BF012003D
:100A0800050ECD19D8A407D0710E026E7C0E036EA8
:100A180006EC1BF012000C0ECD19D8A407D0CC0E92
:100A2800026E7B0E036E06EC1BF01200E20E026EE5
:100A3800750E036E06EC1BF0120020EE02F04B5010
:100A4800D9264C50DA2210EE01F0DE50E126DD50B6
:100A5800E222E7504D6E4D50076E086AA6EC1BF077
:100A68000750516E49044A10D8B412D020EE02F053
:100A78004B50D9264C50DA22DECF4DF0DDCF4EF068
:100A88004DC0D9FF4EC0DAFF3F0EDE18D8A45ED1A4
:100A9800DB0E026E770E036E06EC1BF0750E026E0F
:100AA8007D0E036E06EC1BF0400E026E770E036E91
:100AB80006EC1BF0B50E026E770E036E06EC1BF00B
:100AC8006E0E026E760E036E06EC1BF0E70E026EDB
:100AD800790E036E06EC1BF0850E026E750E036E22
:100AE80006EC1BF0230E026E750E036E06EC1BF06F
:100AF800410E026E760E036E06EC1BF0120000012A
:100B0800A651D8A406D0150E026E7B0E036E06EC15
:100B18001BF00001A6A306D0EF0E026E760E036E40
:100B280006EC1BF00001A6A106D09A0E026E760E06
:100B3800036E06EC1BF00001A6A506D0270E026E78
:100B48007A0E036E06EC1BF00001A6A71200830EB6
:100B5800026E790E036E06EC1BF01200F90E026E9F
:100B68007A0E036E06EC1BF083BA07D08B0E026E6A
:100B78007D0E036E06EC1BF012006A0E026E7D0EEF
:100B8800036E06EC1BF01200F0EC1EF001C01BF027
:100B980002C01CF01D6A1E6A050E1F6E10EC0EF0D6
:100BA800E20E026E750E036E06EC1BF01200E2EC0C
:100BB8001FF04D6E4D50546E556A54505510D8A4C0
:100BC80007D0E50E026E7C0E036E06EC1BF01200D9
:100BD80054045510D8A407D02B0E026E7D0E036E58
:100BE80006EC1BF01200020E54185510D8A407D0BA
:100BF800380E026E7D0E036E06EC1BF012004B0ED3
:100C0800026E7C0E036E06EC1BF01200030E4918F0
:100C18004A10D8A414D020EE04F04B50D9264C50DA
:100C2800DA22DECF4DF0DDCF4EF04DC0D9FF4EC0F9
:100C3800DAFF310EDE18D8A402D0010E01D0000E62
:100C48000001A56FA551D8B412000A0E026E730EEA
:100C5800036E06EC1BF01200000E526E130E026EAD
:100C6800760E036E06EC1BF00D0E026E7C0E036E04
:100C780006EC1BF00BD00F0EC4EC1FF086EC1FF037
:100C88000009D8B403D092EC1FF0526E1B0E521814
:100C9800D8B41200F0D7000E536EB30E026E730E66
:100CA800036E06EC1BF0200E026E740E036E06EC4B
:100CB8001BF0440E026E7B0E036E06EC1BF095ECE7
:100CC8001EF001C042F102C043F103C044F104C068
:100CD80045F137D095EC1EF001014251015C4D6E93
:100CE800435102584E6E445103584F6E45510458B3
:100CF800506E50504F104E101AE1050E4D5CD8B092
:100D080016D095EC1EF001C042F102C043F103C0B9
:100D180044F104C045F1F00E79EC18F0730E79EC4B
:100D280018F0300E79EC18F0F70E79EC18F059EC51
:100D38001BF086EC1FF00009D8B403D092EC1FF02A
:100D4800536E1B0E5318D8B41200C4D751504D6EB1
:100D58004E6A4E50000AD8A412004D50650AD8B405
:100D6800CED6080AD8B4FAD6030AD8B44FD71E0A82
:100D7800D8B40AD7010AD8B48ED7020AD8B417D77C
:100D8800070AD8A4120068D701C003F002C004F013
:100D9800D89004320332D8900432033203503F0B08
:100DA8000B6E0250030B066ED8900230046E0130B1
:100DB800036E0350010B0A6E0150010B096E09C046
:100DC80007F0800E0B24D96EDA6A020EDA22DF50A1
:100DD800056E05C008F03E0E0B18D8A408D00A50BE
:100DE800D8A403D00950D8B402D03F0E086E380EEC
:100DF8000B18D8A408D00A50D8A403D00950D8B4E6
:100E080002D0420E086E300E0B18D8A408D00A5033
:100E1800D8A403D00950D8B402D0440E086E200ECE
:100E28000B18D8A408D00A50D8A403D00950D8B4B5
:100E380002D0460E086E1E0E0B18D8A408D00A5011
:100E4800D8A403D00950D8B402D04B0E086E180E9F
:100E58000B18D8A408D00A50D8A403D00950D8B485
:100E680002D04E0E086E0E0E0B18D8A408D00A50E9
:100E7800D8A403D00950D8B402D0500E086E0C0E76
:100E88000B18D8A408D00A50D8A403D00950D8B455
:100E980002D0520E086E0001C051D8A430D03F0EC7
:100EA8000B18D8A408D00A50D8B405D00950D8A433
:100EB80002D03C0E086E3F0E0B18D8A408D00A507A
:100EC800D8A405D00950D8B402D03D0E086E1F0E24
:100ED8000B18D8A408D00A50D8B405D00950D8A403
:100EE80002D03C0E086E1F0E0B18D8A45FD00A5013
:100EF800D8A45CD00950D8B459D03D0E56D0C005FE
:100F0800D8A454D03F0E0B18D8A408D00A50D8B48F
:100F180005D00750D8A402D03C0E086E3F0E0B181F
:100F2800D8A408D00A50D8B405D00750D8B402D0F5
:100F38003D0E086E3C0E0B18D8A408D00A50D8A451
:100F480005D00750D8B402D0420E086E1F0E0B18F9
:100F5800D8A408D00A50D8B405D00750D8A402D0D5
:100F6800480E086E1F0E0B18D8A408D00A50D8B423
:100F780005D00750D8B402D0490E086E100E0B18D1
:100F8800D8A408D00A50D8A405D00750D8B402D0A5
:100F9800490E086E1C0E0B18D8A408D00A50D8A405
:100FA80005D00750D8B402D04E0E086E0604D8A457
:100FB80002D00C0E085E020E0618D8A402D00C0E41
:100FC8000826010EC06571D006A241D005C008F000
:100FD8003F0E0B18D8A408D00A50D8B405D0095031
:100FE800D8A402D03C0E086E3F0E0B18D8A408D027
:100FF8000A50D8A405D00950D8B402D03D0E086EC6
:101008003E0E0B18D8A408D00A50D8A403D0095013
:10101800D8B402D03F0E086E3D0E0B18D8A405D0E8
:101028000A50D8B402D0410E086E1C0E0B18D8A472
:1010380005D00A50D8A402D0460E086E180E0B1818
:10104800D8A433D00A50D8A430D0470E2DD00604E7
:10105800D8A423D0000E0B24D96EDA6A020EDA2245
:10106800DF50086E370E0B18D8A405D00A50D8B434
:1010780002D0590E086E2E0E0B18D8A405D00A50AF
:10108800D8B402D0550E086E2D0E0B18D8A40DD06A
:101098000A50D8B40AD0550E07D0400E0B24D96E8A
:1010A800DA6A020EDA22DF50086ECD51082608509F
:1010B80012008EC001F08FC002F0C8EC06F0476E37
:1010C8008EC03AF08FC03BF0050E3C6ED8903B3294
:1010D8003A323C2EFBD73A50070B3E6E00018F5137
:1010E800030B3F6E000E406E3F50D8B405D03E5003
:1010F800D8B402D0010E406E4050D8B402D0010ED0
:1011080001D0000E446EB00EA325D96EDA6A000E27
:10111800DA22DF50486E000E416EA2513A6E3B6AE9
:10112800070ED8903A363B36E82EFBD7A1513A2421
:10113800426E000E3B20436EA2C046F0B60EA325B9
:10114800D96EDA6A000EDA22DF50456E010EC065EC
:1011580007D1010E446E04D14450D8B412D088513E
:10116800E45D8951E559D8A00CD0000E01014E6FFD
:10117800000E4F6F000E506F000E516F010E0001F0
:10118800A46F500E8C5DC30E8D59D8B0FBD0050EE0
:101198008C27000E8D23F6D0000E8D6F000E8C6FFD
:1011A800BC0EA325D96EDA6A000EDA22DF50D8A465
:1011B80003D0400E466E0BD00101515150114F1112
:1011C80004E10F0E4E5DD8A004D0A2C046F0010E77
:1011D800416E4150D8B4D6D047C006F046C007F09B
:1011E8004850DFEC1EF047C09DF00001A551D8B46F
:1011F80003D0475067EC15F0000E01014A6F000E4E
:101208004B6F000E4C6F000E4D6F000E466F000EB8
:10121800476F000E486F000E496F020E0CD08651C2
:10122800E45D8751E559D8B009D09DC006F0485013
:1012380012EC1FF0000E0001A46FA4D04450D8B4E3
:1012480028D09D514718D8B424D0BA0EA325D96EFA
:10125800DA6A000EDA22DF50D8B40DD047C006F0A3
:1012680046C007F04850DFEC1EF09DC006F048501D
:1012780012EC1FF00CD09DC006F0485012EC1FF085
:1012880047C006F046C007F04850DFEC1EF047C0E4
:101298009DF0CBC03AF03B6A3C6A3D6A3A50010186
:1012A8004A5D3B504B593C504C593D504D59D8A084
:1012B80030D0000E4A6F000E4B6F000E4C6F000EC0
:1012C8004D6F00017E51421804E17F514318D8B494
:1012D80020D04550D8B419D045C006F0A2C007F0B8
:1012E8004850CEEC1EF0B80E0001A325D96EDA6A7C
:1012F800000EDA22DF50D8B408D04550200F066E11
:10130800A1C007F04850CEEC1EF042C07EF043C0AA
:101318007FF0CCC03AF03B6A3C6A3D6A3A50010122
:10132800465D3B5047593C5048593D504959D8A013
:1013380029D0000E466F000E476F000E486F000E52
:10134800496F05EC18F0BE0E0001A325D96EDA6AC4
:10135800000EDA22DF50D8B415D0C9EC1CF012D038
:10136800A4513A6E3B6A3B50000AD8A463D73A505E
:10137800000AD8B4F1D6010AD8B40ED7030AD8B4F3
:101388004ED758D7050E01014E27000E4F23502384
:101398005123050E4A27000E4B234C234D23050EDF
:1013A8004627000E4723482349231200000E000158
:1013B800F06F000EEF6F000EEE6F520E786F010E99
:1013C800796F010EF26FF251020D920EF324D96E6D
:1013D800010EF420DA6E000EDE6E000EDD6EF22BCA
:1013E800050EF265F0D7000EF26FE00E586EFF0E94
:1013F800596E78C0D9FF79C0DAFFDF505A6E5B6A40
:1014080058505A2659505B225B5006E15F0E5A5CD1
:10141800D8B002D0010E01D0000EE66FE76BE6519E
:10142800E711D8B488D002D0784B792B78C0D9FF8F
:1014380079C0DAFF200EDE18D8B4F6D7E00E586E61
:10144800FF0E596E78C0D9FF79C0DAFFDF505A6EA7
:101458005B6A58505A2659505B225B5006E15F0E72
:101468005A5CD8B002D0010E01D0000EE86FE96BCB
:10147800E851E911D8B45FD0F251020D920EF3246D
:10148800D96E010EF420DA6E78C0DEFF79C0DDFF78
:10149800EF4BF02B1CD0E00E586EFF0E596EF15139
:1014A8005A6E5B6A58505A2659505B225B5006E1C7
:1014B8005F0E5A5CD8B002D0010E01D0000EEA6F60
:1014C800EB6BEA51EB11D8B40CD0784B792B78C080
:1014D800D9FF79C0DAFFDF50F16F200EF119D8A4D7
:1014E800DAD7E00E586EFF0E596E78C0D9FF79C072
:1014F800DAFFDF505A6E5B6A58505A2659505B2201
:101508005B5006E15F0E5A5CD8B002D0010E01D0E4
:10151800000EEC6FED6BEC51ED11D8B40CD078C027
:10152800D9FF79C0DAFF000EDF6E784B792BF22BEA
:10153800050EF2655AD7000EF26FF251050DBD0E79
:10154800F324F66E700EF420F76E0900F5CF58F00C
:101558000900F5CF59F058C0F6FF59C0F7FF080049
:10156800F550240AD8B420D092C10FF093C110F0DE
:10157800F251050DBD0EF324F66E700EF420F76ED1
:101588000900F5CF11F00A00F5CF12F059EC19F067
:101598000009D8B404D0010E0001EE6F05D0000197
:1015A800F22BF90EF265C9D7F0BF19D0F05104E15A
:1015B800020EEF5DD8A013D094C10FF095C110F0C2
:1015C800C80E116E7E0E126E59EC19F00009D8B4CF
:1015D80006D094C1D9FF95C1DAFF3F0EDF6E000136
:1015E800EE51D8B422D0EFC049F0F0C04AF0920EC4
:1015F8004B6E010E4C6EF251050D030EF326000ED4
:10160800F422BD0EF324F66E700EF420F76E01D8A6
:1016180012000500FA6E0900F550FD6E0900F5503C
:10162800FE6EF850FF6EFA501200E20E026E7B0E4C
:10163800036E06EC1BF0120020EE02F04B50D92688
:101648004C50DA22DECF08F0DDCF09F0ECEC10F0D8
:101658000850536E000E506E20EE02F04B50D92603
:101668004C50DA22DECF4DF0DDCF4EF04DC0D9FF21
:101678004EC0DAFF3F0EDE18D8A419D0430E026E12
:10168800730E036E06EC1BF0560E026E720E036E9E
:1016980006EC1BF0B50E026E750E036E06EC1BF021
:1016A8009C0E026E710E036E06EC1BF012004904CC
:1016B8004A10D8A44CD05B0E026E7B0E036E06EC6B
:1016C8001BF02D0E026E7B0E036E06EC1BF0890ECE
:1016D800026E7B0E036E06EC1BF0010E536E010EBC
:1016E800516E53501B6E1C6A1D6A1E6A040E1F6ED3
:1016F80010EC0EF0380E026E7E0E036E06EC1BF038
:101708005150070B4D6E4E6ACE0E4D24D96E000E09
:101718004E20DA6EDF504F6E4F501B6E1C6A1D6AEA
:101728001E6A030E1F6E10EC0EF0E20E026E750EAE
:10173800036E06EC1BF0512A532A080E5164D1D7C8
:10174800720E026E7B0E036E06EC1BF012004ABE90
:1017580087D04A5004E1030E495CD8A081D020EE1E
:1017680004F04B50D9264C50DA22DECF4DF0DDCFB5
:101778004EF04DC0D9FF4EC0DAFF3D0EDE18D8A49A
:1017880012D0040E49184A10D8A40DD020EE06F045
:101798004B50D9264C50DA22DECF08F0DDCF09F0C5
:1017A800ECEC10F00CD020EE04F04B50D9264C5045
:1017B800DA22DECF08F0DDCF09F0ECEC10F00850AB
:1017C800526E5350D8B415D0090E536012D0800E03
:1017D80052600FD0080E5318D8A402D0000E536ED2
:1017E800CE0E5324D96EDA6A000EDA2252C0DFFF19
:1017F80008D0010E506E1D0E026E790E036E06ECB7
:101808001BF05050D8A4120001EC1FF05350D8A47C
:1018180002D0080E536E950E026E7D0E036E06EC16
:101828001BF053501B6E1C6A1D6A1E6A010E1F6E48
:1018380010EC0EF0B70E026E7C0E036E06EC1BF079
:1018480052501B6E1C6A1D6A1E6A030E1F6E10EC36
:101858000EF0E20E026E750E036E06EC1BF012001F
:10186800F80E026E7B0E036E06EC1BF012008CEC79
:1018780019F0F29E898C92800F013881000EB2EC2B
:1018880018F00F0138918990929000F000F000F064
:1018980000F092820F013883010EB2EC18F00F01AC
:1018A80038938992929200F000F000F000F0928450
:1018B8000F013885020EB2EC18F00F0138958994A3
:1018C800929400F000F000F000F092860F01388743
:1018D800030EB2EC18F00F0138978996929600F033
:1018E80000F000F000F0928A0F01388B040EB2EC81
:1018F80018F00F01389B899A929A00F000F000F0D6
:1019080000F096800F013C81050EB2EC18F00F0133
:101918003C918D90969000F000F000F000F09682D7
:101928000F013C83060EB2EC18F00F013C938D9228
:10193800969200F000F000F000F096840F013C85CC
:10194800070EB2EC18F00F013C958D94969400F0B8
:1019580000F000F000F093840F013985080EB2EC16
:1019680018F00F0139958A94939400F000F000F074
:1019780000F093860F013987090EB2EC18F00F01B9
:1019880039978A96939600F000F000F000F0899C51
:10199800F28E0001A851D8A403D0010EA86F12003E
:1019A800000E086E380E0824D96EDA6A010EDA22A3
:1019B800DF50036E046AFB51035CFC510458D8B035
:1019C8002AD0240E0824D96EDA6A010EDA22000E13
:1019D800DF6E2E0E0824D96EDA6A010EDA22040EA2
:1019E800DF6006D02E0E0824D96EDA6A010E29D0DF
:1019F80008C003F0010E046E000E056E032A03D022
:101A0800D89004360536032EFBD7045000019613F0
:101A1800055097132FD02E0E0824D96EDA6A010EBE
:101A2800DA22000EDF6E240E0824D96EDA6A010E5F
:101A3800DA22040EDF6008D0240E0824D96EDA6A90
:101A4800010EDA22DF2A16D008C003F0010E046E58
:101A5800000E056E032A03D0D89004360536032EEF
:101A6800FBD7041C066E051C076E0650000196176E
:101A780007509717082A090E086494D71200000126
:101A88009951D8A415D0000E776F000E766F000E0E
:101A98000101526F520E0001786F010E796FC00E6E
:101AA800026E010E036E06EC1BF0010E0001996F29
:101AB80086EC1FF00009D8B4120092EC1FF05E6E9D
:101AC80091D0DDEC1DF0000E0001776F000E766FEF
:101AD800000E0101526F520E0001786F010E796FEE
:101AE800C00E026E010E036E06EC1BF0120077BFEB
:101AF8001200775103E17605D8A012007807D8A024
:101B080079077607D8A07707080ECAEC1FF0200ED1
:101B1800CAEC1FF0080ECAEC1FF012000D0ECAEC3A
:101B28001FF00A0ECAEC1FF0000177BFCCD777511F
:101B380003E17605D8A0C7D778C0D9FF79C0DAFF06
:101B4800000EDF6E7DEC13F0DAEC09F0BCD7DDECAB
:101B58001DF0000E0001776F000E766F000E010178
:101B6800526F520E0001786F010E796FC00E026E2F
:101B7800010E036E06EC1BF0FAEC16F01200200EB4
:101B88005E6EE00EF36FFF0EF46F5E50F56FF66B4E
:101B9800F351F527F451F623F65106E15F0EF55D92
:101BA800D8B002D0010E01D0000E5C6E5D6A5C50A8
:101BB8005D10D8B4120077BF06D077512CE11E0E05
:101BC800765DD8B012005E50CAEC1FF078C0D9FF1D
:101BD80079C0DAFF5EC0DFFF0001784B792B764BC6
:101BE800772B12005E500001F36FF46BF451000A7A
:101BF800D8A4C7D7F351080AD8B479D7010AD8B4FA
:101C0800BED7040AD8B48AD71F0AD8B4A0D70A0AFC
:101C1800D8B457D7B6D71200000E326E000E316E08
:101C2800000E2F6E010E306E0C0E1F6402D00C0ECB
:101C38001F6E1F50D8A402D0010E1F6E1EAE0BD00F
:101C4800010E2F6E1B6C1C1ED8B01C2A1D1ED8B08E
:101C58001D2A000E1E56000E356E000E346E1BC077
:101C680001F01CC002F01DC003F01EC004F00A0EF3
:101C7800056E000E066E000E076E000E086EBFECB5
:101C880015F00150300F336E230E3424D96E000E38
:101C98003520DA6E33C0DFFF1BC00DF01CC00EF01C
:101CA8001DC00FF01EC010F00A0E116E000E126E4D
:101CB800000E136E000E146EE4EC13F00DC01BF052
:101CC8000EC01CF00FC01DF010C01EF0344A352A9B
:101CD80035BEC5D7355004E10C0E345CD8A0BFD74B
:101CE800000E356E0B0E346E230E3424D96E000EA2
:101CF8003520DA6EDF50336E34503510D8B40FD03B
:101D0800300E3318D8A40BD03050D8B408D0230ED6
:101D18003424D96E000E3520DA6E200EDF6E345072
:101D28003510D8B404D0300E3318D8B40CD0000E07
:101D3800306E31503210D8A406D0010E3424316EE2
:101D4800000E3520326E3406D8A0350635AECCD715
:101D58002F50D8B408D0230E3124D96E000E32206B
:101D6800DA6E2D0EDF6E000E356E0B0E346E230EFE
:101D78003424D96E000E3520DA6EDF50336E1F50D2
:101D8800206E216A2050345C3550800A226E215022
:101D9800800A2258D8A004D0200E3318D8B403D013
:101DA8003350CAEC1FF03406D8A0350635BE1200F1
:101DB800DED749044A10D8B412D020EE02F04B50B6
:101DC800D9264C50DA22DECF4DF0DDCF4EF04DC093
:101DD800D9FF4EC0DAFF3F0EDE18D8A413D0F10E9B
:101DE800026E740E036E06EC1BF0B60E026E7B0ECE
:101DF800036E06EC1BF08E0E026E770E036E06EC79
:101E08001BF012004ABE19D04A5004E1020E495C88
:101E1800D8A013D020EE02F04B50D9264C50DA222D
:101E2800DECF02F0DDCF03F052EC1AF0F00E021410
:101E38000001706FFF0E0314716F70C055F071C010
:101E480056F0000E536E55C003F056C004F03BEC3C
:101E58001CF0E80E026E7E0E036E06EC1BF0000E00
:101E6800576E55C001F056C002F0AEEC1FF0A5EC5D
:101E78001FF0554A562A200ECAEC1FF05750070B80
:101E8800070AD8A403D0200ECAEC1FF0572A0F0E59
:101E98005764E7D7100E555E000E565A000E576E5F
:101EA80055C001F056C002F0AEEC1FF0546E554A12
:101EB800562AE00E4D6EFF0E4E6E54504F6E506A0D
:101EC8004D504F264E505022505006E15F0E4F5C49
:101ED800D8B002D0010E01D0000E516E526A515096
:101EE8005210D8B404D05450CAEC1FF003D02E0EB0
:101EF800CAEC1FF0572A0F0E5764D2D7E20E026EB3
:101F0800750E036E06EC1BF0532A0F0E53649BD715
:101F18000001010E712712009CEC1FF05FEC1CF011
:101F2800000E0001A06F000ECAEC1FF00001A02BEC
:101F3800090EA065F8D7A60E026E7C0E036E06EC9D
:101F48001BF0B0EC1AF00009D8A404D00001A68157
:101F58004AEC14F00001C151BEEC1FF095EC1EF0E4
:101F680001C064F002C065F003C066F004C067F009
:101F780008D0AD51D8B405D0000EAD6F8B80F5EC0C
:101F88001DF0C80E00016425F76F000E6521F86F7B
:101F9800000E6621F96F000E6721FA6F95EC1EF0AE
:101FA8000001F751015CF8510258F9510358FA51F0
:101FB8000458D8A0DED7E4C08AF0E5C08BF0C3C0CF
:101FC80001F0C4C002F0000E046E050E036EA8EC0A
:101FD8001EF001C007F002C008F0000E0A6E640E81
:101FE800096E30EC1BF000018A510724886F8B5171
:101FF8000820896F20EEC3F0DECFF7F0DDCFF8F0D0
:10200800D890F737F837D890F737F837F7C007F090
:10201800F8C008F0000E0A6E640E096E30EC1BF072
:1020280000018A510724866F8B510820876F8B51D6
:1020380004E1080E8A5DD8A002D08B05D8B0A68529
:10204800000E83BA010EA36FC4C102F0C5C103F02C
:1020580006EC1BF0000E4A6E010E496E000E4B6E28
:10206800000E4C6E3EEC17F022EC19F043EC0DF02C
:1020780059EC1BF0F9D7C3C029F0C4C02AF00001FD
:102088008A51E45D1B6E8B51E5591C6E1BC001F033
:102098001CC002F0036A046A800E056E3F0E066ECD
:1020A800000E076E000E086EDBEC1AF001C00DF092
:1020B80002C00EF003C00FF004C010F029C011F0E8
:1020C8002AC012F0136A146AE4EC13F00DC02BF066
:1020D8000EC02CF00FC02DF010C02EF02EAE08D080
:1020E800000E2B6E000E2C6E000E2D6E000E2E6E46
:1020F8002EBE11D02E502D1006E1810E2B5C3F0E06
:102108002C58D8A008D0800E2B6E3F0E2C6E000ED7
:102118002D6E000E2E6E020E1B6E60C01CF061C08C
:102128001DF062C01EF063C01FF01B6601D007D00F
:102138001F341F321E321D321C321B2EF6D7020EE0
:10214800206E2BC021F02CC022F02DC023F02EC011
:1021580024F0206601D007D02434243223322232DE
:102168002132202EF6D71C50215C256E1D50225896
:10217800266E1E502358276E1F502458286E0001C3
:1021880060512524606F61512620616F62512720BC
:10219800626F63512820636F070E1B6E60C01CF0CE
:1021A80061C01DF062C01EF063C01FF01B6601D045
:1021B80007D01F341F321E321D321C321B2EF6D799
:1021C8001C507F0B0001A26F60517F0BA16F1200A2
:1021D800000E166E000E156E000E0F6E000E0E6EBF
:1021E80002D0084A092A010E146E08C0D9FF09C096
:1021F800DAFF200EDE18D8B417D0F70E0A6EFF0EDD
:102208000B6E08C0D9FF09C0DAFFDF500C6E0D6AEB
:102218000A500C260B500D220D5004E1050E0C5CE3
:10222800D8A002D0000E146E14C010F0116A10501D
:102238001110D8B408D0D5D7000E0F6E010E0E6E4F
:10224800084A092A2ED008C0D9FF09C0DAFFDF5092
:102258000A6E0B6A0B50000AD8A423D00A502B0A26
:10226800D8B4EED7060AD8B4E7D71BD015C001F00A
:1022780016C002F0000E046E0A0E036EA8EC1EF0E3
:1022880008C0D9FF09C0DAFFDF500A6E0A50015EA4
:10229800000E025A300E0124156E000E0220166E32
:1022A800CFD7D00E0A6EFF0E0B6E08C0D9FF09C03B
:1022B800DAFFDF500C6E0D6A0A500C260B500D2207
:1022C8000D5006E10A0E0C5CD8B002D0010E01D008
:1022D800000E126E136A12501310D8A4C7D70E50EE
:1022E8000F10D8A40DD015C00AF016C00BF00A1EA6
:1022F8000B1E0A4A0B2A0AC008F00BC009F012008C
:1023080015C008F016C009F012000001C951845D1B
:102318001D6ECA5185591E6E1DC027F01EC028F0BB
:10232800296A2A6A2AAE08D0000E276E000E286E87
:10233800000E296E000E2A6EC951C75D1D6ECA5166
:10234800C8591E6E1DC01FF01EC020F0216A226AE7
:1023580027C001F028C002F029C003F02AC004F009
:10236800800E056E3F0E066E000E076E000E086E9C
:10237800DBEC1AF001C00DF002C00EF003C00FF044
:1023880004C010F01FC011F020C012F021C013F0DB
:1023980022C014F0E4EC13F00DC027F00EC028F0B2
:1023A8000FC029F010C02AF027C001F028C002F0A1
:1023B80029C003F02AC004F027C005F028C006F0A1
:1023C80029C007F02AC008F0DBEC1AF001C00DF0B4
:1023D80002C00EF003C00FF004C010F0800E116EA2
:1023E8003F0E126E000E136E000E146EE4EC13F026
:1023F8000DC023F00EC024F00FC025F010C026F049
:1024080026BE11D02650251006E1810E235C3F0E12
:102418002458D8A008D0800E236E3F0E246E000EDC
:10242800256E000E266E23C01BF024C01CF012007F
:10243800000E506E000E4F6E610E536E000E526EFF
:10244800010E516E51C001F052C002F0000E046E30
:10245800050E036EA8EC1EF0BD0E0124F66E700E7C
:102468000220F76E0900F5CF54F00A00F5CF55F0B9
:1024780054C0F6FF55C0F7FF0800F550240AD8B439
:1024880047D054C0F6FF55C0F7FF0800F550531861
:10249800D8A434D054C002F055C003F006EC1BF0A9
:1024A80054C001F055C002F030EC1DF001500C088A
:1024B8004D6E0250D8A0E82A00084E6E03D0200EB8
:1024C800CAEC1FF04D06D8A04E064D28F8E14E285C
:1024D800D8A4F5D74F4A502A50BE10D0505004E126
:1024E800060E4F5CD8A00AD0000E506E000E4F6E3C
:1024F800E20E026E750E036E06EC1BF0514A522A6C
:1025080052BEA0D7525004E1FA0E515CD8A09AD717
:10251800532A7A0E536492D74F505010D8B41200F1
:10252800E20E026E750E036E06EC1BF01200B00E82
:102538000001A325D96EDA6A000EDA22DF50136E85
:102548008F51156EC0A10ED01638F00B100B116EFE
:10255800D89016300F0B1110106E1650E00B10109B
:10256800166E02D08EC016F0A451D8A412008E5157
:102578008F11D8A407D0135051EC1FF0135042EC20
:102588001FF012001550D8A417D01650D8B414D084
:10259800010E126E010E146E14501618D8A404D031
:1025A80012500FEC13F0120014501424146E122A57
:1025B8001450D8B41200F0D71504D8A408D0165077
:1025C800D8A405D0F40ECD6F01EC1FF01200155001
:1025D800D8B406D0200E1618D8A402D0F90EF3D716
:1025E800030E1518D8A405D01650D8A402D0000E92
:1025F800EAD71550D8B406D0800E1618D8A402D041
:10260800050EE1D7020E1518D8A412001650D8A44A
:1026180012000C0ED8D70D6EB00E0001A325D96E8E
:10262800DA6A000EDA22DF500B6E0D50070B096EC6
:102638000A6ACE0E0924D96E000E0A20DA6EDF501F
:102648000C6EB40EA325D96EDA6A000EDA22DF50BA
:10265800D8B405D00CC006F00B506DEC1FF0F00E8E
:102668000101146F730E156F070E166F0D50070BCF
:10267800176F68C018F169C019F16AC01AF1A6C0CD
:102688001BF1C0C01CF1BA0E0001A325D96EDA6A8D
:10269800000EDA22DF5001011D6FBC0E0001A325D8
:1026A800D96EDA6A000EDA22DF5001011E6FF70ECA
:1026B8001F6FB20E0001A325D96EDA6A000EDA2266
:1026C800DF50D8B41200000E0F6E140E0F24D96E0E
:1026D800DA6A010EDA22DF500E6E0E5079EC18F02D
:1026E800F70E0E18D8B412000F2A3F0E0F64EDD75C
:1026F800120000019851D8A42BD0000E0C6E000EC9
:102708000B6E0BC009F00CC00AF0050ED890093604
:102718000A36E82EFBD7000E0924D96E030E0A20CC
:10272800DA6E000EDF6E0B4A0C2A0CBEEAD70C508C
:1027380004E1040E0B5CD8A0E4D7000E0001756F0D
:10274800000E746F000E736F000E726F010E986F9B
:10275800520E016E010E026E30EC1DF00150021097
:10276800D8B4120074C009F075C00AF0050ED890EC
:1027780009360A36E82EFBD7000E0924016E030E2F
:102788000A20026E520E036E010E046E000E066ED3
:102798001E0E056E81EC1AF074C072F075C073F0ED
:1027A8000001744B752B75BF1200755104E1040EBE
:1027B800745DD8A01200000E756F000E746F1200C1
:1027C800000E166E14AE0AD0141E131E121E116CC3
:1027D800000E122213221422010E166E10AE0AD019
:1027E800101E0F1E0E1E0D6C000E0E220F22102240
:1027F800010E161A000E176E000E186E000E196ED6
:10280800000E1A6E1150121013101410D8B42AD0DA
:10281800010E156E06D0D8901136123613361436BE
:10282800152A14AEF8D7D8901736183619361A362E
:1028380011500D5C12500E5813500F581450105868
:10284800D8A009D011500D5E12500E5A13500F5ACD
:102858001450105A1780D890143213321232113291
:10286800152EE1D71650D8B408D01A1E191E181EF6
:10287800176C000E182219221A2217C00DF018C062
:102888000EF019C00FF01AC010F01200B00E0A6E48
:10289800000E0B6E000E0C6E0AC0D9FF0BC0DAFFDB
:1028A800FF0EDF6E0A4A0B2A0C2A3F0E0C64F4D77F
:1028B800010E0001B06F000EB26F000EB46F020E71
:1028C800B66F000EB86F010EBA6F000EBC6F000E27
:1028D800BE6F010EB16F010EB36F000EB56F020E21
:1028E800B76F000EB96F010EBB6F000EBD6F000E03
:1028F800BF6F000EC06F960EC16F020EC46FEE0E52
:10290800C36F030EC66FE80EC56F020EC86FEE0EDA
:10291800C76F010ECA6F5E0EC96F050ECB6F1E0E14
:10292800CC6F000ECD6F000E0C6EFE0E0C24F66EF2
:10293800F76A700EF722CE0E0C24D96EDA6A000EF2
:10294800DA220800F5CFDFFF0C2A070E0C64EDD75A
:1029580001EC1FF012005555555555555555585809
:1029680058585858585858585858585858586060CF
:102978006057606060605B5A54545B5454545757B6
:10298800565656565555515A5352505153524F4E0A
:102998004E504D4D4C59494949494949494947477C
:1029A8004747474747474A4A4A4A4A4A4A4A4C4C8D
:1029B8004C4C49494C4B303030303030303049493C
:1029C80049494949494949616161555555554E4EED
:1029D8004E4E4D4D4C4B4949494949494949545432
:1029E80054545352515048484848484848484F4E14
:1029F8004E4E4D4D4C4A4746464646464646464646
:102A08004646464646464544444444444444434274
:102A180042424141403E000E526E000E516E000E81
:102A2800576EA00E026E7B0E036E06EC1BF040D0B4
:102A3800B4EC16F095EC1EF001C053F002C054F04F
:102A480003C055F004C056F002D022EC19F095EC02
:102A58001EF05350015C4D6E545002584E6E555046
:102A680003584F6E56500458506E50504F104E1029
:102A780004E1FA0E4D5CD8A0E8D70D0ECAEC1FF0A1
:102A880086EC1FF00009D8B403D092EC1FF0576E03
:102A98000D0E5718D8A408D0000E576EE20E026E1D
:102AA800750E036E06EC1BF0320E5126000E5222F4
:102AB8001B0E5718D8A4BCD7E20E026E750E036E13
:102AC80006EC1BF01200386E38C001F0026A000EE6
:102AD800046E0C0E036E82EC17F00104376E38C0DA
:102AE80001F0026A000E046E0C0E036EEAEC18F098
:102AF8000150396EFD0E026E7E0E036E06EC1BF061
:102B0800AA0E3924D96EDA6A010EDA22DF50CAEC2D
:102B18001FF09E0E3924D96EDA6A010EDA222D0EC4
:102B2800DE18D8B409D09E0E3924D96EDA6A010E9F
:102B3800DA22DF50CAEC1FF037501B6E1C6A1D6A80
:102B48001E6A010E1F6E10EC0EF0FD0E026E7E0E58
:102B5800036E06EC1BF038501B6E1C6A1D6A1E6A59
:102B6800030E1F6E10EC0EF0E20E026E750E036E71
:102B780006EC1BF01200000E0A6E04AE0AD0041E0A
:102B8800031E021E016C000E022203220422010E03
:102B98000A6E08AE08D0081E071E061E056C000E39
:102BA8000622072208220550061007100810D8B47C
:102BB80024D0010E096E06D0D890053606360736A1
:102BC8000836092A08AEF8D70550015C06500258A5
:102BD8000750035808500458D8A008D00550015E83
:102BE8000650025A0750035A0850045AD89008321F
:102BF800073206320532092EE7D70A50D8B408D072
:102C0800041E031E021E016C000E0222032204226F
:102C180001C001F002C002F003C003F004C004F0D8
:102C28001200000E1F6E000E206E000E216E000EA8
:102C3800226E00018C518D11D8A43ED08051E25DE6
:102C48001D6E8151E3591E6E1DC001F01EC002F0B9
:102C5800036A046A800E056E3E0E066E000E076E4D
:102C6800000E086EDBEC1AF001C023F002C024F05D
:102C780003C025F004C026F023C00DF024C00EF0D8
:102C880025C00FF026C010F0C5C011F0C6C012F064
:102C9800136A146AE4EC13F00DC023F00EC024F09C
:102CA8000FC025F010C026F023C01FF024C020F06C
:102CB80025C021F026C022F01FC01BF020C01CF048
:102CC8001200000E4E6E000E4D6E49044A10D8A434
:102CD80028D08A0E026E740E036E06EC1BF008D024
:102CE80086EC1FF00009D8B403D092EC1FF04E6EAA
:102CF8001F0E4E64F5D74E50CAEC1FF0E20E026E5E
:102D0800750E036E06EC1BF04EC007F0086AF1EC76
:102D18001BF0590E07180810D8A416D0010E4D6ED6
:102D280013D020EE02F04B50D9264C50DA22DECFD9
:102D38000FF0DDCF10F0F60E116E7E0E126E59EC0C
:102D480019F00009D8A4EAD74D50D8B412004AECBB
:102D580014F0D70E026E780E036E06EC1BF012000C
:102D68001D0E026E7D0E036E06EC1BF0DAEC1FF0F2
:102D780001C003F002C004F03BEC1CF0F30E026E3D
:102D88007C0E036E06EC1BF0000E60EC1FF001C019
:102D98001BF002C01CF01D6A1E6A040E1F6E10ECA8
:102DA8000EF0010E026E7D0E036E06EC1BF0D0ECE9
:102DB8001FF001C01BF002C01CF01D6A1E6A040E41
:102DC8001F6E10EC0EF0450E026E7D0E036E06ECC3
:102DD8001BF0D5EC1FF001C01BF002C01CF01D6AEF
:102DE8001E6A040E1F6E10EC0EF01200520E016ED9
:102DF800010E026E72C009F073C00AF0050ED89079
:102E080009360A36E82EFBD7000E0924036E030E96
:102E18000A20046E000E066E1E0E056E81EC1AF076
:102E2800000172517311D8A404D0000E736F040E00
:102E3800726F7207D8A07307520E016E010E026EF0
:102E480030EC1DF001C076F002C077F0520E0001A0
:102E58007625786F010E7721796F78C0D9FF79C010
:102E6800DAFF000EDF6E520E026E010E036E06ECE4
:102E78001BF01200830E026E7C0E036E06EC1BF034
:102E8800000168511B6E1C6A1D6A1E6A010E1F6EC6
:102E980010EC0EF02E0ECAEC1FF0000169511B6EEB
:102EA8001C6A1D6A1E6A010E1F6E10EC0EF02E0EB3
:102EB800CAEC1FF00A0E00016A6103D0300ECAEC9A
:102EC8001FF000016A511B6E1C6A1D6A1E6A010E02
:102ED8001F6E10EC0EF0F00E026E7E0E036E06EC06
:102EE8001BF05E0E026E7D0E036E06EC1BF0E20E0A
:102EF800026E750E036E06EC1BF01200000E066ED5
:102F080004AE06D0036C041ED8B0042A010E066E67
:102F180002AE06D0016C021ED8B0022A010E061AB3
:102F2800000E086E000E076E03500410D8B41CD0B3
:102F3800010E056E04D0D89003360436052A04AE77
:102F4800FAD7D890073608360350015C0450025867
:102F5800D8A005D00350015E0450025A0780D890CB
:102F680004320332052EEDD70650D8B404D0076CCE
:102F7800081ED8B0082A07C001F008C002F01200E5
:102F8800000E096E000E0A6E000E0B6E000E0C6E1F
:102F98000550061007100810D8B42AD0010E0D6E7F
:102FA80006D0D89005360636073608360D2A08AEFC
:102FB800F8D7D89009360A360B360C360550015C1E
:102FC800065002580750035808500458D8A009D092
:102FD8000550015E0650025A0750035A0850045A19
:102FE8000980D89008320732063205320D2EE1D713
:102FF80009C001F00AC002F00BC003F00CC004F0D5
:103008001200B00E0001A325D96EDA6A000EDA228A
:10301800DF50306E89EC11F01BC031F01CC032F06B
:1030280000017A51311804E17B513218D8B41200EA
:1030380031C02BF032C02CF0070E2D6ED8902C32F8
:103048002B322D2EFBD72B507F0B2E6E010E066ECA
:103058002EC007F03050CEEC1EF031507F0B2F6E93
:10306800210E066E2FC007F03050CEEC1EF031C096
:103078007AF032C07BF012005E0EF66E290EF76E03
:10308800000EF86E02EE00F010EEC0F00900F5CF69
:10309800EEFFE550E150FAE1040EF66E3D0EF76ED4
:1030A800000EF86E01EE9EF010EE26F00900F5CF46
:1030B800EEFFE550E150FAE103EE00F0800EEE6A13
:1030C800E806FDE101EE00F09E0EEE6AE806FDE17D
:1030D80000EE60F0860EEE6AE806FDE15F905F9212
:1030E800000EF86E000190EF0FF0056E0001A75179
:1030F800D8A40ED0720E946F010E956F720E926F57
:10310800010E936F000E916F000E906F010EA76F66
:1031180091BF06D0915121E1200E905DD8B01200E8
:1031280092C0D9FF93C0DAFF05C0DFFF924B932B03
:10313800720E016E010E026E200E0126000E022292
:103148000150925D02509359D8A004D0720E926F2C
:10315800010E936F904B912B12001200026EB60E67
:103168000224D96EDA6A010EDA22DF50016E0146B6
:103178000146C2500118830B0118C26E00F000F01E
:1031880000F000F00F01458300F000F000F000F0BF
:103198000F0145934493448100F000F000F000F0E3
:1031A80000F000F000F000F000F000F000F000F097
:1031B8000F014491C282C2B2FED7380E0224D96EE2
:1031C800DA6A010EDA22C4CFDFFF1200000E066EA3
:1031D80002AE06D0016C021ED8B0022A010E066E9D
:1031E80004AE04D0036C041ED8B0042A03500410A3
:1031F800D8B418D0010E056E04D0D8900336043622
:10320800052A04AEFAD70350015C04500258D8A02E
:1032180004D00350015E0450025AD890043203329D
:10322800052EF1D70650D8B404D0016C021ED8B0D0
:10323800022A01C001F002C002F012000001AE51E2
:10324800D8B404D0000EAE6F3BEC0CF00001AD51C9
:10325800D8B413D0000EAD6FF5EC1DF0DAEC1FF00A
:10326800FF0E011400018E6F030E02148F6F3FECE6
:1032780010F05DEC08F0A6EC1CF00001AC51D8B4DD
:103288001200000EAC6F8B807AEC1FF000019F2BB0
:10329800040E9F19D8A41200000E9F6F000E83BA67
:1032A800010EA36FAAEC1DF012001468010E156E32
:1032B80029D00FC0D9FF10C0DAFFDF50136E1350AA
:1032C800076E086AA6EC1BF00750166E0F4A102A04
:1032D80011C0F6FF12C0F7FF0800F550076E086A24
:1032E800A6EC1BF00750176E114A122A1750161831
:1032F800D8B402D0000E156E1650D8B407D01750A7
:10330800D8B404D014061428D8A4D3D71550120062
:103318000F01459F459B459945974595459345918F
:10332800449F9F0E441744894451F30B0409446F8A
:10333800030E4313030E4317000EC26E000EC16E38
:10334800C09EC050F80B0109C06EC050C70B1009D1
:10335800C06E000EC36E000EC46E010EC26E458FA5
:10336800000E0001FC6F960EFB6F000E976F000EAB
:10337800966F929C1200400E076EC00E0514056EE3
:10338800FF0E0614066E05C001F006C002F0BBEC85
:103398001EF0000EF86E0650F76E05C0F6FF09D055
:1033A80003C0D9FF04C0DAFFDF50F56E034A042AD0
:1033B8000D0007060728D8A4F3D705C0F6FFA68E88
:1033C800A69CA684A698F29E550EA76EAA0EA76E76
:1033D800A682F28EA6941200000E016E240E026ED2
:1033E800F40E036E000E046E0E50106E0F50116E28
:1033F800126A136A020ED890103611361236133636
:10340800E82EF9D710C005F011C006F012C007F079
:1034180013C008F0C4EC17F0FF0E0124146EFF0E61
:103428000220156E080E706E900E716E240E726E6C
:1034380014C075FF1550766E1200000E016E240E32
:10344800026EF40E036E000E046E0E50106E0F50D6
:10345800116E126A136A020ED8901036113612369F
:103468001336E82EF9D710C005F011C006F012C0C7
:1034780007F013C008F0C4EC17F0FF0E0124146E17
:10348800FF0E0220156E080EB86E900EAB6E240E5D
:10349800AC6E14C0AFFF1550B06E1200000E086E6F
:1034A800000E076E000E096E02C0D9FF03C0DAFFD6
:1034B800024A032ADF5070EC1DF0066E0628D8B4C5
:1034C80017D007C004F008C005F0043A053AF00E1A
:1034D800051604500F0B0512F00E041606500424AE
:1034E800076E000E0520086E092A030E0964DCD752
:1034F80007C002F008C003F0120001C007F002C0C4
:1035080008F014D00506D8A0060603C0D9FF04C0E9
:10351800DAFF034A042A07C0E1FF08C0E2FF074AAE
:10352800082ADFCFE7FFE750D8B40DD005500610C2
:10353800D8B409D0E7D707C0D9FF08C0DAFF000E12
:10354800DF6E074A082A0506D8A006060528F3E113
:103558000628D8B41200EFD7010E0E6EB00E0C6E0E
:10356800000E0D6EB00E016E000E026E7F0E046E20
:10357800800E036E280E056E6DEC1EF00CC0D9FF90
:103588000DC0DAFFDE2805E1DE28D8A402D0000E3F
:103598000E6E16EC1CF00001D651011804E1D7514B
:1035A8000218D8B402D0000E0E6E0E501200000E93
:1035B800096E000E0A6E000E0B6E000E0C6E01A056
:1035C80008D00550092606500A2207500B22085039
:1035D8000C22D8900536063607360836D8900432BD
:1035E8000332023201320150021003100410D8A431
:1035F800E6D709C001F00AC002F00BC003F00CC006
:1036080004F012000ED00A0E0618D8A407D00D0E2A
:10361800CAEC1FF00A0ECAEC1FF003D00650CAEC21
:103628001FF00250046E0350056E024A032A04C0BC
:10363800F6FF05C0F7FFF86A050EF76403D0080027
:10364800F55005D0F6CFE9FFF7CFEAFFEF50066E49
:103658000650D8B41200D7D7000E0C6E000E0B6EB1
:1036680009500A10D8B41CD0010E0D6E04D0D890A1
:1036780009360A360D2A0AAEFAD7D8900B360C3618
:103688000950075C0A500858D8A005D00950075EB1
:103698000A50085A0B80D8900A3209320D2EEDD7FD
:1036A8000BC007F00CC008F01200000190519111F6
:1036B800D8B41200A4A8120094C0D9FF95C0DAFFAC
:1036C800DF50C4EC1FF00001944B952B720E026E74
:1036D800010E036E200E0226000E03220250945D96
:1036E80003509559D8A004D0720E946F010E956FAF
:1036F8009007D8A091071200046E04C003F0034697
:103708000346C2500318830B0318C26E00F000F082
:1037180000F000F000F000F000F000F0C282C2B249
:10372800FED7C4CF05F0066A0550066E056AC35079
:103738000524056E000E0620066E05C001F006C0C1
:1037480002F01200BF0E096EFF0E0A6E07C00BF0E2
:1037580008C00CF009500B260A500C220C5006E148
:103768001A0E0B5CD8B002D0010E01D0000E0D6EFF
:103778000E6A0D500E10D8B406D0200E0710076E32
:103788000850086E120007C007F008C008F01200C1
:103798007B0E026E730E036E06EC1BF0BF0E026EFC
:1037A800740E036E06EC1BF0550E026E740E036E5B
:1037B80006EC1BF0510E026E710E036E06EC1BF048
:1037C800060E026E710E036E06EC1BF0930E026E6F
:1037D800720E036E06EC1BF012009F0E096EFF0EB0
:1037E8000A6E07C00BF008C00CF009500B260A50EF
:1037F8000C220C5006E11A0E0B5CD8B002D0010E58
:1038080001D0000E0D6E0E6A0D500E10D8B405D002
:103818005F0E0714076E086A120007C007F008C099
:1038280008F01200000E056E000E046EB00E066E53
:10383800000E076E260E086E000E096E0DD006C02B
:10384800D9FF07C0DAFFDF50036E03500426000ECD
:103858000522064A072A092A0850095CD8A0EFD78A
:10386800BA0E0418016EAB0E0518026E120003C0E2
:1038780005F004C006F00C0E076ED890063205322B
:10388800072EFBD7055022EC1FF0045022EC1FF046
:1038980003C005F004C006F0040E076ED890063287
:1038A8000532072EFBD7055022EC1FF003500F0BF3
:1038B80022EC1FF01200010E0001686F040E696F00
:1038C8000A0E6A6FE40E0101C46F750EC56F000E13
:1038D8000001A66F94909492960E0F6E000E0E6ED5
:1038E80021EC1AF07A0E0F6E120E0E6EF0EC19F033
:1038F80032EC1FF08CEC19F0F28EF28C12000F01F2
:10390800459F00F000F000F000F0000EC26E000EBF
:10391800C16EC08EC050F80B0509C06EC050C70BF1
:103928001009C06E000EC36E000EC46E010EC26E8A
:1039380093820F0139839388398993803981938AD7
:10394800398B120000019C51D8A408D0310E9B6518
:103958000AD09BEC12F0010E000104D0C70E9A6544
:1039680002D0000E9C6F83B808D0FA0E9B6102D07B
:10397800050E9B27000E9A6F1200FA0E9A6102D06C
:10398800050E9A27000E9B6F1200B00E0001A325AA
:10399800D96EDA6A000EDA22DF50276E15EC16F0BF
:1039A8001BC028F01CC029F000017C51281804E134
:1039B8007D512918D8B4120028C006F029C007F094
:1039C80027508EEC1DF028C07CF029C07DF0120035
:1039D800000E8D6E000E8C6E000E896E000E8A6EC3
:1039E800000E8B6E070E966E3F0E926E9368900EC9
:1039F800946EB70E956E000E0F013A6F3969000E7E
:103A08003B6F070E3C6F2F0E386F6168F19E8B84F9
:103A18008C9612009E900001FE51CF6EFDC0CEFF25
:103A2800AE51D8A4AB2B010E6C27000E6D236E236C
:103A38006F23010EAE6FAA2B040EAA6504D0010EE7
:103A4800AD6F000EAA6FA92B310EA9651200010EE9
:103A5800AC6F000EA96F120001C003F002C004F0A1
:103A680002D0014A022A01C0F6FF02C0F7FFF86A35
:103A7800050EF76403D00800F55005D0F6CFE9FF2E
:103A8800F7CFEAFFEF500009D8A4EBD70350015C49
:103A9800016E04500258026E1200010E076E200ECD
:103AA80001180210D8B414D0F70E036EFF0E046E7E
:103AB80001C005F002C006F0035005260450062296
:103AC800065004E1050E055CD8A002D0000E076E72
:103AD80007C001F0026A1200016E2F0E016406D0C1
:103AE8003A0E016003D00150D00F1200400E01645D
:103AF80006D0470E016003D00150C90F1200600EB6
:103B0800016406D0670E016003D00150A90F1200AE
:103B1800FF0E12000B6E0B040F0BE0090C6E0C501D
:103B280079EC18F006507F0B79EC18F006C008F015
:103B380007C009F0070E0A6E0934093208320A2E46
:103B4800FBD708507F0B79EC18F01200B20E000179
:103B5800A325D96EDA6A000EDA22DF50D8B4120033
:103B6800A451D8A41200F00E79EC18F0730E79EC79
:103B780018F0300E79EC18F0F70E79EC18F0120006
:103B880020EE02F04B50D9264C50DA22DECF4DF011
:103B9800DDCF4EF04DC0D9FF4EC0DAFF3F0EDE1824
:103BA800D8A41200220E026E7C0E036E06EC1BF0E7
:103BB80012000D0ECAEC1FF0000E036E000E026E0E
:103BC800200ECAEC1FF0024A032A03BEF9D703509D
:103BD80004E1200E025CD8A0F3D70D0ECAEC1FF04A
:103BE800120083EC1CF00B0E80EC1BF001C0E4F01B
:103BF80002C0E5F00A0E80EC1BF001C0E2F002C042
:103C0800E3F00D0E80EC1BF001C084F002C085F0DB
:103C18001200E00E036EFF0E046E01C005F002C034
:103C280006F00350052604500622065006E15F0EF2
:103C3800055CD8B002D0010E01D0000E016E026AF8
:103C480012009F0E036EFF0E046E01C005F002C045
:103C580006F00350052604500622065006E11A0E07
:103C6800055CD8B002D0010E01D0000E016E026AC8
:103C78001200BF0E036EFF0E046E01C005F002C0F5
:103C880006F00350052604500622065006E11A0ED7
:103C9800055CD8B002D0010E01D0000E016E026A98
:103CA8001200D00E036EFF0E046E01C005F002C0B4
:103CB80006F00350052604500622065006E10A0EB7
:103CC800055CD8B002D0010E01D0000E016E026A68
:103CD8001200000EF86E0450F76E03C0F6FF09D00C
:103CE800090001C0D9FF02C0DAFFF5CFDFFF014AA2
:103CF800022A05060528D8B41200F2D72D232D6212
:103D08002D2D232D622D622D4343444545464647BC
:103D180041414242000102030405060708090D3E1D
:103D280020009D906CC005F06DC006F06EC007F0D5
:103D38006FC008F09D8005C001F006C002F007C002
:103D480003F008C004F0120001500302F3CF05F09D
:103D5800F4CF06F001500402F35006260250030285
:103D6800F350062605C001F006C002F01200000E4E
:103D7800F86E0250F76E01C0F6FFA68EA69CA684C8
:103D8800A688F29E550EA76EAA0EA76EA682F28E80
:103D9800A6941200086E08040F0BB009096E0950AA
:103DA80079EC18F006507F0B79EC18F007507F0B70
:103DB80079EC18F01200086E08040F0B9009096ED0
:103DC800095079EC18F006507F0B79EC18F0075081
:103DD8007F0B79EC18F012000001A251036E046AFF
:103DE800070ED89003360436E82EFBD7A1510324DA
:103DF800016E000E0420026E120016EC1CF001C0C9
:103E0800D6F002C0D7F0B00E036E000E046E7F0E1F
:103E1800066E800E056EBFEC19F01200076E0704DF
:103E28000F0B8009086E085079EC18F006507F0BCC
:103E380079EC18F0000E79EC18F01200026E0F0EF3
:103E480002160A0E026005D00250300FCAEC1FF0AD
:103E580012000250370FCAEC1FF01200540ECD6E3C
:103E6800000ECC6EE00ECF6EC00ECE6ECECFFDF043
:103E7800CFCFFEF09E909D80CD801200066E060486
:103E88000F0BB009076E075079EC18F0790E79EC32
:103E980018F0000E79EC18F01200066E06040F0BED
:103EA800B009076E075079EC18F0780E79EC18F025
:103EB800000E79EC18F01200046E380E0424D96E46
:103EC800DA6A010EDA22DF50036E0350016E026ACD
:103ED8001200076E07040F0BC009086E085079EC32
:103EE80018F006507F0B79EC18F01200E90E00016B
:103EF8008C5D030E8D59D8A01200E2C080F0E3C09B
:103F080081F01200000E9EBA010E016EABA204D021
:103F1800AB9EAB8E000E016E01501200000E026EB9
:103F280086EC1FF00009D8A4AECF02F002501200B0
:103F3800E8EC1FF0ECEC1CF0B7EC1FF032EC1FF0D3
:103F48001200036E03380F0B22EC1FF0035022EC13
:103F58001FF01200000EF86E0250F76E01C0F6FF57
:103F68000800F5501200720ED36E040ED26E000EC9
:103F78009B6E1200016E01C0FBF00001FC6B120089
:103F8800016EA4A8FED701C073FF1200016E9EA89F
:103F9800FED701C0ADFF1200E4C001F0E5C002F099
:103FA800120084C001F085C002F0120096C001F032
:103FB80097C002F01200EAEC1FF012000001A451B1
:103FC80012000001A3511200D09E1200FF0012003F
:1070BC0000FB7E47883BC97E479837F37E473824D0
:1070CC00E37E473824587E47CA2CEC7E477C2ED46E
:1070DC007E47420ABC7E471E2AA87E47BE3FDE7E04
:1070EC0047BA1DA77E414016767E412600F97E00E8
:1070FC000000434B48454A111417757361676520AE
:10710C00696E666F726D6174696F6E3B20206F746F
:10711C00686572776973652C206120636F6D6D6192
:10712C006E64207768696368206578706563747332
:10713C00206174206C65617374206F6E65206172C0
:10714C00672C200A00536F6D6520636F6D6D616E47
:10715C0064732C207768656E20656E746572656447
:10716C002077697468207468652073776974636824
:10717C0020272D68656C7027206F7220273F272CE5
:10718C002073686F7720636F6D6D616E64200A00E9
:10719C004578616D706C653A20202070726573655E
:1071AC00742033203D2036372020207C20536574FA
:1071BC00204D494449205072676D20363720666F48
:1071CC0072205072657365742033200A0A0045786A
:1071DC00616D706C653A202020636F6E6669672064
:1071EC00206368616E203D203130202020205B53CD
:1071FC006574204D696469205478206368616E6EF3
:10720C00656C203D2031305D200A0A0055736167A2
:10721C00652023323A2020636F6E666967203C70CC
:10722C006172616D3E205B3D5D203C76616C7565E5
:10723C003E202020207C2053657420706172616D8B
:10724C002E2076616C7565200A0055736167652088
:10725C0023323A2020707265736574203C7072651D
:10726C00233E205B3D5D203C76616C75653E2020A5
:10727C0020207C20536574205072657365742076D1
:10728C00616C7565200A007768656E20656E7465A3
:10729C0072656420776974686F757420616E792CDF
:1072AC002073686F756C6420616C736F2073686FEA
:1072BC007720636F6D6D616E642075736167652EE9
:1072CC00200A0055736167652023313A2020636FD3
:1072DC006E666967205B2A5D2020207C20204C692B
:1072EC00737420636F6E6669672E20706172616DB6
:1072FC002773205B2A20696E666F5D0A0A002A20BC
:10730C004E6F74652D4F6E20646973706C617920BB
:10731C006163746976617465642E20456E74657260
:10732C00202764696167202D6E2720746F206361AC
:10733C006E63656C2E0A0055736167652023313AC4
:10734C002020707265736574202020207C204C698D
:10735C00737420507265736574204D4944492050F4
:10736C0072676D206E756D62657273200A0A004338
:10737C006F6D6D616E6420617267277320616E643E
:10738C00206F7074696F6E73206D757374206265F5
:10739C00207365706172617465642062792073700A
:1073AC00616365732E0A0053656E64696E672053C2
:1073BC0079732E45782E20274944454E5427206D4D
:1073CC00736720636F6E74696E756F75736C79205B
:1073DC00746F204D494449204F5554200A002020F9
:1073EC00207768657265203C706172616D3E206922
:1073FC00732061206E69636B6E616D65206C6973BF
:10740C007465642062792075736167652023312E61
:10741C00200A0A00766961204D4944492074726142
:10742C006E736D69742071756575652E20204D65C0
:10743C00737361676520696E74657276616C20691F
:10744C007320356D732E200A00546F2072656361B2
:10745C006C6C20612070726576696F75736C792025
:10746C00656E746572656420636F6D6D616E642CFE
:10747C0020686974204374726C2B522E0A0052657A
:10748C0073746F72652070657273697374656E7452
:10749C00206461746120746F20666163746F72790B
:1074AC002064656661756C74733F2028592F4E29D2
:1074BC003A2000546F206C69737420617661696C9A
:1074CC0061626C6520636F6D6D616E64732C2074EA
:1074DC0079706520276C6327206F722027636D6499
:1074EC0073272E0A0044756D7020612070616765EA
:1074FC00202832353620627974657329206F662016
:10750C00666C6173682070726F6772616D206D6557
:10751C006D6F72792E0A00202D74203A20204D496F
:10752C0044492054582064726976657220746573DE
:10753C0074202873656E642030783046206E6F6E30
:10754C002D73746F70290A002D2D2D2D2D2D2D20AE
:10755C0048616E6473657420506172616D65746509
:10756C007273202D2D2D2D2D2D2D2D2D2D2D2D2DC1
:10757C002D2D2D2D2D2D2D0A00202D6E203A202065
:10758C0044652F6163746976617465204E6F746510
:10759C002D4F6E20646973706C617920286172675D
:1075AC00203D20307C31290A00202020776865722C
:1075BC0065203C707265233E2069732074686520D9
:1075CC00507265736574206E756D6265722028311A
:1075DC002E2E3829200A0A004261756572207B52D2
:1075EC00454D497D2048616E64736574206D6B3226
:1075FC00202D2D205365727669636520506F72744F
:10760C0020434C49200A0053656E64696E67203034
:10761C0078304620636F6E74696E756F75736C7914
:10762C0020746F204D4944492054582055415254E0
:10763C002E2E2E0A00202D71203A20204D4944492F
:10764C002054582051756575652074657374202815
:10765C004944454E54206D7367204020356D732985
:10766C000A00202D70203A202053686F77204D4956
:10767C00444920507265737375726520646174613E
:10768C002076616C75652028313462290A0021202E
:10769C004572726F723A20436F6E6669672064613F
:1076AC00746120636F7272757074656420286465F0
:1076BC006661756C746564290A0020204D696469E3
:1076CC00204D6F64756C6174696F6E20496E7465C2
:1076DC007276616C202831302E2E313030206D7353
:1076EC00290A0021204572726F723A20436F6E6630
:1076FC0069672064617461206578636565647320D3
:10770C00626C6F636B2073697A650A0020204D6987
:10771C0064692045787072657373696F6E2043439A
:10772C00206E756D6265722028302C322C372C310E
:10773C0031290A00202D65203A202053686F7720CC
:10774C00737461727475702073656C662D746573D7
:10775C0074204572726F7273200A0020204D696488
:10776C00692045787072657373696F6E20496E7409
:10777C00657276616C2028352E2E3530206D73297C
:10778C000A002D2D20776865726520616464722073
:10779C0069732073746172742061646472657373AD
:1077AC002028686578292E0A00202D6D203A20208B
:1077BC0053686F77204D6F646520537769746368E5
:1077CC0020696E707574207374617465200A00559D
:1077DC00736167653A20206469616720203C6F7093
:1077EC0074696F6E3E20205B617267315D202E2EB6
:1077FC002E200A00202053656E642031342D6269DE
:10780C00742045787072657373696F6E206461744F
:10781C00612028302C31290A0020205069746368BB
:10782C00204F66667365742028302E2E2B2F2D3238
:10783C00342073656D69746F6E6573290A00524547
:10784C004D4920616C7465726E617465202D2D201C
:10785C00706164204C4834207368617270656E737B
:10786C000A002020546F7563682053656E73652081
:10787C005468726573686F6C6420286D61782E3261
:10788C003530290A0020204D6964692050726F67D9
:10789C002E204368616E676520456E61626C65647D
:1078AC002028302C31290A0020204D69646920538E
:1078BC0079732E4578636C2E4D736720456E61622B
:1078CC006C65642028302C31290A002A2044656616
:1078DC0061756C7420636F6E66696775726174692B
:1078EC006F6E20726573746F7265642E0A00524558
:1078FC004D49207374616E64617264202D2D20706B
:10790C0061642052483520666C617474656E730A2C
:10791C00002120496E76616C696420707265736514
:10792C0074206F72204D494449207072676D20237A
:10793C00200A0020204D6F64756C6174696F6E2095
:10794C00446561642D62616E6420286D61782E350A
:10795C003030290A002020507265737375726520CF
:10796C0053656E736F72205370616E20286D617851
:10797C002E373530290A0021204572726F723A2059
:10798C004D6F64756C6174696F6E2053656E736FA7
:10799C0072206661756C740A0020204D6F64756CE2
:1079AC006174696F6E204D6178696D756D20286DFD
:1079BC0061782E31303030290A004765726D616E66
:1079CC0020666C7574652F7265636F7264657220C6
:1079DC00656D756C6174696F6E0A00202D73203AA9
:1079EC00202053686F77206E6F7465206F6E2F6F39
:1079FC006666205374617465200A00202056656CFD
:107A0C006F636974792053656E736520456E61628E
:107A1C006C65642028302C31290A002120457272B3
:107A2C006F723A2050726573737572652053656E70
:107A3C00736F72206661756C740A0020204D696446
:107A4C0069204261736963204368616E6E656C20C6
:107A5C0028312E2E313629200A00202050697463DB
:107A6C00682D42656E64205370616E20286D6178BC
:107A7C002E31303030290A00202046696E6765723D
:107A8C00696E6720536368656D652028302C312C36
:107A9C00322C33290A002120496E76616C696420EE
:107AAC006E69636B6E616D65206F722076616C75AB
:107ABC00652E0A0020204C656761746F204D6F6441
:107ACC006520456E61626C65642028302C31290A72
:107ADC0000202050697463682042656E6420456EF6
:107AEC0061626C65642028302C31290A0020204DFD
:107AFC006F64652073776974636820696E70757440
:107B0C002073746174653A20002A204E6F207365CF
:107B1C006C662D74657374206572726F72732E0AA5
:107B2C0000507265736574207C204D494449205087
:107B3C0072676D2023200A00486974205B457363CB
:107B4C005D20746F20657869742E2E2E200A005FDC
:107B5C005F5F5F5F5F5F5F5F5F5F5F5F5F5F5F5F29
:107B6C005F5F5F5F0A005F5F5F5F5F5F5F7C5F5FB0
:107B7C005F5F5F5F5F5F5F5F5F5F5F0A00606060BA
:107B8C00606060607C6060606060606060606060CD
:107B9C0060600A00486974205B4573635D20746FF4
:107BAC0020717569742E200A0A0055736167653A55
:107BBC00202064756D70205B616464725D200A0026
:107BCC00536F7072616E6F2F44657363616E7420B6
:107BDC00284335290A003F20556E646566696E6539
:107BEC006420636F6D6D616E642E0A002120496EF6
:107BFC0076616C696420636F6D6D616E642E200A12
:107C0C0000486974205B4573635D20746F20657850
:107C1C0069742E200A0055736167653A20202A206A
:107C2C005B72656D61726B5D200A002A204E657770
:107C3C002076616C75652073617665643A20005519
:107C4C004E444546494E454420286572726F722950
:107C5C000A0046696E676572696E672073636865B2
:107C6C006D653A2000416C746F2F547265626C65BF
:107C7C0020284634290A004669726D7761726520A6
:107C8C0076657273696F6E2000477265617420426D
:107C9C0061737320284333290A000D0A2A204D43AF
:107CAC0055207265736574202A0A00203A204D49CC
:107CBC004449205072676D203D20002073656D692A
:107CCC00746F6E65732020202000506974636820E7
:107CDC004F66667365743A20004F46462F49444CF4
:107CEC0045202830290A00207C20506164305F41F7
:107CFC0044433A2000207C20507265737375726582
:107D0C003A20002D2D2D2D2D2D2D204D6F6465200D
:107D1C0000546F756368506164733A20307800507A
:107D2C00454E44494E47202831290A00504C4159B0
:107D3C00494E47202832290A00207C204D6F64755B
:107D4C006C276E3A200054656E6F722028433429DC
:107D5C000A004A756E2032312032303232004869C6
:107D6C00676820283129200A003C6F7074696F6E97
:107D7C003E200A004261737320284633290A004CC6
:107D8C006F7720283029200A002A205072657365ED
:107D9C007420006368616E20202020007069746379
:107DAC00682020200074687265732020200065789C
:107DBC00706E636320200066696E67736320200019
:107DCC0070627370616E20200070727370616E202F
:107DDC00200070726368656E20200076656C736598
:107DEC006E20200073797378656E2020006C6567B7
:107DFC0061746F2020006D6F64696E742020006DBB
:107E0C006F646D61782020006578706E313462206B
:107E1C00006D6F6462616E6420007062656E6465F3
:107E2C006E20006578706E696E7420002020207CB6
:107E3C00202020006578706E313462006D6F6462B2
:107E4C00616E64007062656E64656E006465666187
:107E5C00756C74006578706E696E74006578706E00
:107E6C0063630066696E67736300636F6E66696750
:107E7C000070627370616E0070727370616E00706E
:107E8C00726368656E0076656C73656E00737973EA
:107E9C0078656E006C656761746F007072657365F0
:107EAC0074006D6F64696E74006D6F646D61780041
:107EBC007761746368007069746368002D68656C21
:107ECC00700074687265730064696167006368614F
:107EDC006E0064756D7000636D647300203A200051
:107EEC00766572002C20006C63002D790024002A2A
:047EFC000009000079
:020000040020DA
:08000000FFFFFFFFFFFFFFFF00
:020000040030CA
:0E000000FF281F3CFFBF81FF0FC00FE00F4025
:00000001FF
