:020000040000FA
:040000002EEF00F0EF
:100008005F82F0A60AEF00F00CEF00F015EF00F0A9
:10001800F0A011EF00F013EF00F015EF00F02CEF57
:1000280000F0F2AC1AEF00F01CEF00F02CEF00F03B
:100038009DA021EF00F023EF00F02CEF00F09EA030
:1000480028EF00F02AEF00F02CEF00F072EC1EF021
:100058005F9211003CEF1FF0000E0001D06F20EE00
:1000680002F04C50D9264D50DA22DECFF6FFDECF13
:10007800F7FF050EF76403D00800F55005D0F6CF5A
:10008800E9FFF7CFEAFFEF503F0AD8A44EEF00F0A0
:1000980050EF00F06AEF00F0C30E456E730E466E27
:1000A800BAEC1FF0660E456E710E466EBAEC1FF084
:1000B800C00E456E720E466EBAEC1FF0280E456EE5
:1000C800710E466EBAEC1FF022EF05F04A044B1091
:1000D800D8A471EF00F073EF00F0EBEF01F0860E9B
:1000E800456E7D0E466EBAEC1FF00001AC511B6EDA
:1000F8001C6A1D6A1E6A040E1F6E60EC0FF0BD0EAE
:10010800456E790E466EBAEC1FF0E90E456E7D0E0F
:10011800466EBAEC1FF00001AD511B6E1C6A1D6AD9
:100128001E6A040E1F6E60EC0FF0070E456E780E07
:10013800466EBAEC1FF0A10E456E7D0E466EBAEC07
:100148001FF00001AE511B6E1C6A1D6A1E6A040E68
:100158001F6E60EC0FF0520E456E770E466EBAECCD
:100168001FF0980E456E7D0E466EBAEC1FF000012A
:10017800AF511B6E1C6A1D6A1E6A040E1F6E60EC6E
:100188000FF0770E456E770E466EBAEC1FF0FB0E39
:10019800456E7D0E466EBAEC1FF00001B0511B6E25
:1001A8001C6A1D6A1E6A040E1F6E60EC0FF09C0E1E
:1001B800456E770E466EBAEC1FF0F20E456E7D0E58
:1001C800466EBAEC1FF00001B1511B6E1C6A1D6A25
:1001D8001E6A040E1F6E60EC0FF0070E456E770E58
:1001E800466EBAEC1FF08F0E456E7D0E466EBAEC69
:1001F8001FF00001B2511B6E1C6A1D6A1E6A040EB4
:100208001F6E60EC0FF0C00E456E770E466EBAECAE
:100218001FF0AA0E456E7D0E466EBAEC1FF0000167
:10022800B3511B6E1C6A1D6A1E6A040E1F6E60ECB9
:100238000FF0920E456E7A0E466EBAEC1FF0E00E85
:10024800456E7D0E466EBAEC1FF00001B4511B6E70
:100258001C6A1D6A1E6A040E1F6E60EC0FF09D0E6C
:10026800456E790E466EBAEC1FF0D70E456E7D0EC0
:10027800466EBAEC1FF00001B5511B6E1C6A1D6A70
:100288001E6A040E1F6E60EC0FF0CB0E456E7A0EE0
:10029800466EBAEC1FF00D0E456E7E0E466EBAEC39
:1002A8001FF00001B6511B6E1C6A1D6A1E6A040EFF
:1002B8001F6E60EC0FF01D0E456E7B0E466EBAEC9D
:1002C8001FF0BC0E456E7D0E466EBAEC1FF00001A5
:1002D800B7511B6E1C6A1D6A1E6A040E1F6E60EC05
:1002E8000FF01A0E456E7A0E466EBAEC1FF0B30E7A
:1002F800456E7D0E466EBAEC1FF00001B8511B6EBC
:100308001C6A1D6A1E6A040E1F6E60EC0FF0E40E74
:10031800456E770E466EBAEC1FF0CE0E456E7D0E1A
:10032800466EBAEC1FF0C1C01BF0C2C01CF01D6ABB
:100338001E6A040E1F6E60EC0FF0B30E456E780E49
:10034800466EBAEC1FF0C50E456E7D0E466EBAECD1
:100358001FF0C3C01BF0C4C01CF01D6A1E6A040E47
:100368001F6E60EC0FF0750E456E7A0E466EBAEC95
:100378001FF0040E456E7E0E466EBAEC1FF0C5C027
:100388001BF0C6C01CF01D6A1E6A040E1F6E60ECCE
:100398000FF07D0E456E790E466EBAEC1FF0160E04
:1003A800456E7E0E466EBAEC1FF0C7C01BF0C8C083
:1003B8001CF01D6A1E6A040E1F6E60EC0FF0910E91
:1003C800456E780E466EBAEC1FF022EF05F04BBE74
:1003D800F7EF01F04B5009E1030E4A5CD8A0F7EFA4
:1003E80001F0F9EF01F01AEF05F0D10E076E000EDB
:1003F800086E20EE02F04C50D9264D50DA22DECF9E
:1004080009F0DDCF0AF0000E0C6E080E0B6E86ECBC
:100418001BF0000E0001D86F20EE04F04C50D926D6
:100428004D50DA22DECFF6FFDECFF7FF050EF76478
:1004380003D00800F55005D0F6CFE9FFF7CFEAFF63
:10044800EF503D0AD8A42BEF02F02DEF02F049EF50
:1004580002F0040E4A184B10D8A435EF02F037EF1B
:1004680002F049EF02F020EE06F04C50D9264D502C
:10047800DA22DECF08F0DDCF09F07AEC10F008C000
:10048800DBF009C0DCF059EF02F020EE04F04C502C
:10049800D9264D50DA22DECF08F0DDCF09F07AEC0C
:1004A80010F008C0DBF009C0DCF0D10E0F6E000EB2
:1004B800106EDA0E116E7E0E126E8BEC1AF00009B9
:1004C800D8B469EF02F06BEF02F084EF02F000019C
:1004D800DB51DC11D8B473EF02F075EF02F084EF52
:1004E80002F0DC5107E1110EDB5DD8B07EEF02F0BF
:1004F80080EF02F084EF02F0DBC0ACF0F7EF04F01D
:10050800D10E0F6E000E106E690E116E7E0E126EF9
:100518008BEC1AF00009D8B494EF02F096EF02F0D1
:10052800A6EF02F00001DC5107E1020EDB5DD8B056
:10053800A0EF02F0A2EF02F0A6EF02F0DBC0ADF0F0
:10054800F7EF04F0D10E0F6E000E106EB10E116EA3
:100558007E0E126E8BEC1AF00009D8B4B6EF02F0DA
:10056800B8EF02F0C8EF02F00001DC5107E1200EFD
:10057800DB5DD8B0C2EF02F0C4EF02F0C8EF02F0C2
:10058800DBC0AEF0F7EF04F0D10E0F6E000E106E68
:10059800AB0E116E7E0E126E8BEC1AF00009D8B4F9
:1005A800D8EF02F0DAEF02F0EAEF02F00001DC51D6
:1005B80007E1200EDB5DD8B0E4EF02F0E6EF02F0D1
:1005C800EAEF02F0DBC0AFF0F7EF04F0D10E0F6EE8
:1005D800000E106E7E0E116E7E0E126E8BEC1AF0EF
:1005E8000009D8B4FAEF02F0FCEF02F017EF03F0BD
:1005F8000001DC5109E1050EDB5DD8A006EF03F030
:1006080008EF03F017EF03F0DC5107E1330EDB5D71
:10061800D8B011EF03F013EF03F017EF03F0DBC0CE
:10062800B0F0F7EF04F0D10E0F6E000E106E770EDB
:10063800116E7E0E126E8BEC1AF00009D8B427EFFB
:1006480003F029EF03F044EF03F00001DC5109E166
:100658000A0EDB5DD8A033EF03F035EF03F044EF6B
:1006680003F0DC5107E1650EDB5DD8B03EEF03F027
:1006780040EF03F044EF03F0DBC0B1F0F7EF04F014
:10068800D10E0F6E000E106EA50E116E7E0E126E3C
:100698008BEC1AF00009D8B454EF03F056EF03F0CE
:1006A80066EF03F00001DC5107E1020EDB5DD8B014
:1006B80060EF03F062EF03F066EF03F0DBC0B2F027
:1006C800F7EF04F0D10E0F6E000E106E8C0E116E47
:1006D8007E0E126E8BEC1AF00009D8B476EF03F098
:1006E80078EF03F088EF03F00001DC5107E1020E18
:1006F800DB5DD8B082EF03F084EF03F088EF03F0FE
:10070800DBC0B6F0F7EF04F0D10E0F6E000E106EDE
:100718003F0E116E7E0E126E8BEC1AF00009D8B4E3
:1007280098EF03F09AEF03F0AAEF03F00001DC5111
:1007380007E1020EDB5DD8B0A4EF03F0A6EF03F0EB
:10074800AAEF03F0DBC0B7F0F7EF04F0D10E0F6E9D
:10075800000E106EB70E116E7E0E126E8BEC1AF034
:100768000009D8B4BAEF03F0BCEF03F0CCEF03F004
:100778000001DC5107E1020EDB5DD8B0C6EF03F0E3
:10078800C8EF03F0CCEF03F0DBC0B3F0F7EF04F0F1
:10079800D10E0F6E000E106E5B0E116E7E0E126E75
:1007A8008BEC1AF00009D8B4DCEF03F0DEEF03F0AD
:1007B800EEEF03F00001DC5107E1020EDB5DD8B07B
:1007C800E8EF03F0EAEF03F0EEEF03F0DBC0B5F07B
:1007D800F7EF04F0D10E0F6E000E106E620E116E60
:1007E8007E0E126E8BEC1AF00009D8B4FEEF03F0FF
:1007F80000EF04F010EF04F00001DC5107E1020EF5
:10080800DB5DD8B00AEF04F00CEF04F010EF04F051
:10081800DBC0B4F0F7EF04F0D10E0F6E000E106ECF
:10082800BD0E116E7E0E126E8BEC1AF00009D8B454
:1008380020EF04F022EF04F03DEF04F00001DC515A
:1008480009E1320EDB5DD8A02CEF04F02EEF04F0A6
:100858003DEF04F0DC5107E1FB0EDB5DD8B037EF6C
:1008680004F039EF04F03DEF04F0DBC0B8F0F7EF27
:1008780004F0D10E0F6E000E106E540E116E7E0E27
:10088800126E8BEC1AF00009D8B44DEF04F04FEF5C
:1008980004F06CEF04F00001DC5109E1640EDB5D4B
:1008A800D8A059EF04F05BEF04F06CEF04F0BD0E34
:1008B800DB5D020EDC59D8B064EF04F066EF04F09B
:1008C8006CEF04F0DBC0C1F0DCC0C2F0F7EF04F05D
:1008D800D10E0F6E000E106E4D0E116E7E0E126E42
:1008E8008BEC1AF00009D8B47CEF04F07EEF04F02A
:1008F8009BEF04F00001DC5109E1640EDB5DD8A038
:1009080088EF04F08AEF04F09BEF04F0EF0EDB5D54
:10091800020EDC59D8B093EF04F095EF04F09BEF8A
:1009280004F0DBC0C3F0DCC0C4F0F7EF04F0D10E74
:100938000F6E000E106E850E116E7E0E126E8BEC11
:100948001AF00009D8B4ABEF04F0ADEF04F0CAEF29
:1009580004F00001DC5109E1640EDB5DD8A0B7EFBB
:1009680004F0B9EF04F0CAEF04F0EF0EDB5D020EFD
:10097800DC59D8B0C2EF04F0C4EF04F0CAEF04F0B9
:10098800DBC0C5F0DCC0C6F0F7EF04F0D10E0F6E87
:10099800000E106E2F0E116E7E0E126E8BEC1AF07A
:1009A8000009D8B4DAEF04F0DCEF04F0EEEF04F05D
:1009B800F50E0001DB5D010EDC59D8B0E6EF04F05E
:1009C800E8EF04F0EEEF04F0DBC0C7F0DCC0C8F0DD
:1009D800F7EF04F0010E0001D06F570E456E7A0E46
:1009E800466EBAEC1FF00001D051D8A4FEEF04F017
:1009F80000EF05F022EF05F079EC26F08C0E456E3D
:100A08007C0E466EBAEC1FF0DBC01BF0DCC01CF09D
:100A18001D6A1E6A040E1F6E60EC0FF07F0E456E95
:100A2800740E466EBAEC1FF022EF05F0030E456E09
:100A38007B0E466EBAEC1FF022EF05F012000001A3
:100A480020EE02F0D251D926D351DA22DECFD4F0EB
:100A5800DDCFD5F0010ED427000ED523D4C0F6FF84
:100A6800D5C0F7FFF86A050EF76403D00800F55003
:100A780005D0F6CFE9FFF7CFEAFFEF500001D66FB8
:100A8800D651076E086A47EC22F007500001D86F6C
:100A9800D005D111D8B453EF05F055EF05F072EF3A
:100AA80005F020EE02F0D251D926D351DA22DECF5A
:100AB800F6FFDECFF7FF050EF76403D00800F55008
:100AC80005D0F6CFE9FFF7CFEAFFEF503F0AD8A4E9
:100AD80070EF05F072EF05F044EF08F02D0E456E4B
:100AE800770E466EBAEC1FF05D0E456E7D0E466EB3
:100AF800BAEC1FF0E10E456E760E466EBAEC1FF0AA
:100B0800BA0E456E760E466EBAEC1FF0AF0E456E05
:100B1800740E466EBAEC1FF0EA0E456E750E466E00
:100B2800BAEC1FF0810E456E740E466EBAEC1FF0DB
:100B3800DD0E456E740E466EBAEC1FF0AF0E456EB4
:100B48007A0E466EBAEC1FF0920E456E750E466E22
:100B5800BAEC1FF05D0E456E790E466EBAEC1FF0CA
:100B6800BE0E456E750E466EBAEC1FF06A0E456EE7
:100B7800760E466EBAEC1FF082EF08F020EE04F015
:100B8800D251D926D351DA22DECFF6FFDECFF7FFD6
:100B9800050EF76403D00800F55005D0F6CFE9FF3D
:100BA800F7CFEAFFEF500001D46FD451076E086AFF
:100BB80077EC22F007500001E06F310EE019D8B44D
:100BC800E8EF05F0EAEF05F0F3EF05F0480EE0195D
:100BD800D8A4F1EF05F0F3EF05F0F4EF05F08B84FE
:100BE800300EE019D8B4FBEF05F0FDEF05F006EF85
:100BF80006F04C0EE019D8A404EF06F006EF06F054
:100C080082EF08F08B9482EF08F0660E456E750E41
:100C1800466EBAEC1FF0390E456E7A0E466EBAEC87
:100C28001FF05F0E456E730E466EBAEC1FF0990EFC
:100C3800456E7B0E466EBAEC1FF0F29E898C00F072
:100C480000F000F000F000F000F000F000F000F01C
:100C580000F000F000F000F000F000F000F000F00C
:100C680000F000F000F0899C00F000F000F000F0C7
:100C780000F000F000F000F000F000F000F000F0EC
:100C880022EF06F0A351D8A44CEF06F04EEF06F081
:100C980054EF06F06A0E456E7B0E466EBAEC1FF0F6
:100CA8000001A3A15AEF06F05CEF06F062EF06F030
:100CB800D50E456E780E466EBAEC1FF00001A3A55E
:100CC80068EF06F06AEF06F070EF06F0370E456E33
:100CD8007B0E466EBAEC1FF00001A3A776EF06F074
:100CE80078EF06F082EF08F0E70E456E7A0E466E52
:100CF800BAEC1FF082EF08F0EAEC25F001C060F0D2
:100D080002C061F003C062F004C063F0000E00018D
:100D1800A66F91EF06F0E5EC1DF0C80E0001602506
:100D2800D46F000E6121D56F000E6221D66F000EC0
:100D38006321D76FEAEC25F00001D451015CD5514D
:100D48000258D6510358D7510458D8A0AEEF06F030
:100D5800B0EF06F08FEF06F0A6C001F0026A000EB1
:100D6800046E020E036ECCEC19F001500001D96F2D
:100D7800510E456E7B0E466EBAEC1FF00001D9513C
:100D88001B6E1C6A1D6A1E6A010E1F6E60EC0FF056
:100D98007F0E456E740E466EBAEC1FF082EF08F0B7
:100DA80023EC26F001C01BF002C01CF01D6A1E6A6D
:100DB800050E1F6E60EC0FF07F0E456E740E466ECA
:100DC800BAEC1FF082EF08F04FEC27F001C0DEF01C
:100DD80002C0DFF00001DE51DF11D8A4F6EF06F003
:100DE800F8EF06F000EF07F0E60E456E7C0E466E53
:100DF800BAEC1FF082EF08F0DE05DF11D8A407EF88
:100E080007F009EF07F011EF07F01E0E456E7D0E93
:100E1800466EBAEC1FF082EF08F0020EDE19DF1101
:100E2800D8A419EF07F01BEF07F023EF07F02B0EFC
:100E3800456E7D0E466EBAEC1FF082EF08F0A00EEC
:100E4800456E7C0E466EBAEC1FF082EF08F0AC0ED1
:100E5800036E000E046E7F0E066EC00E056E70ECFB
:100E680020F0000E4B6E020E4A6ED70E4C6E010E2D
:100E78004D6E44EC15F082EF08F0FF51D8B447EFFF
:100E880007F04AEF07F0010E4BEF07F0000EFF6F77
:100E980082EF08F0000EDA6FD5EC25F00B0E456EE8
:100EA800750E466EBAEC1FF04E0E456E7C0E466E01
:100EB800BAEC1FF071EF07F00F0EFDEC26F046ECD0
:100EC80026F00009D8B46BEF07F06DEF07F071EF6B
:100ED80007F08AEC26F00001DA6F1B0E0001DA1920
:100EE800D8A479EF07F07BEF07F060EF07F053EC39
:100EF80027F082EF08F0000EDB6FD5EC25F0890EA5
:100F0800456E720E466EBAEC1FF0F60E456E720E06
:100F1800466EBAEC1FF0B00E456E7B0E466EBAEC0C
:100F28001FF0EAEC25F001C060F002C061F003C0D8
:100F380062F004C063F0E5EF07F0050E6025D46F9A
:100F4800000E6121D56F000E6221D66F000E63215D
:100F5800D76FEAEC25F00001D451015CD551025855
:100F6800D6510358D7510458D8A0BDEF07F0BFEFAA
:100F780007F0D5EF07F0F00E09EC1DF0730E09EC41
:100F88001DF0300E09EC1DF0F70E09EC1DF0EAEC2F
:100F980025F001C060F002C061F003C062F004C037
:100FA80063F0A7EC20F046EC26F00009D8B4DFEF98
:100FB80007F0E1EF07F0E5EF07F08AEC26F0000113
:100FC800DB6F1B0E0001DB19D8A4EDEF07F0EFEF84
:100FD80007F0A1EF07F07BEF07F020EE04F0D25105
:100FE800D926D351DA22DECF08F0DDCF09F07AEC2A
:100FF80010F008C0DCF009C0DDF0030E0001D019C4
:10100800D111D8A40AEF08F00CEF08F019EF08F096
:10101800DC51DD11D8B413EF08F015EF08F019EF23
:1010280008F0DCC0E3F1DDC0E4F1D5EC25F0150EE5
:10103800456E760E466EBAEC1FF0E3C11BF0E4C1B4
:101048001CF0000E1CBEFF0E1D6E1E6E010E1F6EE4
:1010580060EC0FF0680E456E7D0E466EBAEC1FF020
:10106800920E456E760E466EBAEC1FF082EF08F0CF
:10107800DC0E456E790E466EBAEC1FF082EF08F072
:101088000001D851D46FD56BD551000AD8B44FEFB1
:1010980008F03CEF08F0D451630AD8B4C2EF05F069
:1010A800070AD8B409EF06F0010AD8B446EF06F0EB
:1010B800030AD8B42BEF07F00E0AD8B441EF07F0B3
:1010C800050AD8B44EEF07F0020AD8B480EF06F04C
:1010D8001F0AD8B4D4EF06F0010AD8B47FEF07F09E
:1010E800020AD8B4E8EF06F0050AD8B4F1EF07F021
:1010F8000E0AD8B47BEF07F03CEF08F01200000EA0
:101108000001E96F000EEA6F5A0E966F010E976F95
:10111800000E936F000E926F000EF16F000EF06FCD
:10112800E00EDD6FFF0EDE6F96C0D9FF97C0DAFFC5
:10113800DF50DF6FE06BDD51DF27DE51E023E05148
:101148000AE15F0EDF5DD8A0ACEF08F0AFEF08F062
:10115800010EB0EF08F0000EE16FE26BE151E21111
:10116800D8A4B9EF08F0BBEF08F0BFEF08F07DEFA7
:1011780009F0964B972B96C0D9FF97C0DAFF200E3F
:10118800DE18D8B4CAEF08F0CCEF08F0BDEF08F0CD
:10119800E00EDD6FFF0EDE6F96C0D9FF97C0DAFF55
:1011A800DF50DF6FE06BDD51DF27DE51E023E051D8
:1011B8000AE15F0EDF5DD8A0E4EF08F0E7EF08F082
:1011C800010EE8EF08F0000EE36FE46BE351E41161
:1011D800D8A4F1EF08F0F3EF08F0F5EF08F07DEF91
:1011E80009F0D890F035D96EF135DA6EA40ED9260B
:1011F800010EDA2296C0DEFF97C0DDFF924B932BDB
:101208002DEF09F0E00EDD6FFF0EDE6FEB51DF6FA3
:10121800E06BDD51DF27DE51E023E0510AE15F0E8C
:10122800DF5DD8A01AEF09F01DEF09F0010E1EEFDF
:1012380009F0000EE56FE66BE551E611D8A427EF3B
:1012480009F029EF09F02BEF09F03CEF09F0964B74
:10125800972B96C0D9FF97C0DAFFDF50EB6F200EAF
:10126800EB19D8A43AEF09F03CEF09F006EF09F0C2
:10127800E00EDD6FFF0EDE6F96C0D9FF97C0DAFF74
:10128800DF50DF6FE06BDD51DF27DE51E023E051F7
:101298000AE15F0EDF5DD8A054EF09F057EF09F0BF
:1012A800010E58EF09F0000EE76FE86BE751E811FF
:1012B800D8A461EF09F063EF09F065EF09F07DEF5D
:1012C80009F096C0D9FF97C0DAFF000EDF6E964B83
:1012D800972BF04BF12BF1BF7BEF09F0F15109E1AE
:1012E800080EF05DD8A07BEF09F07DEF09F094EFD0
:1012F80008F0000EF16F000EF06FF0C001F0F1C0C1
:1013080002F0000E046E050E036EFDEC25F09F0E34
:101318000124F66E700E0220F76E0900F5CFDDF09D
:101328000900F5CFDEF0DDC0F6FFDEC0F7FF0800EC
:10133800F550240AD8A4A3EF09F0A5EF09F0A7EF08
:1013480009F0E5EF09F0A4C10FF0A5C110F0F0C055
:1013580001F0F1C002F0000E046E050E036EFDEC04
:1013680025F09F0E0124F66E700E0220F76E09001C
:10137800F5CF11F00A00F5CF12F08BEC1AF0000946
:10138800D8B4C9EF09F0CBEF09F0D4EF09F0010E9A
:101398000001E96FF0C0ECF0F1C0EDF0E5EF09F005
:1013A8000001F04BF12BF1BFE3EF09F0F15109E136
:1013B800FA0EF05DD8A0E3EF09F0E5EF09F081EF50
:1013C80009F0000E0001F16F000EF06FF0C001F09F
:1013D800F1C002F0000E046E050E036EFDEC25F060
:1013E800D10E0124F66E700E0220F76E0900F5CFBB
:1013F800DDF00900F5CFDEF0DDC0F6FFDEC0F7FF57
:101408000800F550240AD8A40CEF0AF00EEF0AF0F1
:1014180010EF0AF04EEF0AF0A4C10FF0A5C110F0CA
:10142800F0C001F0F1C002F0000E046E050E036E6C
:10143800FDEC25F0D10E0124F66E700E0220F76E39
:101448000900F5CF11F00A00F5CF12F08BEC1AF075
:101458000009D8B432EF0AF034EF0AF03DEF0AF091
:10146800010E0001EA6FF0C0ECF0F1C0EDF04EEFB4
:101478000AF00001F04BF12BF1BF4CEF0AF0F151EB
:1014880009E1FA0EF05DD8A04CEF0AF04EEF0AF031
:10149800EAEF09F0000193BF5BEF0AF0935109E10D
:1014A800020E925DD8A05BEF0AF05DEF0AF082EFC2
:1014B8000AF0A6C10FF0A7C110F0CF0E116E7E0E74
:1014C800126E8BEC1AF00009D8B46DEF0AF06FEFCA
:1014D8000AF082EF0AF021EEA6F0DECFF6FFDECFAB
:1014E800F7FF050EF76404D03F0EF56E0C0006D02A
:1014F800F6CFE9FFF7CFEAFF3F0EEF6E0001EA51A2
:10150800D8B489EF0AF08BEF0AF0BDEF0AF0ECC00F
:1015180001F0EDC002F0000E046E050E036EFDEC46
:1015280025F0030E0126000E0222D10E0124F66ECC
:10153800700E0220F76E0900F5CFEEF00A00F5CF25
:10154800EFF092C04AF093C04BF0A40E4C6E010E1F
:101558004D6E02D8BBEF0AF005000001FA6EEE519D
:10156800FD6EEF51FE6EF850FF6EFA50120007EF55
:101578000BF0E951D8B4C3EF0AF0C5EF0AF0F7EF62
:101588000AF0ECC001F0EDC002F0000E046E050E8A
:10159800036EFDEC25F0030E0126000E02229F0EBD
:1015A8000124F66E700E0220F76E0900F5CFEEF0FA
:1015B8000A00F5CFEFF092C04AF093C04BF0A40EAA
:1015C8004C6E010E4D6E02D8F5EF0AF005000001D1
:1015D800FA6EEE51FD6EEF51FE6EF850FF6EFA5046
:1015E800120007EF0BF0380E456E7C0E466EBAEC13
:1015F8001FF0000E4B6E010E4A6E000E4C6E000E70
:101608004D6E61EC25F0120080C03CF081C03DF0C9
:101618003CC034F03DC035F0050E366ED8903532FA
:101628003432362E12EF0BF03450070B386E3D5023
:10163800030B396E000E3A6E3950D8B426EF0BF012
:1016480028EF0BF032EF0BF03850D8B42EEF0BF038
:1016580030EF0BF032EF0BF0010E3A6E3A50D8A48F
:1016680038EF0BF03BEF0BF0010E3CEF0BF0000EE8
:10167800406EACC044F0000E3B6E5C50346E356A70
:10168800070ED89034363536E82E45EF0BF00001BA
:101698009E5134243E6E000E35203F6E5CC042F0F1
:1016A800AEC041F097EF0CF04050D8B45EEF0BF0AD
:1016B80060EF0BF077EF0BF07C51CD5D7D51CE598B
:1016C800D8A069EF0BF06BEF0BF077EF0BF0000E83
:1016D80001014A6F000E4B6F000E4C6F000E4D6FEC
:1016E800010E0001A16F500E7E5DC30E7F59D8B068
:1016F80080EF0BF082EF0BF0B0EF0CF0050E7E27B9
:10170800000E7F23B0EF0CF0000E7F6F000E7E6F8F
:10171800B451D8A492EF0BF094EF0BF09AEF0BF0C2
:10172800400E426E010E3B6EACEF0BF001014D51C5
:101738004C114B1109E10A0E4A5DD8A0A6EF0BF037
:10174800A8EF0BF0ACEF0BF05CC042F0010E3B6E63
:101758003B50D8B4B2EF0BF0B4EF0BF0B0EF0CF095
:1017680043C006F042C007F0445068EC26F043C07E
:101778005BF0000E0101466F000E476F000E486FC8
:10178800000E496F000E426F000E436F000E446F4B
:10179800000E456F020E0001A16FB0EF0CF07A51F8
:1017A800CD5D7B51CE59D8B0DCEF0BF0DEEF0BF0FE
:1017B800E8EF0BF05BC006F044509AEC26F0000E00
:1017C8000001A16FB0EF0CF04050D8B4EEEF0BF071
:1017D800F0EF0BF01DEF0CF05B504318D8B4F7EFA7
:1017E8000BF0F9EF0BF01DEF0CF0B351D8B4FFEF8D
:1017F8000BF001EF0CF00FEF0CF043C006F042C005
:1018080007F0445068EC26F05BC006F044509AECB0
:1018180026F01BEF0CF05BC006F044509AEC26F063
:1018280043C006F042C007F0445068EC26F043C0BD
:101838005BF0B0C034F0356A366A376A345001015B
:10184800465D355047593650485937504959D8A000
:1018580030EF0CF032EF0CF06BEF0CF0000E466F2F
:10186800000E476F000E486F000E496F000170515F
:101878003E1809E171513F18D8B445EF0CF047EF15
:101888000CF06BEF0CF0AE51D8B44DEF0CF04FEFFD
:101898000CF067EF0CF041C006F05CC007F0445054
:1018A80057EC26F00001B251D8B45DEF0CF05FEFB1
:1018B8000CF067EF0CF04150200F066E9EC007F049
:1018C800445057EC26F03EC070F03FC071F0B1C0F4
:1018D80034F0356A366A376A34500101425D355052
:1018E80043593650445937504559D8A07EEF0CF02B
:1018F80080EF0CF0B0EF0CF0000E426F000E436F5B
:10190800000E446F000E456F26EC1CF00001B55127
:10191800D8B491EF0CF093EF0CF0B0EF0CF05BEC57
:1019280024F0B0EF0CF0A151346E356A3550000A3E
:10193800D8B4A1EF0CF0E3EF0BF03450000AD8B4A0
:1019480058EF0BF0010AD8B488EF0BF0030AD8B4AB
:10195800D3EF0BF0E3EF0BF0050E01014A27000E61
:101968004B234C234D23050E4627000E47234823BF
:101978004923050E4227000E432344234523120022
:1019880020EE02F04C50D9264D50DA22DECF08F076
:10199800DDCF09F07AEC10F00850546E000E516E4D
:1019A80020EE02F04C50D9264D50DA22DECFF6FF59
:1019B800DECFF7FF050EF76403D00800F55005D019
:1019C800F6CFE9FFF7CFEAFFEF503F0AD8A4EFEFD1
:1019D8000CF0F1EF0CF00BEF0DF0E10E456E710E0F
:1019E800466EBAEC1FF0A40E456E710E466EBAEC48
:1019F8001FF0520E456E740E466EBAEC1FF0EA0EDA
:101A0800456E700E466EBAEC1FF030EF0EF04A04C9
:101A18004B10D8A412EF0DF014EF0DF066EF0DF097
:101A2800020E456E790E466EBAEC1FF0820E456EB8
:101A38007B0E466EBAEC1FF0F50E456E7B0E466EB9
:101A4800BAEC1FF0010E546E010E526E54501B6E0C
:101A58001C6A1D6A1E6A040E1F6E60EC0FF01F0ED2
:101A6800456E7E0E466EBAEC1FF05250070B4E6E56
:101A78004F6AB90E4E24D96E000E4F20DA6EDF5031
:101A8800506E50501B6E1C6A1D6A1E6A030E1F6E34
:101A980060EC0FF07F0E456E740E466EBAEC1FF0C8
:101AA800522A542A080E52645CEF0DF05EEF0DF0D6
:101AB8002AEF0DF0DE0E456E7B0E466EBAEC1FF077
:101AC80030EF0EF04BBE72EF0DF04B5009E1030EF4
:101AD8004A5CD8A072EF0DF074EF0DF028EF0EF00D
:101AE80020EE04F04C50D9264D50DA22DECFF6FF16
:101AF800DECFF7FF050EF76403D00800F55005D0D8
:101B0800F6CFE9FFF7CFEAFFEF503D0AD8A48FEFF1
:101B18000DF091EF0DF0ABEF0DF0040E4A184B10DD
:101B2800D8A499EF0DF09BEF0DF0ABEF0DF020EE80
:101B380006F04C50D9264D50DA22DECF08F0DDCF22
:101B480009F07AEC10F00850536EB9EF0DF020EE62
:101B580004F04C50D9264D50DA22DECF08F0DDCF04
:101B680009F07AEC10F00850536E5450D8B4BFEF17
:101B78000DF0C1EF0DF0E6EF0DF0090E5460C7EF60
:101B88000DF0C9EF0DF0E6EF0DF0800E5360CFEFCA
:101B98000DF0D1EF0DF0E6EF0DF0080E5418D8A4B3
:101BA800D8EF0DF0DAEF0DF0DCEF0DF0000E546E0B
:101BB800B90E5424D96EDA6A000EDA2253C0DFFF58
:101BC800EEEF0DF0010E516E4D0E456E780E466E1D
:101BD800BAEC1FF05150D8A4F4EF0DF0F6EF0DF069
:101BE80030EF0EF079EC26F05450D8A4FEEF0DF04B
:101BF80000EF0EF002EF0EF0080E546E730E456EF5
:101C08007D0E466EBAEC1FF054501B6E1C6A1D6A9E
:101C18001E6A010E1F6E60EC0FF0D60E456E7C0E2C
:101C2800466EBAEC1FF053501B6E1C6A1D6A1E6A82
:101C3800030E1F6E60EC0FF07F0E456E740E466E3D
:101C4800BAEC1FF030EF0EF0FB0E456E790E466EC3
:101C5800BAEC1FF030EF0EF012007CEC21F0F29E8F
:101C6800898C92800F013881000EF9EC1FF00F016A
:101C780038918990929000F000F000F000F0928284
:101C88000F013883010EF9EC1FF00F013893899288
:101C9800929200F000F000F000F092840F01388575
:101CA800020EF9EC1FF00F0138958994929400F018
:101CB80000F000F000F092860F013887030EF9EC6F
:101CC8001FF00F0138978996929600F000F000F007
:101CD80000F0928A0F01388B040EF9EC1FF00F0107
:101CE800389B899A929A00F000F000F000F09680F4
:101CF8000F013C81050EF9EC1FF00F013C918D900E
:101D0800969000F000F000F000F096820F013C83FE
:101D1800060EF9EC1FF00F013C938D92969200F09D
:101D280000F000F000F096840F013C85070EF9ECF6
:101D38001FF00F013C958D94969400F000F000F090
:101D480000F093840F013985080EF9EC1FF00F019C
:101D580039958A94939400F000F000F000F093868F
:101D68000F013987090EF9EC1FF00F0139978A9690
:101D7800939600F000F000F000F0899CF28E0001CC
:101D880088518911D8A4CBEF0EF0CDEF0EF0D3EF28
:101D98000EF0000E896F010E886F5FEF0FF0000ED6
:101DA800086E380E0824D96EDA6A010EDA22DF507E
:101DB800036E046A0101DF51035CE0510458D8B096
:101DC800E8EF0EF0EAEF0EF01FEF0FF0240E0824F4
:101DD800D96EDA6A010EDA22000EDF6E2E0E0824A2
:101DE800D96EDA6A010EDA22040EDF60FEEF0EF019
:101DF80000EF0FF009EF0FF02E0E0824D96EDA6A03
:101E0800010EDA22DF2A56EF0FF008C003F0010EA8
:101E1800046E000E056E032A15EF0FF0D8900436F5
:101E28000536032E12EF0FF0045000018A130550F7
:101E38008B1356EF0FF02E0E0824D96EDA6A010EB6
:101E4800DA22000EDF6E240E0824D96EDA6A010E3B
:101E5800DA22040EDF6033EF0FF035EF0FF03EEFBC
:101E68000FF0240E0824D96EDA6A010EDA22DF2A6E
:101E780056EF0FF008C003F0010E046E000E056E59
:101E8800032A4AEF0FF0D89004360536032E47EFA1
:101E98000FF0041C066E051C076E065000018A1719
:101EA80007508B17082A090E08645DEF0FF05FEFE3
:101EB8000FF0D5EF0EF01200000E316E000E306EEE
:101EC800000E2E6E010E2F6E0C0E1F646EEF0FF0BB
:101ED80070EF0FF072EF0FF00C0E1F6E1F50D8A4AA
:101EE80078EF0FF07AEF0FF07CEF0FF0010E1F6E16
:101EF8001EBE83EF0FF081EF0FF08EEF0FF0010E93
:101F08002E6E1B6C1C1ED8B01C2A1D1ED8B01D2A94
:101F1800000E1E56000E346E000E336E1BC001F00C
:101F28001CC002F01DC003F01EC004F00A0E056EAE
:101F3800000E066E000E076E000E086E0EEC18F00E
:101F48000150300F326E220E3324D96E000E342029
:101F5800DA6E32C0DFFF1BC00DF01CC00EF01DC0D2
:101F68000FF01EC010F00A0E116E000E126E000E59
:101F7800136E000E146E11EC17F00DC01BF00EC09E
:101F88001CF00FC01DF010C01EF0334A342A345024
:101F980009E10C0E335CD8A0D4EF0FF0D6EF0FF0A8
:101FA80092EF0FF0000E346E0B0E336E220E3324B8
:101FB800D96E000E3420DA6EDF50326E3350341092
:101FC800D8B4E9EF0FF0EBEF0FF004EF10F0300E9C
:101FD8003218D8A4F2EF0FF0F4EF0FF004EF10F07E
:101FE8002F50D8B4FAEF0FF0FCEF0FF004EF10F019
:101FF800220E3324D96E000E3420DA6E200EDF6EE6
:1020080033503410D8B40BEF10F00DEF10F016EF7A
:1020180010F0300E3218D8B414EF10F016EF10F09C
:1020280027EF10F0000E2F6E30503110D8A41FEF9C
:1020380010F021EF10F027EF10F0010E3324306E6E
:10204800000E3420316E3306D8A03406345009E12E
:102058000C0E335CD8A033EF10F035EF10F0DAEF48
:102068000FF02E50D8B43BEF10F03DEF10F045EFD5
:1020780010F0220E3024D96E000E3120DA6E2D0EAB
:10208800DF6E000E346E0B0E336E220E3324D96EC3
:10209800000E3420DA6EDF50326E1F50206E216A37
:1020A8002050335C21503458D8A05DEF10F05FEF1A
:1020B80010F068EF10F0200E3218D8B466EF10F068
:1020C80068EF10F06BEF10F0325008EC27F0330691
:1020D800D8A03406345009E10C0E335CD8A077EF51
:1020E80010F079EF10F049EF10F01200000E166EA4
:1020F800000E156E000E0F6E000E0E6E86EF10F0BD
:10210800084A092A010E146E08C0F6FF09C0F7FF35
:10211800F86A050EF76403D00800F55005D0F6CF2D
:10212800E9FFF7CFEAFFEF50200AD8B49EEF10F08E
:10213800A0EF10F0C7EF10F0F70E0A6EFF0E0B6E4F
:1021480008C0F6FF09C0F7FFF86A050EF76403D068
:102158000800F55005D0F6CFE9FFF7CFEAFFEF50BA
:102168000C6E0D6A0A500C260B500D220D5009E119
:10217800050E0C5CD8A0C3EF10F0C5EF10F0C7EF48
:1021880010F0000E146E14C010F0116A10501110E7
:10219800D8A4D1EF10F0D3EF10F084EF10F0DDEFFA
:1021A80010F0000E0F6E010E0E6E084A092A28EF75
:1021B80011F008C0F6FF09C0F7FFF86A050EF764CA
:1021C80003D00800F55005D0F6CFE9FFF7CFEAFFB6
:1021D800EF500A6E0B6A0B50000AD8B4F6EF10F0F5
:1021E80028EF11F00A502B0AD8B4D9EF10F0060ADC
:1021F800D8B4D5EF10F028EF11F015C001F016C0D3
:1022080002F0000E046E0A0E036EFDEC25F008C005
:10221800F6FF09C0F7FFF86A050EF76403D0080057
:10222800F55005D0F6CFE9FFF7CFEAFFEF500A6E79
:102238000A50015E000E025A300E0124156E000E7F
:102248000220166ED9EF10F0D00E0A6EFF0E0B6E3C
:1022580008C0F6FF09C0F7FFF86A050EF76403D057
:102268000800F55005D0F6CFE9FFF7CFEAFFEF50A9
:102278000C6E0D6A0A500C260B500D220D500AE107
:102288000A0E0C5CD8A04BEF11F04EEF11F0010EC6
:102298004FEF11F0000E126E136A12501310D8A4EB
:1022A80058EF11F05AEF11F001EF11F00E500F1026
:1022B800D8A461EF11F063EF11F071EF11F015C0C0
:1022C8000AF016C00BF00A1E0B1E0A4A0B2A0AC097
:1022D80008F00BC009F075EF11F015C008F016C032
:1022E80009F012006C0E536E45EC27F001C051F056
:1022F80002C052F04BBE8AEF11F04B5009E1020EBA
:102308004A5CD8A08AEF11F08CEF11F0B2EF11F00F
:1023180020EE02F04C50D9264D50DA22DECF4EF096
:10232800DDCF4FF0010E4E26000E4F224EC0F6FFB5
:102338004FC0F7FFF86A050EF76403D00800F550A0
:1023480005D0F6CFE9FFF7CFEAFFEF50506E5050B7
:10235800076E086A47EC22F00750536E6C0E53184C
:10236800D8A4B9EF11F0BBEF11F03DEF12F0F70E62
:10237800456E780E466EBAEC1FF06F0E456E780EFD
:10238800466EBAEC1FF03B0E456E790E466EBAECFF
:102398001FF0000E566E23EF12F056501B6E1C6A8B
:1023A8001D6A1E6A050E1F6E60EC0FF0280E456E42
:1023B8007E0E466EBAEC1FF05650D8EC26F001C0DF
:1023C8001BF002C01CF01D6A1E6A050E1F6E60EC31
:1023D8000FF0270E456E7E0E466EBAEC1FF0565073
:1023E80035EC26F001C054F002C055F055BE05EF9B
:1023F80012F0555008E15404D8A005EF12F007EF89
:1024080012F016EF12F054C01BF055C01CF0000E6D
:102418001CBEFF0E1D6E1E6E050E1F6E60EC0FF0CB
:102428001CEF12F0930E456E7E0E466EBAEC1FF04E
:102438007F0E456E740E466EBAEC1FF0562A565043
:102448004E6E4F6A51504E5C4F50800A506E52503B
:10245800800A5058D8A033EF12F035EF12F0D1EFC0
:1024680011F0190E456E790E466EBAEC1FF049EF61
:1024780012F0780E456E7C0E466EBAEC1FF0630EB5
:10248800456E7C0E466EBAEC1FF0120013EC27F076
:10249800A6EC22F0000E00019D6F000E08EC27F05C
:1024A80000019D2B090E9D655CEF12F05EEF12F0A6
:1024B80051EF12F0C50E026E7C0E036E7DEC23F018
:1024C800DDEC20F00009D8A46CEF12F06EEF12F0EA
:1024D80072EF12F00001A3819CEC1DF00001B851CD
:1024E80035EC27F0EAEC25F001C04EF102C04FF1BF
:1024F80003C050F104C051F18FEF12F05D50D8B411
:1025080088EF12F08AEF12F08FEF12F0000E5D6E76
:102518008B807CEC24F0C80E01014E250001F96F78
:10252800000E01014F210001FA6F000E0101502138
:102538000001FB6F000E010151210001FC6FEAEC64
:1025480025F00001F951015CFA510258FB5103587A
:10255800FC510458D8A0B3EF12F0B5EF12F082EF97
:1025680012F0CDC059F0CEC05AF0C1C001F0C2C0BF
:1025780002F0000E046E050E036EFDEC25F001C09E
:1025880007F002C008F0000E0A6E640E096E36EC01
:1025980020F05950072400017C6F5A5008207D6FA5
:1025A80020EEC1F0DECFF9F0DDCFFAF0D890F937A0
:1025B800FA37D890F937FA37F9C007F0FAC008F0B7
:1025C800000E0A6E640E096E36EC20F0595007248E
:1025D80000017A6F5A5008207B6F5A5009E1080EA3
:1025E800595CD8A0FAEF12F0FCEF12F004EF13F0E8
:1025F8005A04D8A002EF13F004EF13F005EF13F01C
:10260800A385000E83BA010EA06FE1C102F0E2C1FA
:1026180003F07DEC23F02AEC23F0E5EC1DF01BEC35
:1026280013F0A7EC20F011EF13F02EEF00F046ECBA
:1026380026F00009D8B423EF13F025EF13F0DBEFF1
:1026480013F08AEC26F00001F86FBAEF13F09BEC58
:1026580024F02AEC23F0DBEF13F095BF3CEF13F0E6
:10266800955108E19405D8A03CEF13F03EEF13F024
:10267800DBEF13F09607D8A097079407D8A0950723
:10268800080E08EC27F0200E08EC27F0080E08ECDE
:1026980027F0DBEF13F00D0E08EC27F00A0E08EC1C
:1026A80027F0000195BF61EF13F0955108E19405FB
:1026B800D8A061EF13F063EF13F02DEF13F096C07D
:1026C800D9FF97C0DAFF000EDF6E97EC17F083ECA6
:1026D80008F02DEF13F09BEC24F02AEC23F053ECD8
:1026E8001DF0DBEF13F0200EF86FE00EF26FFF0E17
:1026F800F36FF851F46FF56BF251F427F351F523AA
:10270800F5510AE15F0EF45DD8A08DEF13F090EF5C
:1027180013F0010E91EF13F0000EF66FF76BF65100
:10272800F711D8B49AEF13F09CEF13F0DBEF13F026
:1027380095BFAAEF13F0955107E1280E945DD8B024
:10274800A8EF13F0AAEF13F0DBEF13F0F85108EC41
:1027580027F096C0D9FF97C0DAFFF8C0DFFF000165
:10276800964B972B944B952BDBEF13F0F851F26FA8
:10277800F36BF351000AD8B4C4EF13F079EF13F0F8
:10278800F251080AD8B431EF13F0010AD8B477EF40
:1027980013F0040AD8B44FEF13F01F0AD8B46FEF40
:1027A80013F00A0AD8B42BEF13F079EF13F01200E4
:1027B800000E0001D76F000ED66F9F0ED26F700EFD
:1027C800D36F000ED56F000ED46F000EDB6F000EB6
:1027D800DA6FDAC001F0DBC002F0000E046E050EFD
:1027E800036EFDEC25F0D2C04EF0D3C04FF001507F
:1027F8004E2602504F224EC0F6FF4FC0F7FF090089
:10280800F5CFD8F00A00F5CFD9F0D8C0F6FFD9C077
:10281800F7FF0800F550240AD8A415EF14F017EFB5
:1028280014F019EF14F06CEF14F0D8C045F0D9C0CB
:1028380046F0BAEC1FF0D8C001F0D9C002F0A5EC00
:1028480023F001500C080001D06F0250D8A0E82AEC
:102858000008D16F33EF14F0200E08EC27F00001C8
:10286800D007D8A0D107D02906E1D129D8A43FEFB5
:1028780014F041EF14F030EF14F0D64BD72BD7BF3C
:102888004FEF14F0D75109E1060ED65DD8A04FEFEF
:1028980014F051EF14F05BEF14F0000ED76F000E38
:1028A800D66F7F0E456E740E466EBAEC1FF00001AF
:1028B800DA4BDB2BDBBF6AEF14F0DB5109E1FA0ED0
:1028C800DA5DD8A06AEF14F06CEF14F0EDEF13F0B6
:1028D800D10E0001D26F700ED36FD44BD52BD5BF5C
:1028E8007FEF14F0D55109E1020ED45DD8A07FEF37
:1028F80014F081EF14F0E9EF13F0D651D711D8B4E2
:1029080088EF14F08AEF14F090EF14F07F0E456E04
:10291800740E466EBAEC1FF01200ACC012F0000143
:102928008151136E80C014F0B605D8A49EEF14F040
:10293800A0EF14F0ADEF14F01438F00B100B0F6E7D
:10294800D89014300F0B0F100E6E1450E00B0E10B1
:10295800146EA151D8A4B3EF14F0B5EF14F043EFFF
:1029680015F080518111D8A4BCEF14F0BEEF14F01B
:10297800E5EF14F01250C9EC26F01250BAEC26F02C
:102988000001B351D8B4CBEF14F0CDEF14F0D2EF6F
:1029980014F0020E066E1250BFEC1CF0CDC059F0B8
:1029A800CEC05AF01E0E592400017C6F000E5A202A
:1029B8007D6F190E59247A6F000E5A207B6F43EFF2
:1029C80015F01450D8B4EBEF14F0EDEF14F017EF46
:1029D80015F0010E116E000E106E080E1118D8A415
:1029E800F8EF14F0FAEF14F0FCEF14F0000E116E8B
:1029F80014A001EF15F003EF15F005EF15F012EF35
:102A080015F0D8901430146E102A112A070E10648D
:102A180010EF15F012EF15F0F1EF14F01150E0EC93
:102A28001AF043EF15F01304D8A41DEF15F01FEFAB
:102A380015F025EF15F0FF0E756FF40E746F43EF68
:102A480015F0020E1318D8A42CEF15F02EEF15F080
:102A580034EF15F0000E756F0C0E746F43EF15F020
:102A6800030E1318D8A43BEF15F03DEF15F043EF14
:102A780015F0000E756F000E746F43EF15F012001D
:102A88004BBE50EF15F04B5009E1020E4A5CD8A03E
:102A980050EF15F052EF15F05FEF15F0A6C102F0F8
:102AA800A7C103F075EC1CF0F00E021400018C6F46
:102AB800FF0E03148D6F8CC056F08DC057F0000EBA
:102AC800546E56C003F057C004F0CCEC23F0E90E66
:102AD800456E7E0E466EBAEC1FF0000E586E56C05C
:102AE80001F057C002F025EC27F01CEC27F0564AFD
:102AF800572A200E08EC27F05850070B070AD8A4CD
:102B080088EF15F08AEF15F08DEF15F0200E08EC20
:102B180027F0582A0F0E586494EF15F096EF15F029
:102B280073EF15F0100E565E000E575A000E586ED1
:102B380056C001F057C002F025EC27F0556E564AF2
:102B4800572AE00E4E6EFF0E4F6E5550506E516A6A
:102B58004E5050264F50512251500AE15F0E505CA2
:102B6800D8A0B9EF15F0BCEF15F0010EBDEF15F0C8
:102B7800000E526E536A52505310D8B4C6EF15F077
:102B8800C8EF15F0CDEF15F0555008EC27F0D0EF51
:102B980015F02E0E08EC27F0582A0F0E5864D7EFC0
:102BA80015F0D9EF15F09CEF15F07F0E456E740EF9
:102BB800466EBAEC1FF0542A0F0E5464E6EF15F077
:102BC800E8EF15F065EF15F00001010E8D271200F2
:102BD8000001C751785D1D6EC85179591E6E1DC020
:102BE80027F01EC028F0296A2A6A2ABE00EF16F0CC
:102BF800FEEF15F008EF16F0000E276E000E286E97
:102C0800000E296E000E2A6EC751C55D1D6EC85193
:102C1800C6591E6E1DC01FF01EC020F0216A226A10
:102C280027C001F028C002F029C003F02AC004F030
:102C3800800E056E3F0E066E000E076E000E086EC3
:102C480047EC21F001C00DF002C00EF003C00FF0F8
:102C580004C010F01FC011F020C012F021C013F002
:102C680022C014F011EC17F00DC027F00EC028F0A8
:102C78000FC029F010C02AF027C001F028C002F0C8
:102C880029C003F02AC004F027C005F028C006F0C8
:102C980029C007F02AC008F047EC21F001C00DF068
:102CA80002C00EF003C00FF004C010F0800E116EC9
:102CB8003F0E126E000E136E000E146E11EC17F01C
:102CC8000DC023F00EC024F00FC025F010C026F070
:102CD80026BE7BEF16F0265025100BE1810E235CF3
:102CE8003F0E2458D8A07BEF16F07DEF16F085EF45
:102CF80016F0800E236E3F0E246E000E256E000E19
:102D0800266E23C01BF024C01CF0120020EE02F037
:102D18004C50D9264D50DA22DECF4EF0DDCF4FF0A1
:102D2800010E4E26000E4F224EC0F6FF4FC0F7FF91
:102D3800F86A050EF76403D00800F55005D0F6CF01
:102D4800E9FFF7CFEAFFEF50506E5050076E086A60
:102D580047EC22F00750516E20EE02F04C50D92675
:102D68004D50DA22DECFF6FFDECFF7FF050EF7640F
:102D780003D00800F55005D0F6CFE9FFF7CFEAFFFA
:102D8800EF503F0AD8A4CBEF16F0CDEF16F0E1EFE5
:102D980016F0920E456E730E466EBAEC1FF0C70E13
:102DA800456E7B0E466EBAEC1FF0390E456E750EF9
:102DB800466EBAEC1FF010EF17F0670E5118D8A442
:102DC800E8EF16F0EAEF16F0EDEF16F0470E12EC0A
:102DD80021F0720E5118D8A4F4EF16F0F6EF16F0A1
:102DE800F9EF16F0520E12EC21F00001AD51D8B4F3
:102DF80000EF17F002EF17F00AEF17F07D0E456E9F
:102E08007D0E466EBAEC1FF010EF17F0450E456EBA
:102E18007D0E466EBAEC1FF01200000E166E14BE40
:102E28001AEF17F018EF17F024EF17F0141E131EFF
:102E3800121E116C000E122213221422010E166E9D
:102E480010BE2BEF17F029EF17F035EF17F0101E13
:102E58000F1E0E1E0D6C000E0E220F221022010EE8
:102E6800161A000E176E000E186E000E196E000E60
:102E78001A6E1150121013101410D8B446EF17F030
:102E880048EF17F07EEF17F0010E156E52EF17F0AE
:102E9800D8901136123613361436152A14AE57EF59
:102EA80017F059EF17F04CEF17F0D890173618367F
:102EB80019361A3611500D5C12500E5813500F580F
:102EC80014501058D8A06BEF17F06DEF17F076EF8D
:102ED80017F011500D5E12500E5A13500F5A14501D
:102EE800105A1780D8901432133212321132152E1C
:102EF80059EF17F01650D8B484EF17F086EF17F093
:102F08008EEF17F01A1E191E181E176C000E1822C5
:102F180019221A2217C00DF018C00EF019C00FF0B0
:102F28001AC010F012000001AB51D8A49EEF17F0A0
:102F3800A0EF17F0CEEF17F0000E126E000E116E14
:102F480011C001F012C002F0000E046E2A0E036ECA
:102F5800FDEC25F0000E0124D96E020E0220DA6E77
:102F6800000EDF6E114A122A125009E1040E115C9C
:102F7800D8A0C1EF17F0C3EF17F0A4EF17F0000EB9
:102F88000001916F000E906F000E8F6F000E8E6F14
:102F9800010EAB6F5A0E016E010E026EA5EC23F006
:102FA80001500210D8B4DBEF17F0DDEF17F00DEF8A
:102FB80018F090C001F091C002F0000E046E2A0EC5
:102FC800036EFDEC25F0000E0124076E020E0220B0
:102FD800086E5A0E096E010E0A6E000E0C6E280E4F
:102FE8000B6E86EC1BF090C08EF091C08FF0000144
:102FF800904B912B915109E1040E905DD8A007EFF9
:1030080018F009EF18F00DEF18F0000E916F000E90
:10301800906F1200000E0A6E04BE17EF18F015EF3D
:1030280018F021EF18F0041E031E021E016C000E9A
:10303800022203220422010E0A6E08BE28EF18F0AD
:1030480026EF18F030EF18F0081E071E061E056C54
:10305800000E062207220822055006100710081045
:10306800D8B439EF18F03BEF18F06BEF18F0010EF9
:10307800096E45EF18F0D89005360636073608363B
:10308800092A08AE4AEF18F04CEF18F03FEF18F095
:103098000550015C06500258075003580850045860
:1030A800D8A059EF18F05BEF18F063EF18F005504F
:1030B800015E0650025A0750035A0850045AD89025
:1030C8000832073206320532092E4CEF18F00A5042
:1030D800D8B471EF18F073EF18F07BEF18F0041EF6
:1030E800031E021E016C000E02220322042201C0EC
:1030F80001F002C002F003C003F004C004F01200A3
:10310800000E4F6E000E4E6E4A044B10D8A48FEF7F
:1031180018F091EF18F0CAEF18F0510E456E720EC4
:10312800466EBAEC1FF0A6EF18F046EC26F0000940
:10313800D8B4A1EF18F0A3EF18F0A6EF18F08AECB6
:1031480026F04F6E1F0E4F64ACEF18F0AEEF18F07C
:1031580099EF18F04F5008EC27F07F0E456E740E6B
:10316800466EBAEC1FF04FC007F0086A77EC22F001
:10317800590E07180810D8A4C4EF18F0C6EF18F0B5
:10318800E4EF18F0010E4E6EE4EF18F020EE02F0B6
:103198004C50D9264D50DA22DECF0FF0DDCF10F09B
:1031A800F70E116E7E0E126E8BEC1AF00009D8B471
:1031B800E0EF18F0E2EF18F0E4EF18F0C6EF18F0BF
:1031C8004E50D8B4EAEF18F0ECEF18F0F4EF18F01E
:1031D8005AEC27F02A0E456E780E466EBAEC1FF0B0
:1031E8001200C1C01EF0C2C01FF059500001CD5DD1
:1031F8001B6E5A50CE591C6E1BC001F01CC002F049
:10320800036A046A800E056E3F0E066E000E076E96
:10321800000E086E47EC21F001C00DF002C00EF060
:1032280003C00FF004C010F01EC011F01FC012F050
:10323800136A146A11EC17F00DC020F00EC021F0CB
:103248000FC022F010C023F023BE2FEF19F02DEF8E
:1032580019F037EF19F0000E206E000E216E000EE7
:10326800226E000E236E23BE46EF19F02350221063
:103278000BE1810E205C3F0E2158D8A046EF19F0D3
:1032880048EF19F050EF19F0800E206E3F0E216EB6
:10329800000E226E000E236E20C01BF021C01CF011
:1032A800070E1D6ED8901C321B321D2E56EF19F0DA
:1032B8001B507F0B5C6E20507F0B00019E6F12002D
:1032C800000E566E0C0E456E7C0E466EBAEC1FF064
:1032D800BCEF19F02CEC1EF0EAEC25F001C052F01E
:1032E80002C053F003C054F004C055F07EEF19F04B
:1032F800E5EC1DF0320E52244E6E000E53204F6E38
:10330800000E5420506E000E5520516EEAEC25F048
:103318004E50015C4F5002585050035851500458B9
:10332800D8A099EF19F09BEF19F07CEF19F00D0E6A
:1033380008EC27F046EC26F00009D8B4A6EF19F0FF
:10334800A8EF19F0ABEF19F08AEC26F0566E0D0EC7
:103358005618D8A4B2EF19F0B4EF19F0BCEF19F071
:10336800000E566E7F0E456E740E466EBAEC1FF058
:103378001B0E5618D8A4C3EF19F0C5EF19F06EEF5D
:1033880019F07F0E456E740E466EBAEC1FF01200EF
:10339800000E066E04BED5EF19F0D3EF19F0DBEF7F
:1033A80019F0036C041ED8B0042A010E066E02BE82
:1033B800E2EF19F0E0EF19F0E8EF19F0016C021EE6
:1033C800D8B0022A010E061A000E086E000E076E0B
:1033D80003500410D8B4F3EF19F0F5EF19F01DEF0E
:1033E8001AF0010E056EFDEF19F0D8900336043679
:1033F800052A04AE02EF1AF004EF1AF0F9EF19F0FB
:10340800D890073608360350015C04500258D8A0FB
:1034180010EF1AF012EF1AF017EF1AF00350015ECE
:103428000450025A0780D89004320332052E04EF64
:103438001AF00650D8B423EF1AF025EF1AF029EF46
:103448001AF0076C081ED8B0082A07C001F008C097
:1034580002F01200000E1F6E000E206E000E216E8C
:10346800000E226E00017E517F11D8B43EEF1AF093
:1034780040EF1AF048EF1AF0A851D8B446EF1AF006
:1034880048EF1AF086EF1AF07651CB5D1D6E775132
:10349800CC591E6E1DC001F01EC002F0036A046AFA
:1034A800800E056E3E0E066E000E076E000E086E4C
:1034B80047EC21F001C023F002C024F003C025F03E
:1034C80004C026F023C00DF024C00EF025C00FF074
:1034D80026C010F0C3C011F0C4C012F0136A146AF9
:1034E80011EC17F00DC023F00EC024F00FC025F02A
:1034F80010C026F023C01FF024C020F025C021F002
:1035080026C022F01FC01BF020C01CF01200146857
:10351800010E156ED5EF1AF00FC0F6FF10C0F7FFB9
:10352800F86A050EF76403D00800F55005D0F6CF09
:10353800E9FFF7CFEAFFEF50136E1350076E086AE2
:1035480047EC22F00750166E0F4A102A11C0F6FFFA
:1035580012C0F7FF0800F550076E086A47EC22F022
:103568000750176E114A122A17501618D8B4BFEF11
:103578001AF0C1EF1AF0C3EF1AF0000E156E1650CC
:10358800D8B4C9EF1AF0CBEF1AF0DEEF1AF01750E3
:10359800D8A4D1EF1AF0D3EF1AF0D5EF1AF0DEEF76
:1035A8001AF014061428D8A4DCEF1AF0DEEF1AF08B
:1035B80090EF1AF0155012000B6EACC009F0B90E5E
:1035C8000B24D96EDA6A000EDA22DF500A6E0AC0BE
:1035D80006F00950E5EC26F0F00E0101146F730EA9
:1035E800156F070E166F0BC017F168C018F169C088
:1035F80019F16AC01AF1A3C01BF1B7C01CF1B3C01E
:103608001DF1B4C01EF1F70E1F6F0001AD51D8B403
:1036180010EF1BF012EF1BF033EF1BF0000E0D6ED6
:10362800140E0D24D96EDA6A010EDA22DF500C6E00
:103638000C5009EC1DF0F70E0C18D8A426EF1BF05F
:1036480028EF1BF02AEF1BF033EF1BF00D2A3F0E7B
:103658000D6431EF1BF033EF1BF014EF1BF0120079
:10366800000E096E000E0A6E000E0B6E000E0C6E38
:103678000550061007100810D8B445EF1BF047EFA7
:103688001BF07DEF1BF0010E0D6E51EF1BF0D89073
:1036980005360636073608360D2A08AE56EF1BF0F3
:1036A80058EF1BF04BEF1BF0D89009360A360B3653
:1036B8000C360550015C0650025807500358085054
:1036C8000458D8A06AEF1BF06CEF1BF075EF1BF0E5
:1036D8000550015E0650025A0750035A0850045A12
:1036E8000980D89008320732063205320D2E58EF7D
:1036F8001BF009C001F00AC002F00BC003F00CC0B7
:1037080004F0120007C00FF008C010F0B6EF1BF06D
:103718000B06D8A00C0609500D6E0A500E6E094A09
:103728000A2A0DC0F6FF0EC0F7FFF86A0FC0D9FFCE
:1037380010C0DAFF0F4A102A050EF76403D00800FC
:10374800F55005D0F6CFE9FFF7CFEAFFEF50DF6E6F
:10375800DF50D8A4B2EF1BF0B4EF1BF0B6EF1BF0AC
:10376800C9EF1BF00B500C10D8A4BDEF1BF0BFEF36
:103778001BF08CEF1BF0C9EF1BF00FC0D9FF10C076
:10378800DAFF000EDF6E0F4A102A0B06D8A00C06CF
:103798000B2806E10C28D8A4D4EF1BF0D6EF1BF0B9
:1037A800C1EF1BF01200E1C145F0E2C146F0BAECEE
:1037B8001FF0B30E456E7C0E466EBAEC1FF000018A
:1037C80068511B6E1C6A1D6A1E6A010E1F6E60EC32
:1037D8000FF02E0E08EC27F0000169511B6E1C6AD1
:1037E8001D6A1E6A010E1F6E60EC0FF02E0E08ECAB
:1037F80027F00A0E00016A6104EF1CF006EF1CF0C6
:1038080009EF1CF0300E08EC27F000016A511B6E1E
:103818001C6A1D6A1E6A010E1F6E60EC0FF0F10E25
:10382800456E7E0E466EBAEC1FF0510E456E7D0E4B
:10383800466EBAEC1FF07F0E456E740E466EBAECFB
:103848001FF01200ACC030F0AFC033F03350D8B422
:1038580030EF1CF032EF1CF074EF1CF01F0E3364D5
:1038680038EF1CF03AEF1CF03CEF1CF074EF1CF042
:10387800ECEC15F01BC031F01CC032F000016C51AB
:10388800311809E16D513218D8B44DEF1CF04FEFE3
:103898001CF074EF1CF031C02BF032C02CF0070E76
:1038A8002D6ED8902C322B322D2E55EF1CF02B502C
:1038B8007F0B2E6E33C006F02EC007F0305057EC49
:1038C80026F031507F0B2F6E3350200F066E2FC01D
:1038D80007F0305057EC26F031C06CF032C06DF074
:1038E8001200000E086E000E076E000E096E0250E0
:1038F800046E0350056E024A032A04C0F6FF05C091
:10390800F7FFF86A050EF76403D00800F55005D0F4
:10391800F6CFE9FFF7CFEAFFEF507BEC1FF0066E1A
:103928000628D8A49AEF1CF09CEF1CF09EEF1CF020
:10393800BAEF1CF007C004F008C005F0043A053AD5
:10394800F00E051604500F0B0512F00E0416065063
:103958000424076E000E0520086E092A030E096468
:10396800B8EF1CF0BAEF1CF07BEF1CF007C002F0B8
:1039780008C003F01200076E07040F0BB009086EA9
:10398800085009EC1DF00604D8B4CDEF1CF0CFEFB9
:103998001CF0D8EF1CF0020E0618D8A4D6EF1CF0C5
:1039A800D8EF1CF0E0EF1CF07D0E09EC1DF0000EC6
:1039B80009EC1DF0E6EF1CF07C0E09EC1DF0000E82
:1039C80009EC1DF0085009EC1DF00604D8B4EFEF1F
:1039D8001CF0F1EF1CF0FAEF1CF0030E0618D8A447
:1039E800F8EF1CF0FAEF1CF002EF1DF07F0E09EC67
:1039F8001DF0000E09EC1DF008EF1DF07E0E09EC1D
:103A08001DF0010E09EC1DF01200056E0001A25117
:103A1800D8A411EF1DF013EF1DF021EF1DF0840E57
:103A2800866F010E876F840E846F010E856F000EFE
:103A3800836F000E826F010EA26F83BF2FEF1DF000
:103A4800835107E1200E825DD8B02DEF1DF02FEFD6
:103A58001DF052EF1DF084C0D9FF85C0DAFF05C004
:103A6800DFFF844B852B840E016E010E026E200E43
:103A78000126000E02220150845D02508559D8A00B
:103A880048EF1DF04AEF1DF04EEF1DF0840E846FD5
:103A9800010E856F824B832B52EF1DF012005A0ED8
:103AA800076E010E086E8EC001F08FC002F0000E86
:103AB800046E2A0E036EFDEC25F0000E0124096E3B
:103AC800020E02200A6E000E0C6E280E0B6E86EC9B
:103AD8001BF000018E518F11D8A475EF1DF077EF00
:103AE8001DF07BEF1DF0000E8F6F040E8E6F8E079A
:103AF800D8A08F075A0E016E010E026EA5EC23F0B6
:103B080001C094F002C095F05A0E00019425966FFA
:103B1800010E9521976F96C0D9FF97C0DAFF000E66
:103B2800DF6E5A0E456E010E466EBAEC1FF012009B
:103B3800010E0001AC6F000EAD6F020EAE6F010EEC
:103B4800AF6F050EB06F1E0EB16F000EB26F000E94
:103B5800B36F000EB46F000EB56F000EB66F000E97
:103B6800B76F960EB86F000E0A6E970E0A24F66E9F
:103B7800F76A700EF722B90E0A24D96EDA6A000EB7
:103B8800DA220800F5CFDFFF0A2A070E0A64CFEF12
:103B98001DF0D1EF1DF0B9EF1DF0010E0001C26F4D
:103BA800F40EC16F020EC46FEE0EC36F020EC66F25
:103BB800EE0EC56F000EC86FFA0EC76F79EC26F0CF
:103BC80012005E50D8B4EBEF1DF0EDEF1DF0F1EFF1
:103BD8001DF0000E5E6E31EC0EF05D50D8B4F7EFBC
:103BE8001DF0F9EF1DF00CEF1EF0000E5D6E7CEC81
:103BF80024F04AEC27F0FF0E01140001806F030E39
:103C08000214816FF5EC18F008EC0BF0B8EC1EF01C
:103C18000001A751D8B413EF1EF015EF1EF02BEFDB
:103C28001EF0000EA76F8B80B0EC21F07AEC25F027
:103C380000019C2B040E9C19D8A425EF1EF027EF39
:103C48001EF02BEF1EF0000E9C6FA9EC25F0120061
:103C5800100E456E7D0E466EBAEC1FF04AEC27F04A
:103C680001C003F002C004F0CCEC23F0F40E456E62
:103C78007C0E466EBAEC1FF0000ED8EC26F001C0A0
:103C88001BF002C01CF01D6A1E6A040E1F6E60EC59
:103C98000FF0020E456E7D0E466EBAEC1FF03BEC3F
:103CA80027F001C01BF002C01CF01D6A1E6A040E3A
:103CB8001F6E60EC0FF0380E456E7D0E466EBAEC46
:103CC8001FF040EC27F001C01BF002C01CF01D6A79
:103CD8001E6A040E1F6E60EC0FF012009E90000129
:103CE800FE51CF6EFDC0CEFF5E50D8B47EEF1EF001
:103CF80080EF1EF081EF1EF0A62B010E6427000E48
:103D0800652366236723010E5E6EA52B040EA56549
:103D180090EF1EF092EF1EF096EF1EF0010E5D6E12
:103D2800000EA56FA42B310EA4659DEF1EF09FEF2A
:103D38001EF0A3EF1EF0010EA76F000EA46F010185
:103D48005207000E535B545B555B5251531154118B
:103D58005511D8A4B2EF1EF0B4EF1EF0B7EF1EF065
:103D6800000E0001A86F120000019A51D8A4BFEFFD
:103D78001EF0C1EF1EF0D0EF1EF0310E9965C7EFAF
:103D88001EF0C9EF1EF0DAEF1EF091EC14F0010EF0
:103D980000019A6FDAEF1EF0C70E9865D6EF1EF095
:103DA800D8EF1EF0DAEF1EF0000E9A6F83B8DFEF3F
:103DB8001EF0E1EF1EF0EFEF1EF0FA0E9961E7EF4B
:103DC8001EF0E9EF1EF0EBEF1EF0050E9927000E2E
:103DD800986FFBEF1EF0FA0E9861F5EF1EF0F7EF03
:103DE8001EF0F9EF1EF0050E9827000E996F1200CD
:103DF800252525252525252525252525252525256B
:103E080030303030303030302F2E2E2E2D2C2C2CC0
:103E1800242424242424242424242424242424245A
:103E28002B2A2A2A2A2A2A2A2929292928272624FC
:103E38002322222222222222222222222222222259
:103E4800222222222222222222222222222222224A
:103E58002120202020202020202020202020202059
:103E68001F1E1E1E1E1E1E1E1D1D1D1D1C1B1A187C
:103E7800F80EF66E3D0EF76E000EF86E03EE00F0CB
:103E880010EE80F00900F5CFEEFFE550E150FAE1C1
:103E98007E0EF66E4B0EF76E000EF86E01EEB4F065
:103EA80010EE2BF00900F5CFEEFFE550E150FAE1F6
:103EB80002EE00F0A80EEE6AE806FDE101EE00F061
:103EC800B40EEE6AE806FDE100EE60F0700EEE6AF0
:103ED800E806FDE15E6A5D6A5C6A5B6A5A6A596A6D
:103EE8005F905F92000EF86E00014AEF12F0016ECB
:103EF8002F0E016482EF1FF084EF1FF090EF1FF088
:103F08003A0E01608AEF1FF08CEF1FF090EF1FF060
:103F18000150D00FB9EF1FF0400E016496EF1FF06B
:103F280098EF1FF0A4EF1FF0470E01609EEF1FF0FF
:103F3800A0EF1FF0A4EF1FF00150C90FB9EF1FF059
:103F4800600E0164AAEF1FF0ACEF1FF0B8EF1FF08E
:103F5800670E0160B2EF1FF0B4EF1FF0B8EF1FF06B
:103F68000150A90FB9EF1FF0FF0E1200D9EF1FF093
:103F7800E5EC1DF09EA8C3EF1FF0C5EF1FF0BCEFE6
:103F88001FF00A0E4918D8A4CCEF1FF0CEEF1FF08F
:103F9800D6EF1FF00D0E08EC27F00A0E08EC27F0FC
:103FA800D9EF1FF0495008EC27F04550476E4650AE
:103FB800486E454A462A47C0F6FF48C0F7FFF86AE8
:103FC800050EF76403D00800F55005D0F6CFE9FFD9
:103FD800F7CFEAFFEF50496E4950D8A4F6EF1FF02B
:103FE800F8EF1FF0BCEF1FF01200026ECD0E022496
:103FF800D96EDA6A010EDA22DF50016E01460146F7
:10400800C2500118830B0118C26E00F000F000F0D6
:1040180000F00F01458300F000F000F000F00F0100
:1040280045934493448100F000F000F000F000F064
:1040380000F000F000F000F000F000F000F00F01D8
:104048004491C282C2B22BEF20F02DEF20F026EF70
:1040580020F0380E0224D96EDA6A010EDA22C4CFB3
:10406800DFFF1200000E0C6E000E0B6E09500A10D6
:10407800D8B441EF20F043EF20F06BEF20F0010EB1
:104088000D6E4BEF20F0D89009360A360D2A0AAE8D
:1040980050EF20F052EF20F047EF20F0D8900B3689
:1040A8000C360950075C0A500858D8A05EEF20F07B
:1040B80060EF20F065EF20F00950075E0A50085ABB
:1040C8000B80D8900A3209320D2E52EF20F00BC027
:1040D80007F00CC008F01200400E076EC00E051461
:1040E800056EFF0E0614066E05C001F006C002F04C
:1040F80010EC26F0000EF86E0650F76E05C0F6FFBD
:104108008FEF20F003C0D9FF04C0DAFFDF50F56E4F
:10411800034A042A0D0007060728D8A496EF20F0C2
:1041280098EF20F086EF20F005C0F6FFA68EA69C3B
:10413800A684A698F29E550EA76EAA0EA76EA68212
:10414800F28EA6941200000182518311D8B4AFEF09
:1041580020F0B1EF20F0DCEF20F0A4A8B6EF20F0BB
:10416800B8EF20F0DCEF20F086C0D9FF87C0DAFF77
:10417800DF50FDEC26F00001864B872B840E026E83
:10418800010E036E200E0226000E03220250865DE9
:1041980003508759D8A0D3EF20F0D5EF20F0D9EFFE
:1041A80020F0840E866F010E876F8207D8A08307E0
:1041B8001200010E0E6EAC0E0C6E000E0D6EAC0EE3
:1041C800016E000E026E7F0E046E800E036E1F0ECF
:1041D800056E46EC25F00CC0D9FF0DC0DAFFDE28CD
:1041E80006E1DE28D8A4FBEF20F0FDEF20F0FFEF7A
:1041F80020F0000E0E6EFFEC22F00001C9510118EC
:1042080009E1CA510218D8B40CEF21F00EEF21F0E1
:1042180010EF21F0000E0E6E0E5012000A6E520EB4
:104228000A18D8A41AEF21F01CEF21F031EF21F081
:10423800010E0001AD6F020EAE6F010EAF6F050EDD
:10424800B06F1E0EB16F010EB26F010EB36F000E8C
:10425800B46F000EB56F44EF21F0000E0001AD6F92
:10426800020EAE6F010EAF6F050EB06F1E0EB16F6E
:10427800000EB26F000EB36F000EB46F000EB56F74
:1042880079EC26F01200000E096E000E0A6E000E80
:104298000B6E000E0C6E01A054EF21F056EF21F0CA
:1042A8005EEF21F00550092606500A2207500B221E
:1042B80008500C22D8900536063607360836D890AE
:1042C800043203320232013201500210031004108A
:1042D800D8A471EF21F073EF21F04FEF21F009C05E
:1042E80001F00AC002F00BC003F00CC004F0120089
:1042F8000F01459F459B45994597459545934591A0
:10430800449F9F0E441744894451F30B0409446F9A
:10431800030E4313030E4317000EC26E000EC16E48
:10432800C09EC050F80B0109C06EC050C70B1009E1
:10433800C06E000EC36E000EC46E010EC26E458FB5
:10434800000E0101E06F960EDF6F000E00018B6F0B
:10435800000E8A6F929C12000001FF51D8B4B7EF8B
:1043680021F0B9EF21F0E2EF21F073BFC5EF21F0A2
:10437800735109E10A0E725DD8A0C5EF21F0C7EFAD
:1043880021F0CBEF21F0000E736F000E726F7251A7
:104398007311D8A4D2EF21F0D4EF21F0D5EF21F09A
:1043A8008B82020E72197311D8A4DDEF21F0DFEFB2
:1043B80021F0E0EF21F08B92724B732B1200000E6C
:1043C800016E240E026EF40E036E000E046E0E5083
:1043D800106E0F50116E126A136A020ED8901036C2
:1043E800113612361336E82EF2EF21F010C005F020
:1043F80011C006F012C007F013C008F034EC1BF02F
:10440800FF0E0124146EFF0E0220156E080E706E4A
:10441800900E716E240E726E14C075FF1550766E74
:104428001200000E016E240E026EF40E036E000ED2
:10443800046E0E50106E0F50116E126A136A020E3F
:10444800D8901036113612361336E82E24EF22F0A3
:1044580010C005F011C006F012C007F013C008F034
:1044680034EC1BF0FF0E0124146EFF0E0220156EB3
:10447800080EB86E900EAB6E240EAC6E14C0AFFF73
:104488001550B06E1200BF0E096EFF0E0A6E07C0FF
:104498000BF008C00CF009500B260A500C220C50E7
:1044A8000AE11A0E0B5CD8A05CEF22F05FEF22F055
:1044B800010E60EF22F0000E0D6E0E6A0D500E1008
:1044C800D8B469EF22F06BEF22F072EF22F0200EE1
:1044D8000710076E0850086E76EF22F007C007F045
:1044E80008C008F012009F0E096EFF0E0A6E07C082
:1044F8000BF008C00CF009500B260A500C220C5087
:104508000AE11A0E0B5CD8A08CEF22F08FEF22F094
:10451800010E90EF22F0000E0D6E0E6A0D500E1077
:10452800D8B499EF22F09BEF22F0A1EF22F05F0EB2
:104538000714076E086AA5EF22F007C007F008C045
:1045480008F01200010E0001686F000E696F000E7E
:104558006A6F230E0101E16F740EE26F010E000114
:10456800FF6F000EA86F000E0101E46F1E0EE36FCF
:10457800000E0001A36F94909492960E0F6E000E99
:104588000E6E15EC22F07A0E0F6E120E0E6EE3EC24
:1045980021F0AAEC26F07CEC21F0F28EF28C1200CD
:1045A800046E04C003F003460346C2500318830B8D
:1045B8000318C26E00F000F000F000F000F000F008
:1045C80000F000F0C282C2B2ECEF22F0EEEF22F06F
:1045D800E7EF22F0C4CF05F0066A0550066E056ABB
:1045E800C3500524056E000E0620066E05C001F0B6
:1045F80006C002F01200000E066E000E056EAC0E2C
:10460800076E000E086E1D0E046E000E096E1AEF7E
:1046180023F007C0D9FF08C0DAFFDF50036E03504C
:104628000526000E0622074A082A092A0450095CB2
:10463800D8A021EF23F023EF23F00DEF23F0BA0EDB
:104648000518016EAB0E0618026E1200000E01016D
:104658005A6F5A0E0001966F010E976F000E956FF4
:10466800000E946F000E4A6E4A50020DA40EF324F9
:10467800D96E010EF420DA6ECF0EDE6E000EDD6EFE
:104688004A2A070E4A644BEF23F04DEF23F038EF28
:1046980023F0DB0E456E010E466EBAEC1FF01200D9
:1046A800010E076E200E01180210D8B45EEF23F039
:1046B80060EF23F079EF23F0F70E036EFF0E046E20
:1046C80001C005F002C006F003500526045006227A
:1046D800065009E1050E055CD8A075EF23F077EFC9
:1046E80023F079EF23F0000E076E07C001F0026A8D
:1046F800120093EF23F00A0E0418D8A486EF23F0D3
:1047080088EF23F090EF23F00D0E08EC27F00A0E47
:1047180008EC27F093EF23F0045008EC27F002C0D0
:10472800F6FF03C0F7FF024A032A0800F5CF04F09A
:104738000450D8A4A2EF23F0A4EF23F07FEF23F0D6
:10474800120001C003F002C004F0ADEF23F0014AEB
:10475800022A01C0F6FF02C0F7FFF86A050EF764E7
:1047680003D00800F55005D0F6CFE9FFF7CFEAFFF0
:10477800EF500009D8A4C3EF23F0C5EF23F0ABEF47
:1047880023F00350015C016E04500258026E1200BF
:1047980003C005F004C006F00C0E076ED890063270
:1047A8000532072ED2EF23F0055093EC25F0045084
:1047B80093EC25F003C005F004C006F0040E076E64
:1047C800D89006320532072EE4EF23F0055093EC1B
:1047D80025F003500F0B93EC25F0120020EE02F0A9
:1047E8004C50D9264D50DA22DECFF6FFDECFF7FF48
:1047F800050EF76403D00800F55005D0F6CFE9FFA1
:10480800F7CFEAFFEF503F0AD8A40DEF24F00FEFDF
:1048180024F015EF24F0220E456E7C0E466EBAEC9D
:104828001FF012000F01459F00F000F000F000F0AB
:10483800000EC26E000EC16EC08EC050F80B050986
:10484800C06EC050C70B1009C06E000EC36E000EBC
:10485800C46E010EC26E93820F0139839388398921
:1048680093803981938A398B1200000E8D6E000E69
:104878008C6E000E896E000E8A6E000E8B6E070E0F
:10488800966E3F0E926E9368900E946EB70E956E6C
:10489800000E0F013A6F3969000E3B6F070E3C6F2F
:1048A8002F0E386F6168F19E8B848C961200ACC015
:1048B80027F02EEC1AF01BC028F01CC029F00001CC
:1048C8006E51281809E16F512918D8B46EEF24F0F9
:1048D80070EF24F07BEF24F028C006F029C007F021
:1048E8002750B9EC24F028C06EF029C06FF01200F0
:1048F80016EC24F00B0ED4EC22F001C0CDF002C06F
:10490800CEF00A0ED4EC22F001C0CBF002C0CCF0FD
:104918000D0ED4EC22F001C078F002C079F00C0E34
:10492800D4EC22F001C056F102C057F112000D0E6E
:1049380008EC27F0000E036E000E026E200E08EC45
:1049480027F0024A032A03BEB3EF24F0035009E11B
:104958002A0E025CD8A0B3EF24F0B5EF24F0A2EF42
:1049680024F00D0E08EC27F012000B6E0B040F0B51
:10497800E0090C6E0C5009EC1DF006507F0B09EC99
:104988001DF006C008F007C009F0070E0A6E0934CA
:10499800093208320A2ECBEF24F008507F0B09ECBD
:1049A8001DF01200E00E036EFF0E046E01C005F04C
:1049B80002C006F0035005260450062206500AE1FC
:1049C8005F0E055CD8A0EBEF24F0EEEF24F0010EAB
:1049D800EFEF24F0000E016E026A12009F0E036EC4
:1049E800FF0E046E01C005F002C006F00350052654
:1049F8000450062206500AE11A0E055CD8A007EFFB
:104A080025F00AEF25F0010E0BEF25F0000E016EE0
:104A1800026A1200BF0E036EFF0E046E01C005F09D
:104A280002C006F0035005260450062206500AE18B
:104A38001A0E055CD8A023EF25F026EF25F0010E0D
:104A480027EF25F0000E016E026A1200D00E036EE9
:104A5800FF0E046E01C005F002C006F003500526E3
:104A68000450062206500AE10A0E055CD8A03FEF62
:104A780025F042EF25F0010E43EF25F0000E016E00
:104A8800026A1200000EF86E0450F76E03C0F6FFBB
:104A980057EF25F0090001C0D9FF02C0DAFFF5CFB2
:104AA800DFFF014A022A05060528D8A45EEF25F093
:104AB80060EF25F04EEF25F01200400E456E760EA1
:104AC800466EBAEC1FF0190E456E720E466EBAECC1
:104AD8001FF0F30E456E730E466EBAEC1FF02B0EE8
:104AE800456E730E466EBAEC1FF01200E90E000117
:104AF8007E5D030E7F59D8A084EF25F086EF25F060
:104B080092EF25F0A851D8A48CEF25F08EEF25F070
:104B180092EF25F0CBC076F0CCC077F01200026E91
:104B28000F0E02160A0E02609CEF25F09EEF25F08C
:104B3800A4EF25F00250300F08EC27F0A8EF25F07D
:104B48000250370F08EC27F012000001AD51D8B41D
:104B5800B0EF25F0B2EF25F0BEEF25F0F00E09EC2E
:104B68001DF0730E09EC1DF0300E09EC1DF0F70E68
:104B780009EC1DF012000100010001000001000114
:104B88000001010001000100000100010001000016
:104B98000102030405060708099F7E997E0D3E2041
:014BA800000C
:104BAA00E3C101F0E4C102F0EA0E046E600E036E86
:104BBA00FDEC25F001C052F102C053F10101546B22
:104BCA00556B010E0001A86F12009D9064C005F09C
:104BDA0065C006F066C007F067C008F09D8005C092
:104BEA0001F006C002F007C003F008C004F012008A
:104BFA0001500302F3CF05F0F4CF06F0015004028E
:104C0A00F350062602500302F350062605C001F0AF
:104C1A0006C002F01200000EF86E0250F76E01C0D4
:104C2A00F6FFA68EA69CA684A688F29E550EA76EAF
:104C3A00AA0EA76EA682F28EA69412005C50036E8C
:104C4A00046A070ED89003360436E82E27EF26F0BA
:104C5A0000019E510324016E000E0420026E120010
:104C6A00056E0550020D000EF324D96E010EF420D4
:104C7A00DA6EDECF03F0DDCF04F00450016E026A73
:104C8A001200000E9EBA010E016EABA24FEF26F083
:104C9A0051EF26F055EF26F0AB9EAB8E000E016E5B
:104CAA0001501200086E08040F0BB009096E095072
:104CBA0009EC1DF006507F0B09EC1DF007507F0B25
:104CCA0009EC1DF01200086E08040F0B9009096E1A
:104CDA00095009EC1DF006507F0B09EC1DF0075036
:104CEA007F0B09EC1DF01200FFEC22F001C0C9F0A5
:104CFA0002C0CAF0AC0E036E000E046E7F0E066E82
:104D0A00800E056E70EC20F01200000E026E46EC6A
:104D1A0026F00009D8B494EF26F096EF26F098EF23
:104D2A0026F0AECF02F002501200076E07040F0BF6
:104D3A008009086E085009EC1DF006507F0B09EC3B
:104D4A001DF0000E09EC1DF01200540ECD6E000E7F
:104D5A00CC6EE00ECF6EC00ECE6ECECFFDF0CFCFB2
:104D6A00FEF09E909D80CD801200066E06040F0B09
:104D7A00B009076E075009EC1DF0790E09EC1DF019
:104D8A00000E09EC1DF01200066E06040F0BB009A6
:104D9A00076E075009EC1DF0780E09EC1DF0000EA5
:104DAA0009EC1DF01200046E380E0424D96EDA6A7A
:104DBA00010EDA22DF50036E0350016E026A1200FE
:104DCA00076E07040F0BC009086E085009EC1DF0A6
:104DDA0006507F0B09EC1DF012004AC0D0F04BC000
:104DEA00D1F04CC0D2F04DC0D3F023EC05F0120044
:104DFA00016EA4A803EF27F005EF27F0FEEF26F0D7
:104E0A0001C073FF1200016E9EA80EEF27F010EF8B
:104E1A0027F009EF27F001C0ADFF12005DEC27F083
:104E2A0039EC24F02EEC27F0AAEC26F01200036EDF
:104E3A0003380F0B93EC25F0035093EC25F0120086
:104E4A00000EF86E0250F76E01C0F6FF0800F5502A
:104E5A001200720ED36E040ED26E000E9B6E1200FA
:104E6A00016E01C0DFF10101E06B1200CDC001F05B
:104E7A00CEC002F0120078C001F079C002F0120030
:104E8A00000E026E0A0E016E12008AC001F08BC07B
:104E9A0002F01200A1C001F0026A1200000E000125
:104EAA00A86F12005FEC27F012009CEC1DF01200B4
:084EBA00D09E1200FF0012005F
:1070960000434B48454A111417FC7E47E447D07E0F
:1070A60047C24AF47E47B827377E470831ED7E4708
:1070B600AE37DF7E47E44DC97E47C832E47E478857
:1070C6002A717E47AE4EFA7E00C24A707E47881904
:1070D600467E476000D57E47142DC37E47EC22FAD4
:1070E6007E0000004578616D706C653A2020207046
:1070F60072657365742033203D2036372020207C4E
:1071060020536574204D494449205072676D2036DE
:107116003720666F72205072657365742033200ABB
:107126000A004578616D706C653A202020636F6EA9
:1071360066696720206368616E203D20313020201B
:1071460020205B536574204D696469205478206360
:1071560068616E6E656C203D2031305D200A0A0044
:1071660055736167652023323A2020636F6E666926
:1071760067203C706172616D3E205B3D5D203C7610
:10718600616C75653E202020207C2053657420703C
:107196006172616D2E2076616C7565200A005573EB
:1071A6006167652023323A2020707265736574200A
:1071B6003C707265233E205B3D5D203C76616C75BC
:1071C600653E202020207C20536574205072657314
:1071D60065742076616C7565200A00557361676574
:1071E6002023313A20207072657365742020202098
:1071F6007C204C69737420507265736574204D4908
:107206004449205072676D206E756D6265727320F9
:107216000A0A00436F6D6D616E64206172672773A1
:1072260020616E64206F7074696F6E73206D757364
:107236007420626520736570617261746564206292
:1072460079207370616365732E0A00526573746FDB
:10725600726520636F6E66696775726174696F6EB9
:10726600206461746120746F20666163746F727943
:107276002064656661756C74733F2028592F4E290A
:107286003A200053656E64696E67205379732E4504
:10729600782E20274944454E5427206D7367206376
:1072A6006F6E74696E756F75736C7920746F204D8F
:1072B600494449204F5554200A002020207768650C
:1072C6007265203C706172616D3E20697320612099
:1072D6006E69636B6E616D65206C6973746564209D
:1072E60062792075736167652023312E200A0A00B2
:1072F600766961204D494449207472616E736D69E7
:10730600742071756575652E20204D6573736167F0
:107316006520696E74657276616C20697320356DBF
:10732600732E200A00546F20726563616C6C2070A6
:10733600726576696F75736C7920656E74657265B2
:107346006420636F6D6D616E64732C2068697420B0
:107356004374726C2B522E0A005450322070756C96
:10736600736573204869676820666F7220352069E7
:107376007465726174696F6E73206F662044454C44
:1073860041595F31757328292E200A0053657420F0
:107396006F7065726174696E67206D6F64652C200D
:1073A600692E652E20636F6E6669677572617469F2
:1073B6006F6E2070726F66696C652E0A0055736178
:1073C60067652023313A2020636F6E666967202047
:1073D60020207C204C69737420636F6E6669672772
:1073E6006E20706172616D2773200A0A00466F7203
:1073F60020636F6D6D616E642075736167652068CB
:10740600656C702C20656E7465723A20273C636D3E
:10741600645F6E616D653E203F27200A00426175FC
:107426006572207B52454D497D2048616E647365C7
:1074360074206D6B32202D2D20536572766963653D
:1074460020506F727420434C49200A002020207778
:1074560068657265203C707265233E2069732074EE
:10746600686520507265736574206E756D6265720D
:107476002028312E2E3829200A0A00202D6D203A88
:1074860020204D494449204F5554205458207465B6
:107496007374202873656E64203078304620636FDD
:1074A6006E74696E2E29200A00202D66203A20204F
:1074B600577269746520466C6173682064617461F3
:1074C60020626C6F636B20286465737472756374D5
:1074D60069766529200A00202D71203A20204D4921
:1074E6004449204F555420545820517565756520E0
:1074F6007465737420284944454E54204020356DE8
:107506007329200A0053656E64696E6720307830EF
:107516004620636F6E74696E756F75736C7920742F
:107526006F204D49444920545820554152542E2E1F
:107536002E0A0020202D72203A2052454D492073F4
:10754600796E74682C20202D67203A2067656E6559
:107556007269632073796E7468206D6F64650A00C2
:107566005465737420657865637574696F6E2074ED
:10757600696D65206F662044454C41595F317573CE
:107586002829206D6163726F2E200A00202D70203D
:107596003A202053686F77204D4944492050726540
:1075A600737375726520646174612076616C7565AC
:1075B6002028313462290A00202D76203A202041E5
:1075C6006374697661746520646961672E206D6FE6
:1075D6006465205B74696D656F75742C206D696ECA
:1075E600735D0A00202D68203A2020486561727478
:1075F60062656174204C4544206469732F656E6131
:10760600626C652028746F67676C6529200A002AFA
:1076160020446961676E6F73746963206D6F64657A
:10762600206973206163746976652E2E2E20546955
:107636006D656F757420696E2000546F206C6973D8
:107646007420617661696C61626C6520636F6D6D33
:10765600616E64732C20656E7465723A20276C63C4
:1076660027200A00202D78203A20204578697420AA
:107676002863616E63656C2920646961676E6F7348
:10768600746963206D6F64652E200A00202055738F
:1076960065202764696167202D782720636D642043
:1076A600746F2063616E63656C20616E7974696DB9
:1076B600652E0A00202D65203A202053686F77201A
:1076C600737461727475702073656C662D7465735E
:1076D60074204572726F7273200A00202D64203A5E
:1076E6002020546573742044656C61792066756E3C
:1076F6006374696F6E206F72206D6163726F200A0A
:107706000020204D696469204D6F64756C61746951
:107716006F6E20496E74657276616C202831302E4A
:107726002E313030290A0055736167653A2020648E
:1077360069616720203C6F7074696F6E3E20205B24
:10774600617267315D202E2E2E200A0020204D69A1
:1077560064692045787072657373696F6E20434360
:10776600206E756D6265722028302E2E3331290AFF
:107776000020204D696469204D6F64756C617469E1
:107786006F6E204343206E756D6265722028302E21
:107796002E3331290A0020204D696469204578700E
:1077A60072657373696F6E20496E74657276616C6B
:1077B6002028352E2E3530290A00202053656E6488
:1077C60020322D627974652045787072657373690D
:1077D6006F6E206D73672028302C31290A00202017
:1077E600546F7563682053656E73652054687265BF
:1077F60073686F6C6420286D61782E323530290AE3
:107806000020204D696469205379732E4578636C96
:107816002E4D736720456E61626C65642028302C9E
:1078260031290A002A2044656661756C7420636FED
:107836006E66696775726174696F6E2072657374BE
:107846006F7265642E0A002120496E76616C696448
:1078560020707265736574206F72204D494449200B
:107866007072676D2023200A002020506164232057
:10787600207C20204144432072617720207C2020F8
:1078860046696C7465726564200A0020204D6F6439
:10789600756C6174696F6E20446561642D62616EFA
:1078A6006420286D61782E353030290A002020505A
:1078B600726573737572652053656E736F722053AC
:1078C60070616E20286D61782E373030290A0021CC
:1078D600204572726F723A20436F6E666967204464
:1078E600617461202864656661756C746564290A33
:1078F600005F5F5F5F5F5F5F5F5F5F5F5F5F5F5FF1
:107906005F5F5F5F5F5F5F5F5F5F5F5F5F5F5F5F81
:107916005F0A005F5F5F5F5F5F5F5F7C5F5F5F5F08
:107926005F5F5F5F5F5F5F7C5F5F5F5F5F5F5F5F44
:107936005F5F5F0A0060606060606060607C6060DE
:107946006060606060606060607C60606060606015
:1079560060606060600A00202D73203A2020536822
:107966006F77206E6F7465206F6E2F6F666620537B
:1079760074617465200A0020204D6F64756C617413
:10798600696F6E204D6178696D756D20286D61781F
:107996002E373530290A00202056656C6F636974CE
:1079A600792053656E736520456E61626C6564204F
:1079B60028302C31290A0020204D69646920426153
:1079C600736963204368616E6E656C2028312E2EC4
:1079D600313629200A002120576861743F20284942
:1079E6006E76616C696420636D64206F7074696F74
:1079F6006E29200A002120576861743F20202854F0
:107A060072793A20707265736574202D68656C70A2
:107A160029200A00202046696E676572696E672014
:107A2600536368656D652028302C312C322C2E2E40
:107A3600290A00436F6E6E6563742073636F706509
:107A46002070726F626520746F205450322E200AA7
:107A5600002120496E76616C6964206E69636B6EE5
:107A6600616D65206F722076616C75652E0A002047
:107A76002050697463682D42656E64205370616E90
:107A860020286D61782E373530290A0020204C6574
:107A96006761746F204D6F646520456E61626C6529
:107AA600642028302C31290A00202D6F203A20200E
:107AB6005461736B204F76657272756E20636865CC
:107AC600636B200A00202050697463682042656E4B
:107AD6006420456E61626C65642028302C31290A69
:107AE6000021204572726F723A204D6F64756C6189
:107AF60074696F6E2053656E736F720A002120578A
:107B06006861743F20205472792027636F6E66691E
:107B160067203F27200A002020546F756368205095
:107B26006164204C61796F75742028302C31290AE4
:107B36000021204572726F723A2050726573737518
:107B460072652053656E736F720A005461736B2001
:107B56006F76657272756E7320696E203130306D86
:107B6600733A20002A204E6F2073656C662D74656B
:107B76007374206572726F72732E0A005072657389
:107B86006574207C204D494449205072676D20233E
:107B9600200A005265736574204D435520746F208A
:107BA600657869742E2E2E200A00486974205B457C
:107BB60073635D20746F20657869742E2E2E200AFB
:107BC6000055736167653A20206D6F6465207B2DD3
:107BD600727C2D677D200A005F5F5F5F5F5F5F7C61
:107BE6005F5F5F5F5F5F5F5F5F5F5F5F5F0A006052
:107BF6006060606060607C60606060606060606063
:107C0600606060600A00486974205B4573635D20AC
:107C1600746F20717569742E200A0A0055736167A6
:107C2600653A20202A205B636F6D6D656E745D205A
:107C36000A003F20556E646566696E656420636F51
:107C46006D6D616E642E0A00486974205B4573632E
:107C56005D20746F20657869742E200A0055736163
:107C660067653A20207473656E73205B2D6C5D200A
:107C76000A002120496E76616C6964206F70746910
:107C86006F6E2E200A002A204E65772076616C756D
:107C9600652073617665643A2000554E4445464931
