:0400000011EF00F00C
:100008005F82F0A602D0F0B006D0F2BC9DA003D06B
:100018009EB00BEC1DF05F9211003CEF18F0000E43
:10002800516E000E526ED7EC1FF0536E020E4A1836
:100038004B10D8A42CD020EE02F04C50D9264D50AD
:10004800DA22DECF4EF0DDCF4FF04EC0D9FF4FC0E1
:10005800DAFF3F0EDE18D8A41AD0E20E026E720E36
:10006800036E05EC1BF0EE0E026E710E036E05ECCE
:100078001BF0FD0E026E730E036E05EC1BF02C0ECA
:10008800026E720E036E05EC1BF0AFEF04F04A042B
:100098004B10D8A4E1D1130E026E7D0E036E05EC51
:1000A8001BF053501B6E1C6A1D6A1E6A010E1F6EE0
:1000B80026EC0EF0760E026E750E036E05EC1BF044
:1000C800A30E026E7D0E036E05EC1BF0AE0E5324DC
:1000D800D96EDA6A000EDA22DF504E6E4E501B6E71
:1000E8001C6A1D6A1E6A040E1F6E26EC0EF04B0E6B
:1000F800026E7A0E036E05EC1BF0060E026E7E0E83
:10010800036E05EC1BF0B00E5324D96EDA6A000EAC
:10011800DA22DF504E6E4E501B6E1C6A1D6A1E6A34
:10012800040E1F6E26EC0EF0760E026E780E036E2D
:1001380005EC1BF0F40E026E7D0E036E05EC1BF051
:10014800B20E5324D96EDA6A000EDA22DF504E6EF0
:100158004E501B6E1C6A1D6A1E6A040E1F6E26EC2A
:100168000EF0530E026E780E036E05EC1BF0D00EE7
:10017800026E7D0E036E05EC1BF0B40E5324D96E8F
:10018800DA6A000EDA22DF504E6E4E501B6E1C6A81
:100198001D6A1E6A040E1F6E26EC0EF0E70E026E34
:1001A800770E036E05EC1BF0330E026E7E0E036EA7
:1001B80005EC1BF0B60E5324D96EDA6A000EDA226B
:1001C800DF504E6E4E501B6E1C6A1D6A1E6A040E6E
:1001D8001F6E26EC0EF0290E026E770E036E05ECEC
:1001E8001BF0210E026E7E0E036E05EC1BF0B80E9E
:1001F8005324D96EDA6A000EDA22DF504E6E4E5062
:100208001B6E1C6A1D6A1E6A040E1F6E26EC0EF019
:10021800C20E026E770E036E05EC1BF00F0E026E17
:100228007E0E036E05EC1BF0BA0E5324D96EDA6A03
:10023800000EDA22DF504E6E4E501B6E1C6A1D6A8D
:100248001E6A040E1F6E26EC0EF0C40E026E7A0EA5
:10025800036E05EC1BF0FD0E026E7D0E036E05ECC1
:100268001BF0BC0E5324D96EDA6A000EDA22DF5076
:100278004E6E4E501B6E1C6A1D6A1E6A040E1F6E5F
:1002880026EC0EF00B0E026E7A0E036E05EC1BF0D8
:10029800BE0E026E7D0E036E05EC1BF0BE0E5324DF
:1002A800D96EDA6A000EDA22DF504E6E4E501B6E9F
:1002B8001C6A1D6A1E6A040E1F6E26EC0EF0EB0EF9
:1002C800026E790E036E05EC1BF0AC0E026E7D0E0D
:1002D800036E05EC1BF0C00E5324D96EDA6A000ECB
:1002E800DA22DF504E6E4E501B6E1C6A1D6A1E6A63
:1002F800040E1F6E26EC0EF0E10E026E7A0E036EEF
:1003080005EC1BF0670E026E750E036E05EC1BF014
:10031800D90E026E7D0E036E05EC1BF00001C25172
:100328001B6E1C6A1D6A1E6A040E1F6E26EC0EF0F8
:10033800880E026E7A0E036E05EC1BF0B50E026E87
:100348007D0E036E05EC1BF00001C3511B6E000E01
:100358001BBEFF0E1C6E1D6E1E6E040E1F6E26EC5D
:100368000EF0450E026E790E036E05EC1BF0C70EFB
:10037800026E7D0E036E05EC1BF00001C5511B6E6D
:100388001C6A1D6A1E6A040E1F6E26EC0EF0300EE3
:10039800026E780E036E05EC1BF0EB0E026E7D0EFE
:1003A800036E05EC1BF0C6C01BF0C7C01CF01D6A2D
:1003B8001E6A040E1F6E26EC0EF0230E026E790ED6
:1003C800036E05EC1BF0E20E026E7D0E036E05EC6B
:1003D8001BF0C8C01BF0C9C01CF01D6A1E6A040EC1
:1003E8001F6E26EC0EF06A0E026E7A0E036E05EC96
:1003F8001BF0180E026E7E0E036E05EC1BF0CAC0D1
:100408001BF0CBC01CF01D6A1E6A040E1F6E26EC82
:100418000EF0890E026E790E036E05EC1BF02A0EA3
:10042800026E7E0E036E05EC1BF0CCC01BF0CDC037
:100438001CF01D6A1E6A040E1F6E26EC0EF0010EDB
:10044800026E790E036E05EC1BF0F50E026E750E4A
:10045800036E05EC1BF07FD2020E4A184B10D8A48D
:1004680003D0010E526E77D24BBE75D24B5004E1C9
:10047800030E4A5CD8A06FD2D80E016E000E026E31
:1004880020EE02F04C50D9264D50DA22DECF03F090
:10049800DDCF04F0000E066E080E056E80EC1AF033
:1004A800000E0001DF6F20EE04F04C50D9264D50AD
:1004B800DA22DECF4EF0DDCF4FF04EC0D9FF4FC06D
:1004C800DAFF3D0EDE18D8A412D0040E4A184B10DD
:1004D800D8A40DD020EE06F04C50D9264D50DA2283
:1004E800DECF08F0DDCF09F001EC11F00CD020EEE2
:1004F80004F04C50D9264D50DA22DECF08F0DDCF7B
:1005080009F001EC11F008C054F009C055F0D80EFC
:100518000F6E000E106ED40E116E7E0E126E8BECE6
:1005280019F00009D8A455BE13D0555003E154045E
:10053800D8A00ED055BE06D055500AE1110E545C15
:10054800D8B006D0AE0E5324D96EDA6A000E01D1A7
:10055800D80E0F6E000E106E950E116E7E0E126E76
:100568008BEC19F00009D8A455BE0ED055BE06D0A4
:1005780055500AE1020E545CD8B006D0B00E532490
:10058800D96EDA6A000EE5D0D80E0F6E000E106E26
:10059800870E116E7E0E126E8BEC19F00009D8A42E
:1005A80055BE0ED055BE06D055500AE1020E545C19
:1005B800D8B006D0B20E5324D96EDA6A000EC9D06C
:1005C800D80E0F6E000E106E640E116E7E0E126E37
:1005D8008BEC19F00009D8A455BE0ED055BE06D034
:1005E80055500AE1200E545CD8B006D0B40E5324FE
:1005F800D96EDA6A000EADD0D80E0F6E000E106EEE
:100608005C0E116E7E0E126E8BEC19F00009D8A4E8
:1006180055BE14D0555004E1050E545CD8A00ED038
:1006280055BE06D055500AE1330E545CD8B006D0FA
:10063800B60E5324D96EDA6A000E8BD0D80E0F6E20
:10064800000E106E440E116E7E0E126E8BEC19F0B9
:100658000009D8A455BE0ED055BE06D055500AE1A3
:10066800020E545CD8B006D0B80E5324D96EDA6A9C
:10067800000E6FD0D80E0F6E000E106E9C0E116E0D
:100688007E0E126E8BEC19F00009D8A455BE0ED060
:1006980055BE06D055500AE1020E545CD8B006D0BB
:1006A800BA0E5324D96EDA6A000E53D0D80E0F6EE4
:1006B800000E106EBD0E116E7E0E126E8BEC19F0D0
:1006C8000009D8A455BE0ED055BE06D055500AE133
:1006D800020E545CD8B006D0BE0E5324D96EDA6A26
:1006E800000E37D0D80E0F6E000E106ED90E116E98
:1006F8007E0E126E8BEC19F00009D8A455BE0ED0F0
:1007080055BE06D055500AE1020E545CD8B006D04A
:10071800C00E5324D96EDA6A000E1BD0D80E0F6EA5
:10072800000E106E8E0E116E7E0E126E8BEC19F08E
:100738000009D8A455BE11D055BE06D055500DE1BC
:10074800020E545CD8B009D0BC0E5324D96EDA6AB4
:10075800000EDA2254C0DFFFE0D0D80E0F6E000E74
:10076800106E6B0E116E7E0E126E8BEC19F0000976
:10077800D8A455BE0DD055BE06D0555009E1080E77
:10078800545CD8B005D054C0C2F0010E526EC5D02A
:10079800D80E0F6E000E106EB70E116E7E0E126E12
:1007A8008BEC19F00009D8B413D055AE06D0E80E7A
:1007B800545CFF0E5558D8A00BD055BE06D05550E6
:1007C80007E1190E545CD8B003D054C0C3F0DDD78C
:1007D800D80E0F6E000E106EC90E116E7E0E126EC0
:1007E8008BEC19F00009D8A455BE11D0555004E17E
:1007F800320E545CD8A00BD055BE06D0555007E138
:10080800FB0E545CD8B003D054C0C5F086D0D80EC7
:100818000F6E000E106E800E116E7E0E126E8BEC37
:1008280019F00009D8A455BE13D0555004E1640E40
:10083800545CD8A00DD055BE06D0E90E545C030E0A
:100848005558D8B005D054C0C6F055C0C7F065D0CB
:10085800D80E0F6E000E106E790E116E7E0E126E8F
:100868008BEC19F00009D8A455BE13D0555004E1FB
:10087800640E545CD8A00DD055BE06D0E90E545C69
:10088800030E5558D8B005D054C0C8F055C0C9F0AB
:1008980044D0D80E0F6E000E106EAA0E116E7E0E8A
:1008A800126E8BEC19F00009D8A455BE13D0555020
:1008B80004E1640E545CD8A00DD055BE06D0E90EF4
:1008C800545C030E5558D8B005D054C0CAF055C072
:1008D800CBF023D0D80E0F6E000E106E4C0E116E9A
:1008E8007E0E126E8BEC19F00009D8A455BE0DD0FF
:1008F80055BE06D0210E545C030E5558D8B005D00D
:1009080054C0CCF055C0CDF008D0010E516EA60EE3
:10091800026E7A0E036E05EC1BF05150D8A41BD062
:10092800FEEC1EF03B0E026E7C0E036E05EC1BF017
:1009380054C01BF055C01CF0000E1CBEFF0E1D6EEF
:100948001E6E010E1F6E26EC0EF0F50E026E750E71
:10095800036E05EC1BF05250D8B41200620E026E02
:100968007C0E036E05EC1BF00001C251D8A407D021
:10097800BC0E026E780E036E05EC1BF01AD0C20591
:10098800D8A407D00C0E026E780E036E05EC1BF08F
:1009980010D0010EC26507D0AA0E026E790E036E42
:1009A80005EC1BF006D0F50E026E750E036E05EC15
:1009B8001BF0DA0E026E7C0E036E05EC1BF00001D4
:1009C800C3511B6E000E1BBEFF0E1C6E1D6E1E6EED
:1009D800040E1F6E26EC0EF0CB0E026E7C0E036E1C
:1009E80005EC1BF0F40E0001C319D8A407D0990E2A
:1009F800026E7C0E036E05EC1BF01200F90EC31993
:100A0800D8A407D0840E026E7D0E036E05EC1BF091
:100A18001200C351D8A407D0560E026E7D0E036E85
:100A280005EC1BF01200050EC319D8A407D0750EEB
:100A3800026E7C0E036E05EC1BF012000C0EC3193F
:100A4800D8A407D0D00E026E7B0E036E05EC1BF007
:100A58001200F50E026E750E036E05EC1BF0120007
:100A680020EE02F04C50D9264D50DA2210EE01F05B
:100A7800DE50E126DD50E222E7504E6E4E50076E02
:100A8800086AA5EC1BF00750526E4A044B10D8B404
:100A980012D020EE02F04C50D9264D50DA22DECF8B
:100AA8004EF0DDCF4FF04EC0D9FF4FC0DAFF3F0EFA
:100AB800DE18D8A459D19D0E026E770E036E05EC90
:100AC8001BF0790E026E7D0E036E05EC1BF0020E14
:100AD800026E770E036E05EC1BF0770E026E770E32
:100AE800036E05EC1BF0810E026E760E036E05ECAC
:100AF8001BF0CB0E026E790E036E05EC1BF0980E00
:100B0800026E750E036E05EC1BF0360E026E750E46
:100B1800036E05EC1BF0540E026E760E036E05ECA8
:100B28001BF012005E50D8A406D0190E026E7B0E80
:100B3800036E05EC1BF05EA206D0D90E026E760E8F
:100B4800036E05EC1BF05EA006D0AD0E026E760EAD
:100B5800036E05EC1BF05EA406D02B0E026E7A0E17
:100B6800036E05EC1BF05EA61200670E026E790E8E
:100B7800036E05EC1BF01200FD0E026E7A0E036E7A
:100B880005EC1BF083BA07D08F0E026E7D0E036E44
:100B980005EC1BF012006E0E026E7D0E036E05EC66
:100BA8001BF01200EDEC1EF001C01BF002C01CF09F
:100BB8001D6A1E6A050E1F6E26EC0EF0F50E026EFB
:100BC800750E036E05EC1BF01200D0EC1FF04E6E94
:100BD8004E50556E566A55505610D8A407D0E90E97
:100BE800026E7C0E036E05EC1BF0120055045610C5
:100BF800D8A407D02F0E026E7D0E036E05EC1BF0F5
:100C08001200020E55185610D8A407D03C0E026EDA
:100C18007D0E036E05EC1BF012004F0E026E7C0E6B
:100C2800036E05EC1BF01200030E4A184B10D8A4F3
:100C380014D020EE04F04C50D9264D50DA22DECFE5
:100C48004EF0DDCF4FF04EC0D9FF4FC0DAFF310E66
:100C5800DE18D8A402D0010E01D0000E0001A46F46
:100C6800A451D8B412001D0E026E730E036E05EC6B
:100C78001BF01200000E536E260E026E760E036EE7
:100C880005EC1BF0110E026E7C0E036E05EC1BF0DA
:100C98000BD00F0EB2EC1FF074EC1FF00009D8B4A3
:100CA80003D080EC1FF0536E1B0E5318D8B41200FB
:100CB800F0D7000E546EC60E026E730E036E05EC6E
:100CC8001BF0330E026E740E036E05EC1BF0480E1B
:100CD800026E7B0E036E05EC1BF092EC1EF001C059
:100CE80042F102C043F103C044F104C045F137D0DA
:100CF80092EC1EF001014251015C4E6E43510258C4
:100D08004F6E44510358506E45510458516E51501E
:100D180050104F101AE1050E4E5CD8B016D092EC68
:100D28001EF001C042F102C043F103C044F104C007
:100D380045F1F00E77EC18F0730E77EC18F0300EE2
:100D480077EC18F0F70E77EC18F058EC1BF074EC11
:100D58001FF00009D8B403D080EC1FF0546E1B0EAE
:100D68005418D8B41200C4D752504E6E4F6A4F5020
:100D7800000AD8A412004E50650AD8B4D3D6080A7F
:100D8800D8B4FAD6030AD8B44FD71E0AD8B40AD7AB
:100D9800010AD8B48ED7020AD8B417D7070AD8A43C
:100DA800120068D701C003F002C004F0D8900432E2
:100DB8000332D8900432033203503F0B0B6E0250BB
:100DC800030B066ED8900230046E0130036E035098
:100DD800010B0A6E0150010B096E09C007F0800E65
:100DE8000B24D96EDA6A020EDA22DF50056E05C0CE
:100DF80008F03E0E0B18D8A408D00A50D8A403D087
:100E08000950D8B402D03F0E086E380E0B18D8A47B
:100E180008D00A50D8A403D00950D8B402D0420E42
:100E2800086E300E0B18D8A408D00A50D8A403D0E6
:100E38000950D8B402D0440E086E200E0B18D8A45E
:100E480008D00A50D8A403D00950D8B402D0460E0E
:100E5800086E1E0E0B18D8A408D00A50D8A403D0C8
:100E68000950D8B402D04B0E086E180E0B18D8A42F
:100E780008D00A50D8A403D00950D8B402D04E0ED6
:100E8800086E0E0E0B18D8A408D00A50D8A403D0A8
:100E98000950D8B402D0500E086E0C0E0B18D8A406
:100EA80008D00A50D8A403D00950D8B402D0520EA2
:100EB800086E0001C251D8A430D03F0E0B18D8A438
:100EC80008D00A50D8B405D00950D8A402D03C0E96
:100ED800086E3F0E0B18D8A408D00A50D8A405D025
:100EE8000950D8B402D03D0E086E1F0E0B18D8A4B6
:100EF80008D00A50D8B405D00950D8A402D0480E5A
:100F0800086E1F0E0B18D8A45FD00A50D8A45CD066
:100F18000950D8B459D0490E56D0C205D8A454D0D7
:100F28003F0E0B18D8A408D00A50D8B405D00750E3
:100F3800D8A402D03C0E086E3F0E0B18D8A408D0D7
:100F48000A50D8B405D00750D8B402D03D0E086E68
:100F58003C0E0B18D8A408D00A50D8A405D00750C6
:100F6800D8B402D0420E086E1F0E0B18D8A408D0B1
:100F78000A50D8B405D00750D8A402D0480E086E3D
:100F88001F0E0B18D8A408D00A50D8B405D00750A3
:100F9800D8B402D0490E086E100E0B18D8A408D089
:100FA8000A50D8A405D00750D8B402D0490E086E0C
:100FB8001C0E0B18D8A408D00A50D8A405D0075086
:100FC800D8B402D04E0E086E0604D8A402D00C0E77
:100FD800085E020E0618D8A402D00C0E0826010ED0
:100FE800C26571D006A241D005C008F03F0E0B18AB
:100FF800D8A408D00A50D8B405D00950D8A402D033
:101008003C0E086E3F0E0B18D8A408D00A50D8A47E
:1010180005D00950D8B402D03D0E086E3E0E0B180C
:10102800D8A408D00A50D8A403D00950D8B402D004
:101038003F0E086E3D0E0B18D8A405D00A50D8B440
:1010480002D0410E086E1C0E0B18D8A405D00A5009
:10105800D8A402D0460E086E180E0B18D8A433D0A8
:101068000A50D8A430D0470E2DD00604D8A423D0D7
:10107800000E0B24D96EDA6A020EDA22DF50086EEF
:10108800370E0B18D8A405D00A50D8B402D0590E80
:10109800086E2E0E0B18D8A405D00A50D8B402D06A
:1010A800550E086E2D0E0B18D8A40DD00A50D8B4C2
:1010B8000AD0550E07D0400E0B24D96EDA6A020EFC
:1010C800DA22DF50086EC3510826085012008EC07D
:1010D80001F08FC002F0D6EC06F0486E8EC03AF0F0
:1010E8008FC03BF0050E3C6ED8903B323A323C2E16
:1010F800FBD73A50070B3F6E00018F51030B406E30
:10110800000E416E4050D8B405D03F50D8B402D03C
:10111800010E416E4150D8B402D0010E01D0000E2C
:10112800456EAE0E5D24D96EDA6A000EDA22DF5003
:10113800496E000E426EA2513A6E3B6A070ED89075
:101148003A363B36E82EFBD7A1513A24436E000EBF
:101158003B20446EA2C047F0B40E5D24D96EDA6A13
:10116800000EDA22DF50466E010EC2650ED1010E66
:10117800456E0BD14550D8B412D08851E45D8951E1
:10118800E559D8A00CD0000E01014E6F000E4F6F2C
:10119800000E506F000E516F010E0001A36F500E2C
:1011A8008C5DC30E8D59D8B002D1050E8C27000E68
:1011B8008D23FDD0000E8D6F000E8C6FBC0E5D244C
:1011C800D96EDA6A000EDA22DF50D8A403D0400EB6
:1011D800476E0BD00101515150114F1104E10F0E10
:1011E8004E5DD8A004D0A2C047F0010E426E425016
:1011F800D8B4DDD048C006F047C007F04950DCEC51
:101208001EF048C09DF00001A451D8B403D0485046
:101218005BEC15F0000E01014A6F000E4B6F000EDB
:101228004C6F000E4D6F000E466F000E476F000E9C
:10123800486F000E496F020E0CD08651E45D87514D
:10124800E559D8B009D09DC006F049500FEC1FF001
:10125800000E0001A36FABD04550D8B428D09D51E3
:101268004818D8B424D0BA0E5D24D96EDA6A000EB4
:10127800DA22DF50D8B40DD048C006F047C007F0D6
:101288004950DCEC1EF09DC006F049500FEC1FF0F1
:101298000CD09DC006F049500FEC1FF048C006F076
:1012A80047C007F04950DCEC1EF048C09DF0B60E70
:1012B8005D24D96EDA6A000EDA22DF503A6E3AC03F
:1012C8003BF03C6A3D6A3E6A3B5001014A5D3C5036
:1012D8004B593D504C593E504D59D8A02FD0000E77
:1012E8004A6F000E4B6F000E4C6F000E4D6F0001E1
:1012F8007E51431804E17F514418D8B41FD046509A
:10130800D8B418D046C006F0A2C007F04950CBECBC
:101318001EF0B80E5D24D96EDA6A000EDA22DF50AC
:10132800D8B408D04650200F066EA1C007F0495027
:10133800CBEC1EF043C07EF044C07FF00101495160
:101348004811471104E11E0E465DD8A030D0000EAA
:10135800466F000E476F000E486F000E496FBE0EB5
:101368005D24D96EDA6A000EDA22DF50D8A476EC52
:1013780017F0C00E5D24D96EDA6A000EDA22DF504B
:10138800D8B415D0E9EC1CF012D0A3513A6E3B6AE0
:101398003B50000AD8A45CD73A50000AD8B4EAD621
:1013A800010AD8B407D7030AD8B447D751D7050ECE
:1013B80001014E27000E4F2350235123050E4A27C3
:1013C800000E4B234C234D23050E4627000E4723C2
:1013D800482349231200000E0001F06F000EEF6F42
:1013E800000EEE6F520E786F010E796F010EF26FDC
:1013F800F251020D920EF324D96E010EF420DA6E2A
:10140800000EDE6E000EDD6EF22B050EF265F0D7D3
:10141800000EF26FE00E596EFF0E5A6E78C0D9FFBB
:1014280079C0DAFFDF505B6E5C6A59505B265A5010
:101438005C225C5006E15F0E5B5CD8B002D0010E06
:1014480001D0000EE66FE76BE651E711D8B488D0FB
:1014580002D0784B792B78C0D9FF79C0DAFF200EFB
:10146800DE18D8B4F6D7E00E596EFF0E5A6E78C063
:10147800D9FF79C0DAFFDF505B6E5C6A59505B2692
:101488005A505C225C5006E15F0E5B5CD8B002D01B
:10149800010E01D0000EE86FE96BE851E911D8B4EC
:1014A8005FD0F251020D920EF324D96E010EF42092
:1014B800DA6E78C0DEFF79C0DDFFEF4BF02B1CD071
:1014C800E00E596EFF0E5A6EF1515B6E5C6A595010
:1014D8005B265A505C225C5006E15F0E5B5CD8B01C
:1014E80002D0010E01D0000EEA6FEB6BEA51EB114E
:1014F800D8B40CD0784B792B78C0D9FF79C0DAFFF3
:10150800DF50F16F200EF119D8A4DAD7E00E596E2A
:10151800FF0E5A6E78C0D9FF79C0DAFFDF505B6ED4
:101528005C6A59505B265A505C225C5006E15F0E9B
:101538005B5CD8B002D0010E01D0000EEC6FED6BF1
:10154800EC51ED11D8B40CD078C0D9FF79C0DAFFCE
:10155800000EDF6E784B792BF22B050EF2655AD709
:10156800000EF26FF251050DD10EF324F66E700ED7
:10157800F420F76E0900F5CF59F00900F5CF5AF0BD
:1015880059C0F6FF5AC0F7FF0800F550240AD8B42E
:1015980020D092C10FF093C110F0F251050DD10E79
:1015A800F324F66E700EF420F76E0900F5CF11F0F3
:1015B8000A00F5CF12F08BEC19F00009D8B404D06A
:1015C800010E0001EE6F05D00001F22BF90EF26555
:1015D800C9D7F0BF19D0F05104E1020EEF5DD8A0D1
:1015E80013D094C10FF095C110F0C30E116E7E0E8A
:1015F800126E8BEC19F00009D8B406D094C1D9FF4B
:1016080095C1DAFF3F0EDF6E0001EE51D8B422D04B
:10161800EFC04AF0F0C04BF0920E4C6E010E4D6ECA
:10162800F251050D030EF326000EF422D10EF32419
:10163800F66E700EF420F76E01D812000500FA6EEF
:101648000900F550FD6E0900F550FE6EF850FF6E6A
:10165800FA501200E60E026E7B0E036E05EC1BF0CC
:10166800120020EE02F04C50D9264D50DA22DECF7F
:1016780008F0DDCF09F001EC11F00850546E000EAF
:10168800516E20EE02F04C50D9264D50DA22DECFB2
:101698004EF0DDCF4FF04EC0D9FF4FC0DAFF3F0EFE
:1016A800DE18D8A419D0560E026E730E036E05EC20
:1016B8001BF0690E026E720E036E05EC1BF0C80E6D
:1016C800026E750E036E05EC1BF0B00E026E710E05
:1016D800036E05EC1BF012004A044B10D8A44CD042
:1016E8005F0E026E7B0E036E05EC1BF0310E026E70
:1016F8007B0E036E05EC1BF08D0E026E7B0E036EE7
:1017080005EC1BF0010E546E010E526E54501B6E08
:101718001C6A1D6A1E6A040E1F6E26EC0EF03C0E33
:10172800026E7E0E036E05EC1BF05250070B4E6ED8
:101738004F6ACE0E4E24D96E000E4F20DA6EDF505F
:10174800506E50501B6E1C6A1D6A1E6A030E1F6E77
:1017580026EC0EF0F50E026E750E036E05EC1BF00E
:10176800522A542A080E5264D1D7760E026E7B0E86
:10177800036E05EC1BF012004BBE87D04B5004E102
:10178800030E4A5CD8A081D020EE04F04C50D92634
:101798004D50DA22DECF4EF0DDCF4FF04EC0D9FFEC
:1017A8004FC0DAFF3D0EDE18D8A412D0040E4A1836
:1017B8004B10D8A40DD020EE06F04C50D9264D5031
:1017C800DA22DECF08F0DDCF09F001EC11F00CD001
:1017D80020EE04F04C50D9264D50DA22DECF08F026
:1017E800DDCF09F001EC11F00850536E5450D8B415
:1017F80015D0090E546012D0800E53600FD0080E19
:101808005418D8A402D0000E546ECE0E5424D96EAB
:10181800DA6A000EDA2253C0DFFF08D0010E516EDB
:10182800DF0E026E780E036E05EC1BF05150D8A443
:101838001200FEEC1EF05450D8A402D0080E546ECC
:10184800990E026E7D0E036E05EC1BF054501B6E54
:101858001C6A1D6A1E6A010E1F6E26EC0EF0BB0E76
:10186800026E7C0E036E05EC1BF053501B6E1C6A57
:101878001D6A1E6A030E1F6E26EC0EF0F50E026E30
:10188800750E036E05EC1BF01200FC0E026E7B0E4B
:10189800036E05EC1BF0120057EC19F0F29E898CD0
:1018A80092800F013881000EB0EC18F00F013891CA
:1018B8008990929000F000F000F000F092820F0101
:1018C8003883010EB0EC18F00F0138938992929288
:1018D80000F000F000F000F092840F013885020E4D
:1018E800B0EC18F00F0138958994929400F000F04C
:1018F80000F000F092860F013887030EB0EC18F064
:101908000F0138978996929600F000F000F000F0E9
:10191800928A0F01388B040EB0EC18F00F01389B37
:10192800899A929A00F000F000F000F096800F017A
:101938003C81050EB0EC18F00F013C918D9096900B
:1019480000F000F000F000F096820F013C83060ED4
:10195800B0EC18F00F013C938D92969200F000F0D5
:1019680000F000F096840F013C85070EB0EC18F0EB
:101978000F013C958D94969400F000F000F000F073
:1019880093840F013985080EB0EC18F00F013995D2
:101998008A94939400F000F000F000F093860F0111
:1019A8003987090EB0EC18F00F0139978A9693968B
:1019B80000F000F000F000F0899CF28E0001A651C2
:1019C800D8A403D0010EA66F1200000E086E380EC0
:1019D8000824D96EDA6A010EDA22DF50036E046A2F
:1019E8000101C651035CC7510458D8B02AD0240E4F
:1019F8000824D96EDA6A010EDA22000EDF6E2E0E86
:101A08000824D96EDA6A010EDA22040EDF6006D0E5
:101A18002E0E0824D96EDA6A010E29D008C003F008
:101A2800010E046E000E056E032A03D0D89004360A
:101A38000536032EFBD70450000196130550971363
:101A48002FD02E0E0824D96EDA6A010EDA22000E83
:101A5800DF6E240E0824D96EDA6A010EDA22040E2B
:101A6800DF6008D0240E0824D96EDA6A010EDA2263
:101A7800DF2A16D008C003F0010E046E000E056EB2
:101A8800032A03D0D89004360536032EFBD7041C4E
:101A9800066E051C076E065000019617075097172B
:101AA800082A090E086493D7120000019951D8A496
:101AB80015D0000E776F000E766F000E0101526F81
:101AC800520E0001786F010E796FC00E026E010E82
:101AD800036E05EC1BF0010E0001996F74EC1FF00A
:101AE8000009D8B4120080EC1FF00001F96F91D002
:101AF800DAEC1DF0000E0001776F000E766F000E15
:101B08000101526F520E0001786F010E796FC00EFD
:101B1800026E010E036E05EC1BF0120077BF120077
:101B2800775103E17605D8A012007807D8A0790785
:101B38007607D8A07707080EB8EC1FF0200EB8EC8F
:101B48001FF0080EB8EC1FF012000D0EB8EC1FF0D5
:101B58000A0EB8EC1FF0000177BFCCD7775103E12C
:101B68007605D8A0C7D778C0D9FF79C0DAFF000EAC
:101B7800DF6E6FEC13F0EFEC09F0BCD7DAEC1DF078
:101B8800000E0001776F000E766F000E0101526F94
:101B9800520E0001786F010E796FC00E026E010EB1
:101BA800036E05EC1BF0EEEC16F01200200EF96F38
:101BB800E00EF36FFF0EF46FF951F56FF66BF3510A
:101BC800F527F451F623F65106E15F0EF55DD8B01E
:101BD80002D0010E01D0000EF76FF86BF751F81123
:101BE800D8B4120077BF06D077512BE11E0E765D70
:101BF800D8B01200F951B8EC1FF078C0D9FF79C0FD
:101C0800DAFFF9C0DFFF0001784B792B764B772B91
:101C18001200F951F36FF46BF451000AD8A4C8D735
:101C2800F351080AD8B47AD7010AD8B4BFD7040A3E
:101C3800D8B48BD71F0AD8B4A1D70A0AD8B458D7B2
:101C4800B7D71200000E326E000E316E000E2F6EE6
:101C5800010E306E0C0E1F6402D00C0E1F6E1F504A
:101C6800D8A402D0010E1F6E1EAE0BD0010E2F6E2F
:101C78001B6C1C1ED8B01C2A1D1ED8B01D2A000EB5
:101C88001E56000E356E000E346E1BC001F01CC0CF
:101C980002F01DC003F01EC004F00A0E056E000E0F
:101CA800066E000E076E000E086EB3EC15F00150BC
:101CB800300F336E230E3424D96E000E3520DA6EC1
:101CC80033C0DFFF1BC00DF01CC00EF01DC00FF0AD
:101CD8001EC010F00A0E116E000E126E000E136E6A
:101CE800000E146E3DEC14F00DC01BF00EC01CF07D
:101CF8000FC01DF010C01EF0344A352A35BEC5D7B6
:101D0800355004E10C0E345CD8A0BFD7000E356EF8
:101D18000B0E346E230E3424D96E000E3520DA6E85
:101D2800DF50336E34503510D8B40FD0300E33181E
:101D3800D8A40BD03050D8B408D0230E3424D96E90
:101D4800000E3520DA6E200EDF6E34503510D8B410
:101D580004D0300E3318D8B40CD0000E306E315089
:101D68003210D8A406D0010E3424316E000E35206E
:101D7800326E3406D8A0350635AECCD72F50D8B43D
:101D880008D0230E3124D96E000E3220DA6E2D0EC3
:101D9800DF6E000E356E0B0E346E230E3424D96EB2
:101DA800000E3520DA6EDF50336E1F50206E216A28
:101DB8002050345C3550800A226E2150800A225807
:101DC800D8A004D0200E3318D8B403D03350B8ECC0
:101DD8001FF03406D8A0350635BE1200DED74A04F7
:101DE8004B10D8B412D020EE02F04C50D9264D50EA
:101DF800DA22DECF4EF0DDCF4FF04EC0D9FF4FC014
:101E0800DAFF3F0EDE18D8A413D0040E026E750E4A
:101E1800036E05EC1BF0BA0E026E7B0E036E05EC2A
:101E28001BF0500E026E770E036E05EC1BF01200CD
:101E38004BBE19D04B5004E1020E4A5CD8A013D017
:101E480020EE02F04C50D9264D50DA22DECF02F0B7
:101E5800DDCF03F051EC1AF0F00E02140001706FA0
:101E6800FF0E0314716F70C056F071C057F0000E6A
:101E7800546E56C003F057C004F03AEC1CF0E80E5C
:101E8800026E7E0E036E05EC1BF0000E586E56C0F7
:101E980001F057C002F09CEC1FF093EC1FF0564A7B
:101EA800572A200EB8EC1FF05850070B070AD8A481
:101EB80003D0200EB8EC1FF0582A0F0E5864E7D74D
:101EC800100E565E000E575A000E586E56C001F09E
:101ED80057C002F09CEC1FF0556E564A572AE00E88
:101EE8004E6EFF0E4F6E5550506E516A4E50502632
:101EF8004F505122515006E15F0E505CD8B002D0CD
:101F0800010E01D0000E526E536A52505310D8B4CD
:101F180004D05550B8EC1FF003D02E0EB8EC1FF0CB
:101F2800582A0F0E5864D2D7F50E026E750E036E3E
:101F380005EC1BF0542A0F0E54649BD70001010EC8
:101F4800712712008AEC1FF0A4EC1CF0000E0001AF
:101F5800A06F000EB8EC1FF00001A02B090EA065C1
:101F6800F8D7AA0E026E7C0E036E05EC1BF0AFECE0
:101F78001AF00009D8A403D05E8006EC13F0000123
:101F8800C551ACEC1FF092EC1EF001C064F002C029
:101F980065F003C066F004C067F008D0AB51D8B450
:101FA80005D0000EAB6F8B80F2EC1DF0C80E00015F
:101FB8006425FA6F000E6521FB6F000E6621FC6F29
:101FC800000E6721FD6F92EC1EF00001FA51015CD2
:101FD800FB510258FC510358FD510458D8A0DED7D4
:101FE800E4C08AF0E5C08BF0C6C001F0C7C002F0BB
:101FF800000E046E050E036EA5EC1EF001C007F07E
:1020080002C008F0000E0A6E640E096E2FEC1BF079
:1020180000018A510724886F8B510820896F20EEB0
:10202800C6F0DECFFAF0DDCFFBF0D890FA37FB37F9
:10203800D890FA37FB37FAC007F0FBC008F0000E5B
:102048000A6E640E096E2FEC1BF000018A510724FA
:10205800866F8B510820876F8B5104E1080E8A5DCB
:10206800D8A002D08B05D8B05E84000E83BA010ECA
:102078005D6EC4C102F0C5C103F005EC1BF0000E93
:102088004B6E010E4A6E000E4C6E000E4D6E32EC19
:1020980017F020EC19F059EC0DF058EC1BF0F9D7BB
:1020A800C6C029F0C7C02AF000018A51E45D1B6E42
:1020B8008B51E5591C6E1BC001F01CC002F0036A6D
:1020C800046A800E056E3F0E066E000E076E000E47
:1020D800086EDAEC1AF001C00DF002C00EF003C071
:1020E8000FF004C010F029C011F02AC012F0136AD2
:1020F800146A3DEC14F00DC02BF00EC02CF00FC08C
:102108002DF010C02EF02EAE08D0000E2B6E000E53
:102118002C6E000E2D6E000E2E6E2EBE11D02E507F
:102128002D1006E1810E2B5C3F0E2C58D8A008D04C
:10213800800E2B6E3F0E2C6E000E2D6E000E2E6E36
:10214800020E1B6E60C01CF061C01DF062C01EF064
:1021580063C01FF01B6601D007D01F341F321E3228
:102168001D321C321B2EF6D7020E206E2BC021F01A
:102178002CC022F02DC023F02EC024F0206601D000
:1021880007D024342432233222322132202EF6D7AB
:102198001C50215C256E1D502258266E1E50235857
:1021A800276E1F502458286E000160512524606F47
:1021B80061512620616F62512720626F6351282088
:1021C800636F070E1B6E60C01CF061C01DF062C01B
:1021D8001EF063C01FF01B6601D007D01F341F32EA
:1021E8001E321D321C321B2EF6D71C507F0B0001ED
:1021F800A26F60517F0BA16F1200000E166E000EC9
:10220800156E000E0F6E000E0E6E02D0084A092AD7
:10221800010E146E08C0D9FF09C0DAFF200EDE18BF
:10222800D8B417D0F70E0A6EFF0E0B6E08C0D9FF90
:1022380009C0DAFFDF500C6E0D6A0A500C260B50ED
:102248000D220D5004E1050E0C5CD8A002D0000E42
:10225800146E14C010F0116A10501110D8B408D0C0
:10226800D5D7000E0F6E010E0E6E084A092A2ED021
:1022780008C0D9FF09C0DAFFDF500A6E0B6A0B509D
:10228800000AD8A423D00A502B0AD8B4EED7060ADD
:10229800D8B4E7D71BD015C001F016C002F0000E65
:1022A800046E0A0E036EA5EC1EF008C0D9FF09C023
:1022B800DAFFDF500A6E0A50015E000E025A300E35
:1022C8000124156E000E0220166ECFD7D00E0A6EAE
:1022D800FF0E0B6E08C0D9FF09C0DAFFDF500C6E85
:1022E8000D6A0A500C260B500D220D5006E10A0EFD
:1022F8000C5CD8B002D0010E01D0000E126E136A29
:1023080012501310D8A4C7D70E500F10D8A40DD050
:1023180015C00AF016C00BF00A1E0B1E0A4A0B2A3B
:102328000AC008F00BC009F0120015C008F016C06A
:1023380009F01200000E516E000E506E610E546EC0
:10234800000E536E010E526E52C001F053C002F0DF
:10235800000E046E050E036EA5EC1EF0D10E0124CE
:10236800F66E700E0220F76E0900F5CF55F00A00E0
:10237800F5CF56F055C0F6FF56C0F7FF0800F550E8
:10238800240AD8B447D055C0F6FF56C0F7FF080056
:10239800F5505418D8A434D055C002F056C003F0F4
:1023A80005EC1BF055C001F056C002F02DEC1DF0F5
:1023B80001500C084E6E0250D8A0E82A00084F6E53
:1023C80003D0200EB8EC1FF04E06D8A04F064E28BA
:1023D800F8E14F28D8A4F5D7504A512A51BE10D059
:1023E800515004E1060E505CD8A00AD0000E516E80
:1023F800000E506EF50E026E750E036E05EC1BF0A6
:10240800524A532A53BEA0D7535004E1FA0E525CE5
:10241800D8A09AD7542A7A0E546492D750505110A3
:10242800D8B41200F50E026E750E036E05EC1BF0A3
:1024380012000E6EAE0E5D24D96EDA6A000EDA2234
:10244800DF500D6E0E50070B096E0A6ACE0E092476
:10245800D96E000E0A20DA6EDF500B6EB20E5D24C4
:10246800D96EDA6A000EDA22DF50D8B415D0B00E71
:102478005D24D96EDA6A000EDA22DF50D8B407D0AC
:102488000E50070B066E0D505BEC1FF005D00BC00D
:1024980006F00D505BEC1FF0F00E0101146F730E87
:1024A800156F070E166F0E50070B176F68C018F1DF
:1024B80069C019F16AC01AF15EC01BF1C2C01CF1F3
:1024C800BA0E5D24D96EDA6A000EDA22DF501D6F6B
:1024D800BC0E5D24D96EDA6A000EDA22DF501E6F58
:1024E800F70E1F6FB00E5D24D96EDA6A000EDA227D
:1024F800DF50D8B41200000E0F6E140E0F24D96EE0
:10250800DA6A010EDA22DF500C6E0C5077EC18F004
:10251800F70E0C18D8B412000F2A3F0E0F64EDD72F
:102528001200AE0E5D24D96EDA6A000EDA22DF5090
:10253800126E00018F51156EC2A10ED01638F00B25
:10254800100B116ED89016300F0B1110106E16501C
:10255800E00B1010166E02D08EC016F0A351D8A44E
:1025680012008E518F11D8A404D012503FEC1FF0E6
:1025780012001550D8A417D01650D8B414D0010E94
:10258800136E010E146E14501618D8A404D01350EC
:102598001DEC12F0120014501424146E132A145057
:1025A800D8B41200F0D71504D8A408D01650D8A46F
:1025B80005D0F40EC36FFEEC1EF012001550D8B40F
:1025C80006D0200E1618D8A402D0F90EF3D7030EA1
:1025D8001518D8A405D01650D8A402D0000EEAD7F2
:1025E8001550D8B406D0800E1618D8A402D0050EFF
:1025F800E1D7020E1518D8A412001650D8A412005C
:102608000C0ED8D7AE0E0A6E000E0B6E000E0C6EB6
:102618000AC0D9FF0BC0DAFFFF0EDF6E0A4A0B2A89
:102628000C2A3F0E0C64F4D7010E0001AE6F000EA9
:10263800B06F000EB26F020EB46F050EB66F000ECB
:10264800B86F010EBA6F000EBC6F010EBE6F000EA0
:10265800C06F010EAF6F010EB16F000EB36F020EA7
:10266800B56F050EB76F000EB96F010EBB6F000E88
:10267800BD6F010EBF6F000EC16F000EC26F000E5E
:10268800C36F960EC56F020EC76FEE0EC66F030EB0
:10269800C96FE80EC86F020ECB6FEE0ECA6F010E3F
:1026A800CD6F5E0ECC6F000E0C6E120E0C24F66E03
:1026B800F76A710EF722CE0E0C24D96EDA6A000E74
:1026C800DA220800F5CFDFFF0C2A070E0C64EDD7DD
:1026D800FEEC1EF0120000019851D8A42BD0000E79
:1026E8000C6E000E0B6E0BC009F00CC00AF0050E44
:1026F800D89009360A36E82EFBD7000E0924D96E81
:10270800030E0A20DA6E000EDF6E0B4A0C2A0CBE8E
:10271800EAD70C5004E1040E0B5CD8A0E4D7000EF5
:102728000001756F000E746F000E736F000E726FEC
:10273800010E986F520E016E010E026E2DEC1DF007
:1027480001500210D8B4120074C009F075C00AF024
:10275800050ED89009360A36E82EFBD7000E092454
:10276800016E030E0A20026E520E036E010E046EF5
:10277800000E066E1E0E056E80EC1AF074C072F024
:1027880075C073F00001744B752B75BF120075513D
:1027980004E1040E745DD8A01200000E756F000EDF
:1027A800746F12000001CC51845D1D6ECD518559A6
:1027B8001E6E1DC023F01EC024F0256A266A26AEB0
:1027C80008D0000E236E000E246E000E256E000E3B
:1027D800266ECC51CA5D1D6ECD51CB591E6E1DC0E3
:1027E8001FF01EC020F0216A226A23C001F024C015
:1027F80002F025C003F026C004F0800E056E3F0EDF
:10280800066E000E076E000E086EDAEC1AF001C0B4
:102818000DF002C00EF003C00FF004C010F01FC08E
:1028280011F020C012F021C013F022C014F03DECCA
:1028380014F00DC023F00EC024F00FC025F010C016
:1028480026F026BE11D02650251006E1810E235C05
:102858003F0E2458D8A008D0800E236E3F0E246E59
:10286800000E256E000E266E23C01BF024C01CF03F
:102878001200000E166E14AE0AD0141E131E121E7D
:10288800116C000E122213221422010E166E10AEC5
:102898000AD0101E0F1E0E1E0D6C000E0E220F22E7
:1028A8001022010E161A000E176E000E186E000E7A
:1028B800196E000E1A6E1150121013101410D8B49D
:1028C8002AD0010E156E06D0D8901136123613365E
:1028D8001436152A14AEF8D7D89017361836193684
:1028E8001A3611500D5C12500E5813500F581450D0
:1028F8001058D8A009D011500D5E12500E5A13501E
:102908000F5A1450105A1780D890143213321232BA
:102918001132152EE1D71650D8B408D01A1E191E38
:10292800181E176C000E182219221A2217C00DF053
:1029380018C00EF019C00FF01AC010F0120055554B
:102948005555555555555858585858585858585811
:1029580058585858585860606057606060605B5AB3
:1029680054545B5454545757565656565555515A05
:102978005352505153524F4E4E504D4D4C59494958
:1029880049494949494947474747474747474A4ABD
:102998004A4A4A4A4A4A4C4C4C4C49494C4B3030BA
:1029A800303030303030494949494949494949610D
:1029B8006161555555554E4E4E4E4D4D4C4B4949FE
:1029C8004949494949495454545453525150484823
:1029D8004848484848484F4E4E4E4D4D4C4A474649
:1029E8004646464646464646464646464646454482
:1029F800444444444444434242424141403E000E20
:102A0800536E000E526E000E586EA40E026E7B0EB0
:102A1800036E05EC1BF040D0A8EC16F092EC1EF00B
:102A280001C054F002C055F003C056F004C057F07E
:102A380002D020EC19F092EC1EF05450015C4E6E5E
:102A4800555002584F6E56500358506E5750045800
:102A5800516E515050104F1004E1FA0E4E5CD8A040
:102A6800E8D70D0EB8EC1FF074EC1FF00009D8B4CD
:102A780003D080EC1FF0586E0D0E5818D8A408D05B
:102A8800000E586EF50E026E750E036E05EC1BF007
:102A9800320E5226000E53221B0E5818D8A4BCD74B
:102AA800F50E026E750E036E05EC1BF01200386E03
:102AB80038C001F0026A000E046E0C0E036EB9EC09
:102AC80017F00104376E38C001F0026A000E046E78
:102AD8000C0E036EE8EC18F00150396EFD0E026E14
:102AE8007E0E036E05EC1BF0AA0E3924D96EDA6A45
:102AF800010EDA22DF50B8EC1FF09E0E3924D96E91
:102B0800DA6A010EDA222D0EDE18D8B409D09E0E2C
:102B18003924D96EDA6A010EDA22DF50B8EC1FF0D8
:102B280037501B6E1C6A1D6A1E6A010E1F6E26EC4A
:102B38000EF0FD0E026E7E0E036E05EC1BF0385093
:102B48001B6E1C6A1D6A1E6A030E1F6E26EC0EF0B1
:102B5800F50E026E750E036E05EC1BF01200000EEA
:102B68000A6E04AE0AD0041E031E021E016C000E7B
:102B7800022203220422010E0A6E08AE08D0081EA3
:102B8800071E061E056C000E0622072208220550A5
:102B9800061007100810D8B424D0010E096E06D00C
:102BA800D8900536063607360836092A08AEF8D70B
:102BB8000550015C06500258075003580850045845
:102BC800D8A008D00550015E0650025A0750035A93
:102BD8000850045AD8900832073206320532092EB6
:102BE800E7D70A50D8B408D0041E031E021E016C91
:102BF800000E02220322042201C001F002C002F0EA
:102C080003C003F004C004F01200000E1F6E000E93
:102C1800206E000E216E000E226E00018C518D1167
:102C2800D8A43ED08051E25D1D6E8151E3591E6EDD
:102C38001DC001F01EC002F0036A046A800E056E12
:102C48003E0E066E000E076E000E086EDAEC1AF0E5
:102C580001C023F002C024F003C025F004C026F010
:102C680023C00DF024C00EF025C00FF026C010F0D0
:102C7800C8C011F0C9C012F0136A146A3DEC14F010
:102C88000DC023F00EC024F00FC025F010C026F0B0
:102C980023C01FF024C020F025C021F026C022F058
:102CA8001FC01BF020C01CF01200000E4F6E000E5B
:102CB8004E6E4A044B10D8A428D09D0E026E740E96
:102CC800036E05EC1BF008D074EC1FF00009D8B4B3
:102CD80003D080EC1FF04F6E1F0E4F64F5D74F5096
:102CE800B8EC1FF0F50E026E750E036E05EC1BF0C6
:102CF8004FC007F0086AF0EC1BF0590E07180810CF
:102D0800D8A416D0010E4E6E13D020EE02F04C500F
:102D1800D9264D50DA22DECF0FF0DDCF10F0F60EB7
:102D2800116E7E0E126E8BEC19F00009D8A4EAD74A
:102D38004E50D8B4120006EC13F0990E026E780EBD
:102D4800036E05EC1BF01200210E026E7D0E036E61
:102D580005EC1BF0C8EC1FF001C003F002C004F042
:102D68003AEC1CF0F70E026E7C0E036E05EC1BF0BD
:102D7800000E4EEC1FF001C01BF002C01CF01D6AD3
:102D88001E6A040E1F6E26EC0EF0050E026E7D0EF6
:102D9800036E05EC1BF0BEEC1FF001C01BF002C077
:102DA8001CF01D6A1E6A040E1F6E26EC0EF0490EFA
:102DB800026E7D0E036E05EC1BF0C3EC1FF001C024
:102DC8001BF002C01CF01D6A1E6A040E1F6E26EC62
:102DD8000EF01200520E016E010E026E72C009F062
:102DE80073C00AF0050ED89009360A36E82EFBD7CC
:102DF800000E0924036E030E0A20046E000E066EF0
:102E08001E0E056E80EC1AF0000172517311D8A4E1
:102E180004D0000E736F040E726F7207D8A0730788
:102E2800520E016E010E026E2DEC1DF001C076F0FF
:102E380002C077F0520E00017625786F010E7721D7
:102E4800796F78C0D9FF79C0DAFF000EDF6E520EB5
:102E5800026E010E036E05EC1BF01200870E026E67
:102E68007C0E036E05EC1BF0000168511B6E1C6A9A
:102E78001D6A1E6A010E1F6E26EC0EF02E0EB8ECAF
:102E88001FF0000169511B6E1C6A1D6A1E6A010E43
:102E98001F6E26EC0EF02E0EB8EC1FF00A0E000185
:102EA8006A6103D0300EB8EC1FF000016A511B6E46
:102EB8001C6A1D6A1E6A010E1F6E26EC0EF0F00ECB
:102EC800026E7E0E036E05EC1BF0620E026E7D0E26
:102ED800036E05EC1BF0F50E026E750E036E05EC25
:102EE8001BF01200AE0E5D24D96EDA6A000EDA22EB
:102EF800DF502C6ED6EC13F01BC02DF01CC02EF04A
:102F080000017A512D1804E17B512E18D8B4120013
:102F18002DC027F02EC028F0070E296ED890283231
:102F28002732292EFBD727507F0B2A6E010E066EFB
:102F38002AC007F02C50CBEC1EF0B80E5D24D96ED9
:102F4800DA6A000EDA22DF50D8B40AD02D507F0B8F
:102F58002B6E210E066E2BC007F02C50CBEC1EF00A
:102F68002DC07AF02EC07BF01200000E066E04AE63
:102F780006D0036C041ED8B0042A010E066E02AEF9
:102F880006D0016C021ED8B0022A010E061A000EE5
:102F9800086E000E076E03500410D8B41CD0010E42
:102FA800056E04D0D89003360436052A04AEFAD745
:102FB800D890073608360350015C04500258D8A050
:102FC80005D00350015E0450025A0780D89004329D
:102FD8000332052EEDD70650D8B404D0076C081E6E
:102FE800D8B0082A07C001F008C002F01200000E8D
:102FF800096E000E0A6E000E0B6E000E0C6E055068
:10300800061007100810D8B42AD0010E0D6E06D08D
:10301800D89005360636073608360D2A08AEF8D792
:10302800D89009360A360B360C360550015C065026
:1030380002580750035808500458D8A009D0055022
:10304800015E0650025A0750035A0850045A098074
:10305800D89008320732063205320D2EE1D709C062
:1030680001F00AC002F00BC003F00CC004F012001B
:10307800460EF66E290EF76E000EF86E02EE00F0A0
:1030880010EEC0F00900F5CFEEFFE550E150FAE18F
:10309800FE0EF66E3C0EF76E000EF86E01EE9EF018
:1030A80010EE26F00900F5CFEEFFE550E150FAE109
:1030B80003EE00F0800EEE6AE806FDE101EE00F096
:1030C8009E0EEE6AE806FDE100EE60F0860EEE6AFE
:1030D800E806FDE15E6A5D6A5F905F92000EF86E39
:1030E8000001A6EF0FF0056E0001A551D8A40ED07F
:1030F800720E946F010E956F720E926F010E936FA0
:10310800000E916F000E906F010EA56F91BF06D053
:10311800915121E1200E905DD8B0120092C0D9FFE4
:1031280093C0DAFF05C0DFFF924B932B720E016E3E
:10313800010E026E200E0126000E02220150925D41
:1031480002509359D8A004D0720E926F010E936F5B
:10315800904B912B12001200026EB60E0224D96E0B
:10316800DA6A010EDA22DF50016E01460146C250CA
:103178000118830B0118C26E00F000F000F000F097
:103188000F01458300F000F000F000F00F014593B7
:103198004493448100F000F000F000F000F000F0EB
:1031A80000F000F000F000F000F000F00F01449192
:1031B800C282C2B2FED7380E0224D96EDA6A010E74
:1031C800DA22C4CFDFFF1200000E066E02AE06D070
:1031D800016C021ED8B0022A010E066E04AE04D09D
:1031E800036C041ED8B0042A03500410D8B418D0B5
:1031F800010E056E04D0D89003360436052A04AEB5
:10320800FAD70350015C04500258D8A004D00350E8
:10321800015E0450025AD89004320332052EF1D7C9
:103228000650D8B404D0016C021ED8B0022A01C0DE
:1032380001F002C002F012000001AC51D8B404D071
:10324800000EAC6F50EC0CF00001AB51D8B413D0A9
:10325800000EAB6FF2EC1DF0C8EC1FF0FF0E01146E
:1032680000018E6F030E02148F6F54EC10F06BEC9C
:1032780008F081EC1CF00001AA51D8B41200000E2D
:10328800AA6F8B8068EC1FF000019F2B040E9F191A
:10329800D8A41200000E9F6F000E83BA010E5D6E57
:1032A800A7EC1DF012000F01459F459B45994597D6
:1032B800459545934591449F9F0E44174489445131
:1032C800F30B0409446F030E4313030E4317000E58
:1032D800C26E000EC16EC09EC050F80B0109C06ED0
:1032E800C050C70B1009C06E000EC36E000EC46E2E
:1032F800010EC26E458F000E0101C76F960EC66F94
:10330800000E0001976F000E966F929C12001468D1
:10331800010E156E29D00FC0D9FF10C0DAFFDF509B
:10332800136E1350076E086AA5EC1BF00750166E53
:103338000F4A102A11C0F6FF12C0F7FF0800F55017
:10334800076E086AA5EC1BF00750176E114A122A7F
:1033580017501618D8B402D0000E156E1650D8B4EF
:1033680007D01750D8B404D014061428D8A4D3D73B
:1033780015501200400E076EC00E0514056EFF0EA4
:103388000614066E05C001F006C002F0B8EC1EF087
:10339800000EF86E0650F76E05C0F6FF09D003C0A0
:1033A800D9FF04C0DAFFDF50F56E034A042A0D0086
:1033B80007060728D8A4F3D705C0F6FFA68EA69C53
:1033C800A684A698F29E550EA76EAA0EA76EA68290
:1033D800F28EA6941200000E016E240E026EF40EF8
:1033E800036E000E046E0E50106E0F50116E126AAE
:1033F800136A020ED8901036113612361336E82E9C
:10340800F9D710C005F011C006F012C007F013C0BC
:1034180008F0FBEC17F0FF0E0124146EFF0E0220DB
:10342800156E080E706E900E716E240E726E14C0BA
:1034380075FF1550766E1200000E016E240E026E96
:10344800F40E036E000E046E0E50106E0F50116EC7
:10345800126A136A020ED8901036113612361336D5
:10346800E82EF9D710C005F011C006F012C007F019
:1034780013C008F0FBEC17F0FF0E0124146EFF0ECA
:103488000220156E080EB86E900EAB6E240EAC6E50
:1034980014C0AFFF1550B06E1200000E086E000E7B
:1034A800076E000E096E02C0D9FF03C0DAFF024A98
:1034B800032ADF506DEC1DF0066E0628D8B417D02D
:1034C80007C004F008C005F0043A053AF00E0516E6
:1034D80004500F0B0512F00E041606500424076E54
:1034E800000E0520086E092A030E0964DCD707C000
:1034F80002F008C003F0120001C007F002C008F093
:1035080014D00506D8A0060603C0D9FF04C0DAFF08
:10351800034A042A07C0E1FF08C0E2FF074A082A55
:10352800DFCFE7FFE750D8B40DD005500610D8B468
:1035380009D0E7D707C0D9FF08C0DAFF000EDF6E51
:10354800074A082A0506D8A006060528F3E1062832
:10355800D8B41200EFD7010E0E6EAE0E0C6E000E30
:103568000D6EAE0E016E000E026E7F0E046E800EA2
:10357800036E2A0E056E6AEC1EF00CC0D9FF0DC052
:10358800DAFFDE2805E1DE28D8A402D0000E0E6E90
:1035980015EC1CF00001D651011804E1D7510218AE
:1035A800D8B402D0000E0E6E0E501200000E096E36
:1035B800000E0A6E000E0B6E000E0C6E01A008D0F5
:1035C8000550092606500A2207500B2208500C22E3
:1035D800D8900536063607360836D89004320332B6
:1035E800023201320150021003100410D8A4E6D7A9
:1035F80009C001F00AC002F00BC003F00CC004F0CF
:1036080012000ED00A0E0618D8A407D00D0EB8EC7A
:103618001FF00A0EB8EC1FF003D00650B8EC1FF0EC
:103628000250046E0350056E024A032A04C0F6FFD6
:1036380005C0F7FFF86A050EF76403D00800F550D7
:1036480005D0F6CFE9FFF7CFEAFFEF50066E065038
:10365800D8B41200D7D7000E0C6E000E0B6E0950AE
:103668000A10D8B41CD0010E0D6E04D0D8900936BB
:103678000A360D2A0AAEFAD7D8900B360C360950FE
:10368800075C0A500858D8A005D00950075E0A50B0
:10369800085A0B80D8900A3209320D2EEDD70BC08C
:1036A80007F00CC008F01200000190519111D8B435
:1036B8001200A4A8120094C0D9FF95C0DAFFDF5009
:1036C800B2EC1FF00001944B952B720E026E010EA6
:1036D800036E200E0226000E03220250945D035052
:1036E8009559D8A004D0720E946F010E956F90076B
:1036F800D8A091071200046E04C003F003460346E5
:10370800C2500318830B0318C26E00F000F000F0DB
:1037180000F000F000F000F000F0C282C2B2FED764
:10372800C4CF05F0066A0550066E056AC350052425
:10373800056E000E0620066E05C001F006C002F0F8
:103748001200BF0E096EFF0E0A6E07C00BF008C00C
:103758000CF009500B260A500C220C5006E11A0EE8
:103768000B5CD8B002D0010E01D0000E0D6E0E6AAF
:103778000D500E10D8B406D0200E0710076E085052
:10378800086E120007C007F008C008F012008E0E7D
:10379800026E730E036E05EC1BF0D20E026E740EF1
:1037A800036E05EC1BF0680E026E740E036E05ECDA
:1037B8001BF0650E026E710E036E05EC1BF01A0EFF
:1037C800026E710E036E05EC1BF0A60E026E720EF1
:1037D800036E05EC1BF012009F0E096EFF0E0A6EB9
:1037E80007C00BF008C00CF009500B260A500C2239
:1037F8000C5006E11A0E0B5CD8B002D0010E01D0B5
:10380800000E0D6E0E6A0D500E10D8B405D05F0E66
:103818000714076E086A120007C007F008C008F00E
:103828001200000E056E000E046EAE0E066E000E3F
:10383800076E280E086E000E096E0DD006C0D9FF5F
:1038480007C0DAFFDF50036E03500426000E05227E
:10385800064A072A092A0850095CD8A0EFD7BA0EE9
:103868000418016EAB0E0518026E120003C005F0B5
:1038780004C006F00C0E076ED89006320532072EEB
:10388800FBD705501FEC1FF004501FEC1FF003C0BE
:1038980005F004C006F0040E076ED8900632053213
:1038A800072EFBD705501FEC1FF003500F0B1FEC22
:1038B8001FF012000F01459F00F000F000F000F02B
:1038C800000EC26E000EC16EC08EC050F80B050906
:1038D800C06EC050C70B1009C06E000EC36E000E3C
:1038E800C46E010EC26E93820F01398393883989A1
:1038F80093803981938A398B120000019C51D8A496
:1039080008D0310E9B650AD095EC12F0010E00012B
:1039180004D0C70E9A6502D0000E9C6F83B808D0F9
:10392800FA0E9B6102D0050E9B27000E9A6F1200BB
:10393800FA0E9A6102D0050E9A27000E9B6F1200AC
:10394800010E0001686F040E696F150E6A6FF70E9D
:103958000101C46F750EC56F000E5E6E949094924F
:10396800960E0F6E000E0E6E20EC1AF07A0E0F6E89
:10397800120E0E6EEFEC19F02FEC1FF057EC19F049
:10398800F28EF28C1200000E8D6E000E8C6E000E00
:10399800896E000E8A6E000E8B6E070E966E3F0EB5
:1039A800926E9368900E946EB70E956E000E0F018E
:1039B8003A6F3969000E3B6F070E3C6F2F0E386F58
:1039C8006168F19E8B848C961200AE0E5D24D96ED0
:1039D800DA6A000EDA22DF50276E09EC16F01BC0F7
:1039E80028F01CC029F000017C51281804E17D5101
:1039F8002918D8B4120028C006F029C007F02750AB
:103A08008BEC1DF028C07CF029C07DF012009E9040
:103A18000001FF51CF6EFEC0CEFFAC51D8A4A92B38
:103A2800010E6C27000E6D236E236F23010EAC6F01
:103A3800A82B040EA86504D0010EAB6F000EA86F6A
:103A4800A72B310EA7651200010EAA6F000EA76FF3
:103A5800120001C003F002C004F002D0014A022A99
:103A680001C0F6FF02C0F7FFF86A050EF76403D03D
:103A78000800F55005D0F6CFE9FFF7CFEAFFEF5081
:103A88000009D8A4EBD70350015C016E045002581A
:103A9800026E1200010E076E200E01180210D8B433
:103AA80014D0F70E036EFF0E046E01C005F002C0BD
:103AB80006F00350052604500622065004E1050EC0
:103AC800055CD8A002D0000E076E07C001F0026A9C
:103AD8001200016E2F0E016406D03A0E016003D069
:103AE8000150D00F1200400E016406D0470E01604D
:103AF80003D00150C90F1200600E016406D0670E92
:103B0800016003D00150A90F1200FF0E12000B6EC6
:103B18000B040F0BE0090C6E0C5077EC18F00650F4
:103B28007F0B77EC18F006C008F007C009F0070E05
:103B38000A6E0934093208320A2EFBD708507F0B67
:103B480077EC18F01200B00E5D24D96EDA6A000E18
:103B5800DA22DF50D8B412000001A351D8A4120011
:103B6800F00E77EC18F0730E77EC18F0300E77EC57
:103B780018F0F70E77EC18F0120020EE02F04C5017
:103B8800D9264D50DA22DECF4EF0DDCF4FF04EC0B1
:103B9800D9FF4FC0DAFF3F0EDE18D8A41200260E58
:103BA800026E7C0E036E05EC1BF012000D0EB8ECD5
:103BB8001FF0000E036E000E026E200EB8EC1FF010
:103BC800024A032A03BEF9D7035004E1200E025C1F
:103BD800D8A0F3D70D0EB8EC1FF012005EEC1CF065
:103BE8000B0E7FEC1BF001C0E4F002C0E5F00A0EFA
:103BF8007FEC1BF001C0E2F002C0E3F00D0E7FEC99
:103C08001BF001C084F002C085F01200E00E036EC4
:103C1800FF0E046E01C005F002C006F00350052631
:103C280004500622065006E15F0E055CD8B002D0AB
:103C3800010E01D0000E016E026A12009F0E036E83
:103C4800FF0E046E01C005F002C006F00350052601
:103C580004500622065006E11A0E055CD8B002D0C0
:103C6800010E01D0000E016E026A1200BF0E036E33
:103C7800FF0E046E01C005F002C006F003500526D1
:103C880004500622065006E11A0E055CD8B002D090
:103C9800010E01D0000E016E026A1200D00E036EF2
:103CA800FF0E046E01C005F002C006F003500526A1
:103CB80004500622065006E10A0E055CD8B002D070
:103CC800010E01D0000E016E026A1200000EF86E9D
:103CD8000450F76E03C0F6FF09D0090001C0D9FFF0
:103CE80002C0DAFFF5CFDFFF014A022A05060528E0
:103CF800D8B41200F2D72D232D622D2D232D622D3D
:103D0800622D4343444545464647414142420001EE
:103D180002030405060708090D3E20009D906CC0AB
:103D280005F06DC006F06EC007F06FC008F09D800A
:103D380005C001F006C002F007C003F008C004F097
:103D4800120001500302F3CF05F0F4CF06F0015042
:103D58000402F350062602500302F350062605C05B
:103D680001F006C002F01200000EF86E0250F76E65
:103D780001C0F6FFA68EA69CA684A688F29E550EC4
:103D8800A76EAA0EA76EA682F28EA6941200086EDF
:103D980008040F0BB009096E095077EC18F00650AB
:103DA8007F0B77EC18F007507F0B77EC18F01200B8
:103DB800086E08040F0B9009096E095077EC18F08B
:103DC80006507F0B77EC18F007507F0B77EC18F054
:103DD80012000001A251036E046A070ED890033640
:103DE8000436E82EFBD7A1510324016E000E0420EF
:103DF800026E120015EC1CF001C0D6F002C0D7F01C
:103E0800AE0E036E000E046E7F0E066E800E056EFB
:103E1800BEEC19F01200076E07040F0B8009086E3C
:103E2800085077EC18F006507F0B77EC18F0000E6E
:103E380077EC18F01200026E0F0E02160A0E0260DE
:103E480005D00250300FB8EC1FF012000250370FA7
:103E5800B8EC1FF01200540ECD6E000ECC6EE00EC2
:103E6800CF6EC00ECE6ECECFFEF0CFCFFFF09E90BD
:103E78009D80CD801200066E06040F0BB009076EF8
:103E8800075077EC18F0780E77EC18F0000E77EC06
:103E980018F01200046E380E0424D96EDA6A010E86
:103EA800DA22DF50036E0350016E026A1200076EB9
:103EB80007040F0BC009086E085077EC18F006507D
:103EC8007F0B77EC18F01200E90E00018C5D030EF1
:103ED8008D59D8A01200E2C080F0E3C081F0120032
:103EE800000E9EBA010E016EABA204D0AB9EAB8E43
:103EF800000E016E01501200000E026E74EC1FF0ED
:103F08000009D8A4AECF02F002501200D3EC1FF083
:103F1800C7EC1CF0A5EC1FF02FEC1FF01200036E8D
:103F280003380F0B1FEC1FF003501FEC1FF012009B
:103F3800000EF86E0250F76E01C0F6FF0800F5504B
:103F48001200720ED36E040ED26E000E9B6E12001B
:103F5800016E01C0C6F10101C76B1200016EA4A871
:103F6800FED701C073FF1200016E9EA8FED701C0E4
:103F7800ADFF1200E4C001F0E5C002F0120084C0F9
:103F880001F085C002F0120096C001F097C002F05F
:103F98001200D5EC1FF012000001A3511200D09EB0
:0A3FA8001200FF0012005D5012002D
:1070D00000FB7E47823BC47E479637F37E473C23C6
:1070E000E37E473C23547E47B22CEC7E47642ECF90
:1070F0007E47680AB17E47062AA47E479A3FDE7E15
:1071000047E61DA37E416A16727E412600F97E0085
:107110000000434B48454A11141775736167652099
:10712000696E666F726D6174696F6E3B20206F745B
:10713000686572776973652C206120636F6D6D617E
:107140006E6420776869636820657870656374731E
:10715000206174206C65617374206F6E65206172AC
:10716000672C200A00536F6D6520636F6D6D616E33
:1071700064732C207768656E20656E746572656433
:107180002077697468207468652073776974636810
:1071900020272D68656C7027206F7220273F272CD1
:1071A0002073686F7720636F6D6D616E64200A00D5
:1071B0004578616D706C653A20202070726573654A
:1071C000742033203D2036372020207C20536574E6
:1071D000204D494449205072676D20363720666F34
:1071E00072205072657365742033200A0A0055734B
:1071F0006167652023323A2020636F6E66696720DD
:107200003C706172616D3E205B3D5D203C76616C3F
:1072100075653E202020207C2053657420706172AB
:10722000616D2E2076616C7565200A004578616D70
:10723000706C653A202020636F6E6669672020635A
:1072400068616E203D2031302020207C2053657401
:10725000204D696469205478206368616E6E656CA6
:10726000203D203130200A0A0055736167652023D4
:10727000323A2020707265736574203C7072652309
:107280003E205B3D5D203C76616C75653E20202094
:10729000207C20536574205072657365742076617C
:1072A0006C7565200A007768656E20656E7465727E
:1072B000656420776974686F757420616E792C201D
:1072C00073686F756C6420616C736F2073686F777F
:1072D00020636F6D6D616E642075736167652E202C
:1072E0000A0055736167652023313A2020636F6E71
:1072F000666967205B2B5D2020207C20204C697311
:107300007420636F6E6669672E20706172616D27ED
:1073100073205B2B206D6F72655D0A0A002A204E78
:107320006F74652D4F6E20646973706C6179206194
:1073300063746976617465642E20456E746572208D
:107340002764696167202D6E2720746F2063616E4A
:1073500063656C2E0A0055736167652023313A20FE
:1073600020707265736574202020207C204C697326
:107370007420507265736574204D494449205072E1
:10738000676D206E756D62657273200A0A00436F27
:107390006D6D616E6420617267277320616E642079
:1073A0006F7074696F6E73206D75737420626520E1
:1073B00073657061726174656420627920737061B5
:1073C0006365732E0A0053656E64696E6720537996
:1073D000732E45782E20274944454E5427206D733F
:1073E0006720636F6E74696E756F75736C79207446
:1073F0006F204D494449204F5554200A0020202039
:107400007768657265203C706172616D3E206973BA
:107410002061206E69636B6E616D65206C697374A9
:1074200065642062792075736167652023312E20A1
:107430000A0A00766961204D494449207472616EE0
:10744000736D69742071756575652E20204D6573A7
:107450007361676520696E74657276616C2069730B
:1074600020356D732E200A00546F20726563616CA5
:107470006C20612070726576696F75736C79206518
:107480006E746572656420636F6D6D616E642C202F
:10749000686974204374726C2B522E0A0052657313
:1074A000746F72652070657273697374656E742091
:1074B0006461746120746F20666163746F727920F7
:1074C00064656661756C74733F2028592F4E293AA4
:1074D0002000546F206C69737420617661696C615F
:1074E000626C6520636F6D6D616E64732C207479BE
:1074F000706520276C6327206F722027636D64738B
:10750000272E0A0044756D70206120706167652028
:107510002832353620627974657329206F662066BB
:107520006C6173682070726F6772616D206D656D3C
:107530006F72792E0A00202D74203A20204D494484
:10754000492054582064726976657220746573749A
:10755000202873656E642030783046206E6F6E2D63
:1075600073746F70290A002D2D2D2D2D2D2D20487F
:10757000616E6473657420506172616D65746572CB
:1075800073202D2D2D2D2D2D2D2D2D2D2D2D2D2DF2
:107590002D2D2D2D2D2D0A00202D6E203A2020443A
:1075A000652F6163746976617465204E6F74652D13
:1075B0004F6E20646973706C617920286172672056
:1075C0003D20307C31290A002020207768657265D3
:1075D000203C707265233E206973207468652050DA
:1075E0007265736574206E756D6265722028312E28
:1075F0002E3829200A0A004261756572207B5245A7
:107600004D497D2048616E64736574206D6B322036
:107610002D2D205365727669636520506F7274203A
:10762000434C49200A0053656E64696E67203078C8
:10763000304620636F6E74696E756F75736C792058
:10764000746F204D49444920545820554152542EBE
:107650002E2E0A00202D71203A20204D4944492029
:1076600054582051756575652074657374202849D8
:1076700044454E54206D7367204020356D73290AB0
:1076800000202D70203A202053686F77204D494408
:10769000492050726573737572652064617461204E
:1076A00076616C75652028313462290A00212045F5
:1076B00072726F723A20436F6E66696720646174FC
:1076C0006120636F727275707465642028646566EA
:1076D00061756C746564290A0021204572726F72AD
:1076E0003A20436F6E666967206461746120657833
:1076F000636565647320626C6F636B2073697A6580
:107700000A00202D65203A202053686F772073747B
:1077100061727475702073656C662D746573742066
:107720004572726F7273200A0020204D69646920CF
:1077300045787072657373696F6E20496E746572F7
:1077400076616C2028352E2E3530206D73290A0085
:107750002D2D2077686572652061646472206973DD
:10776000207374617274206164647265737320287D
:10777000686578292E0A00202D6D203A2020536854
:107780006F77204D6F646520537769746368206953
:107790006E707574207374617465200A005573618E
:1077A00067653A20206469616720203C6F707469C6
:1077B0006F6E3E20205B617267315D202E2E2E2081
:1077C0000A00202053656E642031342D62697420D4
:1077D00045787072657373696F6E2064617461209F
:1077E00028302C31290A0020204D69646920457811
:1077F0007072657373696F6E204343206E756D629E
:1078000065722028302E2E3331290A0052454D4909
:1078100020616C7465726E617465202D2D2070611D
:1078200064204C4834207368617270656E730A007E
:107830002020546F7563682053656E73652054680B
:10784000726573686F6C6420286D61782E323530F4
:10785000290A0020204D6964692050726F672E202C
:107860004368616E676520456E61626C65642028BF
:10787000302C31290A0020204D6964692053797326
:107880002E4578636C2E4D736720456E61626C6582
:10789000642028302C31290A002A2044656661754D
:1078A0006C7420636F6E66696775726174696F6E60
:1078B00020726573746F7265642E0A0052454D49DB
:1078C000207374616E64617264202D2D2070616478
:1078D0002052483520666C617474656E730A00210D
:1078E00020496E76616C69642070726573657420DE
:1078F0006F72204D494449207072676D2023200A21
:107900000020204D6F64756C6174696F6E20446552
:1079100061642D62616E6420286D61782E3530308F
:10792000290A0020205072657373757265205365B3
:107930006E736F72205370616E20286D61782E37E0
:107940003530290A0020205069746368204F66662C
:1079500073657420282B2F2D32342073656D697464
:107960006F6E6573290A0021204572726F723A208A
:107970004D6F64756C6174696F6E2053656E736FC3
:1079800072206661756C740A0020204D6F64756CFE
:107990006174696F6E204D6178696D756D20286D19
:1079A00061782E31303030290A004765726D616E82
:1079B00020666C7574652F7265636F7264657220E2
:1079C000656D756C6174696F6E0A00202D73203AC5
:1079D000202053686F77206E6F7465206F6E2F6F55
:1079E0006666205374617465200A0020204D6F6420
:1079F000756C6174696F6E2050616420456E6162C0
:107A00006C65642028302C31290A00202056656CD2
:107A10006F636974792053656E736520456E61628A
:107A20006C65642028302C31290A002120457272AF
:107A30006F723A2050726573737572652053656E6C
:107A4000736F72206661756C740A0020204D696442
:107A500069204261736963204368616E6E656C20C2
:107A600028312E2E313629200A00202050697463D7
:107A7000682042656E64205370616E20286D6178C5
:107A80002E31303030290A00202046696E67657239
:107A9000696E6720536368656D652028302C312C32
:107AA000322C33290A002120496E76616C696420EA
:107AB0006E69636B6E616D65206F722076616C75A7
:107AC000652E0A0020204C656761746F204D6F643D
:107AD0006520456E61626C65642028302C31290A6E
:107AE00000202050697463682042656E6420456EF2
:107AF00061626C65642028302C31290A0020204DF9
:107B00006F64652073776974636820696E7075743B
:107B10002073746174653A20002A204E6F207365CB
:107B20006C662D74657374206572726F72732E0AA1
:107B300000507265736574207C204D494449205083
:107B400072676D2023200A00486974205B457363C7
:107B50005D20746F20657869742E2E2E200A005FD8
:107B60005F5F5F5F5F5F5F5F5F5F5F5F5F5F5F5F25
:107B70005F5F5F5F0A005F5F5F5F5F5F5F7C5F5FAC
:107B80005F5F5F5F5F5F5F5F5F5F5F0A00606060B6
:107B9000606060607C6060606060606060606060C9
:107BA00060600A00486974205B4573635D20746FF0
:107BB00020717569742E200A0A0055736167653A51
:107BC000202064756D70205B616464725D200A0022
:107BD000536F7072616E6F2F44657363616E7420B2
:107BE000284335290A003F20556E646566696E6535
:107BF0006420636F6D6D616E642E0A002120496EF2
:107C000076616C696420636F6D6D616E642E200A0D
:107C100000486974205B4573635D20746F2065784C
:107C200069742E200A0055736167653A20202A2066
:107C30005B72656D61726B5D200A002A204E65776C
:107C40002076616C75652073617665643A20005515
:107C50004E444546494E454420286572726F72294C
:107C60000A0046696E676572696E672073636865AE
:107C70006D653A2000416C746F2F547265626C65BB
:107C800020284634290A004669726D7761726520A2
:107C900076657273696F6E20004772656174204269
:107CA00061737320284333290A000D0A2A204D43AB
:107CB00055207265736574202A0A00203A204D49C8
:107CC0004449205072676D203D20002073656D6926
:107CD000746F6E65732020202000506974636820E3
:107CE0004F66667365743A20004F46462F49444CF0
:107CF00045202830290A00207C20506164305F41F3
:107D000044433A2000207C2050726573737572657D
:107D10003A20002D2D2D2D2D2D2D204D6F64652009
:107D200000546F756368506164733A203078005076
:107D3000454E44494E47202831290A00504C4159AC
:107D4000494E47202832290A00207C204D6F647557
:107D50006C276E3A200054656E6F722028433429D8
:107D60000A004175672032362032303232004869CD
:107D7000676820283129200A003C6F7074696F6E93
:107D80003E200A004261737320284633290A004CC2
:107D90006F7720283029200A002A205072657365E9
:107DA0007420006368616E20202020007062656E80
:107DB00020202020007069746368202020006D6FEF
:107DC00064656E2020200074687265732020200096
:107DD0006578706E636320200066696E6773632048
:107DE000200070627370616E202000707273706189
:107DF0006E20200070726368656E20200076656CCE
:107E000073656E20200073797378656E2020006C96
:107E1000656761746F2020006D6F646D617820204C
:107E2000006578706E31346220006D6F6462616E3F
:107E30006420006578706E696E7420002020207CBC
:107E4000202020006578706E313462006D6F6462AE
:107E5000616E640064656661756C74006578706E4F
:107E6000696E74006578706E63630066696E67732F
:107E70006300636F6E6669670070627370616E00A5
:107E800070727370616E0070726368656E00766503
:107E90006C73656E0073797378656E006C656761ED
:107EA000746F00707265736574006D6F646D6178D6
:107EB000007761746368007069746368006D6F6453
:107EC000656E002D68656C7000746872657300647F
:107ED000696167006368616E007062656E00647559
:107EE0006D7000636D647300203A20007665720047
:107EF0002C20006C63002D790024002A000900006A
:020000040020DA
:08000000FFFFFFFFFFFFFFFF00
:020000040030CA
:0E000000FF281F3CFFBF81FF0FC00FE00F4025
:00000001FF
