:020000040000FA
:040000002EEF00F0EF
:100008005F82F0A60AEF00F00CEF00F015EF00F0A9
:10001800F0A011EF00F013EF00F015EF00F02CEF57
:1000280000F0F2AC1AEF00F01CEF00F02CEF00F03B
:100038009DA021EF00F023EF00F02CEF00F09EA030
:1000480028EF00F02AEF00F02CEF00F07BEC1FF017
:100058005F92110045EF20F0000E0001D16F20EEF5
:1000680002F04C50D9264D50DA22DECFF6FFDECF13
:10007800F7FF050EF76403D00800F55005D0F6CF5A
:10008800E9FFF7CFEAFFEF503F0AD8A44EEF00F0A0
:1000980050EF00F06AEF00F08D0E456E730E466E5D
:1000A800C3EC20F0300E456E710E466EC3EC20F0A6
:1000B8008A0E456E720E466EC3EC20F0F20E456E47
:1000C800700E466EC3EC20F058EF05F04A044B1052
:1000D800D8A471EF00F073EF00F001EF02F07E0E8C
:1000E800456E7D0E466EC3EC20F00001AC511B6ED0
:1000F8001C6A1D6A1E6A040E1F6E9EEC0FF0AB0E82
:10010800456E790E466EC3EC20F0E10E456E7D0E0D
:10011800466EC3EC20F00001AD511B6E1C6A1D6ACF
:100128001E6A040E1F6E9EEC0FF0F50E456E770EDC
:10013800466EC3EC20F0CF0E456E7D0E466EC3ECC6
:1001480020F00001AE511B6E1C6A1D6A1E6A040E67
:100158001F6E9EEC0FF0D20E456E770E466EC3EC06
:1001680020F0900E456E7D0E466EC3EC20F0000127
:10017800AF511B6E1C6A1D6A1E6A040E1F6E9EEC30
:100188000FF0410E456E770E466EC3EC20F0870ED9
:10019800456E7D0E466EC3EC20F00001B0511B6E1B
:1001A8001C6A1D6A1E6A040E1F6E9EEC0FF0660E16
:1001B800456E770E466EC3EC20F0F30E456E7D0E4D
:1001C800466EC3EC20F00001B1511B6E1C6A1D6A1B
:1001D8001E6A040E1F6E9EEC0FF08B0E456E770E96
:1001E800466EC3EC20F0EA0E456E7D0E466EC3ECFB
:1001F80020F00001B2511B6E1C6A1D6A1E6A040EB3
:100208001F6E9EEC0FF0D10E456E760E466EC3EC57
:1002180020F0610E456E7D0E466EC3EC20F00001A5
:10022800B3511B6E1C6A1D6A1E6A040E1F6E9EEC7B
:100238000FF01C0E456E770E466EC3EC20F0990E3B
:10024800456E7D0E466EC3EC20F00001B4511B6E66
:100258001C6A1D6A1E6A040E1F6E9EEC0FF0800E4B
:10026800456E7A0E466EC3EC20F0D80E456E7D0EB4
:10027800466EC3EC20F00001B5511B6E1C6A1D6A66
:100288001E6A040E1F6E9EEC0FF08B0E456E790EE3
:10029800466EC3EC20F0C60E456E7D0E466EC3EC6E
:1002A80020F00001B6511B6E1C6A1D6A1E6A040EFE
:1002B8001F6E9EEC0FF0B90E456E7A0E466EC3ECBB
:1002C80020F0050E456E7E0E466EC3EC20F0000150
:1002D800B7511B6E1C6A1D6A1E6A040E1F6E9EECC7
:1002E8000FF00B0E456E7B0E466EC3EC20F0AB0E86
:1002F800456E7D0E466EC3EC20F00001B8511B6EB2
:100308001C6A1D6A1E6A040E1F6E9EEC0FF0080E12
:10031800456E7A0E466EC3EC20F0A20E456E7D0E39
:10032800466EC3EC20F00001B9511B6E1C6A1D6AB1
:100338001E6A040E1F6E9EEC0FF0AF0E456E770E10
:10034800466EC3EC20F0BD0E456E7D0E466EC3ECC6
:1003580020F0C2C01BF0C3C01CF01D6A1E6A040E48
:100368001F6E9EEC0FF0A10E456E780E466EC3EC24
:1003780020F0B40E456E7D0E466EC3EC20F0C4C06E
:100388001BF0C5C01CF01D6A1E6A040E1F6E9EEC91
:100398000FF0630E456E7A0E466EC3EC20F0FC0E2D
:1003A800456E7D0E466EC3EC20F0C6C01BF0C7C07C
:1003B8001CF01D6A1E6A040E1F6E9EEC0FF06B0E79
:1003C800456E790E466EC3EC20F00E0E456E7E0E1D
:1003D800466EC3EC20F0C8C01BF0C9C01CF01D6AF3
:1003E8001E6A040E1F6E9EEC0FF07F0E456E780E8F
:1003F800466EC3EC20F058EF05F04BBE0DEF02F04F
:100408004B5009E1030E4A5CD8A00DEF02F00FEF44
:1004180002F050EF05F0D20E076E000E086E20EEC7
:1004280002F04C50D9264D50DA22DECF09F0DDCF4C
:100438000AF0000E0C6E080E0B6E8DEC1CF0000E10
:100448000001D96F20EE04F04C50D9264D50DA2225
:10045800DECFF6FFDECFF7FF050EF76403D0080006
:10046800F55005D0F6CFE9FFF7CFEAFFEF503D0A88
:10047800D8A441EF02F043EF02F05FEF02F0040E60
:100488004A184B10D8A44BEF02F04DEF02F05FEF83
:1004980002F020EE06F04C50D9264D50DA22DECF7D
:1004A80008F0DDCF09F0B8EC10F008C0DCF009C0A6
:1004B800DDF06FEF02F020EE04F04C50D9264D50DD
:1004C800DA22DECF08F0DDCF09F0B8EC10F008C072
:1004D800DCF009C0DDF0D20E0F6E000E106EDA0EE1
:1004E800116E7E0E126EE6EC1BF00009D8B47FEF99
:1004F80002F081EF02F09AEF02F00001DC51DD1109
:10050800D8B489EF02F08BEF02F09AEF02F0DD51D8
:1005180007E1110EDC5DD8B094EF02F096EF02F01F
:100528009AEF02F0DCC0ACF02DEF05F0D20E0F6EA2
:10053800000E106E6F0E116E7E0E126EE6EC1BF042
:100548000009D8B4AAEF02F0ACEF02F0BCEF02F059
:100558000001DD5107E1020EDC5DD8B0B6EF02F014
:10056800B8EF02F0BCEF02F0DCC0ADF02DEF05F003
:10057800D20E0F6E000E106E610E116E7E0E126E90
:10058800E6EC1BF00009D8B4CCEF02F0CEEF02F095
:10059800DEEF02F00001DD5107E1020EDC5DD8B0AC
:1005A800D8EF02F0DAEF02F0DEEF02F0DCC0AFF0D5
:1005B8002DEF05F0D20E0F6E000E106EB10E116EFB
:1005C8007E0E126EE6EC1BF00009D8B4EEEF02F0D6
:1005D800F0EF02F0FEEF02F00001DD5107E1200E1E
:1005E800DC5DD8B0FAEF02F0FCEF02F0FEEF02F0AB
:1005F800DAEF02F0D20E0F6E000E106EAB0E116E17
:100608007E0E126EE6EC1BF00009D8B40EEF03F074
:1006180010EF03F020EF03F00001DD5107E1200E99
:10062800DC5DD8B01AEF03F01CEF03F020EF03F005
:10063800DCC0B0F02DEF05F0D20E0F6E000E106E7C
:10064800840E116E7E0E126EE6EC1BF00009D8B413
:1006580030EF03F032EF03F04DEF03F00001DD510E
:1006680009E1050EDC5DD8A03CEF03F03EEF03F096
:100678004DEF03F0DD5107E1330EDC5DD8B047EFF5
:1006880003F049EF03F04DEF03F0DCC0B1F02DEFBC
:1006980005F0D20E0F6E000E106E7D0E116E7E0EDE
:1006A800126EE6EC1BF00009D8B45DEF03F05FEFC3
:1006B80003F07AEF03F00001DD5109E10A0EDC5D79
:1006C800D8A069EF03F06BEF03F07AEF03F0DD5188
:1006D80007E1650EDC5DD8B074EF03F076EF03F048
:1006E8007AEF03F0DCC0B2F02DEF05F0D20E0F6EFA
:1006F800000E106E370E116E7E0E126EE6EC1BF0B9
:100708000009D8B48AEF03F08CEF03F09CEF03F0F4
:100718000001DD5107E1020EDC5DD8B096EF03F071
:1007280098EF03F09CEF03F0DCC0B3F02DEF05F079
:10073800D20E0F6E000E106E920E116E7E0E126E9D
:10074800E6EC1BF00009D8B4ACEF03F0AEEF03F011
:10075800BEEF03F00001DD5107E1020EDC5DD8B009
:10076800B8EF03F0BAEF03F0BEEF03F0DCC0B7F068
:100778002DEF05F0D20E0F6E000E106E3E0E116EAC
:100788007E0E126EE6EC1BF00009D8B4CEEF03F033
:10079800D0EF03F0E0EF03F00001DD5107E1020EB6
:1007A800DC5DD8B0DAEF03F0DCEF03F0E0EF03F044
:1007B800DCC0B8F02DEF05F0D20E0F6E000E106EF3
:1007C800B70E116E7E0E126EE6EC1BF00009D8B45F
:1007D800F0EF03F0F2EF03F002EF04F00001DD5157
:1007E80007E1020EDC5DD8B0FCEF03F0FEEF03F08A
:1007F80002EF04F0DCC0B4F02DEF05F0D20E0F6E5E
:10080800000E106E5A0E116E7E0E126EE6EC1BF084
:100818000009D8B412EF04F014EF04F024EF04F048
:100828000001DD5107E1020EDC5DD8B01EEF04F0D7
:1008380020EF04F024EF04F0DCC0B6F02DEF05F053
:10084800D20E0F6E000E106E680E116E7E0E126EB6
:10085800E6EC1BF00009D8B434EF04F036EF04F0EE
:1008680046EF04F00001DD5107E1020EDC5DD8B06F
:1008780040EF04F042EF04F046EF04F0DCC0B5F0BE
:100888002DEF05F0D20E0F6E000E106EBD0E116E1C
:100898007E0E126EE6EC1BF00009D8B456EF04F099
:1008A80058EF04F073EF04F00001DD5109E1320E56
:1008B800DC5DD8A062EF04F064EF04F073EF04F09D
:1008C800DD5107E1FB0EDC5DD8B06DEF04F06FEF92
:1008D80004F073EF04F0DCC0B9F02DEF05F0D20E90
:1008E8000F6E000E106E530E116E7E0E126EE6EC39
:1008F8001BF00009D8B483EF04F085EF04F0A2EFF1
:1009080004F00001DD5109E1640EDC5DD8A08FEF31
:1009180004F091EF04F0A2EF04F0BD0EDC5D020ECE
:10092800DD59D8B09AEF04F09CEF04F0A2EF04F080
:10093800DCC0C2F0DDC0C3F02DEF05F0D20E0F6EA3
:10094800000E106E4C0E116E7E0E126EE6EC1BF051
:100958000009D8B4B2EF04F0B4EF04F0D1EF04F01A
:100968000001DD5109E1640EDC5DD8A0BEEF04F0A2
:10097800C0EF04F0D1EF04F0EF0EDC5D020EDD599C
:10098800D8B0C9EF04F0CBEF04F0D1EF04F0DCC02D
:10099800C4F0DDC0C5F02DEF05F0D20E0F6E000ECD
:1009A800106E8B0E116E7E0E126EE6EC1BF00009B7
:1009B800D8B4E1EF04F0E3EF04F000EF05F0000134
:1009C800DD5109E1640EDC5DD8A0EDEF04F0EFEF36
:1009D80004F000EF05F0EF0EDC5D020EDD59D8B033
:1009E800F8EF04F0FAEF04F000EF05F0DCC0C6F011
:1009F800DDC0C7F02DEF05F0D20E0F6E000E106EA1
:100A0800270E116E7E0E126EE6EC1BF00009D8B4AC
:100A180010EF05F012EF05F024EF05F0F50E0001D8
:100A2800DC5D010EDD59D8B01CEF05F01EEF05F0B6
:100A380024EF05F0DCC0C8F0DDC0C9F02DEF05F0EB
:100A4800010E0001D16F450E456E7A0E466EC3EC5D
:100A580020F00001D151D8A434EF05F036EF05F0AD
:100A680058EF05F083EC27F07A0E456E7C0E466E43
:100A7800C3EC20F0DCC01BF0DDC01CF01D6A1E6A50
:100A8800040E1F6E9EEC0FF0490E456E740E466EF6
:100A9800C3EC20F058EF05F0F10E456E7A0E466E65
:100AA800C3EC20F058EF05F01200000120EE02F030
:100AB800D351D926D451DA22DECFD5F0DDCFD6F006
:100AC800010ED527000ED623D5C0F6FFD6C0F7FFF6
:100AD800F86A050EF76403D00800F55005D0F6CF84
:100AE800E9FFF7CFEAFFEF500001D76FD751076E44
:100AF800086A51EC23F007500001D96FD105D211D3
:100B0800D8B489EF05F08BEF05F0A8EF05F020EEDB
:100B180002F0D351D926D451DA22DECFF6FFDECF48
:100B2800F7FF050EF76403D00800F55005D0F6CF9F
:100B3800E9FFF7CFEAFFEF503F0AD8A4A6EF05F088
:100B4800A8EF05F07BEF08F0F70E456E760E466EBF
:100B5800C3EC20F04B0E456E7D0E466EC3EC20F0C4
:100B6800AB0E456E760E466EC3EC20F0840E456ED5
:100B7800760E466EC3EC20F0790E456E740E466E06
:100B8800C3EC20F0B40E456E750E466EC3EC20F033
:100B98004B0E456E740E466EC3EC20F0A70E456EE4
:100BA800740E466EC3EC20F09D0E456E7A0E466EAE
:100BB800C3EC20F05C0E456E750E466EC3EC20F05B
:100BC8004B0E456E790E466EC3EC20F0880E456ECE
:100BD800750E466EC3EC20F0340E456E760E466EEA
:100BE800C3EC20F0B9EF08F020EE04F0D351D92679
:100BF800D451DA22DECFF6FFDECFF7FF050EF76419
:100C080003D00800F55005D0F6CFE9FFF7CFEAFF8B
:100C1800EF500001D56FD551076E086A81EC23F0BB
:100C280007500001E16F310EE119D8B41EEF06F04C
:100C380020EF06F029EF06F0480EE119D8A427EFB7
:100C480006F029EF06F02AEF06F08B84300EE11942
:100C5800D8B431EF06F033EF06F03CEF06F04C0E57
:100C6800E119D8A43AEF06F03CEF06F0B9EF08F026
:100C78008B94B9EF08F0300E456E750E466EC3ECD6
:100C880020F0270E456E7A0E466EC3EC20F0290E32
:100C9800456E730E466EC3EC20F0870E456E7B0ED4
:100CA800466EC3EC20F0F29E898C00F000F000F054
:100CB80000F000F000F000F000F000F000F000F0AC
:100CC80000F000F000F000F000F000F000F000F09C
:100CD80000F0899C00F000F000F000F000F000F057
:100CE80000F000F000F000F000F000F058EF06F01F
:100CF800A351D8A482EF06F084EF06F08AEF06F03D
:100D0800580E456E7B0E466EC3EC20F00001A3A181
:100D180090EF06F092EF06F098EF06F0C30E456EDE
:100D2800780E466EC3EC20F00001A3A59EEF06F0F6
:100D3800A0EF06F0A6EF06F0250E456E7B0E466E78
:100D4800C3EC20F00001A3A7ACEF06F0AEEF06F06D
:100D5800B9EF08F0D50E456E7A0E466EC3EC20F05A
:100D6800B9EF08F0F4EC26F001C060F002C061F0C1
:100D780003C062F004C063F0000E0001A66FC7EF65
:100D880006F0EEEC1EF0C80E00016025D56F000ECF
:100D98006121D66F000E6221D76F000E6321D86FD4
:100DA800F4EC26F00001D551015CD6510258D75118
:100DB8000358D8510458D8A0E4EF06F0E6EF06F03F
:100DC800C5EF06F0A6C001F0026A000E046E020E1E
:100DD800036ECAEC1AF001500001DA6F3F0E456E3F
:100DE8007B0E466EC3EC20F00001DA511B6E1C6AC4
:100DF8001D6A1E6A010E1F6E9EEC0FF0490E456EAD
:100E0800740E466EC3EC20F0B9EF08F02DEC27F015
:100E180001C01BF002C01CF01D6A1E6A050E1F6E81
:100E28009EEC0FF0490E456E740E466EC3EC20F032
:100E3800B9EF08F059EC28F001C0DFF002C0E0F08B
:100E48000001DF51E011D8A42CEF07F02EEF07F0D6
:100E580036EF07F0D40E456E7C0E466EC3EC20F0DC
:100E6800B9EF08F0DF05E011D8A43DEF07F03FEF38
:100E780007F047EF07F00C0E456E7D0E466EC3EC8B
:100E880020F0B9EF08F0020EDF19E011D8A44FEFF7
:100E980007F051EF07F059EF07F0190E456E7D0E78
:100EA800466EC3EC20F0B9EF08F08E0E456E7C0E4E
:100EB800466EC3EC20F0B9EF08F0AC0E036E000EDE
:100EC800046E7F0E066EC00E056E79EC21F0000EE2
:100ED8004B6E020E4A6ED70E4C6E010E4D6E42ECF2
:100EE80016F0B9EF08F00101E351D8B47EEF07F02E
:100EF80081EF07F0010E82EF07F0000EE36FB9EF04
:100F080008F0000EDB6FDFEC26F0D50E456E740E90
:100F1800466EC3EC20F03C0E456E7C0E466EC3EC6C
:100F280020F0A8EF07F00F0E07EC28F050EC27F0A0
:100F38000009D8B4A2EF07F0A4EF07F0A8EF07F074
:100F480094EC27F00001DB6F1B0E0001DB19D8A41D
:100F5800B0EF07F0B2EF07F097EF07F05DEC28F07D
:100F6800B9EF08F0000EDC6FDFEC26F0530E456E8B
:100F7800720E466EC3EC20F0C00E456E720E466EC1
:100F8800C3EC20F09E0E456E7B0E466EC3EC20F03F
:100F9800F4EC26F001C060F002C061F003C062F01A
:100FA80004C063F01CEF08F0050E6025D56F000E35
:100FB8006121D66F000E6221D76F000E6321D86FB2
:100FC800F4EC26F00001D551015CD6510258D751F6
:100FD8000358D8510458D8A0F4EF07F0F6EF07F0FB
:100FE8000CEF08F0F00E5BEC1EF0730E5BEC1EF0DD
:100FF800300E5BEC1EF0F70E5BEC1EF0F4EC26F006
:1010080001C060F002C061F003C062F004C063F088
:10101800B0EC21F050EC27F00009D8B416EF08F036
:1010280018EF08F01CEF08F094EC27F00001DC6FD3
:101038001B0E0001DC19D8A424EF08F026EF08F0F5
:10104800D8EF07F0B2EF07F020EE04F0D351D9261D
:10105800D451DA22DECF08F0DDCF09F0B8EC10F079
:1010680008C0DDF009C0DEF0030E0001D119D2116D
:10107800D8A441EF08F043EF08F050EF08F0DD5135
:10108800DE11D8B44AEF08F04CEF08F050EF08F042
:10109800DDC0E4F1DEC0E5F1DFEC26F0DF0E456EE1
:1010A800750E466EC3EC20F0E4C11BF0E5C11CF0E0
:1010B800000E1CBEFF0E1D6E1E6E010E1F6E9EECF6
:1010C8000FF0560E456E7D0E466EC3EC20F05C0E9A
:1010D800456E760E466EC3EC20F0B9EF08F0CA0EE6
:1010E800456E790E466EC3EC20F0B9EF08F00001AA
:1010F800D951D56FD66BD651000AD8B486EF08F00F
:1011080073EF08F0D551630AD8B4F8EF05F0070A71
:10111800D8B43FEF06F0010AD8B47CEF06F0030A12
:10112800D8B461EF07F00E0AD8B477EF07F0050AD4
:10113800D8B485EF07F0020AD8B4B6EF06F01F0A54
:10114800D8B40AEF07F0010AD8B4B6EF07F0020ADC
:10115800D8B41EEF07F0050AD8B428EF08F00E0A35
:10116800D8B4B2EF07F073EF08F01200000E0001D8
:10117800EA6F000EEB6F5A0E966F010E976F000E16
:10118800936F000E926F000EF26F000EF16FE00E7B
:10119800DE6FFF0EDF6F96C0D9FF97C0DAFFDF5012
:1011A800E06FE16BDE51E027DF51E123E1510AE115
:1011B8005F0EE05DD8A0E3EF08F0E6EF08F0010E5F
:1011C800E7EF08F0000EE26FE36BE251E311D8A4F9
:1011D800F0EF08F0F2EF08F0F6EF08F0B4EF09F0DE
:1011E800964B972B96C0D9FF97C0DAFF200EDE18D2
:1011F800D8B401EF09F003EF09F0F4EF08F0E00EBE
:10120800DE6FFF0EDF6F96C0D9FF97C0DAFFDF50A1
:10121800E06FE16BDE51E027DF51E123E1510AE1A4
:101228005F0EE05DD8A01BEF09F01EEF09F0010E7C
:101238001FEF09F0000EE46FE56BE451E511D8A447
:1012480028EF09F02AEF09F02CEF09F0B4EF09F0C4
:10125800D890F135D96EF235DA6EA40ED926010E82
:10126800DA2296C0DEFF97C0DDFF924B932B64EF26
:1012780009F0E00EDE6FFF0EDF6FEC51E06FE16BFF
:10128800DE51E027DF51E123E1510AE15F0EE05D25
:10129800D8A051EF09F054EF09F0010E55EF09F00D
:1012A800000EE66FE76BE651E711D8A45EEF09F090
:1012B80060EF09F062EF09F073EF09F0964B972B96
:1012C80096C0D9FF97C0DAFFDF50EC6F200EEC19FB
:1012D800D8A471EF09F073EF09F03DEF09F0E00EC3
:1012E800DE6FFF0EDF6F96C0D9FF97C0DAFFDF50C1
:1012F800E06FE16BDE51E027DF51E123E1510AE1C4
:101308005F0EE05DD8A08BEF09F08EEF09F0010EBB
:101318008FEF09F0000EE86FE96BE851E911D8A4E6
:1013280098EF09F09AEF09F09CEF09F0B4EF09F093
:1013380096C0D9FF97C0DAFF000EDF6E964B972B49
:10134800F14BF22BF2BFB2EF09F0F25109E1080EAE
:10135800F15DD8A0B2EF09F0B4EF09F0CBEF08F0D7
:10136800000EF26F000EF16FF1C001F0F2C002F052
:10137800000E046E050E036E07EC27F0690E0124BB
:10138800F66E700E0220F76E0900F5CFDEF0090048
:10139800F5CFDFF0DEC0F6FFDFC0F7FF0800F5503D
:1013A800240AD8A4DAEF09F0DCEF09F0DEEF09F03F
:1013B8001CEF0AF0A4C10FF0A5C110F0F1C001F0B4
:1013C800F2C002F0000E046E050E036E07EC27F063
:1013D800690E0124F66E700E0220F76E0900F5CF33
:1013E80011F00A00F5CF12F0E6EC1BF00009D8B4B2
:1013F80000EF0AF002EF0AF00BEF0AF0010E00010D
:10140800EA6FF1C0EDF0F2C0EEF01CEF0AF0000157
:10141800F14BF22BF2BF1AEF0AF0F25109E1FA0E82
:10142800F15DD8A01AEF0AF01CEF0AF0B8EF09F046
:10143800000E0001F26F000EF16FF1C001F0F2C072
:1014480002F0000E046E050E036E07EC27F09B0EEB
:101458000124F66E700E0220F76E0900F5CFDEF05B
:101468000900F5CFDFF0DEC0F6FFDFC0F7FF0800A8
:10147800F550240AD8A443EF0AF045EF0AF047EFE5
:101488000AF085EF0AF0A4C10FF0A5C110F0F1C071
:1014980001F0F2C002F0000E046E050E036E07ECB8
:1014A80027F09B0E0124F66E700E0220F76E0900DD
:1014B800F5CF11F00A00F5CF12F0E6EC1BF00009A9
:1014C800D8B469EF0AF06BEF0AF074EF0AF0010E76
:1014D8000001EB6FF1C0EDF0F2C0EEF085EF0AF01D
:1014E8000001F14BF22BF2BF83EF0AF0F25109E150
:1014F800FA0EF15DD8A083EF0AF085EF0AF021EF2C
:101508000AF0000193BF92EF0AF0935109E1020E2D
:10151800925DD8A092EF0AF094EF0AF0B9EF0AF0C2
:10152800A6C10FF0A7C110F0CF0E116E7E0E126E7D
:10153800E6EC1BF00009D8B4A4EF0AF0A6EF0AF015
:10154800B9EF0AF021EEA6F0DECFF6FFDECFF7FF07
:10155800050EF76404D03F0EF56E0C0006D0F6CFEA
:10156800E9FFF7CFEAFF3F0EEF6E0001EB51D8B469
:10157800C0EF0AF0C2EF0AF0F4EF0AF0EDC001F094
:10158800EEC002F0000E046E050E036E07EC27F0A5
:10159800030E0126000E02229B0E0124F66E700E29
:1015A8000220F76E0900F5CFEFF00A00F5CFF0F052
:1015B80092C04AF093C04BF0A40E4C6E010E4D6ED3
:1015C80002D8F2EF0AF005000001FA6EEF51FD6E45
:1015D800F051FE6EF850FF6EFA5012003EEF0BF01D
:1015E800EA51D8B4FAEF0AF0FCEF0AF02EEF0BF04C
:1015F800EDC001F0EEC002F0000E046E050E036EA1
:1016080007EC27F0030E0126000E0222690E0124C2
:10161800F66E700E0220F76E0900F5CFEFF00A00A3
:10162800F5CFF0F092C04AF093C04BF0A40E4C6E88
:10163800010E4D6E02D82CEF0BF005000001FA6E7A
:10164800EF51FD6EF051FE6EF850FF6EFA50120029
:101658003EEF0BF0260E456E7C0E466EC3EC20F076
:10166800000E4B6E010E4A6E000E4C6E000E4D6E53
:101678006BEC26F0120080C040F081C041F040C001
:1016880001F041C002F01AEC14F0436E40C034F08F
:1016980041C035F0050E366ED89035323432362ECC
:1016A80050EF0BF03450070B386E4150030B396E76
:1016B800000E3A6E3950D8B464EF0BF066EF0BF0B9
:1016C80070EF0BF03850D8B46CEF0BF06EEF0BF0F6
:1016D80070EF0BF0010E3A6E3A50D8A476EF0BF08B
:1016E80079EF0BF0010E7AEF0BF0000E3E6EACC0F6
:1016F80044F0000E3B6E5C50346E356A070ED8908D
:1017080034363536E82E83EF0BF000019E51342431
:101718003C6E000E35203D6E5CC042F0AFC03FF01D
:10172800D5EF0CF03E50D8B49CEF0BF09EEF0BF0C9
:10173800B5EF0BF07C51CE5D7D51CF59D8A0A7EF06
:101748000BF0A9EF0BF0B5EF0BF0000E01014A6F9B
:10175800000E4B6F000E4C6F000E4D6F010E000116
:10176800A16F500E7E5DC30E7F59D8B0BEEF0BF04F
:10177800C0EF0BF0EEEF0CF0050E7E27000E7F2376
:10178800EEEF0CF0000E7F6F000E7E6FB551D8A4FF
:10179800D0EF0BF0D2EF0BF0D8EF0BF0400E426E0B
:1017A800010E3B6EEAEF0BF001014D514C114B114C
:1017B80009E10A0E4A5DD8A0E4EF0BF0E6EF0BF062
:1017C800EAEF0BF05CC042F0010E3B6E3B50D8B420
:1017D800F0EF0BF0F2EF0BF0EEEF0CF043C006F079
:1017E80042C007F0445072EC27F043C05BF0000E93
:1017F8000101466F000E476F000E486F000E496FDB
:10180800000E426F000E436F000E446F000E456FCE
:10181800020E0001A16FEEEF0CF07A51CE5D7B5104
:10182800CF59D8B01AEF0CF01CEF0CF026EF0CF0E3
:101838005BC006F04450A4EC27F0000E0001A16F35
:10184800EEEF0CF03E50D8B42CEF0CF02EEF0CF06D
:101858005BEF0CF05B504318D8B435EF0CF037EF62
:101868000CF05BEF0CF0B451D8B43DEF0CF03FEF47
:101878000CF04DEF0CF043C006F042C007F04450A6
:1018880072EC27F05BC006F04450A4EC27F059EF47
:101898000CF05BC006F04450A4EC27F043C006F0FF
:1018A80042C007F0445072EC27F043C05BF0B1C06F
:1018B80034F0356A366A376A34500101465D35506E
:1018C80047593650485937504959D8A06EEF0CF04F
:1018D80070EF0CF0A9EF0CF0000E466F000E476F8A
:1018E800000E486F000E496F000170513C1809E165
:1018F80071513D18D8B483EF0CF085EF0CF0A9EFC7
:101908000CF0AF51D8B48BEF0CF08DEF0CF0A5EFC5
:101918000CF03FC006F05CC007F0445061EC27F0C3
:101928000001B351D8B49BEF0CF09DEF0CF0A5EF7C
:101938000CF03F50200F066E9EC007F0445061EC3B
:1019480027F03CC070F03DC071F0B2C034F0356A89
:10195800366A376A34500101425D35504359365072
:10196800445937504559D8A0BCEF0CF0BEEF0CF0E5
:10197800EEEF0CF0000E426F000E436F000E446F46
:10198800000E456F2DEC1DF00001B651D8B4CFEF15
:101998000CF0D1EF0CF0EEEF0CF065EC25F0EEEF6B
:1019A8000CF0A151346E356A3550000AD8B4DFEF17
:1019B8000CF021EF0CF03450000AD8B496EF0BF07D
:1019C800010AD8B4C6EF0BF0030AD8B411EF0CF033
:1019D80021EF0CF0050E01014A27000E4B234C2382
:1019E8004D23050E4627000E472348234923050E9D
:1019F8004227000E432344234523120020EE02F021
:101A08004C50D9264D50DA22DECF08F0DDCF09F050
:101A1800B8EC10F00850546E000E516E20EE02F033
:101A28004C50D9264D50DA22DECFF6FFDECFF7FF35
:101A3800050EF76403D00800F55005D0F6CFE9FF8E
:101A4800F7CFEAFFEF503F0AD8A42DEF0DF02FEFA4
:101A58000DF049EF0DF0AB0E456E710E466EC3ECFE
:101A680020F06E0E456E710E466EC3EC20F01C0E13
:101A7800456E740E466EC3EC20F0B40E456E700EC3
:101A8800466EC3EC20F06EEF0EF04A044B10D8A45B
:101A980050EF0DF052EF0DF0A4EF0DF0F00E456E83
:101AA800780E466EC3EC20F0700E456E7B0E466EC7
:101AB800C3EC20F0E30E456E7B0E466EC3EC20F0BF
:101AC800010E546E010E526E54501B6E1C6A1D6A34
:101AD8001E6A040E1F6E9EEC0FF0170E456E7E0EEA
:101AE800466EC3EC20F05250070B4E6E4F6ABA0E8A
:101AF8004E24D96E000E4F20DA6EDF50506E5050D3
:101B08001B6E1C6A1D6A1E6A030E1F6E9EEC0FF088
:101B1800490E456E740E466EC3EC20F0522A542AC4
:101B2800080E52649AEF0DF09CEF0DF068EF0DF07F
:101B3800CC0E456E7B0E466EC3EC20F06EEF0EF0B9
:101B48004BBEB0EF0DF04B5009E1030E4A5CD8A034
:101B5800B0EF0DF0B2EF0DF066EF0EF020EE04F0EE
:101B68004C50D9264D50DA22DECFF6FFDECFF7FFF4
:101B7800050EF76403D00800F55005D0F6CFE9FF4D
:101B8800F7CFEAFFEF503D0AD8A4CDEF0DF0CFEF25
:101B98000DF0E9EF0DF0040E4A184B10D8A4D7EF5A
:101BA8000DF0D9EF0DF0E9EF0DF020EE06F04C50F6
:101BB800D9264D50DA22DECF08F0DDCF09F0B8EC97
:101BC80010F00850536EF7EF0DF020EE04F04C5073
:101BD800D9264D50DA22DECF08F0DDCF09F0B8EC77
:101BE80010F00850536E5450D8B4FDEF0DF0FFEFCD
:101BF8000DF024EF0EF0090E546005EF0EF007EF1C
:101C08000EF024EF0EF0800E53600DEF0EF00FEF84
:101C18000EF024EF0EF0080E5418D8A416EF0EF0AC
:101C280018EF0EF01AEF0EF0000E546EBA0E542490
:101C3800D96EDA6A000EDA2253C0DFFF2CEF0EF0FD
:101C4800010E516E3B0E456E780E466EC3EC20F0C9
:101C58005150D8A432EF0EF034EF0EF06EEF0EF0C4
:101C680083EC27F05450D8A43CEF0EF03EEF0EF072
:101C780040EF0EF0080E546E6B0E456E7D0E466EEC
:101C8800C3EC20F054501B6E1C6A1D6A1E6A010EBC
:101C98001F6E9EEC0FF0C40E456E7C0E466EC3ECB4
:101CA80020F053501B6E1C6A1D6A1E6A030E1F6EBD
:101CB8009EEC0FF0490E456E740E466EC3EC20F094
:101CC8006EEF0EF0E90E456E790E466EC3EC20F00D
:101CD8006EEF0EF01200B9EC22F0F29E898C928021
:101CE8000F013881000E02EC21F00F013891899024
:101CF800929000F000F000F000F092820F0138831B
:101D0800010E02EC21F00F0138938992929200F0B3
:101D180000F000F000F092840F013885020E02EC0A
:101D280021F00F0138958994929400F000F000F0AA
:101D380000F092860F013887030E02EC21F00F01A4
:101D480038978996929600F000F000F000F0928A99
:101D58000F01388B040E02EC21F00F01389B899A91
:101D6800929A00F000F000F000F096800F013C819C
:101D7800050E02EC21F00F013C918D90969000F039
:101D880000F000F000F096820F013C83060E02EC92
:101D980021F00F013C938D92969200F000F000F034
:101DA80000F096840F013C85070E02EC21F00F012C
:101DB8003C958D94969400F000F000F000F0938428
:101DC8000F013985080E02EC21F00F0139958A942C
:101DD800939400F000F000F000F093860F0139872B
:101DE800090E02EC21F00F0139978A96939600F0BC
:101DF80000F000F000F0899CF28E000188518911F2
:101E0800D8A409EF0FF00BEF0FF011EF0FF0000E51
:101E1800896F010E886F9DEF0FF0000E086E380E67
:101E28000824D96EDA6A010EDA22DF50036E046ADA
:101E38000101DF51035CE0510458D8B026EF0FF0E0
:101E480028EF0FF05DEF0FF0240E0824D96EDA6A40
:101E5800010EDA22000EDF6E2E0E0824D96EDA6A21
:101E6800010EDA22040EDF603CEF0FF03EEF0FF0B8
:101E780047EF0FF02E0E0824D96EDA6A010EDA2227
:101E8800DF2A94EF0FF008C003F0010E046E000E75
:101E9800056E032A53EF0FF0D89004360536032E4B
:101EA80050EF0FF0045000018A1305508B1394EF84
:101EB8000FF02E0E0824D96EDA6A010EDA22000E0F
:101EC800DF6E240E0824D96EDA6A010EDA22040EB7
:101ED800DF6071EF0FF073EF0FF07CEF0FF0240E5F
:101EE8000824D96EDA6A010EDA22DF2A94EF0FF09D
:101EF80008C003F0010E046E000E056E032A88EF79
:101F08000FF0D89004360536032E85EF0FF0041C29
:101F1800066E051C076E065000018A1707508B17BE
:101F2800082A090E08649BEF0FF09DEF0FF013EFDE
:101F38000FF01200000E316E000E306E000E2E6E85
:101F4800010E2F6E0C0E1F64ACEF0FF0AEEF0FF00A
:101F5800B0EF0FF00C0E1F6E1F50D8A4B6EF0FF0A5
:101F6800B8EF0FF0BAEF0FF0010E1F6E1EBEC1EFF3
:101F78000FF0BFEF0FF0CCEF0FF0010E2E6E1B6CC1
:101F88001C1ED8B01C2A1D1ED8B01D2A000E1E56B5
:101F9800000E346E000E336E1BC001F01CC002F040
:101FA8001DC003F01EC004F00A0E056E000E066E7A
:101FB800000E076E000E086E0CEC19F00150300F81
:101FC800326E220E3324D96E000E3420DA6E32C0FF
:101FD800DFFF1BC00DF01CC00EF01DC00FF01EC0AF
:101FE80010F00A0E116E000E126E000E136E000E27
:101FF800146E0FEC18F00DC01BF00EC01CF00FC0D3
:102008001DF010C01EF0334A342A345009E10C0E7A
:10201800335CD8A012EF10F014EF10F0D0EF0FF0EF
:10202800000E346E0B0E336E220E3324D96E000E62
:102038003420DA6EDF50326E33503410D8B427EFC4
:1020480010F029EF10F042EF10F0300E3218D8A43B
:1020580030EF10F032EF10F042EF10F02F50D8B4FC
:1020680038EF10F03AEF10F042EF10F0220E332460
:10207800D96E000E3420DA6E200EDF6E3350341025
:10208800D8B449EF10F04BEF10F054EF10F0300EC9
:102098003218D8B452EF10F054EF10F065EF10F08A
:1020A800000E2F6E30503110D8A45DEF10F05FEFA6
:1020B80010F065EF10F0010E3324306E000E34205E
:1020C800316E3306D8A03406345009E10C0E335C67
:1020D800D8A071EF10F073EF10F018EF10F02E5039
:1020E800D8B479EF10F07BEF10F083EF10F0220EE8
:1020F8003024D96E000E3120DA6E2D0EDF6E000E00
:10210800346E0B0E336E220E3324D96E000E34203B
:10211800DA6EDF50326E1F50206E216A2050335C19
:1021280021503458D8A09BEF10F09DEF10F0A6EF87
:1021380010F0200E3218D8B4A4EF10F0A6EF10F06B
:10214800A9EF10F0325012EC28F03306D8A034066C
:10215800345009E10C0E335CD8A0B5EF10F0B7EF9E
:1021680010F087EF10F01200000E166E000E156EBC
:10217800000E0F6E000E0E6EC4EF10F0084A092A0A
:10218800010E146E08C0F6FF09C0F7FFF86A050EC5
:10219800F76403D00800F55005D0F6CFE9FFF7CF74
:1021A800EAFFEF50200AD8B4DCEF10F0DEEF10F0B1
:1021B80005EF11F0F70E0A6EFF0E0B6E08C0F6FF62
:1021C80009C0F7FFF86A050EF76403D00800F55058
:1021D80005D0F6CFE9FFF7CFEAFFEF500C6E0D6A96
:1021E8000A500C260B500D220D5009E1050E0C5C0F
:1021F800D8A001EF11F003EF11F005EF11F0000E78
:10220800146E14C010F0116A10501110D8A40FEFFA
:1022180011F011EF11F0C2EF10F01BEF11F0000EEA
:102228000F6E010E0E6E084A092A66EF11F008C0FB
:10223800F6FF09C0F7FFF86A050EF76403D0080037
:10224800F55005D0F6CFE9FFF7CFEAFFEF500A6E59
:102258000B6A0B50000AD8B434EF11F066EF11F096
:102268000A502B0AD8B417EF11F0060AD8B413EFA6
:1022780011F066EF11F015C001F016C002F0000E63
:10228800046E0A0E036E07EC27F008C0F6FF09C0BB
:10229800F7FFF86A050EF76403D00800F55005D07B
:1022A800F6CFE9FFF7CFEAFFEF500A6E0A50015E5A
:1022B800000E025A300E0124156E000E0220166E12
:1022C80017EF11F0D00E0A6EFF0E0B6E08C0F6FF66
:1022D80009C0F7FFF86A050EF76403D00800F55047
:1022E80005D0F6CFE9FFF7CFEAFFEF500C6E0D6A85
:1022F8000A500C260B500D220D500AE10A0E0C5CF8
:10230800D8A089EF11F08CEF11F0010E8DEF11F0CC
:10231800000E126E136A12501310D8A496EF11F023
:1023280098EF11F03FEF11F00E500F10D8A49FEF67
:1023380011F0A1EF11F0AFEF11F015C00AF016C0BF
:102348000BF00A1E0B1E0A4A0B2A0AC008F00BC023
:1023580009F0B3EF11F015C008F016C009F012002B
:102368006C0E536E4FEC28F001C051F002C052F0D1
:102378004BBEC8EF11F04B5009E1020E4A5CD8A0E1
:10238800C8EF11F0CAEF11F0F0EF11F020EE02F0F3
:102398004C50D9264D50DA22DECF4EF0DDCF4FF02B
:1023A800010E4E26000E4F224EC0F6FF4FC0F7FF1B
:1023B800F86A050EF76403D00800F55005D0F6CF8B
:1023C800E9FFF7CFEAFFEF50506E5050076E086AEA
:1023D80051EC23F00750536E6C0E5318D8A4F7EF46
:1023E80011F0F9EF11F07BEF12F0E50E456E780E63
:1023F800466EC3EC20F05D0E456E780E466EC3EC5B
:1024080020F0290E456E790E466EC3EC20F0000EC2
:10241800566E61EF12F056501B6E1C6A1D6A1E6ADA
:10242800050E1F6E9EEC0FF0200E456E7E0E466E5A
:10243800C3EC20F05650E2EC27F001C01BF002C0BC
:102448001CF01D6A1E6A050E1F6E9EEC0FF01F0E13
:10245800456E7E0E466EC3EC20F056503FEC27F0DA
:1024680001C054F002C055F055BE43EF12F055506C
:1024780008E15404D8A043EF12F045EF12F054EFEE
:1024880012F054C01BF055C01CF0000E1CBEFF0E0D
:102498001D6E1E6E050E1F6E9EEC0FF05AEF12F0A9
:1024A800990E456E7E0E466EC3EC20F0490E456EC1
:1024B800740E466EC3EC20F0562A56504E6E4F6A84
:1024C80051504E5C4F50800A506E5250800A5058FE
:1024D800D8A071EF12F073EF12F00FEF12F0070EA1
:1024E800456E790E466EC3EC20F087EF12F0660E4B
:1024F800456E7C0E466EC3EC20F0510E456E7C0E88
:10250800466EC3EC20F012001DEC28F0B0EC23F06E
:10251800000E00019D6F000E12EC28F000019D2BAB
:10252800090E9D659AEF12F09CEF12F08FEF12F0F2
:10253800B30E026E7C0E036E87EC24F0E6EC21F0FD
:102548000009D8A4AAEF12F0ACEF12F0B0EF12F025
:102558000001A3817CEC1DF00001B9513FEC28F08B
:10256800F4EC26F001C04EF102C04FF103C050F167
:1025780004C051F1CDEF12F05D50D8B4C6EF12F09F
:10258800C8EF12F0CDEF12F0000E5D6E8B8086EC76
:1025980025F0C80E01014E250001FA6F000E010159
:1025A8004F210001FB6F000E010150210001FC6F5B
:1025B800000E010151210001FD6FF4EC26F000012D
:1025C800FA51015CFB510258FC510358FD51045863
:1025D800D8A0F1EF12F0F3EF12F0C0EF12F0CEC076
:1025E80059F0CFC05AF0C2C001F0C3C002F0000ECB
:1025F800046E050E036E07EC27F001C007F002C059
:1026080008F0000E0A6E640E096E3FEC21F0595076
:10261800072400017C6F5A5008207D6F20EEC2F01D
:10262800DECFFAF0DDCFFBF0D890FA37FB37D89041
:10263800FA37FB37FAC007F0FBC008F0000E0A6E45
:10264800640E096E3FEC21F05950072400017A6F9F
:102658005A5008207B6F5A5009E1080E595CD8A0DF
:1026680038EF13F03AEF13F042EF13F05A04D8A002
:1026780040EF13F042EF13F043EF13F0A385000E81
:1026880083BA010EA06FE1C102F0E2C103F087EC4A
:1026980024F034EC24F0EEEC1EF059EC13F0B0EC1E
:1026A80021F04FEF13F02EEF00F050EC27F0000967
:1026B800D8B461EF13F063EF13F019EF14F094EC52
:1026C80027F00001F96FF8EF13F0A5EC25F034ECD2
:1026D80024F019EF14F095BF7AEF13F0955108E143
:1026E8009405D8A07AEF13F07CEF13F019EF14F0EB
:1026F8009607D8A097079407D8A09507080E12EC5C
:1027080028F0200E12EC28F0080E12EC28F019EF31
:1027180014F00D0E12EC28F00A0E12EC28F000014D
:1027280095BF9FEF13F0955108E19405D8A09FEF4E
:1027380013F0A1EF13F06BEF13F096C0D9FF97C019
:10274800DAFF000EDF6E95EC18F0BAEC08F06BEFCC
:1027580013F0A5EC25F034EC24F0A5EC1EF019EFED
:1027680014F0200EF96FE00EF36FFF0EF46FF951BD
:10277800F56FF66BF351F527F451F623F6510AE19C
:102788005F0EF55DD8A0CBEF13F0CEEF13F0010E7E
:10279800CFEF13F0000EF76FF86BF751F811D8B4BC
:1027A800D8EF13F0DAEF13F019EF14F095BFE8EF54
:1027B80013F0955107E1280E945DD8B0E6EF13F0B9
:1027C800E8EF13F019EF14F0F95112EC28F096C065
:1027D800D9FF97C0DAFFF9C0DFFF0001964B972BAE
:1027E800944B952B19EF14F0F951F36FF46BF451E6
:1027F800000AD8B402EF14F0B7EF13F0F351080A47
:10280800D8B46FEF13F0010AD8B4B5EF13F0040A87
:10281800D8B48DEF13F01F0AD8B4ADEF13F00A0A3D
:10282800D8B469EF13F0B7EF13F012000250030B9E
:102838000A6E0250030B0A6E020E0A18D8A427EF7C
:1028480014F029EF14F02DEF14F0020E086E3CEF8F
:1028580014F0030E0A18D8A434EF14F036EF14F06D
:102868003AEF14F0010E086E3CEF14F0000E086EFB
:1028780001C003F002C004F0050E056ED8900432C2
:102888000332052E42EF14F00350070B066ED89062
:102898000230046E0130036E03507F0B076E015047
:1028A800010B096E000E0724D96EDA6A030EDA22CC
:1028B800DF500D6E08500C0DF3CF03F0F4CF04F089
:1028C8000D500326000E0422180E03240B6E000E72
:1028D80004200C6E0001B851D8A475EF14F077EFFE
:1028E80014F09BEF14F00950D8B47DEF14F07FEF8B
:1028F80014F0D2EF14F0020E0618D8B486EF14F0D4
:1029080088EF14F0D2EF14F09C0E0D24D96EDA6A19
:10291800010EDA22DF50D8B494EF14F096EF14F0D9
:10292800D2EF14F00B06D8A00C06D2EF14F0180E54
:102938000D18D8B4A2EF14F0A4EF14F0C8EF14F0F7
:102948001D0E0D18D8B4ABEF14F0ADEF14F0C8EFAE
:1029580014F0240E0D18D8B4B4EF14F0B6EF14F038
:10296800C8EF14F0290E0D18D8B4BDEF14F0BFEF5E
:1029780014F0C8EF14F0300E0D18D8A4C6EF14F0F8
:10298800C8EF14F0D2EF14F00950D8B4CEEF14F019
:10299800D0EF14F0D2EF14F00B4A0C2A74510B2428
:1029A8000B6E75510C200C6E0B501200000E0001BE
:1029B800D86F000ED76F690ED36F700ED46F000EEC
:1029C800D66F000ED56F000EDC6F000EDB6FDBC01C
:1029D80001F0DCC002F0000E046E050E036E07EC79
:1029E80027F0D3C04EF0D4C04FF001504E2602500D
:1029F8004F224EC0F6FF4FC0F7FF0900F5CFD9F0C0
:102A08000A00F5CFDAF0D9C0F6FFDAC0F7FF080000
:102A1800F550240AD8A413EF15F015EF15F017EFA9
:102A280015F06AEF15F0D9C045F0DAC046F0C3ECEE
:102A380020F0D9C001F0DAC002F0AFEC24F0015068
:102A48000C080001D16F0250D8A0E82A0008D26F04
:102A580031EF15F0200E12EC28F00001D107D8A0B4
:102A6800D207D12906E1D229D8A43DEF15F03FEFCE
:102A780015F02EEF15F0D74BD82BD8BF4DEF15F02A
:102A8800D85109E1060ED75DD8A04DEF15F04FEFEC
:102A980015F059EF15F0000ED86F000ED76F490EDC
:102AA800456E740E466EC3EC20F00001DB4BDC2B48
:102AB800DCBF68EF15F0DC5109E1FA0EDB5DD8A048
:102AC80068EF15F06AEF15F0EBEF14F09B0E0001BC
:102AD800D36F700ED46FD54BD62BD6BF7DEF15F0C4
:102AE800D65109E1020ED55DD8A07DEF15F07FEF34
:102AF80015F0E7EF14F0D751D811D8B486EF15F0D8
:102B080088EF15F08EEF15F0490E456E740E466E7F
:102B1800C3EC20F01200ACC012F000018151136E1A
:102B280080C014F0B705D8A49CEF15F09EEF15F0FF
:102B3800ABEF15F01438F00B100B0F6ED890143063
:102B48000F0B0F100E6E1450E00B0E10146EA151E7
:102B5800D8A4B1EF15F0B3EF15F041EF16F080519E
:102B68008111D8A4BAEF15F0BCEF15F0E3EF15F01A
:102B78001250D3EC27F01250C4EC27F00001B451E6
:102B8800D8B4C9EF15F0CBEF15F0D0EF15F0020E61
:102B9800066E125011EC1EF0CEC059F0CFC05AF09C
:102BA8001E0E592400017C6F000E5A207D6F190EED
:102BB80059247A6F000E5A207B6F41EF16F014509B
:102BC800D8B4E9EF15F0EBEF15F015EF16F0010E9C
:102BD800116E000E106E080E1118D8A4F6EF15F03D
:102BE800F8EF15F0FAEF15F0000E116E14A0FFEFD4
:102BF80015F001EF16F003EF16F010EF16F0D8906D
:102C08001430146E102A112A070E10640EEF16F0F5
:102C180010EF16F0EFEF15F011502CEC1BF041EF10
:102C280016F01304D8A41BEF16F01DEF16F023EFCF
:102C380016F0FF0E756FF40E746F41EF16F0020E6A
:102C48001318D8A42AEF16F02CEF16F032EF16F06E
:102C5800000E756F0C0E746F41EF16F0030E13180B
:102C6800D8A439EF16F03BEF16F041EF16F0000E3E
:102C7800756F000E746F41EF16F012004BBE4EEFE9
:102C880016F04B5009E1020E4A5CD8A04EEF16F040
:102C980050EF16F05DEF16F0A6C102F0A7C103F0E1
:102CA800C7EC1DF0F00E021400018C6FFF0E031428
:102CB8008D6F8CC056F08DC057F0000E546E56C004
:102CC80003F057C004F0D6EC24F0E90E456E7E0EF2
:102CD800466EC3EC20F0000E586E56C001F057C087
:102CE80002F02FEC28F026EC28F0564A572A200E3E
:102CF80012EC28F05850070B070AD8A486EF16F0F4
:102D080088EF16F08BEF16F0200E12EC28F0582AF8
:102D18000F0E586492EF16F094EF16F071EF16F05C
:102D2800100E565E000E575A000E586E56C001F02F
:102D380057C002F02FEC28F0556E564A572AE00E7D
:102D48004E6EFF0E4F6E5550506E516A4E505026C3
:102D58004F50512251500AE15F0E505CD8A0B7EF96
:102D680016F0BAEF16F0010EBBEF16F0000E526E19
:102D7800536A52505310D8B4C4EF16F0C6EF16F089
:102D8800CBEF16F0555012EC28F0CEEF16F02E0EC1
:102D980012EC28F0582A0F0E5864D5EF16F0D7EF2A
:102DA80016F09AEF16F0490E456E740E466EC3EC97
:102DB80020F0542A0F0E5464E4EF16F0E6EF16F0F4
:102DC80063EF16F00001010E8D2712000001C851B3
:102DD800785D1D6EC95179591E6E1DC027F01EC041
:102DE80028F0296A2A6A2ABEFEEF16F0FCEF16F0D0
:102DF80006EF17F0000E276E000E286E000E296EE3
:102E0800000E2A6EC851C65D1D6EC951C7591E6E87
:102E18001DC01FF01EC020F0216A226A27C001F0E1
:102E280028C002F029C003F02AC004F0800E056E05
:102E38003F0E066E000E076E000E086E50EC22F074
:102E480001C00DF002C00EF003C00FF004C010F076
:102E58001FC011F020C012F021C013F022C014F0DE
:102E68000FEC18F00DC027F00EC028F00FC029F0A5
:102E780010C02AF027C001F028C002F029C003F0D2
:102E88002AC004F027C005F028C006F029C007F0C2
:102E98002AC008F050EC22F001C00DF002C00EF07C
:102EA80003C00FF004C010F0800E116E3F0E126EBA
:102EB800000E136E000E146E0FEC18F00DC023F008
:102EC8000EC024F00FC025F010C026F026BE79EF02
:102ED80017F0265025100BE1810E235C3F0E245875
:102EE800D8A079EF17F07BEF17F083EF17F0800E7B
:102EF800236E3F0E246E000E256E000E266E23C034
:102F08001BF024C01CF0120020EE02F04C50D92611
:102F18004D50DA22DECF4EF0DDCF4FF0010E4E26B7
:102F2800000E4F224EC0F6FF4FC0F7FFF86A050E9D
:102F3800F76403D00800F55005D0F6CFE9FFF7CFC6
:102F4800EAFFEF50506E5050076E086A51EC23F0BC
:102F58000750516E20EE02F04C50D9264D50DA221F
:102F6800DECFF6FFDECFF7FF050EF76403D00800CB
:102F7800F55005D0F6CFE9FFF7CFEAFFEF503F0A4B
:102F8800D8A4C9EF17F0CBEF17F0DFEF17F05C0EFE
:102F9800456E730E466EC3EC20F0B50E456E7B0E83
:102FA800466EC3EC20F0030E456E750E466EC3ECFC
:102FB80020F00EEF18F0670E5118D8A4E6EF17F0BE
:102FC800E8EF17F0EBEF17F0470E1BEC22F0720E4C
:102FD8005118D8A4F2EF17F0F4EF17F0F7EF17F045
:102FE800520E1BEC22F00001AD51D8B4FEEF17F0E1
:102FF80000EF18F008EF18F0750E456E7D0E466E5E
:10300800C3EC20F00EEF18F0330E456E7D0E466EC1
:10301800C3EC20F01200000E166E14BE18EF18F064
:1030280016EF18F022EF18F0141E131E121E116C62
:10303800000E122213221422010E166E10BE29EF62
:1030480018F027EF18F033EF18F0101E0F1E0E1EA1
:103058000D6C000E0E220F221022010E161A000E01
:10306800176E000E186E000E196E000E1A6E1150B3
:10307800121013101410D8B444EF18F046EF18F0DB
:103088007CEF18F0010E156E50EF18F0D89011363D
:10309800123613361436152A14AE55EF18F057EFBA
:1030A80018F04AEF18F0D8901736183619361A362D
:1030B80011500D5C12500E5813500F5814501058E0
:1030C800D8A069EF18F06BEF18F074EF18F01150F2
:1030D8000D5E12500E5A13500F5A1450105A178082
:1030E800D8901432133212321132152E57EF18F0CD
:1030F8001650D8B482EF18F084EF18F08CEF18F05F
:103108001A1E191E181E176C000E182219221A22D0
:1031180017C00DF018C00EF019C00FF01AC010F04B
:1031280012000001AB51D8A49CEF18F09EEF18F0E4
:10313800CCEF18F0000E126E000E116E11C001F0E7
:1031480012C002F0000E046E2A0E036E07EC27F080
:10315800000E0124D96E020E0220DA6E000EDF6E18
:10316800114A122A125009E1040E115CD8A0BFEFCF
:1031780018F0C1EF18F0A2EF18F0000E0001916FDF
:10318800000E906F000E8F6F000E8E6F010EAB6FEA
:103198005A0E016E010E026EAFEC24F001500210BF
:1031A800D8B4D9EF18F0DBEF18F00BEF19F090C096
:1031B80001F091C002F0000E046E2A0E036E07ECB7
:1031C80027F0000E0124076E020E0220086E5A0E28
:1031D800096E010E0A6E000E0C6E280E0B6E8DEC39
:1031E8001CF090C08EF091C08FF00001904B912B95
:1031F800915109E1040E905DD8A005EF19F007EF91
:1032080019F00BEF19F0000E916F000E906F12007D
:10321800000E0A6E04BE15EF19F013EF19F01FEF38
:1032280019F0041E031E021E016C000E0222032266
:103238000422010E0A6E08BE26EF19F024EF19F0D9
:103248002EEF19F0081E071E061E056C000E06223A
:10325800072208220550061007100810D8B437EFC7
:1032680019F039EF19F069EF19F0010E096E43EF03
:1032780019F0D8900536063607360836092A08AEFA
:1032880048EF19F04AEF19F03DEF19F00550015CCD
:10329800065002580750035808500458D8A057EF52
:1032A80019F059EF19F061EF19F00550015E065059
:1032B800025A0750035A0850045AD8900832073265
:1032C80006320532092E4AEF19F00A50D8B46FEFCA
:1032D80019F071EF19F079EF19F0041E031E021EA0
:1032E800016C000E02220322042201C001F002C078
:1032F80002F003C003F004C004F01200000E4F6E89
:10330800000E4E6E4A044B10D8A48DEF19F08FEFC3
:1033180019F0C8EF19F01B0E456E720E466EC3EC1D
:1033280020F0A4EF19F050EC27F00009D8B49FEF73
:1033380019F0A1EF19F0A4EF19F094EC27F04F6EF3
:103348001F0E4F64AAEF19F0ACEF19F097EF19F0C0
:103358004F5012EC28F0490E456E740E466EC3ECC1
:1033680020F04FC007F0086A81EC23F0590E0718C7
:103378000810D8A4C2EF19F0C4EF19F0E2EF19F061
:10338800010E4E6EE2EF19F020EE02F04C50D926F5
:103398004D50DA22DECF0FF0DDCF10F0F70E116EB0
:1033A8007E0E126EE6EC1BF00009D8B4DEEF19F0C1
:1033B800E0EF19F0E2EF19F0C4EF19F04E50D8B46D
:1033C800E8EF19F0EAEF19F0F2EF19F064EC28F0E1
:1033D800180E456E780E466EC3EC20F01200C2C07F
:1033E8001EF0C3C01FF059500001CE5D1B6E5A502D
:1033F800CF591C6E1BC001F01CC002F0036A046A9E
:10340800800E056E3F0E066E000E076E000E086EEB
:1034180050EC22F001C00DF002C00EF003C00FF016
:1034280004C010F01EC011F01FC012F0136A146A15
:103438000FEC18F00DC020F00EC021F00FC022F0E4
:1034480010C023F023BE2DEF1AF02BEF1AF035EF42
:103458001AF0000E206E000E216E000E226E000E75
:10346800236E23BE44EF1AF0235022100BE1810E85
:10347800205C3F0E2158D8A044EF1AF046EF1AF00E
:103488004EEF1AF0800E206E3F0E216E000E226E57
:10349800000E236E20C01BF021C01CF0070E1D6E0D
:1034A800D8901C321B321D2E54EF1AF01B507F0B84
:1034B8005C6E20507F0B00019E6F1200000E566E4E
:1034C800FA0E456E7B0E466EC3EC20F0BAEF1AF08A
:1034D80035EC1FF0F4EC26F001C052F002C053F0B6
:1034E80003C054F004C055F07CEF1AF0EEEC1EF067
:1034F800320E52244E6E000E53204F6E000E542092
:10350800506E000E5520516EF4EC26F04E50015CC2
:103518004F5002585050035851500458D8A097EFB4
:103528001AF099EF1AF07AEF1AF00D0E12EC28F053
:1035380050EC27F00009D8B4A4EF1AF0A6EF1AF05F
:10354800A9EF1AF094EC27F0566E0D0E5618D8A471
:10355800B0EF1AF0B2EF1AF0BAEF1AF0000E566E8A
:10356800490E456E740E466EC3EC20F01B0E5618BD
:10357800D8A4C1EF1AF0C3EF1AF06CEF1AF0490E95
:10358800456E740E466EC3EC20F01200000E066EF7
:1035980004BED3EF1AF0D1EF1AF0D9EF1AF0036C8A
:1035A800041ED8B0042A010E066E02BEE0EF1AF01F
:1035B800DEEF1AF0E6EF1AF0016C021ED8B0022A0C
:1035C800010E061A000E086E000E076E0350041056
:1035D800D8B4F1EF1AF0F3EF1AF01BEF1BF0010E5D
:1035E800056EFBEF1AF0D89003360436052A04AEB0
:1035F80000EF1BF002EF1BF0F7EF1AF0D890073638
:1036080008360350015C04500258D8A00EEF1BF096
:1036180010EF1BF015EF1BF00350015E0450025A27
:103628000780D89004320332052E02EF1BF00650B3
:10363800D8B421EF1BF023EF1BF027EF1BF0076C2A
:10364800081ED8B0082A07C001F008C002F012000E
:103658000B6EACC009F0BA0E0B24D96EDA6A000EF4
:10366800DA22DF500A6E0001AE51D8B43EEF1BF0EB
:1036780040EF1BF045EF1BF00AC006F00950EFECD5
:1036880027F0F00E0101146F730E156F070E166FF9
:103698000BC017F168C018F169C019F16AC01AF1B6
:1036A800A3C01BF1B8C01CF1B4C01DF1B5C01EF118
:1036B800F70E1F6F0001AD51D8B465EF1BF067EF2F
:1036C8001BF088EF1BF0000E0D6E140E0D24D96E42
:1036D800DA6A010EDA22DF500C6E0C505BEC1EF039
:1036E800F70E0C18D8A47BEF1BF07DEF1BF07FEFD3
:1036F8001BF088EF1BF00D2A3F0E0D6486EF1BF0C0
:1037080088EF1BF069EF1BF01200000E1F6E000E11
:10371800206E000E216E000E226E00017E517F1178
:10372800D8B499EF1BF09BEF1BF0A3EF1BF0A85147
:10373800D8B4A1EF1BF0A3EF1BF0E1EF1BF076511B
:10374800CC5D1D6E7751CD591E6E1DC001F01EC097
:1037580002F0036A046A800E056E3E0E066E000EC5
:10376800076E000E086E50EC22F001C023F002C074
:1037780024F003C025F004C026F023C00DF024C0B7
:103788000EF025C00FF026C010F0C4C011F0C5C05F
:1037980012F0136A146A0FEC18F00DC023F00EC073
:1037A80024F00FC025F010C026F023C01FF024C05D
:1037B80020F025C021F026C022F01FC01BF020C039
:1037C8001CF012001468010E156E30EF1CF00FC0CB
:1037D800F6FF10C0F7FFF86A050EF76403D008007B
:1037E800F55005D0F6CFE9FFF7CFEAFFEF50136E9B
:1037F8001350076E086A51EC23F00750166E0F4AF3
:10380800102A11C0F6FF12C0F7FF0800F550076E26
:10381800086A51EC23F00750176E114A122A175004
:103828001618D8B41AEF1CF01CEF1CF01EEF1CF091
:10383800000E156E1650D8B424EF1CF026EF1CF0BD
:1038480039EF1CF01750D8A42CEF1CF02EEF1CF009
:1038580030EF1CF039EF1CF014061428D8A437EF09
:103868001CF039EF1CF0EBEF1BF015501200000EA6
:10387800096E000E0A6E000E0B6E000E0C6E0550DF
:10388800061007100810D8B44CEF1CF04EEF1CF0CF
:1038980084EF1CF0010E0D6E58EF1CF0D890053621
:1038A8000636073608360D2A08AE5DEF1CF05FEFC6
:1038B8001CF052EF1CF0D89009360A360B360C363D
:1038C8000550015C06500258075003580850045828
:1038D800D8A071EF1CF073EF1CF07CEF1CF00550C2
:1038E800015E0650025A0750035A0850045A0980CC
:1038F800D89008320732063205320D2E5FEF1CF0E1
:1039080009C001F00AC002F00BC003F00CC004F0BB
:10391800120007C00FF008C010F0BDEF1CF00B0636
:10392800D8A00C0609500D6E0A500E6E094A0A2AD4
:103938000DC0F6FF0EC0F7FFF86A0FC0D9FF10C020
:10394800DAFF0F4A102A050EF76403D00800F55075
:1039580005D0F6CFE9FFF7CFEAFFEF50DF6EDF5073
:10396800D8A4B9EF1CF0BBEF1CF0BDEF1CF0D0EFF2
:103978001CF00B500C10D8A4C4EF1CF0C6EF1CF0C0
:1039880093EF1CF0D0EF1CF00FC0D9FF10C0DAFF86
:10399800000EDF6E0F4A102A0B06D8A00C060B2863
:1039A80006E10C28D8A4DBEF1CF0DDEF1CF0C8EF13
:1039B8001CF01200E1C145F0E2C146F0C3EC20F072
:1039C800A10E456E7C0E466EC3EC20F000016851D6
:1039D8001B6E1C6A1D6A1E6A010E1F6E9EEC0FF09C
:1039E8002E0E12EC28F0000169511B6E1C6A1D6A2C
:1039F8001E6A010E1F6E9EEC0FF02E0E12EC28F0C0
:103A08000A0E00016A610BEF1DF00DEF1DF010EFBB
:103A18001DF0300E12EC28F000016A511B6E1C6A72
:103A28001D6A1E6A010E1F6E9EEC0FF0F10E456EA8
:103A38007E0E466EC3EC20F03F0E456E7D0E466E40
:103A4800C3EC20F0490E456E740E466EC3EC20F0B0
:103A58001200ACC030F0B0C033F03350D8B437EFF8
:103A68001DF039EF1DF07BEF1DF01F0E33643FEFA3
:103A78001DF041EF1DF043EF1DF07BEF1DF0EAEC68
:103A880016F01BC031F01CC032F000016C51311827
:103A980009E16D513218D8B454EF1DF056EF1DF0FE
:103AA8007BEF1DF031C02BF032C02CF0070E2D6ECD
:103AB800D8902C322B322D2E5CEF1DF02B507F0B23
:103AC8002E6E33C006F02EC007F0305061EC27F0A0
:103AD80031507F0B2F6E3350200F066E2FC007F02A
:103AE800305061EC27F031C06CF032C06DF012003C
:103AF800010E0001AC6F000EAD6F000EAE6F020E2E
:103B0800AF6F010EB06F050EB16F1E0EB26F000ED3
:103B1800B36F000EB46F000EB56F000EB66F000ED7
:103B2800B76F000EB86F960EB96F000E0A6E610E71
:103B38000A24F66EF76A700EF722BA0E0A24D96EB6
:103B4800DA6A000EDA220800F5CFDFFF0A2A070E2C
:103B58000A64B1EF1DF0B3EF1DF09BEF1DF0010EED
:103B68000001C36FF40EC26F020EC56FEE0EC46F74
:103B7800020EC76FEE0EC66F000EC96FFA0EC86F41
:103B880083EC27F01200000E086E000E076E000E80
:103B9800096E0250046E0350056E024A032A04C0DF
:103BA800F6FF05C0F7FFF86A050EF76403D00800B2
:103BB800F55005D0F6CFE9FFF7CFEAFFEF5084ECD8
:103BC80020F0066E0628D8A4ECEF1DF0EEEF1DF0ED
:103BD800F0EF1DF00CEF1EF007C004F008C005F070
:103BE800043A053AF00E051604500F0B0512F00EB4
:103BF800041606500424076E000E0520086E092AD4
:103C0800030E09640AEF1EF00CEF1EF0CDEF1DF055
:103C180007C002F008C003F01200076E07040F0B7C
:103C2800B009086E08505BEC1EF00604D8B41FEF0C
:103C38001EF021EF1EF02AEF1EF0020E0618D8A47F
:103C480028EF1EF02AEF1EF032EF1EF07D0E5BEC1F
:103C58001EF0000E5BEC1EF038EF1EF07C0E5BECE5
:103C68001EF0000E5BEC1EF008505BEC1EF0060424
:103C7800D8B441EF1EF043EF1EF04CEF1EF0030ED8
:103C88000618D8A44AEF1EF04CEF1EF054EF1EF0B1
:103C98007F0E5BEC1EF0000E5BEC1EF05AEF1EF080
:103CA8007E0E5BEC1EF0010E5BEC1EF01200056E42
:103CB8000001A251D8A463EF1EF065EF1EF073EF68
:103CC8001EF0840E866F010E876F840E846F010EBE
:103CD800856F000E836F000E826F010EA26F83BF87
:103CE80081EF1EF0835107E1200E825DD8B07FEF8F
:103CF8001EF081EF1EF0A4EF1EF084C0D9FF85C02E
:103D0800DAFF05C0DFFF844B852B840E016E010EA0
:103D1800026E200E0126000E02220150845D025020
:103D28008559D8A09AEF1EF09CEF1EF0A0EF1EF068
:103D3800840E846F010E856F824B832BA4EF1EF0D7
:103D480012005A0E076E010E086E8EC001F08FC069
:103D580002F0000E046E2A0E036E07EC27F0000E28
:103D68000124096E020E02200A6E000E0C6E280E47
:103D78000B6E8DEC1CF000018E518F11D8A4C7EF8B
:103D88001EF0C9EF1EF0CDEF1EF0000E8F6F040E6F
:103D98008E6F8E07D8A08F075A0E016E010E026E25
:103DA800AFEC24F001C094F002C095F05A0E000167
:103DB8009425966F010E9521976F96C0D9FF97C0ED
:103DC800DAFF000EDF6E5A0E456E010E466EC3EC2A
:103DD80020F012005E50D8B4F4EF1EF0F6EF1EF09B
:103DE800FAEF1EF0000E5E6E6FEC0EF05D50D8B468
:103DF80000EF1FF002EF1FF015EF1FF0000E5D6ED1
:103E080086EC25F054EC28F0FF0E01140001806FB9
:103E1800030E0214816FF3EC19F03FEC0BF0C1ECC8
:103E28001FF00001A751D8B41CEF1FF01EEF1FF0C0
:103E380034EF1FF0000EA76F8B8085EC22F084EC26
:103E480026F000019C2B040E9C19D8A42EEF1FF01D
:103E580030EF1FF034EF1FF0000E9C6FB3EC26F02C
:103E68001200FE0E456E7C0E466EC3EC20F054EC3C
:103E780028F001C003F002C004F0D6EC24F0E20EF2
:103E8800456E7C0E466EC3EC20F0000EE2EC27F087
:103E980001C01BF002C01CF01D6A1E6A040E1F6ED2
:103EA8009EEC0FF0F00E456E7C0E466EC3EC20F0D3
:103EB80045EC28F001C01BF002C01CF01D6A1E6A08
:103EC800040E1F6E9EEC0FF0260E456E7D0E466E9C
:103ED800C3EC20F04AEC28F001C01BF002C01CF033
:103EE8001D6A1E6A040E1F6E9EEC0FF012009E9053
:103EF8000001FF51CF6EFEC0CEFF5E50D8B487EFF1
:103F08001FF089EF1FF08AEF1FF0A62B010E642720
:103F1800000E652366236723010E5E6EA52B040E33
:103F2800A56599EF1FF09BEF1FF09FEF1FF0010EA3
:103F38005D6E000EA56FA42B310EA465A6EF1FF0D1
:103F4800A8EF1FF0ACEF1FF0010EA76F000EA46FD3
:103F580001015207000E535B545B555B52515311DC
:103F680054115511D8A4BBEF1FF0BDEF1FF0C0EFDF
:103F78001FF0000E0001A86F120000019A51D8A48A
:103F8800C8EF1FF0CAEF1FF0D9EF1FF0310E996587
:103F9800D0EF1FF0D2EF1FF0E3EF1FF08FEC15F01A
:103FA800010E00019A6FE3EF1FF0C70E9865DFEF6F
:103FB8001FF0E1EF1FF0E3EF1FF0000E9A6F83B8D8
:103FC800E8EF1FF0EAEF1FF0F8EF1FF0FA0E996123
:103FD800F0EF1FF0F2EF1FF0F4EF1FF0050E992736
:103FE800000E986F04EF20F0FA0E9861FEEF1FF0B4
:103FF80000EF20F002EF20F0050E9827000E996FD1
:104008001200252525252525252525252525252590
:10401800252530303030303030302F2E2E2E2D2CBC
:104028002C2C242424242424242424242424242438
:1040380024242B2A2A2A2A2A2A2A292929292827EC
:104048002624232222222222222222222222222241
:104058002222222222222222222222222222222238
:104068002222212020202020202020202020202043
:1040780020201F1E1E1E1E1E1E1E1D1D1D1D1C1B5C
:104088001A180A0EF66E400EF76E000EF86E03EE62
:1040980000F010EE80F00900F5CFEEFFE550E1509A
:1040A800FAE1920EF66E4D0EF76E000EF86E01EE06
:1040B800B4F010EE2BF00900F5CFEEFFE550E1501B
:1040C800FAE102EE00F0A80EEE6AE806FDE101EE64
:1040D80000F0B40EEE6AE806FDE100EE60F0710E45
:1040E800EE6AE806FDE15E6A5D6A5C6A5B6A5A6AC6
:1040F800596A5F905F92000EF86E000188EF12F027
:10410800016E2F0E01648BEF20F08DEF20F099EFF8
:1041180020F03A0E016093EF20F095EF20F099EF30
:1041280020F00150D00FC2EF20F0400E01649FEF45
:1041380020F0A1EF20F0ADEF20F0470E0160A7EFCF
:1041480020F0A9EF20F0ADEF20F00150C90FC2EF29
:1041580020F0600E0164B3EF20F0B5EF20F0C1EF5E
:1041680020F0670E0160BBEF20F0BDEF20F0C1EF3B
:1041780020F00150A90FC2EF20F0FF0E1200E2EF6D
:1041880020F0EEEC1EF09EA8CCEF20F0CEEF20F051
:10419800C5EF20F00A0E4918D8A4D5EF20F0D7EFC4
:1041A80020F0DFEF20F00D0E12EC28F00A0E12ECD2
:1041B80028F0E2EF20F0495012EC28F04550476E05
:1041C8004650486E454A462A47C0F6FF48C0F7FFA2
:1041D800F86A050EF76403D00800F55005D0F6CF4D
:1041E800E9FFF7CFEAFFEF50496E4950D8A4FFEF37
:1041F80020F001EF21F0C5EF20F01200026ECD0E85
:104208000224D96EDA6A010EDA22DF50016E014605
:104218000146C2500118830B0118C26E00F000F06D
:1042280000F000F00F01458300F000F000F000F00E
:104238000F0145934493448100F000F000F000F032
:1042480000F000F000F000F000F000F000F000F0E6
:104258000F014491C282C2B234EF21F036EF21F04F
:104268002FEF21F0380E0224D96EDA6A010EDA2215
:10427800C4CFDFFF1200000E0C6E000E0B6E09504B
:104288000A10D8B44AEF21F04CEF21F074EF21F076
:10429800010E0D6E54EF21F0D89009360A360D2A1A
:1042A8000AAE59EF21F05BEF21F050EF21F0D890E2
:1042B8000B360C360950075C0A500858D8A067EF2F
:1042C80021F069EF21F06EEF21F00950075E0A50E6
:1042D800085A0B80D8900A3209320D2E5BEF21F074
:1042E8000BC007F00CC008F01200400E076EC00E9D
:1042F8000514056EFF0E0614066E05C001F006C013
:1043080002F01AEC27F0000EF86E0650F76E05C0A2
:10431800F6FF98EF21F003C0D9FF04C0DAFFDF50A1
:10432800F56E034A042A0D0007060728D8A49FEF54
:1043380021F0A1EF21F08FEF21F005C0F6FFA68E46
:10434800A69CA684A698F29E550EA76EAA0EA76EE6
:10435800A682F28EA6941200000182518311D8B46D
:10436800B8EF21F0BAEF21F0E5EF21F0A4A8BFEFF4
:1043780021F0C1EF21F0E5EF21F086C0D9FF87C019
:10438800DAFFDF5007EC28F00001864B872B840EFC
:10439800026E010E036E200E0226000E032202504A
:1043A800865D03508759D8A0DCEF21F0DEEF21F0BD
:1043B800E2EF21F0840E866F010E876F8207D8A086
:1043C80083071200010E0E6EAC0E0C6E000E0D6E01
:1043D800AC0E016E000E026E7F0E046E800E036E30
:1043E800200E056E50EC26F00CC0D9FF0DC0DAFF88
:1043F800DE2806E1DE28D8A404EF22F006EF22F03A
:1044080008EF22F0000E0E6E09EC24F00001CA51EC
:10441800011809E1CB510218D8B415EF22F017EFB3
:1044280022F019EF22F0000E0E6E0E5012000A6EE6
:10443800520E0A18D8A423EF22F025EF22F03AEF03
:1044480022F0010E0001AD6F020EAF6F010EB06FCA
:10445800050EB16F1E0EB26F010EB36F010EB46F71
:10446800000EB56F000EB66F4DEF22F0000E000182
:10447800AD6F020EAF6F010EB06F050EB16F1E0E5D
:10448800B26F000EB36F000EB46F000EB56F000E62
:10449800B66F83EC27F01200000E096E000E0A6E4C
:1044A800000E0B6E000E0C6E01A05DEF22F05FEFA8
:1044B80022F067EF22F00550092606500A2207501D
:1044C8000B2208500C22D8900536063607360836D7
:1044D800D890043203320232013201500210031024
:1044E8000410D8A47AEF22F07CEF22F058EF22F0E3
:1044F80009C001F00AC002F00BC003F00CC004F0C0
:1045080012000101E351D8B48CEF22F08EEF22F0B3
:10451800B8EF22F0000173BF9BEF22F0735109E15D
:104528000A0E725DD8A09BEF22F09DEF22F0A1EF5A
:1045380022F0000E736F000E726F72517311D8A4BF
:10454800A8EF22F0AAEF22F0ABEF22F08B82020E46
:1045580072197311D8A4B3EF22F0B5EF22F0B6EFB9
:1045680022F08B92724B732B12000F01459F459BD3
:1045780045994597459545934591449F9F0E441706
:1045880044894451F30B0409446F030E4313030E8B
:104598004317000EC26E000EC16EC09EC050F80BCD
:1045A8000109C06EC050C70B1009C06E000EC36E63
:1045B800000EC46E010EC26E458F000E0101E06F41
:1045C800960EDF6F000E00018B6F000E8A6F929CB3
:1045D8001200000E016E240E026EF40E036E000E21
:1045E800046E0E50106E0F50116E126A136A020E8E
:1045F800D8901036113612361336E82EFCEF22F01A
:1046080010C005F011C006F012C007F013C008F082
:104618003BEC1CF0FF0E0124146EFF0E0220156EF9
:10462800080E706E900E716E240E726E14C075FFB7
:104638001550766E1200000E016E240E026EF40EF6
:10464800036E000E046E0E50106E0F50116E126A3B
:10465800136A020ED8901036113612361336E82E29
:104668002EEF23F010C005F011C006F012C007F0BD
:1046780013C008F03BEC1CF0FF0E0124146EFF0E73
:104688000220156E080EB86E900EAB6E240EAC6E3E
:1046980014C0AFFF1550B06E1200BF0E096EFF0EAA
:1046A8000A6E07C00BF008C00CF009500B260A5020
:1046B8000C220C500AE11A0E0B5CD8A066EF23F00E
:1046C80069EF23F0010E6AEF23F0000E0D6E0E6AFB
:1046D8000D500E10D8B473EF23F075EF23F07CEF74
:1046E80023F0200E0710076E0850086E80EF23F0A5
:1046F80007C007F008C008F012009F0E096EFF0EF1
:104708000A6E07C00BF008C00CF009500B260A50BF
:104718000C220C500AE11A0E0B5CD8A096EF23F07D
:1047280099EF23F0010E9AEF23F0000E0D6E0E6A3A
:104738000D500E10D8B4A3EF23F0A5EF23F0ABEF84
:1047480023F05F0E0714076E086AAFEF23F007C067
:1047580007F008C008F01200010E0001686F020E91
:10476800696F000E6A6FED0E0101E16F730EE26F63
:10477800010EE36F000E0001A86F000E0101E56F46
:104788001E0EE46F000E0001A36F94909492960E93
:104798000F6E000E0E6E1FEC23F07A0E0F6E120EC7
:1047A8000E6EEDEC22F0B4EC27F0B9EC22F0F28EAC
:1047B800F28C1200046E04C003F003460346C25094
:1047C8000318830B0318C26E00F000F000F000F02D
:1047D80000F000F000F000F0C282C2B2F6EF23F061
:1047E800F8EF23F0F1EF23F0C4CF05F0066A055087
:1047F800066E056AC3500524056E000E0620066E77
:1048080005C001F006C002F01200000E066E000E90
:10481800056EAC0E076E000E086E1E0E046E000EBE
:10482800096E24EF24F007C0D9FF08C0DAFFDF5073
:10483800036E03500526000E0622074A082A092A95
:104848000450095CD8A02BEF24F02DEF24F017EFCB
:1048580024F0BA0E0518016EAB0E0618026E12008F
:10486800000E01015A6F5A0E0001966F010E976FE4
:10487800000E956F000E946F000E4A6E4A50020D9E
:10488800A40EF324D96E010EF420DA6ED00EDE6E7B
:10489800000EDD6E4A2A070E4A6455EF24F057EFE2
:1048A80024F042EF24F0DB0E456E010E466EC3EC99
:1048B80020F01200010E076E200E01180210D8B465
:1048C80068EF24F06AEF24F083EF24F0F70E036E0C
:1048D800FF0E046E01C005F002C006F00350052665
:1048E80004500622065009E1050E055CD8A07FEFAA
:1048F80024F081EF24F083EF24F0000E076E07C048
:1049080001F0026A12009DEF24F00A0E0418D8A4E0
:1049180090EF24F092EF24F09AEF24F00D0E12ECB1
:1049280028F00A0E12EC28F09DEF24F0045012EC47
:1049380028F002C0F6FF03C0F7FF024A032A080066
:10494800F5CF04F00450D8A4ACEF24F0AEEF24F077
:1049580089EF24F0120001C003F002C004F0B7EFA1
:1049680024F0014A022A01C0F6FF02C0F7FFF86AE4
:10497800050EF76403D00800F55005D0F6CFE9FF1F
:10498800F7CFEAFFEF500009D8A4CDEF24F0CFEF1E
:1049980024F0B5EF24F00350015C016E0450025876
:1049A800026E120003C005F004C006F00C0E076E7C
:1049B800D89006320532072EDCEF24F005509DEC26
:1049C80026F004509DEC26F003C005F004C006F064
:1049D800040E076ED89006320532072EEEEF24F04B
:1049E80005509DEC26F003500F0B9DEC26F01200AD
:1049F80020EE02F04C50D9264D50DA22DECFF6FFD9
:104A0800DECFF7FF050EF76403D00800F55005D098
:104A1800F6CFE9FFF7CFEAFFEF503F0AD8A417EF28
:104A280025F019EF25F01FEF25F0100E456E7C0ECE
:104A3800466EC3EC20F012000F01459F00F000F015
:104A480000F000F0000EC26E000EC16EC08EC050A5
:104A5800F80B0509C06EC050C70B1009C06E000ED8
:104A6800C36E000EC46E010EC26E93820F013983AD
:104A78009388398993803981938A398B1200000E83
:104A88008D6E000E8C6E000E896E000E8A6E000E02
:104A98008B6E070E966E3F0E926E9368900E946E14
:104AA800B70E956E000E0F013A6F3969000E3B6F15
:104AB800070E3C6F2F0E386F6168F19E8B848C96C1
:104AC8001200ACC027F089EC1BF01BC028F01CC0FA
:104AD80029F000016E51281809E16F512918D8B43E
:104AE80078EF25F07AEF25F085EF25F028C006F05D
:104AF80029C007F02750C3EC25F028C06EF029C064
:104B08006FF0120020EC25F00B0EDEEC23F001C054
:104B1800CEF002C0CFF00A0EDEEC23F001C0CCF0DC
:104B280002C0CDF00D0EDEEC23F001C078F002C01B
:104B380079F00C0EDEEC23F001C056F102C057F1FB
:104B480012000D0E12EC28F0000E036E000E026E1D
:104B5800200E12EC28F0024A032A03BEBDEF25F00E
:104B6800035009E12A0E025CD8A0BDEF25F0BFEF83
:104B780025F0ACEF25F00D0E12EC28F012000B6EAC
:104B88000B040F0BE0090C6E0C505BEC1EF006508A
:104B98007F0B5BEC1EF006C008F007C009F0070E9B
:104BA8000A6E0934093208320A2ED5EF25F008506A
:104BB8007F0B5BEC1EF01200E00E036EFF0E046E1E
:104BC80001C005F002C006F0035005260450062275
:104BD80006500AE15F0E055CD8A0F5EF25F0F8EF66
:104BE80025F0010EF9EF25F0000E016E026A1200A1
:104BF8009F0E036EFF0E046E01C005F002C006F0A2
:104C0800035005260450062206500AE11A0E055CD8
:104C1800D8A011EF26F014EF26F0010E15EF26F0BC
:104C2800000E016E026A1200BF0E036EFF0E046EC4
:104C380001C005F002C006F0035005260450062204
:104C480006500AE11A0E055CD8A02DEF26F030EFC9
:104C580026F0010E31EF26F0000E016E026A1200F6
:104C6800D00E036EFF0E046E01C005F002C006F000
:104C7800035005260450062206500AE10A0E055C78
:104C8800D8A049EF26F04CEF26F0010E4DEF26F0A4
:104C9800000E016E026A1200000EF86E0450F76EE4
:104CA80003C0F6FF61EF26F0090001C0D9FF02C07A
:104CB800DAFFF5CFDFFF014A022A05060528D8A446
:104CC80068EF26F06AEF26F058EF26F012000A0E79
:104CD800456E760E466EC3EC20F0E30E456E710EFF
:104CE800466EC3EC20F0BD0E456E730E466EC3ECE7
:104CF80020F0F50E456E720E466EC3EC20F01200E1
:104D0800E90E00017E5D030E7F59D8A08EEF26F0D4
:104D180090EF26F09CEF26F0A851D8A496EF26F045
:104D280098EF26F09CEF26F0CCC076F0CDC077F057
:104D38001200026E0F0E02160A0E0260A6EF26F08F
:104D4800A8EF26F0AEEF26F00250300F12EC28F054
:104D5800B2EF26F00250370F12EC28F012000001D3
:104D6800AD51D8B4BAEF26F0BCEF26F0C8EF26F064
:104D7800F00E5BEC1EF0730E5BEC1EF0300E5BEC7D
:104D88001EF0F70E5BEC1EF012000100010001009E
:104D98000001000100010100010001000001000103
:104DA80000010000010203040506070809A57E9F0B
:054DB8007E0D3E20000D
:104DBE00E4C101F0E5C102F0EA0E046E600E036E6E
:104DCE0007EC27F001C052F102C053F10101546B00
:104DDE00556B010E0001A86F12009D9064C005F086
:104DEE0065C006F066C007F067C008F09D8005C07C
:104DFE0001F006C002F007C003F008C004F0120074
:104E0E0001500302F3CF05F0F4CF06F00150040277
:104E1E00F350062602500302F350062605C001F099
:104E2E0006C002F01200000EF86E0250F76E01C0BE
:104E3E00F6FFA68EA69CA684A688F29E550EA76E99
:104E4E00AA0EA76EA682F28EA69412005C50036E76
:104E5E00046A070ED89003360436E82E31EF27F099
:104E6E0000019E510324016E000E0420026E1200FA
:104E7E00056E0550020D000EF324D96E010EF420BE
:104E8E00DA6EDECF03F0DDCF04F00450016E026A5D
:104E9E001200000E9EBA010E016EABA259EF27F062
:104EAE005BEF27F05FEF27F0AB9EAB8E000E016E2F
:104EBE0001501200086E08040F0BB009096E09505C
:104ECE005BEC1EF006507F0B5BEC1EF007507F0B69
:104EDE005BEC1EF01200086E08040F0B9009096EB1
:104EEE0009505BEC1EF006507F0B5BEC1EF007507A
:104EFE007F0B5BEC1EF0120009EC24F001C0CAF02F
:104F0E0002C0CBF0AC0E036E000E046E7F0E066E6A
:104F1E00800E056E79EC21F01200000E026E50EC40
:104F2E0027F00009D8B49EEF27F0A0EF27F0A2EFEC
:104F3E0027F0AECF02F002501200076E07040F0BDF
:104F4E008009086E08505BEC1EF006507F0B5BEC80
:104F5E001EF0000E5BEC1EF01200540ECD6E000E15
:104F6E00CC6EE00ECF6EC00ECE6ECECFFEF0CFCF9B
:104F7E00FFF09E909D80CD801200066E06040F0BF2
:104F8E00B009076E07505BEC1EF0790E5BEC1EF05D
:104F9E00000E5BEC1EF01200066E06040F0BB0093D
:104FAE00076E07505BEC1EF0780E5BEC1EF0000EE9
:104FBE005BEC1EF01200046E380E0424D96EDA6A11
:104FCE00010EDA22DF50036E0350016E026A1200E8
:104FDE00076E07040F0BC009086E08505BEC1EF03D
:104FEE0006507F0B5BEC1EF012004AC0D1F04BC096
:104FFE00D2F04CC0D3F04DC0D4F059EC05F01200F5
:10500E00016EA4A80DEF28F00FEF28F008EF28F09E
:10501E0001C073FF1200016E9EA818EF28F01AEF60
:10502E0028F013EF28F001C0ADFF120067EC28F056
:10503E0043EC25F038EC28F0B4EC27F01200036EA8
:10504E0003380F0B9DEC26F003509DEC26F012005A
:10505E00000EF86E0250F76E01C0F6FF0800F55014
:10506E001200720ED36E040ED26E000E9B6E1200E4
:10507E00016E01C0DFF10101E06B1200CEC001F044
:10508E00CFC002F0120078C001F079C002F0120019
:10509E00000E026E0A0E016E12008AC001F08BC065
:1050AE0002F01200A1C001F0026A1200000E00010F
:1050BE00A86F120069EC28F012007CEC1DF01200B3
:0850CE00D09E1200FF00120049
:1070600000434B48454A111417FC7E47F849D07E2F
:1070700047D64CF47E47B4292F7E470433ED7E4734
:10708000BC39DF7E47F84FC97E47C434E47E47846D
:107090002C777E47C250FA7E00D64C767E47041A83
:1070A000457E476000D57E47102FC37E476823FA90
:1070B0007E0000004578616D706C653A202020707C
:1070C00072657365742033203D2036372020207C84
:1070D00020536574204D494449205072676D203615
:1070E0003720666F72205072657365742033200AF2
:1070F0000A004578616D706C653A202020636F6EE0
:1071000066696720206368616E203D203130202051
:1071100020205B536574204D696469205478206396
:1071200068616E6E656C203D2031305D200A0A007A
:1071300055736167652023323A2020636F6E66695C
:1071400067203C706172616D3E205B3D5D203C7646
:10715000616C75653E202020207C20536574207072
:107160006172616D2E2076616C7565200A00557321
:107170006167652023323A20207072657365742040
:107180003C707265233E205B3D5D203C76616C75F2
:10719000653E202020207C2053657420507265734A
:1071A00065742076616C7565200A005573616765AA
:1071B0002023313A202070726573657420202020CE
:1071C0007C204C69737420507265736574204D493E
:1071D0004449205072676D206E756D626572732030
:1071E0000A0A00436F6D6D616E64206172672773D8
:1071F00020616E64206F7074696F6E73206D75739B
:1072000074206265207365706172617465642062C8
:1072100079207370616365732E0A00526573746F11
:10722000726520636F6E66696775726174696F6EEF
:10723000206461746120746F20666163746F727979
:107240002064656661756C74733F2028592F4E2940
:107250003A200053656E64696E67205379732E453A
:10726000782E20274944454E5427206D73672063AC
:107270006F6E74696E756F75736C7920746F204DC5
:10728000494449204F5554200A0020202077686542
:107290007265203C706172616D3E206973206120CF
:1072A0006E69636B6E616D65206C697374656420D3
:1072B00062792075736167652023312E200A0A00E8
:1072C000766961204D494449207472616E736D691D
:1072D000742071756575652E20204D657373616727
:1072E0006520696E74657276616C20697320356DF6
:1072F000732E200A00546F20726563616C6C2070DD
:10730000726576696F75736C7920656E74657265E8
:107310006420636F6D6D616E64732C2068697420E6
:107320004374726C2B522E0A005450322070756CCC
:10733000736573204869676820666F72203520691D
:107340007465726174696F6E73206F662044454C7A
:1073500041595F31757328292E200A005365742026
:107360006F7065726174696E67206D6F64652C2043
:10737000692E652E20636F6E666967757261746928
:107380006F6E2070726F66696C652E0A00557361AE
:1073900067652023313A2020636F6E66696720207D
:1073A00020207C204C69737420636F6E66696727A8
:1073B0006E20706172616D2773200A0A00466F7239
:1073C00020636F6D6D616E64207573616765206801
:1073D000656C702C20656E7465723A20273C636D75
:1073E000645F6E616D653E203F27200A0042617533
:1073F0006572207B52454D497D2048616E647365FE
:1074000074206D6B32202D2D205365727669636573
:1074100020506F727420434C49200A0020202077AE
:1074200068657265203C707265233E206973207424
:10743000686520507265736574206E756D62657243
:107440002028312E2E3829200A0A00202D6D203ABE
:1074500020204D494449204F5554205458207465EC
:107460007374202873656E64203078304620636F13
:107470006E74696E2E29200A00202D66203A202085
:10748000577269746520466C617368206461746129
:1074900020626C6F636B202864657374727563740B
:1074A00069766529200A00202D71203A20204D4957
:1074B0004449204F55542054582051756575652016
:1074C0007465737420284944454E54204020356D1E
:1074D0007329200A0053656E64696E672030783026
:1074E0004620636F6E74696E756F75736C79207466
:1074F0006F204D49444920545820554152542E2E56
:107500002E0A0020202D72203A2052454D4920732A
:10751000796E74682C20202D67203A2067656E658F
:107520007269632073796E7468206D6F64650A00F8
:107530005465737420657865637574696F6E207423
:10754000696D65206F662044454C41595F31757304
:107550002829206D6163726F2E200A00202D702073
:107560003A202053686F77204D4944492050726576
:10757000737375726520646174612076616C7565E2
:107580002028313462290A00202D76203A2020411B
:107590006374697661746520646961672E206D6F1C
:1075A0006465205B74696D656F75742C206D696E00
:1075B000735D0A00202D68203A20204865617274AE
:1075C00062656174204C4544206469732F656E6167
:1075D000626C652028746F67676C6529200A002A31
:1075E00020446961676E6F73746963206D6F6465B1
:1075F000206973206163746976652E2E2E2054698C
:107600006D656F757420696E2000546F206C69730E
:107610007420617661696C61626C6520636F6D6D69
:10762000616E64732C20656E7465723A20276C63FA
:1076300027200A00202D78203A20204578697420E0
:107640002863616E63656C2920646961676E6F737E
:10765000746963206D6F64652E200A0020205573C5
:1076600065202764696167202D782720636D642079
:10767000746F2063616E63656C20616E7974696DEF
:10768000652E0A00202D65203A202053686F772050
:10769000737461727475702073656C662D74657394
:1076A00074204572726F7273200A00202D64203A94
:1076B0002020546573742044656C61792066756E72
:1076C0006374696F6E206F72206D6163726F200A40
:1076D0000020204D696469204D6F64756C61746988
:1076E0006F6E20496E74657276616C202831302E81
:1076F0002E313030290A0055736167653A202064C5
:1077000069616720203C6F7074696F6E3E20205B5A
:10771000617267315D202E2E2E200A0020205365D5
:107720006E642031342D62697420457870726573FF
:1077300073696F6E20646174612028302C31290ACE
:107740000020204D69646920457870726573736903
:107750006F6E204343206E756D6265722028302E57
:107760002E3331290A0020204D696469204D6F6451
:10777000756C6174696F6E204343206E756D626530
:10778000722028302E2E3331290A0020204D6964C2
:10779000692045787072657373696F6E20496E74E5
:1077A000657276616C2028352E2E3530290A00202E
:1077B00020546F7563682053656E7365205468723A
:1077C0006573686F6C6420286D61782E32353029BE
:1077D0000A0020204D6964692050726F672E204393
:1077E00068616E676520456E61626C656420283053
:1077F0002C31290A0020204D696469205379732EA9
:107800004578636C2E4D736720456E61626C6564CC
:107810002028302C31290A002A2044656661756CC5
:107820007420636F6E66696775726174696F6E202C
:10783000726573746F7265642E0A002120496E763A
:10784000616C696420707265736574206F72204D7D
:10785000494449207072676D2023200A002020507F
:1078600061642320207C20204144432072617720E2
:10787000207C202046696C7465726564200A0020B3
:10788000204D6F64756C6174696F6E20446561642E
:107890002D62616E6420286D61782E353030290AA2
:1078A00000202050726573737572652053656E7386
:1078B0006F72205370616E20286D61782E373030E2
:1078C000290A0021204572726F723A20436F6E665A
:1078D00069672044617461202864656661756C7411
:1078E0006564290A005F5F5F5F5F5F5F5F5F5F5F87
:1078F0005F5F5F5F5F5F5F5F5F5F5F5F5F5F5F5F98
:107900005F5F5F5F5F0A005F5F5F5F5F5F5F5F7C1E
:107910005F5F5F5F5F5F5F5F5F5F5F7C5F5F5F5F5A
:107920005F5F5F5F5F5F5F0A006060606060606014
:10793000607C60606060606060606060607C60600F
:107940006060606060606060600A00202D73203AB3
:10795000202053686F77206E6F7465206F6E2F6FD5
:107960006666205374617465200A0020204D6F64A0
:10797000756C6174696F6E204D6178696D756D20ED
:10798000286D61782E373530290A00202056656C25
:107990006F636974792053656E736520456E61620B
:1079A0006C65642028302C31290A0020204D696440
:1079B00069204261736963204368616E6E656C2063
:1079C00028312E2E313629200A0021205768617473
:1079D0003F2028496E76616C696420636D64206F76
:1079E0007074696F6E29200A002120576861743F06
:1079F0002020285472793A20707265736574202DA6
:107A000068656C7029200A00202046696E676572DF
:107A1000696E6720536368656D652028302C312CB2
:107A2000322C2E2E290A00436F6E6E65637420730C
:107A3000636F70652070726F626520746F205450A0
:107A4000322E200A002120496E76616C6964206E16
:107A500069636B6E616D65206F722076616C756510
