:0400000011EF00F00C
:100008005F82F0A602D0F0B006D0F2BC9DA003D06B
:100018009EB049EC1FF05F921100A3EF1AF0000E9A
:100028004E6E000E4F6ECFEC22F0506E020E471847
:100038004810D8A42CD020EE02F04950D9264A50B6
:10004800DA22DECF4BF0DDCF4CF04BC0D9FF4CC0ED
:10005800DAFF3F0EDE18D8A41AD0580E026E710EC1
:10006800036E60EC1DF0640E026E700E036E60ECA1
:100078001DF0230E026E730E036E60EC1DF0A20ECF
:10008800026E700E036E60EC1DF0AFEF04F04704D3
:100098004810D8A4E1D1FE0E026E7C0E036E60EC0F
:1000A8001DF050501B6E1C6A1D6A1E6A010E1F6EE1
:1000B800B7EC0FF09C0E026E740E036E60EC1DF030
:1000C8008E0E026E7D0E036E60EC1DF0BB0E50248A
:1000D800D96EDA6A000EDA22DF504B6E4B501B6E77
:1000E8001C6A1D6A1E6A040E1F6EB7EC0FF0130E11
:1000F800026E7A0E036E60EC1DF0F10E026E7D0E3C
:10010800036E60EC1DF0BD0E5024D96EDA6A000E45
:10011800DA22DF504B6E4B501B6E1C6A1D6A1E6A3A
:10012800040E1F6EB7EC0FF05D0E026E780E036EB4
:1001380060EC1DF0DF0E026E7D0E036E60EC1DF0AC
:10014800BF0E5024D96EDA6A000EDA22DF504B6EE9
:100158004B501B6E1C6A1D6A1E6A040E1F6EB7EC9C
:100168000FF03A0E026E780E036E60EC1DF0970EDB
:10017800026E7D0E036E60EC1DF0C10E5024D96E28
:10018800DA6A000EDA22DF504B6E4B501B6E1C6A87
:100198001D6A1E6A040E1F6EB7EC0FF0920E026EF7
:1001A800790E036E60EC1DF0BB0E026E7D0E036EC1
:1001B80060EC1DF0C30E5024D96EDA6A000EDA2204
:1001C800DF504B6E4B501B6E1C6A1D6A1E6A040E74
:1001D8001F6EB7EC0FF0AA0E026E770E036E60EC7E
:1001E8001DF01E0E026E7E0E036E60EC1DF0C50E35
:1001F8005024D96EDA6A000EDA22DF504B6E4B506B
:100208001B6E1C6A1D6A1E6A040E1F6EB7EC0FF087
:10021800A00E026E760E036E60EC1DF00C0E026EE0
:100228007E0E036E60EC1DF0C70E5024D96EDA6A9C
:10023800000EDA22DF504B6E4B501B6E1C6A1D6A93
:100248001E6A040E1F6EB7EC0FF0850E026E770E55
:10025800036E60EC1DF0FA0E026E7D0E036E60EC0C
:100268001DF0C90E5024D96EDA6A000EDA22DF506A
:100278004B6E4B501B6E1C6A1D6A1E6A040E1F6E65
:10028800B7EC0FF06E0E026E7A0E036E60EC1DF086
:10029800E80E026E7D0E036E60EC1DF0CB0E50244E
:1002A800D96EDA6A000EDA22DF504B6E4B501B6EA5
:1002B8001C6A1D6A1E6A040E1F6EB7EC0FF0D30E7F
:1002C800026E790E036E60EC1DF0A90E026E7D0EB3
:1002D800036E60EC1DF0CD0E5024D96EDA6A000E64
:1002E800DA22DF504B6E4B501B6E1C6A1D6A1E6A69
:1002F800040E1F6EB7EC0FF03A0E026E770E036E07
:1003080060EC1DF08D0E026E740E036E60EC1DF035
:10031800C40E026E7D0E036E60EC1DF00001CF511D
:100328001B6E1C6A1D6A1E6A040E1F6EB7EC0FF066
:10033800320E026E7A0E036E60EC1DF0A00E026E95
:100348007D0E036E60EC1DF00001D0511B6E000E97
:100358001BBEFF0E1C6E1D6E1E6E040E1F6EB7ECCC
:100368000FF02C0E026E790E036E60EC1DF0B20ECB
:10037800026E7D0E036E60EC1DF00001D1511B6E04
:100388001C6A1D6A1E6A040E1F6EB7EC0FF0170E6A
:10039800026E780E036E60EC1DF0D60E026E7D0EB6
:1003A800036E60EC1DF0D2C01BF0D3C01CF01D6AB8
:1003B8001E6A040E1F6EB7EC0FF0140E026E770E55
:1003C800036E60EC1DF0CD0E026E7D0E036E60ECC8
:1003D8001DF0D8C01BF0D9C01CF01D6A1E6A040E9F
:1003E8001F6EB7EC0FF0E80E026E780E036E60EC2D
:1003F8001DF0030E026E7E0E036E60EC1DF0D4C07D
:100408001BF0D5C01CF01D6A1E6A040E1F6EB7ECE7
:100418000FF0CF0E026E770E036E60EC1DF0150E16
:10042800026E7E0E036E60EC1DF0D6C01BF0D7C0C6
:100438001CF01D6A1E6A040E1F6EB7EC0FF00A0E40
:10044800026E790E036E60EC1DF01B0E026E750EC7
:10045800036E60EC1DF07FD2020E47184810D8A436
:1004680003D0010E4F6E77D248BE75D2485004E1D2
:10047800030E475CD8A06FD2E40E016E000E026E28
:1004880020EE02F04950D9264A50DA22DECF03F096
:10049800DDCF04F0000E066E080E056EADEC1CF004
:1004A800000E0001EB6F20EE04F04950D9264A50A7
:1004B800DA22DECF4BF0DDCF4CF04BC0D9FF4CC079
:1004C800DAFF3D0EDE18D8A412D0040E47184810E3
:1004D800D8A40DD020EE06F04950D9264A50DA2289
:1004E800DECF08F0DDCF09F055EC13F00CD020EE8C
:1004F80004F04950D9264A50DA22DECF08F0DDCF81
:1005080009F055EC13F008C051F009C052F0E40EA0
:100518000D6E000E0E6ED40E0F6E7E0E106E85ECF4
:100528001BF00009D8A452BE13D0525003E1510465
:10053800D8A00ED052BE06D052500AE1110E515C1E
:10054800D8B006D0BB0E5024D96EDA6A000E01D19D
:10055800E40E0D6E000E0E6E950E0F6E7E0E106E72
:1005680085EC1BF00009D8A452BE0ED052BE06D0AE
:1005780052500AE1020E515CD8B006D0BD0E50248C
:10058800D96EDA6A000EE5D0E40E0D6E000E0E6E1E
:10059800870E0F6E7E0E106E85EC1BF00009D8A436
:1005A80052BE0ED052BE06D052500AE1020E515C25
:1005B800D8B006D0BF0E5024D96EDA6A000EC9D062
:1005C800E40E0D6E000E0E6ED90E0F6E7E0E106EBE
:1005D80085EC1BF00009D8A452BE0ED052BE06D03E
:1005E80052500AE1020E515CD8B006D0C10E502418
:1005F800D96EDA6A000EADD0E40E0D6E000E0E6EE6
:10060800640E0F6E7E0E106E85EC1BF00009D8A4E8
:1006180052BE0ED052BE06D052500AE1200E515C96
:10062800D8B006D0C30E5024D96EDA6A000E91D025
:10063800E40E0D6E000E0E6E470E0F6E7E0E106EDF
:1006480085EC1BF00009D8A452BE14D0525004E126
:10065800050E515CD8A00ED052BE06D052500AE109
:10066800330E515CD8B006D0C50E5024D96EDA6A64
:10067800000E6FD0E40E0D6E000E0E6E2F0E0F6E74
:100688007E0E106E85EC1BF00009D8A452BE0ED069
:1006980052BE06D052500AE1020E515CD8B006D0C4
:1006A800C70E5024D96EDA6A000E53D0E40E0D6ED0
:1006B800000E0E6E9C0E0F6E7E0E106E85EC1BF0FB
:1006C8000009D8A452BE0ED052BE06D052500AE13C
:1006D800020E515CD8B006D0C90E5024D96EDA6A21
:1006E800000E37D0E40E0D6E000E0E6EBD0E0F6EAE
:1006F8007E0E106E85EC1BF00009D8A452BE0ED0F9
:1007080052BE06D052500AE1020E515CD8B006D053
:10071800CD0E5024D96EDA6A000E1BD0E40E0D6E91
:10072800000E0E6E8E0E0F6E7E0E106E85EC1BF098
:100738000009D8A452BE11D052BE06D052500DE1C5
:10074800020E515CD8B009D0CB0E5024D96EDA6AAB
:10075800000EDA2251C0DFFFE0D0E40E0D6E000E6D
:100768000E6E6B0E0F6E7E0E106E85EC1BF0000980
:10077800D8A452BE0DD052BE06D0525009E1080E80
:10078800515CD8B005D051C0CFF0010E4F6EC5D026
:10079800E40E0D6E000E0E6EB70E0F6E7E0E106E0E
:1007A80085EC1BF00009D8B413D052AE06D0E80E81
:1007B800515CFF0E5258D8A00BD052BE06D05250F2
:1007C80007E1190E515CD8B003D051C0D0F0DDD785
:1007D800E40E0D6E000E0E6EC90E0F6E7E0E106EBC
:1007E80085EC1BF00009D8A452BE11D0525004E188
:1007F800320E515CD8A00BD052BE06D0525007E141
:10080800FB0E515CD8B003D051C0D1F086D0E40EB5
:100818000D6E000E0E6E800E0F6E7E0E106E85EC45
:100828001BF00009D8A452BE13D0525004E1640E44
:10083800515CD8A00DD052BE06D0E90E515C030E13
:100848005258D8B005D051C0D2F052C0D3F065D0BC
:10085800E40E0D6E000E0E6E790E0F6E7E0E106E8B
:1008680085EC1BF00009D8A452BE13D0525004E105
:10087800640E515CD8A00DD052BE06D0E90E515C72
:10088800030E5258D8B005D051C0D8F052C0D9F094
:1008980044D0E40E0D6E000E0E6EAA0E0F6E7E0E84
:1008A800106E85EC1BF00009D8A452BE13D052502C
:1008B80004E1640E515CD8A00DD052BE06D0E90EFA
:1008C800515C030E5258D8B005D051C0D4F052C074
:1008D800D5F023D0E40E0D6E000E0E6E370E0F6E9F
:1008E8007E0E106E85EC1BF00009D8A452BE0DD008
:1008F80052BE06D0B70E515C030E5258D8B005D080
:1009080051C0D6F052C0D7F008D0010E4E6E500E2E
:10091800026E7A0E036E60EC1DF04E50D8A41BD008
:10092800B2EC21F0260E026E7C0E036E60EC1DF018
:1009380051C01BF052C01CF0000E1CBEFF0E1D6EF5
:100948001E6E010E1F6EB7EC0FF01B0E026E750EB9
:10095800036E60EC1DF04F50D8B412004D0E026EBD
:100968007C0E036E60EC1DF00001CF51D8A407D0B7
:10097800A30E026E780E036E60EC1DF01AD0CF0540
:10098800D8A407D0F30E026E770E036E60EC1DF04C
:1009980010D0010ECF6507D08B0E026E7A0E036E53
:1009A80060EC1DF006D01B0E026E750E036E60EC37
:1009B8001DF0C50E026E7C0E036E60EC1DF000018A
:1009C800D0511B6E000E1BBEFF0E1C6E1D6E1E6EE0
:1009D800040E1F6EB7EC0FF0B60E026E7C0E036E9F
:1009E80060EC1DF0F40E0001D019D8A407D0840ED5
:1009F800026E7C0E036E60EC1DF01200F90ED01929
:100A0800D8A407D06F0E026E7D0E036E60EC1DF049
:100A18001200D051D8A407D0410E026E7D0E036E8D
:100A280060EC1DF01200050ED019D8A407D0600E96
:100A3800026E7C0E036E60EC1DF012000C0ED019D5
:100A4800D8A407D0910E026E7B0E036E60EC1DF0E9
:100A580012001B0E026E750E036E60EC1DF0120084
:100A680020EE02F04950D9264A50DA2210EE01F061
:100A7800DE50E126DD50E222E7504B6E4B50076E08
:100A8800086AC9EC1FF007504F6E47044810D8B4E5
:100A980012D020EE02F04950D9264A50DA22DECF91
:100AA8004BF0DDCF4CF04BC0D9FF4CC0DAFF3F0E06
:100AB800DE18D8A4B7D2600E026E770E036E60EC13
:100AC8001DF0640E026E7D0E036E60EC1DF0510E7B
:100AD800026E760E036E60EC1DF0FF0E026E750E50
:100AE800036E60EC1DF0790E026E760E036E60ECFC
:100AF8001DF0EE0E026E760E036E60EC1DF0A70E72
:100B0800026E750E036E60EC1DF0B30E026E790E68
:100B1800036E60EC1DF0BE0E026E740E036E60EC88
:100B28001DF05C0E026E740E036E60EC1DF07A0E02
:100B3800026E750E036E60EC1DF012000001B151DB
:100B4800D8A406D0C30E026E7A0E036E60EC1DF0B8
:100B58000001B1A306D0280E026E760E036E60EC7B
:100B68001DF00001B1A106D0D30E026E750E036E02
:100B780060EC1DF00001B1A506D0F30E026E790EEF
:100B8800036E60EC1DF00001B1A71200700E026E3A
:100B9800790E036E60EC1DF01200A70E026E7A0E3D
:100BA800036E60EC1DF083BA07D07A0E026E7D0EDC
:100BB800036E60EC1DF01200590E026E7D0E036E7E
:100BC80060EC1DF012007FEC21F001C01BF002C0A8
:100BD8001CF01D6A1E6A050E1F6EB7EC0FF01B0E87
:100BE800026E750E036E60EC1DF01200CCEC22F064
:100BF8004B6E4B50526E536A52505310D8A407D0C4
:100C0800D40E026E7C0E036E60EC1DF012005204CE
:100C18005310D8A407D01A0E026E7D0E036E60EC36
:100C28001DF01200020E52185310D8A407D0270E38
:100C3800026E7D0E036E60EC1DF012003A0E026E1D
:100C48007C0E036E60EC1DF01200030E471848106E
:100C5800D8A414D020EE04F04950D9264A50DA22FC
:100C6800DECF4BF0DDCF4CF04BC0D9FF4CC0DAFFE4
:100C7800310EDE18D8A402D0010E01D0000E0001FA
:100C8800B06FB051D8B41200430E026E720E036EEC
:100C980060EC1DF01200000E506E4C0E026E750EC8
:100CA800036E60EC1DF0D20E026E7B0E036E60ECDC
:100CB8001DF00BD00F0EAEEC22F03AEC22F000093A
:100CC800D8B403D05BEC22F0506E1B0E5018D8B489
:100CD8001200F0D7000E516EEC0E026E720E036E0B
:100CE80060EC1DF0590E026E730E036E60EC1DF081
:100CF800F20E026E7A0E036E60EC1DF033EC21F0FA
:100D080001C060F002C061F003C062F004C063F08B
:100D180037D033EC21F000016051015C4B6E61511A
:100D280002584C6E625103584D6E635104584E6E12
:100D38004E504D104C101AE1050E4B5CD8B016D031
:100D480033EC21F001C060F002C061F003C062F032
:100D580004C063F0F00EDCEC1AF0730EDCEC1AF051
:100D6800300EDCEC1AF0F70EDCEC1AF0DCEC1DF0BF
:100D78003AEC22F00009D8B403D05BEC22F0516EB3
:100D88001B0E5118D8B41200C4D7020E28EC1AF062
:100D98000009D8A407D04E0E026E790E036E60ECDF
:100DA8001DF012000D0E0CEC21F04B6E4B50546EE2
:100DB800556A1A0E54185510D8A407D0FC0E026EA6
:100DC8007B0E036E60EC1DF012D02A0E54185510DD
:100DD800D8A407D0110E026E7C0E036E60EC1DF0D5
:100DE80006D0090E026E7B0E036E60EC1DF0930EAA
:100DF800026E710E036E60EC1DF0CE0E026E710E67
:100E0800036E60EC1DF096D0010E0CEC21F04B6ED9
:100E18004B50546E556A5450556E546A020E0CEC81
:100E280021F04B6E4B505426000E55224F0E026E89
:100E38007E0E036E60EC1DF054C04BF055C04CF0B4
:100E4800040E4D6E4C344C324B324D2EFBD74BC0FA
:100E58001BF04CC01CF0000E1CBEFF0E1D6E1E6E5B
:100E6800060E1F6EB7EC0FF0030E0CEC21F04B6E64
:100E78004B50546E556A5450556E546A040E0CEC1F
:100E880021F04B6E4B505426000E5522560E026E22
:100E98007E0E036E60EC1DF054C04BF055C04CF054
:100EA800040E4D6E4C344C324B324D2EFBD74BC09A
:100EB8001BF04CC01CF0000E1CBEFF0E1D6E1E6EFB
:100EC800060E1F6EB7EC0FF0050E0CEC21F04B6E02
:100ED8004B50546E556A5450556E546A060E0CECBD
:100EE80021F04B6E4B505426000E55225D0E026EBB
:100EF8007E0E036E60EC1DF054C04BF055C04CF0F4
:100F0800040E4D6E4C344C324B324D2EFBD74BC039
:100F18001BF04CC01CF0000E1CBEFF0E1D6E1E6E9A
:100F2800060E1F6EB7EC0FF00D0EB4EC22F0C80ED3
:100F380051EC22F03AEC22F00009D8B465D71B0E28
:100F4800026E750E036E60EC1DF01200010E0001BA
:100F5800AF6F090E026E720E036E60EC1DF0F10E9B
:100F6800026E710E036E60EC1DF033EC21F001C0CF
:100F780060F002C061F003C062F004C063F043D0C7
:100F8800E8EC19F033EC21F000016051015C4B6E84
:100F9800615102584C6E625103584D6E63510458AA
:100FA8004E6E4E504D104C1004E1C90E4B5CD8A04B
:100FB8002AD033EC21F001C060F002C061F003C018
:100FC80062F004C063F0C4EC22F0030E0214D8A44B
:100FD80003D0010ECFEC09F0940E026E7D0E036E65
:100FE80060EC1DF080EC22F001C01BF002C01CF088
:100FF80003C01DF004C01EF0060E1F6EB7EC0FF004
:101008000D0EB4EC22F03AEC22F00009D8B4B8D7AF
:101018001B0E026E750E036E60EC1DF0000E0001D3
:10102800AF6F12004F504B6E4C6A4C50000AD8A458
:1010380012004B50610AD8B4A8D6030AD8B486D790
:10104800070AD8B47BD5080AD8B4A7D5030AD8B4F8
:10105800FCD51E0AD8B4B7D5010AD8B43BD6020AC3
:10106800D8B4C4D5070AD8A4120015D601C003F015
:1010780002C004F0D89004320332D890043203320C
:1010880003503F0B0B6E0250030B066ED8900230D4
:10109800046E0130036E0350010B0A6E0150010B00
:1010A800096E09C007F0800E0B24D96EDA6A020EA9
:1010B800DA22DF50056E05C008F03E0E0B18D8A4E2
:1010C80008D00A50D8A403D00950D8B402D03F0E93
:1010D800086E380E0B18D8A408D00A50D8A403D02C
:1010E8000950D8B402D0420E086E300E0B18D8A49E
:1010F80008D00A50D8A403D00950D8B402D0440E5E
:10110800086E200E0B18D8A408D00A50D8A403D013
:101118000950D8B402D0460E086E1E0E0B18D8A47B
:1011280008D00A50D8A403D00950D8B402D04B0E26
:10113800086E180E0B18D8A408D00A50D8A403D0EB
:101148000950D8B402D04E0E086E0E0E0B18D8A453
:1011580008D00A50D8A403D00950D8B402D0500EF1
:10116800086E0C0E0B18D8A408D00A50D8A403D0C7
:101178000950D8B402D0520E086E0001CF51D8A43D
:1011880030D03F0E0B18D8A408D00A50D8B405D0D8
:101198000950D8A402D03C0E086E3F0E0B18D8A4F4
:1011A80008D00A50D8A405D00950D8B402D03D0EB2
:1011B800086E1F0E0B18D8A408D00A50D8B405D052
:1011C8000950D8A402D0480E086E1F0E0B18D8A4D8
:1011D8005FD00A50D8A45CD00950D8B459D0490E71
:1011E80056D0CF05D8A454D03F0E0B18D8A408D099
:1011F8000A50D8B405D00750D8A402D03C0E086EC7
:101208003F0E0B18D8A408D00A50D8B405D0075000
:10121800D8B402D03D0E086E3C0E0B18D8A408D0E6
:101228000A50D8A405D00750D8B402D0420E086E90
:101238001F0E0B18D8A408D00A50D8B405D00750F0
:10124800D8A402D0480E086E1F0E0B18D8A408D0D8
:101258000A50D8B405D00750D8B402D0490E086E49
:10126800100E0B18D8A408D00A50D8A405D00750DF
:10127800D8B402D0490E086E1C0E0B18D8A408D09A
:101288000A50D8A405D00750D8B402D04E0E086E24
:101298000604D8A402D00C0E085E020E0618D8A4C4
:1012A80002D00C0E0826010ECF6571D006A241D0DF
:1012B80005C008F03F0E0B18D8A408D00A50D8B4BF
:1012C80005D00950D8A402D03C0E086E3F0E0B186A
:1012D800D8A408D00A50D8A405D00950D8B402D050
:1012E8003D0E086E3E0E0B18D8A408D00A50D8A49C
:1012F80003D00950D8B402D03F0E086E3D0E0B182B
:10130800D8A405D00A50D8B402D0410E086E1C0EDD
:101318000B18D8A405D00A50D8A402D0460E086EDF
:10132800180E0B18D8A433D00A50D8A430D0470EC2
:101338002DD00604D8A423D0000E0B24D96EDA6A67
:10134800020EDA22DF50086E370E0B18D8A405D02B
:101358000A50D8B402D0590E086E2E0E0B18D8A415
:1013680005D00A50D8B402D0550E086E2D0E0B18B1
:10137800D8A40DD00A50D8B40AD0550E07D0400EC4
:101388000B24D96EDA6A020EDA22DF50086ED051C9
:10139800082608501200206E050E0CEC21F01B6E7A
:1013A8001B50216E226A21501C6E1B6A000E1B14F2
:1013B800216EFF0E1C14226E060E0CEC21F01B6E23
:1013C8001B502126000E222221C01BF022C01CF037
:1013D8001C341C321B321C341C321B321BC021F043
:1013E8001CC022F0020E1B6E64C01CF065C01DF00C
:1013F80066C01EF067C01FF01B6601D007D01F34FF
:101408001F321E321D321C321B2EF6D71C50000113
:10141800645F1D50655B1E50665B1F50675B21C093
:101428001BF022C01CF0000E1CBEFF0E1D6E1E6EAF
:10143800060ED8901B361C361D361E36E82EF9D7F8
:101448001B5064271C5065231D5066231E506723BC
:101458002050D8B411D064C042F165C043F166C0D1
:1014680044F167C045F1000E6C6F000E6D6F000E01
:101478006E6F000E6F6F120064510101425D1B6EAA
:1014880000016551010143591C6E000166510101BB
:1014980044591D6E00016751010145591E6E1CC05B
:1014A8001BF01DC01CF01EC01DF01E6A1DBE1E686C
:1014B8001BC027F01CC028F01DC029F01EC02AF050
:1014C8002ABE11D02A50291006E14D0E275C040EC1
:1014D8002858D8A008D04C0E276E040E286E000E8F
:1014E800296E000E2A6E2AAE12D0B40E275CFB0EAF
:1014F8002858FF0E2958FF0E2A58D8B008D0B40E25
:10150800276EFB0E286EFF0E296EFF0E2A6E2ABE6E
:1015180041D02A502910281004E1640E275CD8A075
:1015280039D09C0E2724236EFF0E2820246EFF0E30
:101538002920256EFF0E2A20266E23C001F024C024
:1015480002F025C003F026C004F023C005F024C033
:1015580006F025C007F026C008F035EC1DF001C0E4
:101568000DF002C00EF003C00FF004C010F0E80E3A
:10157800116E030E126E000E136E000E146E1CEC2C
:1015880016F00DC023F00EC024F00FC025F010C0D7
:1015980026F050D02AAE46D09D0E275CFF0E285864
:1015A800FF0E2958FF0E2A58D8B03CD0640E2724C5
:1015B800236E000E2820246E000E2920256E000EB2
:1015C8002A20266E23C001F024C002F025C003F0B3
:1015D80026C004F023C005F024C006F025C007F09B
:1015E80026C008F035EC1DF001C00DF002C00EF069
:1015F80003C00FF004C010F0E80E116E030E126E57
:10160800000E136E000E146E1CEC16F00D50000840
:10161800236E000E0E54246E000E0F54256E000E1D
:10162800105407D0000E236E000E246E000E256E97
:10163800000E266E23C06CF024C06DF025C06EF03D
:1016480026C06FF0120092C001F093C002F03AEC8D
:1016580008F0466E92C03AF093C03BF0050E3C6E1F
:10166800D8903B323A323C2EFBD73A50070B3F6EAC
:1016780000019351030B406E000E416E4050D8B4E8
:1016880005D03F50D8B402D0010E416E4150D8B4B5
:1016980002D0010E01D0000E436EBB0EAD25D96EEF
:1016A800DA6A000EDA22DF50456E000E426EACC0D8
:1016B80044F0010ECF65ECD0010E436EE9D04350E3
:1016C800D8B412D08C51F05D8D51F159D8A00CD0FE
:1016D800000E01014E6F000E4F6F000E506F000E8E
:1016E800516F010E0001AE6F500E905DC30E9159FF
:1016F800D8B0E0D0050E9027000E9123DBD0000E65
:10170800916F000E906FCB0EAD25D96EDA6A000E80
:10171800DA22DF50D8A403D0400E446E0BD001016A
:10172800515150114F1104E10F0E4E5DD8A004D055
:10173800ACC044F0010E426E4250D8B4BBD046C093
:1017480004F044C005F04550A1EC21F046C0A5F0D6
:101758000001B051D8B403D046509AEC17F0000EEF
:1017680001014A6F000E4B6F000E4C6F000E4D6F5B
:10177800000E466F000E476F000E486F000E496F4F
:10178800020E0CD08A51F05D8B51F159D8B009D0B6
:10179800A5C004F04550D3EC21F0000E0001AE6F57
:1017A80089D04350D8B428D0A5514618D8B424D0ED
:1017B800C90EAD25D96EDA6A000EDA22DF50D8B428
:1017C8000DD046C004F044C005F04550A1EC21F00E
:1017D800A5C004F04550D3EC21F00CD0A5C004F00E
:1017E8004550D3EC21F046C004F044C005F0455004
:1017F800A1EC21F046C0A5F0C50E0001AD25D96EBB
:10180800DA6A000EDA22DF503A6E3AC03BF03C6AE0
:101818003D6A3E6A3B5001014A5D3C504B593D5080
:101828004C593E504D59D8A00AD0000E4A6F000EB0
:101838004B6F000E4C6F000E4D6F66EC1AF00101F5
:1018480049514811471104E11E0E465DD8A032D017
:10185800000E466F000E476F000E486F000E496F6E
:10186800CD0E0001AD25D96EDA6A000EDA22DF50FE
:10187800D8A4DCEC1CF0C10E0001AD25D96EDA6AE3
:10188800000EDA22DF50D8B415D004EC1FF012D0C5
:10189800AE513A6E3B6A3B50000AD8A47ED73A5004
:1018A800000AD8B40CD7010AD8B429D7030AD8B487
:1018B80069D773D7050E01014E27000E4F23502319
:1018C8005123050E4A27000E4B234C234D23050EAA
:1018D8004627000E4723482349231200000E5C6E5A
:1018E800000E5B6E000E5A6E560E0001806F010EE0
:1018F800816F010E5E6E5E50020D960EF324D96E56
:10190800010EF420DA6E000EDE6E000EDD6E5E2A29
:10191800050E5E64F0D7000E5E6EE00E566EFF0E8A
:10192800576E80C0D9FF81C0DAFFDF50586E596A00
:101938005650582657505922595074E15F0E585C3A
:10194800D8B070D003D00001804B812B80C0D9FF64
:1019580081C0DAFF200EDE18D8B4F5D7E00E566E37
:10196800FF0E576E80C0D9FF81C0DAFFDF50586E76
:10197800596A5650582657505922595053E15F0E0C
:10198800585CD8B04FD05E50020D960EF324D96E35
:10199800010EF420DA6E80C0DEFF81C0DDFF5B4AF5
:1019A8005C2A14D0E00E566EFF0E576E5D50586ECE
:1019B800596A5650582657505922595011E15F0E0E
:1019C800585CD8B00DD00001804B812B80C0D9FF66
:1019D80081C0DAFFDF505D6E200E5D18D8A4E2D713
:1019E800E00E566EFF0E576E80C0D9FF81C0DAFF39
:1019F800DF50586E596A5650582657505922595038
:101A080011E15F0E585CD8B00DD080C0D9FF81C0FD
:101A1800DAFF000EDF6E0001804B812B5E2A050E77
:101A28005E647BD7000E5E6E5E50050D470EF32494
:101A3800F66E6F0EF420F76E0900F5CF56F0090028
:101A4800F5CF57F056C0F6FF57C0F7FF0800F5501E
:101A5800240AD8B41ED096C10DF097C10EF05E507E
:101A6800050D470EF324F66E6F0EF420F76E09008D
:101A7800F5CF0FF00A00F5CF10F085EC1BF0000948
:101A8800D8B403D0010E5A6E04D05E2AF90E5E64F3
:101A9800CBD75CBE19D05C5004E1020E5B5CD8A0C9
:101AA80013D098C10DF099C10EF0C30E0F6E7E0EC3
:101AB800106E85EC1BF00009D8B406D098C1D9FF88
:101AC80099C1DAFF3F0EDF6E5A50D8B422D05BC0FE
:101AD80047F05CC048F0960E496E010E4A6E5E50A3
:101AE800050D030EF326000EF422470EF324F66EBE
:101AF8006F0EF420F76E01D812000500FA6E090087
:101B0800F550FD6E0900F550FE6EF850FF6EFA5064
:101B18001200A70E026E7B0E036E60EC1DF0120021
:101B280020EE02F04950D9264A50DA22DECF08F0DA
:101B3800DDCF09F055EC13F00850516E000E4E6ED3
:101B480020EE02F04950D9264A50DA22DECF4BF077
:101B5800DDCF4CF04BC0D9FF4CC0DAFF3F0EDE188A
:101B6800D8A419D07C0E026E720E036E60EC1DF0C4
:101B7800DF0E026E700E036E60EC1DF0EE0E026E4C
:101B8800740E036E60EC1DF0260E026E700E036E6E
:101B980060EC1DF0120047044810D8A44CD0200E69
:101BA800026E7B0E036E60EC1DF0DB0E026E7A0E89
:101BB800036E60EC1DF04E0E026E7B0E036E60EC41
:101BC8001DF0010E516E010E4F6E51501B6E1C6AB6
:101BD8001D6A1E6A040E1F6EB7EC0FF0270E026E08
:101BE8007E0E036E60EC1DF04F50070B4B6E4C6A77
:101BF800DA0E4B24D96E000E4C20DA6EDF504D6E93
:101C08004D501B6E1C6A1D6A1E6A030E1F6EB7ECD0
:101C18000FF01B0E026E750E036E60EC1DF04F2A5E
:101C2800512A080E4F64D1D7370E026E7B0E036E11
:101C380060EC1DF0120048BE87D0485004E1030E46
:101C4800475CD8A081D020EE04F04950D9264A50EC
:101C5800DA22DECF4BF0DDCF4CF04BC0D9FF4CC0C1
:101C6800DAFF3D0EDE18D8A412D0040E471848102B
:101C7800D8A40DD020EE06F04950D9264A50DA22D1
:101C8800DECF08F0DDCF09F055EC13F00CD020EED4
:101C980004F04950D9264A50DA22DECF08F0DDCFC9
:101CA80009F055EC13F00850506E5150D8B415D0C7
:101CB800090E516012D0800E50600FD0080E5118D6
:101CC800D8A402D0000E516EDA0E5124D96EDA6A09
:101CD800000EDA2250C0DFFF08D0010E4E6EC60E8D
:101CE800026E780E036E60EC1DF04E50D8A4120000
:101CF800B2EC21F05150D8A402D0080E516E840ED7
:101D0800026E7D0E036E60EC1DF051501B6E1C6A56
:101D18001D6A1E6A010E1F6EB7EC0FF0A60E026E4A
:101D28007C0E036E60EC1DF050501B6E1C6A1D6A21
:101D38001E6A030E1F6EB7EC0FF01B0E026E750EB7
:101D4800036E60EC1DF01200BD0E026E7B0E036E7A
:101D580060EC1DF01200B8EC1BF0F29E898C9280AA
:101D68000F013881000E15EC1BF00F013891899096
:101D7800929000F000F000F000F092820F0138839A
:101D8800010E15EC1BF00F0138938992929200F026
:101D980000F000F000F092840F013885020E15EC77
:101DA8001BF00F0138958994929400F000F000F030
:101DB80000F092860F013887030E15EC1BF00F0117
:101DC80038978996929600F000F000F000F0928A19
:101DD8000F01388B040E15EC1BF00F01389B899A04
:101DE800929A00F000F000F000F096800F013C811C
:101DF800050E15EC1BF00F013C918D90969000F0AC
:101E080000F000F000F096820F013C83060E15ECFE
:101E18001BF00F013C938D92969200F000F000F0B9
:101E280000F096840F013C85070E15EC1BF00F019E
:101E38003C958D94969400F000F000F000F09384A7
:101E48000F013985080E15EC1BF00F0139958A949E
:101E5800939400F000F000F000F093860F013987AA
:101E6800090E15EC1BF00F0139978A96939600F02E
:101E780000F000F000F0899CF28E0001B351D8A464
:101E880003D0010EB36F1200000E086E380E08243E
:101E9800D96EDA6A010EDA22DF50036E046AFB514A
:101EA800035CFC510458D8B02AD0240E0824D96EFB
:101EB800DA6A010EDA22000EDF6E2E0E0824D96EC1
:101EC800DA6A010EDA22040EDF6006D02E0E08242C
:101ED800D96EDA6A010E29D008C003F0010E046E2B
:101EE800000E056E032A03D0D89004360536032E5B
:101EF800FBD7045000019A1305509B132FD02E0EC8
:101F08000824D96EDA6A010EDA22000EDF6E240E7A
:101F18000824D96EDA6A010EDA22040EDF6008D0CE
:101F2800240E0824D96EDA6A010EDA22DF2A16D0C6
:101F380008C003F0010E046E000E056E032A03D0DC
:101F4800D89004360536032EFBD7041C066E051CF4
:101F5800076E065000019A1707509B17082A090EAA
:101F6800086494D71200000E326E000E316E000E17
:101F78002F6E010E306E0C0E1F6402D00C0E1F6EF9
:101F88001F50D8A402D0010E1F6E1EAE0BD0010E3A
:101F98002F6E1B6C1C1ED8B01C2A1D1ED8B01D2A03
:101FA800000E1E56000E356E000E346E1BC001F07A
:101FB8001CC002F01DC003F01EC004F00A0E056E1E
:101FC800000E066E000E076E000E086EF2EC17F09B
:101FD8000150300F336E230E3424D96E000E352095
:101FE800DA6E33C0DFFF1BC00DF01CC00EF01DC041
:101FF8000FF01EC010F00A0E116E000E126E000EC9
:10200800136E000E146E1CEC16F00DC01BF00EC003
:102018001CF00FC01DF010C01EF0344A352A35BE22
:10202800C5D7355004E10C0E345CD8A0BFD7000EDC
:10203800356E0B0E346E230E3424D96E000E352007
:10204800DA6EDF50336E34503510D8B40FD0300EFE
:102058003318D8A40BD03050D8B408D0230E342469
:10206800D96E000E3520DA6E200EDF6E3450351032
:10207800D8B404D0300E3318D8B40CD0000E306E5B
:1020880031503210D8A406D0010E3424316E000E1F
:102098003520326E3406D8A0350635AECCD72F5051
:1020A800D8B408D0230E3124D96E000E3220DA6E4F
:1020B8002D0EDF6E000E356E0B0E346E230E34249B
:1020C800D96E000E3520DA6EDF50336E1F50206E49
:1020D800216A2050345C3550800A226E2150800AD3
:1020E8002258D8A004D0200E3318D8B403D03350C7
:1020F800B4EC22F03406D8A0350635BE1200DED77F
:1021080000019D51D8A415D0000E7F6F000E7E6F80
:10211800000E0101566F560E0001806F010E816F8F
:10212800C40E026E010E036E60EC1DF0010E00017C
:102138009D6F3AEC22F00009D8B412005BEC22F053
:102148000001F66F88D051EC20F0000E00017F6F7F
:10215800000E7E6F000E0101566F560E0001806F53
:10216800010E816FC40E026E010E036E60EC1DF04D
:1021780012007FBF12007F5103E17E05D8A0120034
:102188008007D8A081077E07D8A07F07080EB4EC87
:1021980022F0200EB4EC22F0080EB4EC22F012006B
:1021A8000D0EB4EC22F00A0EB4EC22F000017FBF51
:1021B800CCD77F5103E17E05D8A0C7D780C0D9FF0F
:1021C80081C0DAFF000EDF6EB5EC15F072EC0CF092
:1021D800BCD751EC20F0000E00017F6F000E7E6F1F
:1021E800000E0101566F560E0001806F010E816FBF
:1021F800C40E026E010E036E60EC1DF0DDEC18F0EB
:102208001200200EF66FE00EF26FFF0EF36FF6511C
:10221800F46FF56BF251F427F351F523F55133E1DF
:102228005F0EF45DD8B012007FBF06D07F512BE15E
:102238001E0E7E5DD8B01200F651B4EC22F080C0BC
:10224800D9FF81C0DAFFF6C0DFFF0001804B812B88
:102258007E4B7F2B1200F651F26FF36BF351000A9D
:10226800D8A4D1D7F251080AD8B483D7010AD8B470
:10227800C8D7040AD8B494D71F0AD8B4AAD70A0A68
:10228800D8B461D7C0D7120065EC22F0B3EC1DF0CA
:10229800000E0001A86F000EB4EC22F00001A82B7C
:1022A800090EA865F8D7950E026E7C0E036E60ECD9
:1022B8001DF00AEC1DF00009D8A404D00001B1817A
:1022C8004CEC15F00001D151A8EC22F033EC21F0D0
:1022D80001C052F102C053F103C054F104C055F1DA
:1022E80008D0B851D8B405D0000EB86F8B8081ECF7
:1022F80020F0C80E010152250001F76F000E010100
:1023080053210001F86F000E010154210001F96FFB
:10231800000E010155210001FA6F33EC21F0000194
:10232800F751015CF8510258F9510358FA51045811
:10233800D8A0D7D7F0C08EF0F1C08FF0D2C001F08E
:10234800D3C002F0000E046E050E036E46EC21F0B9
:1023580001C007F002C008F0000E0A6E640E096E94
:102368008AEC1DF000018E5107248C6F8F510820D4
:102378008D6F20EED2F0DECFF7F0DDCFF8F0D890F9
:10238800F737F837D890F737F837F7C007F0F8C0BD
:1023980008F0000E0A6E640E096E8AEC1DF000014A
:1023A8008E5107248A6F8F5108208B6F8F5104E15B
:1023B800080E8E5DD8A002D08F05D8B0B185000E6A
:1023C80083BA010EAD6FC8C102F0C9C103F060EC59
:1023D8001DF0000E486E010E476E000E496E000E8D
:1023E8004A6E21EC19F0E8EC19F084EC10F0DCEC02
:1023F8001DF0F9D7D2C029F0D3C02AF000018E51C0
:10240800F05D1B6E8F51F1591C6E1BC001F01CC092
:1024180002F0036A046A800E056E3F0E066E000E17
:10242800076E000E086E35EC1DF001C00DF002C0FD
:102438000EF003C00FF004C010F029C011F02AC03C
:1024480012F0136A146A1CEC16F00DC02BF00EC0C3
:102458002CF00FC02DF010C02EF02EAE08D0000EBC
:102468002B6E000E2C6E000E2D6E000E2E6E2EBEE4
:1024780011D02E502D1006E1810E2B5C3F0E2C58EA
:10248800D8A008D0800E2B6E3F0E2C6E000E2D6E3D
:10249800000E2E6E020E1B6E68C01CF069C01DF087
:1024A8006AC01EF06BC01FF01B6601D007D01F3436
:1024B8001F321E321D321C321B2EF6D7020E206E22
:1024C8002BC021F02CC022F02DC023F02EC024F008
:1024D800206601D007D0243424322332223221321C
:1024E800202EF6D71C50215C256E1D502258266ED2
:1024F8001E502358276E1F502458286E000168511B
:102508002524686F69512620696F6A5127206A6FF0
:102518006B5128206B6F070E1B6E68C01CF069C0DA
:102528001DF06AC01EF06BC01FF01B6601D007D0FB
:102538001F341F321E321D321C321B2EF6D71C5080
:102548007F0B0001AC6F68517F0BAB6F1200470423
:102558004810D8B412D020EE02F04950D9264A507B
:10256800DA22DECF4BF0DDCF4CF04BC0D9FF4CC0A8
:10257800DAFF3F0EDE18D8A413D02A0E026E740EAE
:10258800036E60EC1DF07B0E026E7B0E036E60EC3A
:102598001DF0C70E026E760E036E60EC1DF0120081
:1025A80048BE19D0485004E1020E475CD8A013D0A9
:1025B80020EE02F04950D9264A50DA22DECF02F046
:1025C800DDCF03F07EEC1CF0F00E02140001786FF2
:1025D800FF0E0314796F78C051F079C052F0000EE5
:1025E8004F6E51C003F052C004F09AEC1EF0E80E92
:1025F800026E7E0E036E60EC1DF0000E536E51C02D
:1026080001F052C002F077EC22F06EEC22F0514A51
:10261800522A200EB4EC22F05350070B070AD8A414
:1026280003D0200EB4EC22F0532A0F0E5364E7D7E0
:10263800100E515E000E525A000E536E51C001F03A
:1026480052C002F077EC22F0506E514A522AE00E46
:102658004B6EFF0E4C6E50504D6E4E6A4B504D26D1
:102668004C504E224E5008E15F0E4D5CD8B004D05D
:102678005050B4EC22F003D02E0EB4EC22F0532AC2
:102688000F0E5364DBD71B0E026E750E036E60ECE3
:102698001DF04F2A0F0E4F64A4D70001010E7927B1
:1026A8001200000E116E000E106E000E0F6E000E5E
:1026B8000E6E02D0084A092A08C0D9FF09C0DAFFFD
:1026C800200EDE18D8B4F6D7F70E0A6EFF0E0B6E82
:1026D80008C0D9FF09C0DAFFDF500C6E0D6A0A5036
:1026E8000C260B500D220D500CE1050E0C5CD8B0D9
:1026F80008D0E0D7000E0F6E010E0E6E084A092AA8
:102708002ED008C0D9FF09C0DAFFDF500A6E0B6A65
:102718000B50000AD8A423D00A502B0AD8B4EED7FD
:10272800060AD8B4E7D71BD010C001F011C002F0D8
:10273800000E046E0A0E036E46EC21F008C0D9FFA5
:1027480009C0DAFFDF500A6E0A50015E000E025A15
:10275800300E0124106E000E0220116ECFD7D00E5D
:102768000A6EFF0E0B6E08C0D9FF09C0DAFFDF50F2
:102778000C6E0D6A0A500C260B500D220D5004E108
:102788000A0E0C5CD8A0D0D70E500F10D8A40DD0CC
:1027980010C00AF011C00BF00A1E0B1E0A4A0B2AC1
:1027A8000AC008F00BC009F0120010C008F011C0F0
:1027B80009F01200000E4E6E000E4D6E610E516E45
:1027C800000E506E010E4F6E4FC001F050C002F067
:1027D800000E046E050E036E46EC21F0470E012430
:1027E800F66E6F0E0220F76E0900F5CF52F00A0060
:1027F800F5CF53F052C0F6FF53C0F7FF0800F5506D
:10280800240AD8B447D052C0F6FF53C0F7FF0800D7
:10281800F5505118D8A434D052C002F053C003F078
:1028280060EC1DF052C001F053C002F06BEC1FF0D9
:1028380001500C084B6E0250D8A0E82A00084C6ED4
:1028480003D0200EB4EC22F04B06D8A04C064B283F
:10285800F8E14C28D8A4F5D74D4A4E2A4EBE10D0E0
:102868004E5004E1060E4D5CD8A00AD0000E4E6E04
:10287800000E4D6E1B0E026E750E036E60EC1DF0A1
:102888004F4A502A50BEA0D7505004E1FA0E4F5C70
:10289800D8A09AD7512A7A0E516492D74D504E102B
:1028A800D8B412001B0E026E750E036E60EC1DF09C
:1028B80012000C6EBB0E0001AD25D96EDA6A000E4F
:1028C800DA22DF500B6E0C50070B076E086ADA0E1F
:1028D8000724D96E000E0820DA6EDF50096EBF0E8D
:1028E800AD25D96EDA6A000EDA22DF50D8B415D0D9
:1028F800BD0EAD25D96EDA6A000EDA22DF50D8B4E3
:1029080007D00C50070B046E0B502DEC22F005D0AD
:1029180009C004F00B502DEC22F0F00E0101146FE9
:10292800730E156F070E166F0C50070B176F70C0DC
:1029380018F171C019F172C01AF1B1C01BF1CFC002
:102948001CF1C90E0001AD25D96EDA6A000EDA2233
:10295800DF5001011D6FCB0E0001AD25D96EDA6A7B
:10296800000EDA22DF5001011E6FF70E1F6FBD0E39
:102978000001AD25D96EDA6A000EDA22DF50D8B42C
:102988001200000E0D6E140E0D24D96EDA6A010EB7
:10299800DA22DF500A6E0A50DCEC1AF0F70E0A1839
:1029A800D8B412000D2A3F0E0D64EDD71200BB0EED
:1029B8000001AD25D96EDA6A000EDA22DF50106EFA
:1029C8009351136ECFA10ED01438F00B100B0F6E6D
:1029D800D89014300F0B0F100E6E1450E00B0E1021
:1029E800146E02D092C014F0AE51D8A412009251C5
:1029F8009311D8A404D01050F3EC21F01200135016
:102A0800D8A417D01450D8B414D0010E116E010EEA
:102A1800126E12501418D8A404D011505DEC14F0A2
:102A2800120012501224126E112A1250D8B4120039
:102A3800F0D71304D8A408D01450D8A405D0F40EA5
:102A4800D06FB2EC21F012001350D8B406D0200E8B
:102A58001418D8A402D0F90EF3D7030E1318D8A46B
:102A680005D01450D8A402D0000EEAD71350D8B419
:102A780006D0800E1418D8A402D0050EE1D7020E95
:102A88001318D8A412001450D8A412000C0ED8D7CA
:102A9800BB0E0A6E000E0B6E000E0C6E0AC0D9FF3C
:102AA8000BC0DAFFFF0EDF6E0A4A0B2A0C2A3F0E14
:102AB8000C64F4D7010E0001BB6F000EBD6F000E51
:102AC800BF6F000EC16F020EC36F050EC56F000EFB
:102AD800C76F010EC96F000ECB6F010ECD6F010ECF
:102AE800BC6F010EBE6F000EC06F000EC26F020EEB
:102AF800C46F050EC66F000EC86F010ECA6F000EB8
:102B0800CC6F010ECE6F000ECF6F000ED06F960EF9
:102B1800D16F020ED36FEE0ED26F030ED96FE80E8F
:102B2800D86F020ED56FEE0ED46F020ED76F260E39
:102B3800D66F000E0C6E880E0C24F66EF76A6F0EB8
:102B4800F722DA0E0C24D96EDA6A000EDA220800AF
:102B5800F5CFDFFF0C2A070E0C64EDD7B2EC21F09D
:102B6800120000019C51D8A42BD0000E0C6E000E50
:102B78000B6E0BC009F00CC00AF0050ED890093690
:102B88000A36E82EFBD7000E0924D96E030E0A2058
:102B9800DA6E000EDF6E0B4A0C2A0CBEEAD70C5018
:102BA80004E1040E0B5CD8A0E4D7000E00017D6F91
:102BB800000E7C6F000E7B6F000E7A6F010E9C6F0B
:102BC800560E016E010E026E6BEC1FF001500210E2
:102BD800D8B412007CC009F07DC00AF0050ED89068
:102BE80009360A36E82EFBD7000E0924016E030EBB
:102BF8000A20026E560E036E010E046E000E066E5B
:102C08001E0E056EADEC1CF07CC07AF07DC07BF02A
:102C180000017C4B7D2B7DBF12007D5104E1040E29
:102C28007C5DD8A01200000E7D6F000E7C6F120034
:102C3800000E166E14AE0AD0141E131E121E116C4E
:102C4800000E122213221422010E166E10AE0AD0A4
:102C5800101E0F1E0E1E0D6C000E0E220F221022CB
:102C6800010E161A000E176E000E186E000E196E61
:102C7800000E1A6E1150121013101410D8B42AD066
:102C8800010E156E06D0D89011361236133614364A
:102C9800152A14AEF8D7D8901736183619361A36BA
:102CA80011500D5C12500E5813500F5814501058F4
:102CB800D8A009D011500D5E12500E5A13500F5A59
:102CC8001450105A1780D89014321332123211321D
:102CD800152EE1D71650D8B408D01A1E191E181E82
:102CE800176C000E182219221A2217C00DF018C0EE
:102CF8000EF019C00FF01AC010F0120055555555B6
:102D08005555555558585858585858585858585847
:102D18005858585860606057606060605B5A5454F7
:102D28005B5454545757565656565555515A535244
:102D3800505153524F4E4E504D4D4C5949494949A7
:102D48004949494947474747474747474A4A4A4AF7
:102D58004A4A4A4A4C4C4C4C49494C4B303030302A
:102D680030303030494949494949494949616161E7
:102D7800555555554E4E4E4E4D4D4C4B494949496A
:102D88004949494954545454535251504848484861
:102D9800484848484F4E4E4E4D4D4C4A4746464689
:102DA80046464646464646464646464645444444C2
:102DB80044444444434242424141403E0001FF51A1
:102DC800D8B421D06CC01DF06DC01EF06EC01FF0CD
:102DD8006FC020F0030ED8901D361E361F362036E1
:102DE800E82EF9D71DC025F01EC026F01FC027F019
:102DF80020C028F025C021F026C022F027C023F0EB
:102E080028C024F034D08451EE5D1D6E8551EF59F1
:102E18001E6E1F6AD8A01F061F50206E0D0ED89078
:102E28001D361E361F362036E82EF9D71DC025F070
:102E38001EC026F01FC027F020C028F025C00DF0C6
:102E480026C00EF027C00FF028C010F0D8C011F02F
:102E5800D9C012F0136A146A1CEC16F00DC025F0E4
:102E68000EC026F00FC027F010C028F0C3D7000E00
:102E780021241B6E200E22201C6E1200000E506EA4
:102E8800000E4F6E000E556E650E026E7B0E036EC1
:102E980060EC1DF040D097EC18F033EC21F001C045
:102EA80051F002C052F003C053F004C054F002D0F5
:102EB800E8EC19F033EC21F05150015C4B6E5250A4
:102EC80002584C6E535003584D6E545004584E6E71
:102ED8004E504D104C1004E1FA0E4B5CD8A0E8D7C8
:102EE8000D0EB4EC22F03AEC22F00009D8B403D06D
:102EF8005BEC22F0556E0D0E5518D8A408D0000EC4
:102F0800556E1B0E026E750E036E60EC1DF0320ED0
:102F18004F26000E50221B0E5518D8A4BCD71B0EE6
:102F2800026E750E036E60EC1DF01200386E38C02C
:102F380001F0026A000E046E0C0E036E65EC19F0C7
:102F48000104376E38C001F0026A000E046E0C0EE0
:102F5800036E4DEC1BF00150396EFD0E026E7E0EB5
:102F6800036E60EC1DF0AE0E3924D96EDA6A010EDC
:102F7800DA22DF50B4EC22F0A20E3924D96EDA6AD4
:102F8800010EDA222D0EDE18D8B409D0A20E39248B
:102F9800D96EDA6A010EDA22DF50B4EC22F037502B
:102FA8001B6E1C6A1D6A1E6A010E1F6EB7EC0FF0BD
:102FB800FD0E026E7E0E036E60EC1DF038501B6E27
:102FC8001C6A1D6A1E6A030E1F6EB7EC0FF01B0EFB
:102FD800026E750E036E60EC1DF01200000E0A6E94
:102FE80004AE0AD0041E031E021E016C000E02224B
:102FF80003220422010E0A6E08AE08D0081E071E1E
:10300800061E056C000E062207220822055006102F
:1030180007100810D8B424D0010E096E06D0D89035
:103028000536063607360836092A08AEF8D7055099
:10303800015C065002580750035808500458D8A09D
:1030480008D00550015E0650025A0750035A08502E
:10305800045AD8900832073206320532092EE7D7CB
:103068000A50D8B408D0041E031E021E016C000EBC
:1030780002220322042201C001F002C002F003C0B0
:1030880003F004C004F01200000E4C6E000E4B6EEC
:1030980047044810D8A428D0C30E026E730E036EDE
:1030A80060EC1DF008D03AEC22F00009D8B403D047
:1030B8005BEC22F04C6E1F0E4C64F5D74C50B4EC10
:1030C80022F01B0E026E750E036E60EC1DF04CC0F4
:1030D80007F0086A02EC20F0590E07180810D8A467
:1030E80016D0010E4B6E13D020EE02F04950D926AF
:1030F8004A50DA22DECF0DF0DDCF0EF0F60E0F6E5D
:103108007E0E106E85EC1BF00009D8A4EAD74B5050
:10311800D8B412004CEC15F0800E026E780E036ED7
:1031280060EC1DF012000C0E026E7D0E036E60EC5A
:103138001DF0C4EC22F001C003F002C004F09AECC8
:103148001EF0E20E026E7C0E036E60EC1DF0000EA7
:1031580020EC22F001C01BF002C01CF01D6A1E6AA0
:10316800040E1F6EB7EC0FF0F00E026E7C0E036EAD
:1031780060EC1DF0BAEC22F001C01BF002C01CF09C
:103188001D6A1E6A040E1F6EB7EC0FF0340E026E35
:103198007D0E036E60EC1DF0BFEC22F001C01BF049
:1031A80002C01CF01D6A1E6A040E1F6EB7EC0FF0F9
:1031B8001200560E016E010E026E7AC009F07BC035
:1031C8000AF0050ED89009360A36E82EFBD7000E0D
:1031D8000924036E030E0A20046E000E066E1E0EEE
:1031E800056EADEC1CF000017A517B11D8A404D017
:1031F800000E7B6F040E7A6F7A07D8A07B07560EF5
:10320800016E010E026E6BEC1FF001C07EF002C071
:103218007FF0560E00017E25806F010E7F21816FA1
:1032280080C0D9FF81C0DAFF000EDF6E560E026E35
:10323800010E036E60EC1DF01200720E026E7C0E21
:10324800036E60EC1DF0000170511B6E1C6A1D6A54
:103258001E6A010E1F6EB7EC0FF02E0EB4EC22F0B2
:10326800000171511B6E1C6A1D6A1E6A010E1F6ED9
:10327800B7EC0FF02E0EB4EC22F00A0E00017261CA
:1032880003D0300EB4EC22F0000172511B6E1C6AA0
:103298001D6A1E6A010E1F6EB7EC0FF0F00E026E6B
:1032A8007E0E036E60EC1DF04D0E026E7D0E036EF9
:1032B80060EC1DF01B0E026E750E036E60EC1DF0C7
:1032C8001200000E066E04AE06D0036C041ED8B0C1
:1032D800042A010E066E02AE06D0016C021ED8B09A
:1032E800022A010E061A000E086E000E076E035021
:1032F8000410D8B41CD0010E056E04D0D890033643
:103308000436052A04AEFAD7D89007360836035093
:10331800015C04500258D8A005D00350015E045047
:10332800025A0780D89004320332052EEDD7065092
:10333800D8B404D0076C081ED8B0082A07C001F01A
:1033480008C002F01200000E096E000E0A6E000E90
:103358000B6E000E0C6E0550061007100810D8B43E
:103368002AD0010E0D6E06D0D890053606360736DF
:1033780008360D2A08AEF8D7D89009360A360B3623
:103388000C360550015C0650025807500358085087
:103398000458D8A009D00550015E0650025A0750BB
:1033A800035A0850045A0980D89008320732063266
:1033B80005320D2EE1D709C001F00AC002F00BC09A
:1033C80003F00CC004F012000001B951D8B404D0C5
:1033D800000EB96FAFEC0EF00001B851D8B41AD096
:1033E800000EB86F81EC20F0C4EC22F0FF0E01143F
:1033F8000001926F030E0214936FFEEC11F027EC9C
:103408000BF0E1EC1EF00001FF51D8B403D0000E20
:10341800CFEC09F00001B751D8B41200000EB76F15
:103428008B80AF51D8B402EC22F00001A72B040E18
:10343800A719D8A41200000EA76F000E83BA010EB8
:10344800AD6F1EEC20F01200056E480E6CEC21F0FA
:103458000D0E0CEC21F0076E1A0E0718D8A402D036
:10346800010E05D02A0E0718D8A403D0020E066E46
:1034780002D0000E1200010E026E2A0E11EC22F08C
:103488002A0E0CEC21F0076E0704D8B402D0000E07
:10349800066E070E056406D0020E026E0E0E11ECC3
:1034A80022F00ED0030E056406D0010E026E0E0E39
:1034B80011EC22F005D0000E026E0E0E11EC22F077
:1034C80006501200C30E0001AD25D96EDA6A000E4F
:1034D800DA22DF50096EBB0EAD25D96EDA6A000E0E
:1034E800DA22DF50086E0950D8B40DD0A451AC19B7
:1034F800D8B409D009C004F0ACC005F0085090EC6D
:1035080021F0ACC0A4F00950D8B412000001A351B6
:10351800AB19D8B41200C70EAD25D96EDA6A000E01
:10352800DA22DF50D8B412000950200F046EABC065
:1035380005F0085090EC21F0ABC0A3F01200040E87
:10354800F66E2D0EF76E000EF86E02EE00F010EE1D
:10355800C0F00900F5CFEEFFE550E150FAE1400E6A
:10356800F66E420EF76E000EF86E01EEA2F010EE47
:1035780026F00900F5CFEEFFE550E150FAE103EE41
:1035880000F0800EEE6AE806FDE101EE00F0A20E02
:10359800EE6AE806FDE100EE60F0920EEE6AE806DB
:1035A800FDE15F905F92000EF86E000148EF11F0A8
:1035B800036E0001B251D8A40ED0760E986F010E9A
:1035C800996F760E966F010E976F000E956F000E2D
:1035D800946F010EB26F95BF06D0955121E1200E70
:1035E800945DD8B0120096C0D9FF97C0DAFF03C027
:1035F800DFFF964B972B760E016E010E026E200EA2
:103608000126000E02220150965D02509759D8A05B
:1036180004D0760E966F010E976F944B952B12007F
:103628001200026EBA0E0224D96EDA6A010EDA228C
:10363800DF50016E01460146C2500118830B011884
:10364800C26E00F000F000F000F00F01458300F0BA
:1036580000F000F000F00F0145934493448100F01E
:1036680000F000F000F000F000F000F000F000F0D2
:1036780000F000F000F00F014491C282C2B2FED700
:10368800380E0224D96EDA6A010EDA22C4CFDFFFBF
:103698001200000E066E02AE06D0016C021ED8B0F3
:1036A800022A010E066E04AE04D0036C041ED8B0C4
:1036B800042A03500410D8B418D0010E056E04D0A3
:1036C800D89003360436052A04AEFAD70350015CB5
:1036D80004500258D8A004D00350015E0450025A86
:1036E800D89004320332052EF1D70650D8B404D04E
:1036F800016C021ED8B0022A01C001F002C002F01B
:1037080012001268010E136E29D00DC0D9FF0EC029
:10371800DAFFDF50116E1150076E086AC9EC1FF00E
:103728000750146E0D4A0E2A0FC0F6FF10C0F7FF9F
:103738000800F550076E086AC9EC1FF00750156EAF
:103748000F4A102A15501418D8B402D0000E136E60
:103758001450D8B407D01550D8B404D01206122883
:10376800D8A4D3D7135012000F01459F459B459904
:103778004597459545934591449F9F0E4417448925
:103788004451F30B0409446F030E4313030E43170C
:10379800000EC26E000EC16EC09EC050F80B01092B
:1037A800C06EC050C70B1009C06E000EC36E000E6D
:1037B800C46E010EC26E458F000E0001FC6F960E9E
:1037C800FB6F000E9B6F000E9A6F929C1200400ECA
:1037D800076EC00E0514056EFF0E0614066E05C0B2
:1037E80001F006C002F059EC21F0000EF86E065008
:1037F800F76E05C0F6FF09D003C0D9FF04C0DAFF91
:10380800DF50F56E034A042A0D0007060728D8A4DE
:10381800F3D705C0F6FFA68EA69CA684A698F29EAE
:10382800550EA76EAA0EA76EA682F28EA694120057
:10383800000E016E240E026EF40E036E000E046E6E
:103848000E50106E0F50116E126A136A020ED89045
:103858001036113612361336E82EF9D710C005F097
:1038680011C006F012C007F013C008F0A7EC19F059
:10387800FF0E0124146EFF0E0220156E080E706EE6
:10388800900E716E240E726E14C075FF1550766E10
:103898001200000E016E240E026EF40E036E000E6E
:1038A800046E0E50106E0F50116E126A136A020EDB
:1038B800D8901036113612361336E82EF9D710C0C4
:1038C80005F011C006F012C007F013C008F0A7EC0D
:1038D80019F0FF0E0124146EFF0E0220156E080E5B
:1038E800B86E900EAB6E240EAC6E14C0AFFF1550C0
:1038F800B06E1200000E086E000E076E000E096E04
:1039080002C0D9FF03C0DAFF024A032ADF50ABEC3A
:103918001FF0066E0628D8B417D007C004F008C0F8
:1039280005F0043A053AF00E051604500F0B05127F
:10393800F00E041606500424076E000E0520086ECB
:10394800092A030E0964DCD707C002F008C003F097
:10395800120001C007F002C008F014D00506D8A074
:10396800060603C0D9FF04C0DAFF034A042A07C0C9
:10397800E1FF08C0E2FF074A082ADFCFE7FFE75068
:10398800D8B40DD005500610D8B409D0E7D707C071
:10399800D9FF08C0DAFF000EDF6E074A082A0506BD
:1039A800D8A006060528F3E10628D8B41200EFD7F8
:1039B800BB0E0001AD25D96EDA6A000EDA22DF509F
:1039C800086EA151AA19D8B409D0010E046EAAC074
:1039D80005F0085090EC21F0AAC0A1F00001A25116
:1039E800A919D8B41200C70EAD25D96EDA6A000E2F
:1039F800DA22DF50D8B41200210E046EA9C005F0F7
:103A0800085090EC21F0A9C0A2F01200010E0E6E31
:103A1800BB0E0C6E000E0D6EBB0E016E000E026E1C
:103A28007F0E046E800E036E290E056EF7EC20F0F3
:103A38000CC0D9FF0DC0DAFFDE2805E1DE28D8A4C6
:103A480002D0000E0E6E75EC1EF00001E251011856
:103A580004E1E3510218D8B402D0000E0E6E0E50E5
:103A68001200000E096E000E0A6E000E0B6E000E9C
:103A78000C6E01A008D00550092606500A220750EE
:103A88000B2208500C22D890053606360736083621
:103A9800D89004320332023201320150021003106E
:103AA8000410D8A4E6D709C001F00AC002F00BC080
:103AB80003F00CC004F012000ED00A0E0618D8A4A9
:103AC80007D00D0EB4EC22F00A0EB4EC22F003D0AD
:103AD8000650B4EC22F00250046E0350056E024A00
:103AE800032A04C0F6FF05C0F7FFF86A050EF7645D
:103AF80003D00800F55005D0F6CFE9FFF7CFEAFF6D
:103B0800EF50066E0650D8B41200D7D7000E0C6ED0
:103B1800000E0B6E09500A10D8B41CD0010E0D6EA1
:103B280004D0D89009360A360D2A0AAEFAD7D890AA
:103B38000B360C360950075C0A500858D8A005D037
:103B48000950075E0A50085A0B80D8900A32093289
:103B58000D2EEDD70BC007F00CC008F01200010EB7
:103B68000001706F040E716F2D0E726F1D0E010132
:103B7800C86F750EC96F000E0001B16F94909492D2
:103B8800960E0F6E000E0E6E4DEC1CF07A0E0F6E38
:103B9800120E0E6E1CEC1CF0E3EC21F0B8EC1BF0DE
:103BA800020E28EC1AF00001FF6FF28EF28C120060
:103BB800000194519511D8B41200A4A8120098C01D
:103BC800D9FF99C0DAFFDF50AEEC22F00001984B24
:103BD800992B760E026E010E036E200E0226000E41
:103BE80003220250985D03509959D8A004D0760E4C
:103BF800986F010E996F9407D8A095071200016E6F
:103C080020D000F000F000F000F000F000F000F02C
:103C180000F000F000F000F000F000F000F000F01C
:103C280000F000F000F000F000F000F000F000F00C
:103C380000F000F000F000F000F000F000F000F0FC
:103C480000F001060128D8B41200DBD7046E04C0C6
:103C580003F003460346C2500318830B0318C26ED1
:103C680000F000F000F000F000F000F000F000F0CC
:103C7800C282C2B2FED7C4CF05F0066A0550066EEE
:103C8800056AC3500524056E000E0620066E05C0A1
:103C980001F006C002F01200B40E026E720E036E3E
:103CA80060EC1DF0F80E026E730E036E60EC1DF0F2
:103CB8008E0E026E730E036E60EC1DF0DB0E026E4C
:103CC8006F0E036E60EC1DF0900E026E6F0E036EA9
:103CD80060EC1DF01C0E026E710E036E60EC1DF0A0
:103CE8001200000E056E000E046EBB0E066E000E6E
:103CF800076E270E086E000E096E0DD006C0D9FF9C
:103D080007C0DAFFDF50036E03500426000E0522B9
:103D1800064A072A092A0850095CD8A0EFD7BA0E24
:103D28000418016EAB0E0518026E120003C005F0F0
:103D380004C006F00C0E076ED89006320532072E26
:103D4800FBD70550C3EC21F00450C3EC21F003C0AD
:103D580005F004C006F0040E076ED890063205324E
:103D6800072EFBD70550C3EC21F003500F0BC3EC13
:103D780021F012000F01459F00F000F000F000F064
:103D8800000EC26E000EC16EC08EC050F80B050941
:103D9800C06EC050C70B1009C06E000EC36E000E77
:103DA800C46E010EC26E93820F01398393883989DC
:103DB80093803981938A398B12000001A051D8A4CD
:103DC80008D0310E9F650AD0DBEC14F0010E00011B
:103DD80004D0C70E9E6502D0000EA06F83B808D02D
:103DE800FA0E9F6102D0050E9F27000E9E6F1200EB
:103DF800FA0E9E6102D0050E9E27000E9F6F1200DC
:103E0800BB0E0001AD25D96EDA6A000EDA22DF504A
:103E1800296EE2EC16F01BC02AF01CC02BF0000142
:103E280082512A1804E183512B18D8B412002AC0F1
:103E380004F02BC005F02950E6EC1FF02AC082F0F0
:103E48002BC083F01200000E8D6E000E8C6E000EDB
:103E5800896E000E8A6E000E8B6E070E966E3F0EF0
:103E6800926E9368900E946EB70E956E000E0F01C9
:103E78003A6F3969000E3B6F070E3C6F2F0E386F93
:103E88006168F19E8B848C9612009E900001FE5111
:103E9800CF6EFDC0CEFFB951D8A4B62B010E742742
:103EA800000E752376237723010EB96FB52B040E08
:103EB800B56504D0010EB86F000EB56FB42B310E86
:103EC800B4651200010EB76F000EB46F120001C086
:103ED80003F002C004F002D0014A022A01C0F6FF32
:103EE80002C0F7FFF86A050EF76403D00800F55022
:103EF80005D0F6CFE9FFF7CFEAFFEF500009D8A4C5
:103F0800EBD70350015C016E04500258026E120098
:103F1800010E076E200E01180210D8B414D0F70E47
:103F2800036EFF0E046E01C005F002C006F00350D8
:103F3800052604500622065004E1050E055CD8A0AB
:103F480002D0000E076E07C001F0026A1200016E6F
:103F58002F0E016406D03A0E016003D00150D00F35
:103F68001200400E016406D0470E016003D00150D4
:103F7800C90F1200600E016406D0670E016003D0FD
:103F88000150A90F1200FF0E1200BF0E096EFF0E9E
:103F98000A6E07C00BF008C00CF009500B260A5037
:103FA8000C220C500AE11A0E0B5CD8B006D0200E79
:103FB8000710076E0850086E120007C007F008C007
:103FC80008F01200096E09040F0BE0090A6E0A5086
:103FD800DCEC1AF004507F0BDCEC1AF004C006F09D
:103FE80005C007F0070E086ED89007320632082E73
:103FF800FBD706507F0BDCEC1AF012009F0E096EFF
:10400800FF0E0A6E07C00BF008C00CF009500B2613
:104018000A500C220C5009E11A0E0B5CD8B005D0DE
:104028005F0E0714076E086A120007C007F008C081
:1040380008F01200BD0E0001AD25D96EDA6A000E37
:10404800DA22DF50D8B41200AE51D8A41200F00E14
:10405800DCEC1AF0730EDCEC1AF0300EDCEC1AF023
:10406800F70EDCEC1AF0120020EE02F04950D926C7
:104078004A50DA22DECF4BF0DDCF4CF04BC0D9FFEF
:104088004CC0DAFF3F0EDE18D8A41200E70E026E0D
:104098007B0E036E60EC1DF012000D0EB4EC22F0E6
:1040A800000E036E000E026E200EB4EC22F0024ADF
:1040B800032A03BEF9D7035004E1200E025CD8A0FE
:1040C800F3D70D0EB4EC22F01200E00E036EFF0ED3
:1040D800046E01C005F002C006F003500526045026
:1040E8000622065006E15F0E055CD8B002D0010E2C
:1040F80001D0000E016E026A1200BEEC1EF00B0E1B
:104108002AEC1EF001C0F0F002C0F1F00A0E2AEC11
:104118001EF001C0EEF002C0EFF00D0E2AEC1EF00A
:1041280001C088F002C089F012009F0E036EFF0ED6
:10413800046E01C005F002C006F0035005260450C5
:104148000622065006E11A0E055CD8B002D0010E10
:1041580001D0000E016E026A1200BF0E036EFF0E40
:10416800046E01C005F002C006F003500526045095
:104178000622065006E11A0E055CD8B002D0010EE0
:1041880001D0000E016E026A1200D00E036EFF0EFF
:10419800046E01C005F002C006F003500526045065
:1041A8000622065006E10A0E055CD8B002D0010EC0
:1041B80001D0000E016E026A1200016EA49EC7B003
:1041C800FED76B86A4AEFED7A49E6FCF02F0015037
:1041D800D8B402D06B9A01D06B8A6B88A4AEFED794
:1041E800A49E02501200000EF86E0450F76E03C031
:1041F800F6FF09D0090001C0D9FF02C0DAFFF5CFE8
:10420800DFFF014A022A05060528D8B41200F2D7B2
:10421800036E91EC22F03A0E46EC22F0035046EC85
:1042280022F099EC22F03B0E46EC22F0000EE1EC75
:1042380020F0046E045012002D232D622D2D232D05
:10424800622D622D4343444545464647414142421B
:10425800000102030405060708090D3E20009D9091
:1042680074C005F075C006F076C007F077C008F096
:104278009D8005C001F006C002F007C003F008C029
:1042880004F0120001500302F3CF05F0F4CF06F05A
:1042980001500402F350062602500302F35006268A
:1042A80005C001F006C002F01200000EF86E0250C0
:1042B800F76E01C0F6FFA68EA69CA684A688F29E7D
:1042C800550EA76EAA0EA76EA682F28EA6941200AD
:1042D800016E280E6C6E000E6B6E800E6D6E480EB1
:1042E8000118D8A402D0090E01D0270E6E6EA49E24
:1042F800A49C6B9012000001AC51036E046A070E77
:10430800D89003360436E82EFBD7AB510324016E50
:10431800000E0420026E1200066E06040F0BB00990
:10432800076E0750DCEC1AF004507F0BDCEC1AF037
:1043380005507F0BDCEC1AF01200066E06040F0B1A
:104348009009076E0750DCEC1AF004507F0BDCEC88
:104358001AF005507F0BDCEC1AF0120075EC1EF019
:1043680001C0E2F002C0E3F0BB0E036E000E046E63
:104378007F0E066E800E056EEBEC1BF01200026ECF
:104388000F0E02160A0E026005D00250300FB4EC70
:1043980022F012000250370FB4EC22F01200056E22
:1043A80005040F0B8009066E0650DCEC1AF0045069
:1043B8007F0BDCEC1AF0000EDCEC1AF01200540E45
:1043C800CD6E000ECC6EE00ECF6EC00ECE6ECECF90
:1043D800FDF0CFCFFEF09E909D80CD801200046E40
:1043E80004040F0BB009056E0550DCEC1AF0780ECA
:1043F800DCEC1AF0000EDCEC1AF01200E90E0001F9
:10440800905D030E9159D8A01200EEC084F0EFC061
:1044180085F0010ECFEC09F01200036E91EC22F04A
:104428003A0E46EC22F0035046EC22F0025046ECDD
:1044380022F089EC22F01200046E380E0424D96EA2
:10444800DA6A010EDA22DF50036E0350016E026A47
:104458001200056E05040F0BC009066E0650DCEC51
:104468001AF004507F0BDCEC1AF01200000E9EBA12
:10447800010E016EABA204D0AB9EAB8E000E016E96
:1044880001501200016EA49E6DB0FED701C06FFFEF
:10449800A4AEFED7A49E6B501200026E03D0640E29
:1044A80003EC1EF002060228D8B41200F8D7000E5A
:1044B800026E3AEC22F00009D8A4AECF02F0025006
:1044C8001200D2EC22F027EC1FF0A1EC22F0E3EC72
:1044D80021F01200036E03380F0BC3EC21F00350D8
:1044E800C3EC21F01200000EF86E0250F76E01C006
:1044F800F6FF0800F55012006CC001F06DC002F024
:104508006EC003F06FC004F01200A49E6DB0FED719
:104518006B84A4AEFED7A49E1200A49E6DB0FED7F5
:104528006B80A4AEFED7A49E1200A49E6DB0FED7E9
:104538006B82A4AEFED7A49E1200720ED36E040E38
:10454800D26E000E9B6E1200016E01C0FBF00001DE
:10455800FC6B1200016EA4A8FED701C073FF120005
:10456800016E9EA8FED701C0ADFF1200F0C001F099
:10457800F1C002F0120088C001F089C002F01200F8
:104588009AC001F09BC002F01200D4EC22F0120095
:104598000001AE5112000001AD511200D09E120070
:0445A800FF001200FE
:106F460000FB7E477040C47E47A03CF37E47BC27CB
:106F5600E37E47BC273F7E479030EC7E474232CFE8
:106F66007E47680AB17E47842EA47E479245DE7E20
:106F7600475625A37E41281B727E412600F97E00D6
:106F86000000434B48454A11141775736167652025
:106F9600696E666F726D6174696F6E3B20206F74E7
:106FA600686572776973652C206120636F6D6D610A
:106FB6006E642077686963682065787065637473AA
:106FC600206174206C65617374206F6E6520617238
:106FD600672C200A00536F6D6520636F6D6D616EBF
:106FE60064732C207768656E20656E7465726564BF
:106FF600207769746820746865207377697463689C
:1070060020272D68656C7027206F7220273F272C5C
:107016002073686F7720636F6D6D616E64200A0060
:107026004578616D706C653A2020207072657365D5
:10703600742033203D2036372020207C2053657471
:10704600204D494449205072676D20363720666FBF
:1070560072205072657365742033200A0A005573D6
:107066006167652023323A2020636F6E6669672068
:107076003C706172616D3E205B3D5D203C76616CCB
:1070860075653E202020207C205365742070617237
:10709600616D2E2076616C7565200A004578616DFC
:1070A600706C653A202020636F6E666967202063E6
:1070B60068616E203D2031302020207C205365748D
:1070C600204D696469205478206368616E6E656C32
:1070D600203D203130200A0A005573616765202360
:1070E600323A2020707265736574203C7072652395
:1070F6003E205B3D5D203C76616C75653E20202020
:10710600207C205365742050726573657420766107
:107116006C7565200A007768656E20656E74657209
:10712600656420776974686F757420616E792C20A8
:1071360073686F756C6420616C736F2073686F770A
:1071460020636F6D6D616E642075736167652E20B7
:107156000A0055736167652023313A2020636F6EFC
:10716600666967205B2B5D2020207C20204C69739C
:107176007420636F6E6669672E20706172616D2779
:1071860073205B2B206D6F72655D0A0A004E6F726D
:107196006D616C2068616E64736574206F706572D2
:1071A6006174696F6E2073757370656E64656420B3
:1071B6007768696C65206F757470757474696E672D
:1071C6002061786973200A00616363656C6572618A
:1071D60074696F6E20726177206461746120283152
:1071E60032206269747329202D2D2048697420612C
:1071F6006E79206B657920746F20657869742E2E00
:107206002E0A00546F756368206F6374617665207B
:1072160070616428732920746F2073686F772070FB
:107226006F736974696F6E2076616C756520286E60
:107236006F74207363616C6564292E0A002A204EE0
:107246006F74652D4F6E20646973706C617920616F
:1072560063746976617465642E20456E7465722068
:107266002764696167202D6E2720746F2063616E25
:1072760063656C2E0A0055736167652023313A20D9
:1072860020707265736574202020207C204C697301
:107296007420507265736574204D494449205072BC
:1072A600676D206E756D62657273200A0A00436F02
:1072B6006D6D616E6420617267277320616E642054
:1072C6006F7074696F6E73206D75737420626520BC
:1072D6007365706172617465642062792073706190
:1072E6006365732E0A0053656E64696E6720537971
:1072F600732E45782E20274944454E5427206D731A
:107306006720636F6E74696E756F75736C79207420
:107316006F204D494449204F5554200A0020202013
:107326007768657265203C706172616D3E20697395
:107336002061206E69636B6E616D65206C69737484
:1073460065642062792075736167652023312E207C
:107356000A0A00766961204D494449207472616EBB
:10736600736D69742071756575652E20204D657382
:107376007361676520696E74657276616C206973E6
:1073860020356D732E200A00546F20726563616C80
:107396006C20612070726576696F75736C792065F3
:1073A6006E746572656420636F6D6D616E642C200A
:1073B600686974204374726C2B522E0A00526573EE
:1073C600746F72652070657273697374656E74206C
:1073D6006461746120746F20666163746F727920D2
:1073E60064656661756C74733F2028592F4E293A7F
:1073F6002000546F206C69737420617661696C613A
:10740600626C6520636F6D6D616E64732C20747998
:10741600706520276C6327206F722027636D647365
:10742600272E0A0044756D70206120706167652003
:107436002832353620627974657329206F66206696
:107446006C6173682070726F6772616D206D656D17
:107456006F72792E0A00202D74203A20204D49445F
:107466004920545820647269766572207465737475
:10747600202873656E642030783046206E6F6E2D3E
:1074860073746F70290A002D2D2D2D2D2D2D20485A
:10749600616E6473657420506172616D65746572A6
:1074A60073202D2D2D2D2D2D2D2D2D2D2D2D2D2DCD
:1074B6002D2D2D2D2D2D0A00202D6E203A20204415
:1074C600652F6163746976617465204E6F74652DEE
:1074D6004F6E20646973706C617920286172672031
:1074E6003D20307C31290A002020207768657265AE
:1074F600203C707265233E206973207468652050B5
:107506007265736574206E756D6265722028312E02
:107516002E3829200A0A004261756572207B524581
:107526004D497D2048616E64736574206D6B322011
:107536002D2D205365727669636520506F72742015
:10754600434C49200A0053656E64696E67203078A3
:10755600304620636F6E74696E756F75736C792033
:10756600746F204D49444920545820554152542E99
:107576002E2E0A00202D71203A20204D4944492004
:1075860054582051756575652074657374202849B3
:1075960044454E54206D7367204020356D73290A8B
:1075A60000202D70203A202053686F77204D4944E3
:1075B6004920507265737375726520646174612029
:1075C60076616C75652028313462290A00212045D0
:1075D60072726F723A20436F6E66696720646174D7
:1075E6006120636F727275707465642028646566C5
:1075F60061756C746564290A00202D62203A20208A
:1076060053686F772070697463682D62656E6420B5
:10761600636F6E74726F6C6C657220646174612046
:107626000A0021204572726F723A20436F6E6669B6
:1076360067206461746120657863656564732062A0
:107646006C6F636B2073697A650A00202D61203A9E
:10765600202053686F77204D4D41383435312F3215
:1076660020616363656C2E207261772064617461AA
:10767600200A00202D65203A202053686F7720735A
:107686007461727475702073656C662D746573749D
:10769600204572726F7273200A0020204D6964695A
:1076A6002045787072657373696F6E20496E7465D4
:1076B6007276616C2028352E2E3530206D73290A9E
:1076C600002D2D20776865726520616464722069DB
:1076D60073207374617274206164647265737320BD
:1076E60028686578292E0A00202D6D203A2020531F
:1076F600686F77204D6F64652053776974636820DF
:10770600696E707574207374617465200A00202098
:1077160050726573737572652053656E736F722050
:10772600414443205370616E20286D61782E3735B1
:1077360030290A0020204D6F64756C6174696F6E84
:10774600205061642F4C6576657220456E61626CCF
:1077560065642028302C31290A0055736167653A23
:1077660020206469616720203C6F7074696F6E3EEB
:1077760020205B617267315D202E2E2E200A0020AC
:107786002053656E642031342D626974204578700B
:1077960072657373696F6E20646174612028302C82
:1077A60031290A0020204D69646920457870726588
:1077B6007373696F6E204343206E756D6265722028
:1077C60028302E2E3331290A0020204D6F64756C27
:1077D6006174696F6E2046756C6C2D7363616C65A0
:1077E60020286D61782E31303030290A0052454DFF
:1077F6004920616C7465726E617465202D2D207050
:107806006164204C4834207368617270656E730A37
:10781600002020546F7563682053656E736520548D
:1078260068726573686F6C6420286D61782E3235D6
:1078360030290A0020204D6964692050726F672E36
:10784600204368616E676520456E61626C656420E1
:1078560028302C31290A0020204D6964692053798B
:10786600732E4578636C2E4D736720456E61626C8E
:1078760065642028302C31290A002A204465666177
:10788600756C7420636F6E66696775726174696F73
:107896006E20726573746F7265642E0A0052454DD0
:1078A60049207374616E64617264202D2D207061AD
:1078B600642052483520666C617474656E730A00E4
:1078C6002120496E76616C696420707265736574F7
:1078D600206F72204D494449207072676D20232025
:1078E6000A00202050697463682042656E64204156
:1078F6004443205370616E20286D61782E313030FC
:1079060030290A0020204D6F64756C6174696F6EB2
:1079160020446561642D62616E6420286D61782E55
:10792600393530290A0020205069746368204F6673
:107936006673657420282B2F2D32342073656D698C
:10794600746F6E6573290A0021204D4D4138343518
:10795600312F3220646576696365206E6F7420640A
:10796600657465637465642E0A0021204572726F22
:10797600723A204D6F64756C6174696F6E20536541
:107986006E736F72206661756C740A0020204D69F3
:1079960064692050697463682042656E6420456E90
:1079A60061626C65642028302C31290A00202D7311
:1079B600203A202053686F77206E6F7465206F6EB3
:1079C6002F6F6666205374617465200A0020205666
:1079D600656C6F636974792053656E736520456EB7
:1079E60061626C65642028302C31290A002120450B
:1079F60072726F723A205072657373757265205396
:107A0600656E736F72206661756C740A0020204D76
:107A1600696469204261736963204368616E6E65BB
:107A26006C2028312E2E313629200A002020466966
:107A36006E676572696E6720536368656D65202899
:107A4600302C312C322C33290A002120496E7661E4
:107A56006C6964206E69636B6E616D65206F722060
:107A660076616C75652E0A0020204C656761746F1F
:107A7600204D6F646520456E61626C656420283018
:107A86002C31290A004261726F7175652072656337
:107A96006F7264657220656D756C6174696F6E0ACC
:107AA6000020204D6F6465207377697463682069D0
:107AB6006E7075742073746174653A20002A204EC6
:107AC6006F2073656C662D74657374206572726FB2
:107AD60072732E0A00507265736574207C204D49BE
:107AE6004449205072676D2023200A00486974209B
:107AF6005B4573635D20746F20657869742E2E2E46
:107B0600200A002120556E6B6E6F776E2049324336
:107B1600206465766963652E0A005F5F5F5F5F5F5D
:107B26005F5F5F5F5F5F5F5F5F5F5F5F5F5F5F0AB4
:107B3600005F5F5F5F5F5F5F7C5F5F5F5F5F5F5F91
:107B46005F5F5F5F5F5F0A00606060606060607CCF
:107B5600606060606060606060606060600A0048ED
:107B66006974205B4573635D20746F207175697459
:107B76002E200A0A0055736167653A202064756DE8
:107B860070205B616464725D200A00536F707261DD
:107B96006E6F2F44657363616E7420284335290A1E
:107BA600003F20556E646566696E656420636F6D7F
:107BB6006D616E642E0A002120496E76616C6964DF
:107BC60020636F6D6D616E642E200A004869742013
:107BD6005B4573635D20746F20657869742E200A97
:107BE6000055736167653A20202A205B72656D61D6
:107BF600726B5D200A002A204D4D41383435312004
:107C060064657465637465642E0A002A204D4D41CF
:107C1600383435322064657465637465642E0A00F1
:107C26002A204E65772076616C75652073617665CE
:107C3600643A2000554E444546494E454420286541
:107C460072726F72290A0046696E676572696E679D
:107C560020736368656D653A2000416C746F2F541C
:107C66007265626C6520284634290A004669726D81
:107C7600776172652076657273696F6E2000477250
:107C8600656174204261737320284333290A000D0D
:107C96000A2A204D4355207265736574202A0A000E
:107CA600203A204D494449205072676D203D2000FE
:107CB6002073656D69746F6E6573202020200050F7
:107CC60069746368204F66667365743A20004F4690
:107CD600462F49444C45202830290A00207C205054
:107CE6006164305F4144433A2000207C2050726535
:107CF60073737572653A20002D2D2D2D2D2D2D2097
:107D06004D6F64652000546F756368506164733A03
:107D16002030780050454E44494E47202831290AE4
:107D260000504C4159494E47202832290A00207CF0
:107D3600204D6F64756C276E3A200054656E6F7225
:107D460020284334290A004170722020392032301D
:107D56003233004869676820283129200A003C6FC1
:107D66007074696F6E3E200A004261737320284664
:107D760033290A004C6F7720283029200A002A2050
:107D860050726573657420006368616E2020202040
:107D9600007062656E202020200070697463682080
:107DA6002020006D6F64656E202020007468726567
:107DB60073202020006578706E636320200066695A
:107DC6006E67736320200070627370616E202000FE
:107DD60070727370616E20200070726368656E2029
:107DE600200076656C73656E202000737973786564
:107DF6006E2020006C656761746F2020006D6F64D3
:107E06006D61782020006578706E31346220006DD7
:107E16006F6462616E6420006578706E696E7420AE
:107E2600002020207C202020006578706E3134628E
:107E3600006D6F6462616E640064656661756C7482
:107E4600006578706E696E7400202020583A200014
:107E5600207C20593A2000207C205A3A2000657860
:107E6600706E63630066696E67736300636F6E6648
:107E760069670070627370616E0070727370616E14
:107E86000070726368656E0076656C73656E00736C
:107E9600797378656E006C656761746F00707265E2
:107EA600736574006D6F646D6178007761746368E3
:107EB600007069746368006D6F64656E002D686597
:107EC6006C7000746872657300646961670063684A
:107ED600616E007062656E0064756D7000636D643E
:107EE6007300203A2000766572002C20006C630037
:0A7EF6002D790024002A0009000085
:020000040020DA
:08000000FFFFFFFFFFFFFFFF00
:020000040030CA
:0E000000FF281F3CFFBF81FF0FC00FE00F4025
:00000001FF
