:0400000011EF00F00C
:100008005F82F0A602D0F0B006D0F2BC9DA003D06B
:100018009EB087EC18F05F921100B2EF15F0000E59
:100028004E6E07EC1EF04F6E020E0001D519D61168
:10003800D8A431D020EE02F0D751D926D851DA22EF
:10004800DECFF6FFDECFF7FF050EF76403D008001A
:10005800F55005D0F6CFE9FFF7CFEAFFEF503F0A9A
:10006800D8A419D0430E026E760E036E39EC19F03F
:10007800460E026E730E036E39EC19F0A40E026E72
:10008800740E036E39EC19F0080E026E730E036ECF
:1000980039EC19F012000001D505D611D8A4CAD13F
:1000A800CC0E026E7C0E036E39EC19F04F501B6EAD
:1000B8001C6A1D6A1E6A010E1F6E9EEC0CF0970EDC
:1000C800026E770E036E39EC19F0930E026E7D0EF8
:1000D800036E39EC19F0540E4F24D96EDA6A010E0A
:1000E800DA22DF504D6E4D501B6E1C6A1D6A1E6A67
:1000F800040E1F6E9EEC0CF09E0E026E7A0E036EBE
:1001080039EC19F0DB0E026E7D0E036E39EC19F036
:10011800560E4F24D96EDA6A010EDA22DF504D6E80
:100128004D501B6E1C6A1D6A1E6A040E1F6E9EECE3
:100138000CF04F0E026E790E036E39EC19F0C90EF1
:10014800026E7D0E036E39EC19F0580E4F24D96EED
:10015800DA6A010EDA22DF504D6E4D501B6E1C6AB2
:100168001D6A1E6A040E1F6E9EEC0CF02C0E026EA9
:10017800790E036E39EC19F0A50E026E7D0E036E32
:1001880039EC19F05A0E4F24D96EDA6A010EDA22C8
:10019800DF504D6E4D501B6E1C6A1D6A1E6A040EA0
:1001A8001F6E9EEC0CF0760E026E780E036E39EC24
:1001B80019F0080E026E7E0E036E39EC19F05C0E13
:1001C8004F24D96EDA6A010EDA22DF504D6E4D5097
:1001D8001B6E1C6A1D6A1E6A040E1F6E9EEC0CF0D4
:1001E800C10E026E780E036E39EC19F0E40E026E41
:1001F8007D0E036E39EC19F05E0E4F24D96EDA6A63
:10020800010EDA22DF504D6E4D501B6E1C6A1D6ABE
:100218001E6A040E1F6E9EEC0CF0180E026E7B0E0A
:10022800036E39EC19F0D20E026E7D0E036E39ECB6
:1002380019F0600E4F24D96EDA6A010EDA22DF5007
:100248004D6E4D501B6E1C6A1D6A1E6A040E1F6E91
:100258009EEC0CF05E0E026E7A0E036E39EC19F00D
:100268001A0E026E7E0E036E39EC19F0620E4F24E0
:10027800D96EDA6A010EDA22DF504D6E4D501B6ED0
:100288001C6A1D6A1E6A040E1F6E9EEC0CF0350E69
:10029800026E7B0E036E39EC19F0850E026E770E36
:1002A800036E39EC19F0230E026E7E0E036E39ECE4
:1002B80019F001014E511B6E1C6A1D6A1E6A040E5C
:1002C8001F6E9EEC0CF0280E026E780E036E39EC51
:1002D80019F0ED0E026E7D0E036E39EC19F0010176
:1002E8004F511B6E1C6A1D6A1E6A040E1F6E9EEC1F
:1002F8000CF0AF0E026E770E036E39EC19F0FF0E9C
:10030800026E7D0E036E39EC19F0010150511B6E1F
:100318001C6A1D6A1E6A040E1F6E9EEC0CF06D0EA0
:10032800026E7B0E036E39EC19F0AE0E026E7D0E76
:10033800036E39EC19F0010151511B6E1C6A1D6ADC
:100348001E6A040E1F6E9EEC0CF0BD0E026E7A0E35
:10035800036E39EC19F09C0E026E7D0E036E39ECBB
:1003680019F0010152511B6E1C6A1D6A1E6A040EA7
:100378001F6E9EEC0CF0090E026E790E036E39ECBE
:1003880019F0C00E026E7D0E036E39EC19F06CC1C7
:100398001BF06DC11CF01D6A1E6A040E1F6E9EECD8
:1003A8000CF0D90E026E790E036E39EC19F0B70E07
:1003B800026E7D0E036E39EC19F06EC11BF06FC131
:1003C8001CF01D6A1E6A040E1F6E9EEC0CF0DC0EFB
:1003D800026E7A0E036E39EC19F0F60E026E7D0E7F
:1003E800036E39EC19F070C11BF071C11CF01D6A65
:1003F8001E6A040E1F6E9EEC0CF01D0E026E7A0E25
:10040800036E39EC19F0110E026E7E0E036E39EC94
:1004180019F072C11BF073C11CF01D6A1E6A040E2C
:100428001F6E9EEC0CF0B70E026E790E036E39EC5F
:1004380019F01200D6BF1200D65104E1030ED55DA3
:10044800D8A01200B70E016E000E026E20EE02F068
:10045800D751D926D851DA22DECF03F0DDCF04F008
:10046800000E066E080E056E2FEC16F0000E000149
:10047800BE6F20EE04F0D751D926D851DA22DECF4C
:10048800F6FFDECFF7FF050EF76403D00800F5503E
:1004980005D0F6CFE9FFF7CFEAFFEF503D0AD8A421
:1004A80013D0040E0001D519D611D8A40DD020EE12
:1004B80006F0D751D926D851DA22DECF08F0DDCFA1
:1004C80009F0FDEC0AF00DD0000120EE04F0D75140
:1004D800D926D851DA22DECF08F0DDCF09F0FDECBD
:1004E8000AF008C050F009C051F0B70E0F6E000EA8
:1004F800106EDA0E116E7E0E126E6DEC16F000099B
:10050800D8B410D050505110D8B40CD051500AE182
:10051800110E505CD8B006D0540E4F24D96EDA6A4A
:10052800010EAED0B70E0F6E000E106E8D0E116E4E
:100538007E0E126E6DEC16F00009D8B40CD0515036
:100548000AE1020E505CD8B006D0560E4F24D96E80
:10055800DA6A010E95D0B70E0F6E000E106E7F0E80
:10056800116E7E0E126E6DEC16F00009D8B40CD028
:1005780051500AE1020E505CD8B006D0580E4F24F4
:10058800D96EDA6A010E7CD0B70E0F6E000E106EAF
:100598005C0E116E7E0E126E6DEC16F00009D8B46A
:1005A8000CD051500AE1200E505CD8B006D05A0E3B
:1005B8004F24D96EDA6A010E63D0B70E0F6E000EA3
:1005C800106E340E116E7E0E126E6DEC16F0000970
:1005D800D8B40CD051500AE1020E505CD8B006D005
:1005E8005C0E4F24D96EDA6A010E4AD0B70E0F6E30
:1005F800000E106E940E116E7E0E126E6DEC16F0DB
:100608000009D8B40CD051500AE1020E505CD8B0A1
:1006180006D05E0E4F24D96EDA6A010E31D0B70EBD
:100628000F6E000E106E440E116E7E0E126E6DEC83
:1006380016F00009D8B40CD051500AE1020E505CF3
:10064800D8B006D0620E4F24D96EDA6A010E18D0DF
:10065800B70E0F6E000E106E860E116E7E0E126EA5
:100668006DEC16F00009D8B40FD051500DE1020E10
:10067800505CD8B009D0600E4F24D96EDA6A010EEA
:10068800DA2250C0DFFFFAD0B70E0F6E000E106EE0
:10069800A20E116E7E0E126E6DEC16F00009D8B423
:1006A8000FD0515004E10A0E505CD8A009D0515027
:1006B80007E1650E505CD8B003D050C04FF1DED0D2
:1006C800B70E0F6E000E106E540E116E7E0E126E67
:1006D8006DEC16F00009D8B40FD0515004E1050EA6
:1006E800505CD8A009D0515007E1330E505CD8B007
:1006F80003D050C04EF1C2D0B70E0F6E000E106E70
:10070800B00E116E7E0E126E6DEC16F00009D8B4A4
:1007180009D0515007E1020E505CD8B003D050C048
:1007280050F1ACD0B70E0F6E000E106E630E116E46
:100738007E0E126E6DEC16F00009D8B409D0515037
:1007480007E1020E505CD8B003D050C051F196D0EA
:10075800B70E0F6E000E106ECF0E116E7E0E126E5B
:100768006DEC16F00009D8B40FD0515004E1320EE8
:10077800505CD8A009D0515007E1FB0E505CD8B0AE
:1007880003D050C052F17AD0B70E0F6E000E106E23
:10079800780E116E7E0E126E6DEC16F00009D8B44C
:1007A80011D0515004E1640E505CD8A00BD0E90E72
:1007B800505C030E5158D8B005D050C06CF151C0F0
:1007C8006DF15CD0B70E0F6E000E106E710E116ECB
:1007D8007E0E126E6DEC16F00009D8B411D051508F
:1007E80004E1640E505CD8A00BD0E90E505C030EF7
:1007F8005158D8B005D050C06EF151C06FF13ED0FD
:10080800B70E0F6E000E106EA90E116E7E0E126ED0
:100818006DEC16F00009D8B411D0515004E1640E03
:10082800505CD8A00BD0E90E505C030E5158D8B0DC
:1008380005D050C070F151C071F120D0B70E0F6EC5
:10084800000E106E3C0E116E7E0E126E6DEC16F0E0
:100858000009D8B40BD0210E505C030E5158D8B003
:1008680005D050C072F151C073F108D0010E4E6E20
:10087800FA0E026E7A0E036E39EC19F04E50D8A4B7
:1008880012001BEC1DF0930E026E7C0E036E39EC09
:1008980019F050C01BF051C01CF01D6A1E6A010EF1
:1008A8001F6E9EEC0CF0A00E026E760E036E39ECF5
:1008B80019F01200000120EE02F0D751D926D851C4
:1008C800DA22DECF4DF0DDCF4EF0010E4D26000EC0
:1008D8004E224DC0F6FF4EC0F7FFF86A050EF764CA
:1008E80003D00800F55005D0F6CFE9FFF7CFEAFFAF
:1008F800EF504F6E4F50076E086AD9EC19F0075049
:10090800516E0001D505D611D8B418D020EE02F0EA
:10091800D751D926D851DA22DECFF6FFDECFF7FF3E
:10092800050EF76403D00800F55005D0F6CFE9FFAF
:10093800F7CFEAFFEF503F0AD8A449D19C0E026EC8
:10094800780E036E39EC19F0740E026E7D0E036E8C
:1009580039EC19F0010E026E780E036E39EC19F0BD
:10096800E60E026E780E036E39EC19F0D10E026EA7
:10097800760E036E39EC19F0AC0E026E750E036E2E
:1009880039EC19F0790E026E750E036E39EC19F018
:100998002D0E026E770E036E39EC19F03E0E026EC4
:1009A8007A0E036E39EC19F012005C50D8A406D008
:1009B800870E026E7B0E036E39EC19F05CA206D02E
:1009C800D80E026E770E036E39EC19F05CA006D0D3
:1009D800590E026E770E036E39EC19F05CA406D03E
:1009E8007E0E026E7A0E036E39EC19F05CA61200C8
:1009F800FB0E026E790E036E39EC19F01200510EDF
:100A0800026E7B0E036E39EC19F083BA07D07F0EA5
:100A1800026E7D0E036E39EC19F01200690E026E3B
:100A28007D0E036E39EC19F012000AEC1DF001C0BE
:100A38001BF002C01CF01D6A1E6A050E1F6E9EEC9C
:100A48000CF0A00E026E760E036E39EC19F012004F
:100A5800FCEC1DF001C054F002C055F05450551084
:100A6800D8A407D0FE0E026E7C0E036E39EC19F086
:100A7800120054045510D8A407D0360E026E7D0E0D
:100A8800036E39EC19F01200020E54185510D8A450
:100A980007D0430E026E7D0E036E39EC19F012007A
:100AA800A70E026E7C0E036E39EC19F012004E0E82
:100AB800036E010E046E7F0E066EC00E056EF4EC1A
:100AC80017F0000E0001D66F020ED56FE50ED76F36
:100AD800010ED86F6BEC0DF01200000E526EFF0E77
:100AE800026E760E036E39EC19F0690E026E7C0EFA
:100AF800036E39EC19F00BD00F0EE1EC1DF0A3ECEE
:100B08001DF00009D8B403D0AFEC1DF0526E1B0ED7
:100B18005218D8B41200F0D7000E536E6D0E026E44
:100B2800740E036E39EC19F0DA0E026E740E036E51
:100B380039EC19F0B60E026E7B0E036E39EC19F023
:100B4800AFEC1CF001C042F102C043F103C044F114
:100B580004C045F137D0AFEC1CF001014251015CF3
:100B68004D6E435102584E6E445103584F6E4551D5
:100B78000458506E50504F104E101AE1050E4D5C3F
:100B8800D8B016D0AFEC1CF001C042F102C043F15E
:100B980003C044F104C045F1F00EE5EC16F0730E05
:100BA800E5EC16F0300EE5EC16F0F70EE5EC16F075
:100BB8008CEC19F0A3EC1DF00009D8B403D0AFEC0D
:100BC8001DF0536E1B0E5318D8B41200C4D75150E1
:100BD8004D6E4E6A4E50000AD8A412004D50650A58
:100BE800D8B4E3D6030AD8B462D70B0AD8B407D767
:100BF8001D0AD8B41AD7010AD8B48ED7020AD8B4B5
:100C080027D7070AD8A4120068D79AC001F09BC05A
:100C180002F00FEC11F0406E9AC033F09BC034F034
:100C2800050E356ED89034323332352EFBD733501B
:100C3800070B376E00019B51030B386E000E396E9F
:100C48003850D8B405D03750D8B402D0010E396E18
:100C58003950D8B402D0010E01D0000E3D6E540EAA
:100C68005B24D96EDA6A010EDA22DF50416E000E7B
:100C78003A6E5A50336E346A070ED890333634368B
:100C8800E82EFBD7AD5133243B6E000E34203C6E6A
:100C98005AC03FF05A0E5B24D96EDA6A010EDA2286
:100CA800DF503E6EF8D03D50D8B410D09651C35D99
:100CB8009751C459D8A00AD0000E606F000E616F1A
:100CC800000E626F000E636F010EAE6F500E985DDE
:100CD800C30E9959D8B0F1D0050E9827000E992364
:100CE800ECD0000E996F000E986F600E5B24D96EE1
:100CF800DA6A010EDA22DF50D8A403D0400E3F6E24
:100D08000AD063516211611104E10A0E605DD8A036
:100D180004D05AC03FF0010E3A6E3A50D8B4CDD044
:100D280040C006F03FC007F04150F9EC1CF040C04D
:100D3800A9F0000E01014A6F000E4B6F000E4C6FB8
:100D4800000E4D6F000E466F000E476F000E486F85
:100D5800000E496F020E0CD09451C35D9551C459D1
:100D6800D8B009D0A9C006F041502CEC1DF0000EF7
:100D78000001AE6FA2D03D50D8B428D0A951401878
:100D8800D8B424D05E0E5B24D96EDA6A010EDA225A
:100D9800DF50D8B40DD040C006F03FC007F0415036
:100DA800F9EC1CF0A9C006F041502CEC1DF00CD059
:100DB800A9C006F041502CEC1DF040C006F03FC021
:100DC80007F04150F9EC1CF040C0A9F04EC133F0D7
:100DD800346A356A366A335001014A5D34504B59DA
:100DE80035504C5936504D59D8A02FD0000E4A6F67
:100DF800000E4B6F000E4C6F000E4D6F00018651B8
:100E08003B1804E187513C18D8B41FD03E50D8B4E1
:100E180018D03EC006F05AC007F04150E8EC1CF06C
:100E28005C0E5B24D96EDA6A010EDA22DF50D8B480
:100E380008D03E50200F066EADC007F04150E8ECD8
:100E48001CF03BC086F03CC087F04FC133F0346AD9
:100E5800356A366A33500101465D3450475935507A
:100E6800485936504959D8A028D0000E466F000E70
:100E7800476F000E486F000E496FABEC16F0620E1C
:100E88005B24D96EDA6A010EDA22DF50D8B415D0A5
:100E9800FAEC1AF012D0AE51336E346A3450000AAC
:100EA800D8A465D73350000AD8B4FDD6010AD8B4FF
:100EB80018D7030AD8B450D75AD7050E00016027AF
:100EC800000E612362236323050E01014A27000EE9
:100ED8004B234C234D23050E4627000E472348235A
:100EE80049231200000E0001E86F000EE76F000EA4
:100EF800E56F760E806F010E816F010EE96FE95183
:100F0800020DB60EF324D96E010EF420DA6E000E2F
:100F1800DE6E000EDD6EE92B050EE965F0D7000EDA
:100F2800E96FE00ED96FFF0EDA6F80C0D9FF81C07C
:100F3800DAFFDF50DB6FDC6BD951DB27DA51DC23BA
:100F4800DC5106E15F0EDB5DD8B002D0010E01D0A6
:100F5800000EDD6FDE6BDD51DE11D8B488D002D013
:100F6800804B812B80C0D9FF81C0DAFF200EDE18AC
:100F7800D8B4F6D7E00ED96FFF0EDA6F80C0D9FF6C
:100F880081C0DAFFDF50DB6FDC6BD951DB27DA5128
:100F9800DC23DC5106E15F0EDB5DD8B002D0010E28
:100FA80001D0000EDF6FE06BDF51E011D8B45FD0E5
:100FB800E951020DB60EF324D96E010EF420DA6E53
:100FC80080C0DEFF81C0DDFFE74BE82B1CD0E00EC0
:100FD800D96FFF0EDA6FE651DB6FDC6BD951DB2777
:100FE800DA51DC23DC5106E15F0EDB5DD8B002D0BC
:100FF800010E01D0000EE16FE26BE151E211D8B4AD
:101008000CD0804B812B80C0D9FF81C0DAFFDF5024
:10101800E66F200EE619D8A4DAD7E00ED96FFF0ED6
:10102800DA6F80C0D9FF81C0DAFFDF50DB6FDC6B7D
:10103800D951DB27DA51DC23DC5106E15F0EDB5D99
:10104800D8B002D0010E01D0000EE36FE46BE3517B
:10105800E411D8B40CD080C0D9FF81C0DAFF000EEB
:10106800DF6E804B812BE92B050EE9655AD7000E00
:10107800E96FE951050DEB0EF324F66E710EF420BD
:10108800F76E0900F5CFD9F00900F5CFDAF0D9C02D
:10109800F6FFDAC0F7FF0800F550240AD8B420D0CC
:1010A800B6C10FF0B7C110F0E951050DEB0EF324EE
:1010B800F66E710EF420F76E0900F5CF11F00A00F4
:1010C800F5CF12F06DEC16F00009D8B404D0010E7B
:1010D8000001E56F05D00001E92BF90EE965C9D7D4
:1010E800E8BF26D0E85104E1020EE75DD8A020D081
:1010F800B8C10FF0B9C110F0C90E116E7E0E126E94
:101108006DEC16F00009D8B413D021EEB8F0DECF9C
:10111800F6FFDECFF7FF050EF76404D03F0EF56E3D
:101128000C0006D0F6CFE9FFF7CFEAFF3F0EEF6ECF
:101138000001E551D8B422D0E7C0D5F0E8C0D6F018
:10114800B60ED76F010ED86FE951050D030EF326C1
:10115800000EF422EB0EF324F66E710EF420F76EF7
:1011680001D812000500FA6E0900F550FD6E09005D
:10117800F550FE6EF850FF6EFA5012003E0E026EE9
:101188007C0E036E39EC19F01200000120EE02F01B
:10119800D751D926D851DA22DECF08F0DDCF09F0B1
:1011A800FDEC0AF00850536E000E506E000120EE60
:1011B80002F0D751D926D851DA22DECFF6FFDECF9A
:1011C800F7FF050EF76403D00800F55005D0F6CFF9
:1011D800E9FFF7CFEAFFEF503F0AD8A419D0FD0E78
:1011E800026E730E036E39EC19F0840E026E730EE4
:1011F800036E39EC19F0730E026E760E036E39EC3D
:1012080019F0CA0E026E720E036E39EC19F0120054
:101218000001D505D611D8A44CD0CD0E026E7B0E98
:10122800036E39EC19F09F0E026E7B0E036E39ECDB
:1012380019F0FB0E026E7B0E036E39EC19F0010EED
:10124800536E010E516E53501B6E1C6A1D6A1E6A46
:10125800040E1F6E9EEC0CF02C0E026E7E0E036EBA
:1012680039EC19F05150070B4D6E4E6A640E4D243F
:10127800D96E010E4E20DA6EDF504F6E4F501B6E46
:101288001C6A1D6A1E6A030E1F6E9EEC0CF0A00EEF
:10129800026E760E036E39EC19F0512A532A080EA5
:1012A8005164D1D7E40E026E7B0E036E39EC19F04F
:1012B8001200D6BF8FD0D65104E1030ED55DD8A059
:1012C80089D020EE04F0D751D926D851DA22DECFC2
:1012D800F6FFDECFF7FF050EF76403D00800F550E0
:1012E80005D0F6CFE9FFF7CFEAFFEF503D0AD8A4C3
:1012F80013D0040E0001D519D611D8A40DD020EEB4
:1013080006F0D751D926D851DA22DECF08F0DDCF42
:1013180009F0FDEC0AF00DD0000120EE04F0D751E1
:10132800D926D851DA22DECF08F0DDCF09F0FDEC5E
:101338000AF00850526E5350D8B415D0090E5360B5
:1013480012D0800E52600FD0080E5318D8A402D0C5
:10135800000E536E640E5324D96EDA6A010EDA2237
:1013680052C0DFFF08D0010E506E950E026E790E46
:10137800036E39EC19F05050D8A412001BEC1DF084
:101388005350D8A402D0080E536E890E026E7D0EFB
:10139800036E39EC19F053501B6E1C6A1D6A1E6AE5
:1013A800010E1F6E9EEC0CF0EE0E026E7C0E036EAC
:1013B80039EC19F052501B6E1C6A1D6A1E6A030E26
:1013C8001F6E9EEC0CF0A00E026E760E036E39ECCA
:1013D80019F01200540E026E7C0E036E39EC19F0EF
:1013E8001200C1EC17F0F29E898C92800F013881AF
:1013F800000E1EEC17F00F0138918990929000F0C2
:1014080000F000F000F092820F013883010E1EEC0C
:1014180017F00F0138938992929200F000F000F0D3
:1014280000F092840F013885020E1EEC17F00F01B0
:1014380038958994929400F000F000F000F09286BC
:101448000F013887030E1EEC17F00F0138978996A5
:10145800929600F000F000F000F0928A0F01388BAD
:10146800040E1EEC17F00F01389B899A929A00F02F
:1014780000F000F000F096800F013C81050E1EEC94
:1014880017F00F013C918D90969000F000F000F05D
:1014980000F096820F013C83060E1EEC17F00F0138
:1014A8003C938D92969200F000F000F000F0968444
:1014B8000F013C85070E1EEC17F00F013C958D942B
:1014C800969400F000F000F000F093840F01398545
:1014D800080E1EEC17F00F0139958A94939400F0CA
:1014E80000F000F000F093860F013987090E1EEC1A
:1014F80017F00F0139978A96939600F000F000F0E4
:1015080000F0899CF28E0001B051D8A403D0010EDE
:10151800B06F1200000E086E380E0824D96EDA6A11
:10152800010EDA22DF50036E046AF551035CF651AE
:101538000458D8B02AD0240E0824D96EDA6A010ECD
:10154800DA22000EDF6E2E0E0824D96EDA6A010E3A
:10155800DA22040EDF6006D02E0E0824D96EDA6A6D
:10156800010E29D008C003F0010E046E000E056EAE
:10157800032A03D0D89004360536032EFBD704502F
:101588000001A2130550A3132FD02E0E0824D96EE4
:10159800DA6A010EDA22000EDF6E240E0824D96EF4
:1015A800DA6A010EDA22040EDF6008D0240E08245D
:1015B800D96EDA6A010EDA22DF2A16D008C003F0E3
:1015C800010E046E000E056E032A03D0D89004366F
:1015D8000536032EFBD7041C066E051C076E065045
:1015E8000001A2170750A317082A090E086494D708
:1015F8001200000E166E000E156E000E0F6E000E15
:101608000E6E02D0084A092A010E146E08C0F6FFB1
:1016180009C0F7FFF86A050EF76403D00800F55013
:1016280005D0F6CFE9FFF7CFEAFFEF50200AD8B48C
:1016380022D0F70E0A6EFF0E0B6E08C0F6FF09C027
:10164800F7FFF86A050EF76403D00800F55005D0D7
:10165800F6CFE9FFF7CFEAFFEF500C6E0D6A0A509C
:101668000C260B500D220D5004E1050E0C5CD8A081
:1016780002D0000E146E14C010F0116A1050111030
:10168800D8B408D0BFD7000E0F6E010E0E6E084AF0
:10169800092A44D008C0F6FF09C0F7FFF86A050E0A
:1016A800F76403D00800F55005D0F6CFE9FFF7CF6F
:1016B800EAFFEF500A6E0B6A0B50000AD8A42ED02E
:1016C8000A502B0AD8B4E3D7060AD8B4DCD726D0F8
:1016D80015C001F016C002F0000E046E0A0E036E6B
:1016E800C2EC1CF008C0F6FF09C0F7FFF86A050E47
:1016F800F76403D00800F55005D0F6CFE9FFF7CF1F
:10170800EAFFEF500A6E0A50015E000E025A300ED0
:101718000124156E000E0220166EB9D7D00E0A6E7F
:10172800FF0E0B6E08C0F6FF09C0F7FFF86A050E3A
:10173800F76403D00800F55005D0F6CFE9FFF7CFDE
:10174800EAFFEF500C6E0D6A0A500C260B500D2262
:101758000D5006E10A0E0C5CD8B002D0010E01D083
:10176800000E126E136A12501310D8A4B1D70E507F
:101778000F10D8A40DD015C00AF016C00BF00A1E21
:101788000B1E0A4A0B2A0AC008F00BC009F0120007
:1017980015C008F016C009F012000001A551D8A420
:1017A80015D0000E7F6F000E7E6F000E0101766F60
:1017B800760E0001806F010E816FE90E026E010E38
:1017C800036E39EC19F0010E0001A56FA3EC1DF0B2
:1017D8000009D8B41200AFEC1DF00001F06F91D0F1
:1017E8000CEC1CF0000E00017F6F000E7E6F000EE7
:1017F8000101766F760E0001806F010E816FE90E90
:10180800026E010E036E39EC19F012007FBF120050
:101818007F5103E17E05D8A012008007D8A0810778
:101828007E07D8A07F07080EE7EC1DF0200EE7EC36
:101838001DF0080EE7EC1DF012000D0EE7EC1DF090
:101848000A0EE7EC1DF000017FBFCCD77F5103E102
:101858007E05D8A0C7D780C0D9FF81C0DAFF000EA7
:10186800DF6E8EEC11F076EC07F0BCD70CEC1CF0B8
:10187800000E00017F6F000E7E6F000E0101766F73
:10188800760E0001806F010E816FE90E026E010E67
:10189800036E39EC19F0A9EC14F01200200EF06F69
:1018A800E00EEA6FFF0EEB6FF051EC6FED6BEA5153
:1018B800EC27EB51ED23ED5106E15F0EEC5DD8B05E
:1018C80002D0010E01D0000EEE6FEF6BEE51EF115A
:1018D800D8B412007FBF06D07F512BE11E0E7E5D6B
:1018E800D8B01200F051E7EC1DF080C0D9FF81C0DC
:1018F800DAFFF0C0DFFF0001804B812B7E4B7F2B8E
:101908001200F051EA6FEB6BEB51000AD8A4C8D76C
:10191800EA51080AD8B47AD7010AD8B4BFD7040A5A
:10192800D8B48BD71F0AD8B4A1D70A0AD8B458D7C5
:10193800B7D71200000E326E000E316E000E2F6EF9
:10194800010E306E0C0E1F6402D00C0E1F6E1F505D
:10195800D8A402D0010E1F6E1EAE0BD0010E2F6E42
:101968001B6C1C1ED8B01C2A1D1ED8B01D2A000EC8
:101978001E56000E356E000E346E1BC001F01CC0E2
:1019880002F01DC003F01EC004F00A0E056E000E22
:10199800066E000E076E000E086E16EC13F001506E
:1019A800300F336E230E3424D96E000E3520DA6ED4
:1019B80033C0DFFF1BC00DF01CC00EF01DC00FF0C0
:1019C8001EC010F00A0E116E000E126E000E136E7D
:1019D800000E146EF5EC11F00DC01BF00EC01CF0DB
:1019E8000FC01DF010C01EF0344A352A35BEC5D7C9
:1019F800355004E10C0E345CD8A0BFD7000E356E0C
:101A08000B0E346E230E3424D96E000E3520DA6E98
:101A1800DF50336E34503510D8B40FD0300E331831
:101A2800D8A40BD03050D8B408D0230E3424D96EA3
:101A3800000E3520DA6E200EDF6E34503510D8B423
:101A480004D0300E3318D8B40CD0000E306E31509C
:101A58003210D8A406D0010E3424316E000E352081
:101A6800326E3406D8A0350635AECCD72F50D8B450
:101A780008D0230E3124D96E000E3220DA6E2D0ED6
:101A8800DF6E000E356E0B0E346E230E3424D96EC5
:101A9800000E3520DA6EDF50336E1F50206E216A3B
:101AA8002050345C3550800A226E2150800A22581A
:101AB800D8A004D0200E3318D8B403D03350E7ECA4
:101AC8001DF03406D8A0350635BE1200DED7000159
:101AD800D505D611D8B418D020EE02F0D751D926A2
:101AE800D851DA22DECFF6FFDECFF7FF050EF76416
:101AF80003D00800F55005D0F6CFE9FFF7CFEAFF8D
:101B0800EF503F0AD8A413D0110E026E760E036E62
:101B180039EC19F0280E026E7C0E036E39EC19F0C0
:101B28004F0E026E780E036E39EC19F012000001A8
:101B3800D6BF19D0D65104E1020ED55DD8A013D076
:101B480020EE02F0D751D926D851DA22DECF02F0A2
:101B5800DDCF03F0F1EC15F0F00E02140001786F00
:101B6800FF0E0314796F78C04AF079C04BF0000E6D
:101B7800486E4AC003F04BC004F06EEC1AF0E90E50
:101B8800026E7E0E036E39EC19F0000E4C6E4AC0E0
:101B980001F04BC002F0CBEC1DF0C2EC1DF04A4A3C
:101BA8004B2A200EE7EC1DF04C50070B070AD8A46F
:101BB80003D0200EE7EC1DF04C2A0F0E4C64E7D73B
:101BC800100E4A5E000E4B5A000E4C6E4AC001F0D1
:101BD8004BC002F0CBEC1DF0496E4A4A4B2AE00E8E
:101BE800426EFF0E436E4950446E456A4250442689
:101BF80043504522455006E15F0E445CD8B002D000
:101C0800010E01D0000E466E476A46504710D8B400
:101C180004D04950E7EC1DF003D02E0EE7EC1DF080
:101C28004C2A0F0E4C64D2D7A00E026E760E036EAD
:101C380039EC19F0482A0F0E48649BD70001010EB1
:101C480079271200B9EC1DF0B6EC18F0000E00016F
:101C5800AC6F000EE7EC1DF00001AC2B090EAC6573
:101C6800F8D7DD0E026E7C0E036E39EC19F0E3EC4A
:101C780018F00009D8A403D05C806CEC13F00101C3
:101C88005251DBEC1DF0AFEC1CF001C068F002C053
:101C980069F003C06AF004C06BF008D05D50D8B496
:101CA80005D0000E5D6E8B805DEC1BF0C80E000148
:101CB8006825F16F000E6921F26F000E6A21F36F3B
:101CC800000E6B21F46FAFEC1CF00001F151015CC8
:101CD800F2510258F3510358F4510458D8A0DED7F2
:101CE800C3C058F0C4C059F06CC101F06DC102F016
:101CF800000E046E050E036EC2EC1CF001C007F066
:101D080002C008F0000E0A6E640E096E63EC19F04A
:101D1800585007240001966F59500820976F21EEFC
:101D28006CF0DECFF1F0DDCFF2F0D890F137F2377A
:101D3800D890F137F237F1C007F0F2C008F0000E82
:101D48000A6E640E096E63EC19F0585007240001FE
:101D5800946F59500820956F595004E1080E585C4B
:101D6800D8A002D05904D8B05C84000E83BA010E02
:101D78005B6EEFC102F0F0C103F039EC19F0000E10
:101D88000001D66F010ED56F000ED76F000ED86F09
:101D9800EDEC14F056EC17F0D1EC0BF08CEC19F0DC
:101DA800F9D76CC129F06DC12AF058500001C35D04
:101DB8001B6E5950C4591C6E1BC001F01CC002F0A8
:101DC800036A046A800E056E3F0E066E000E076EEB
:101DD800000E086E0EEC19F001C00DF002C00EF0F6
:101DE80003C00FF004C010F029C011F02AC012F08F
:101DF800136A146AF5EC11F00DC02BF00EC02CF02C
:101E08000FC02DF010C02EF02EAE08D0000E2B6E95
:101E1800000E2C6E000E2D6E000E2E6E2EBE11D0F2
:101E28002E502D1006E1810E2B5C3F0E2C58D8A0A9
:101E380008D0800E2B6E3F0E2C6E000E2D6E000EFD
:101E48002E6E020E1B6E64C01CF065C01DF066C0CD
:101E58001EF067C01FF01B6601D007D01F341F3269
:101E68001E321D321C321B2EF6D7020E206E2BC0DE
:101E780021F02CC022F02DC023F02EC024F02066C3
:101E880001D007D024342432233222322132202EAA
:101E9800F6D71C50215C256E1D502258266E1E5008
:101EA8002358276E1F502458286E0001645125249A
:101EB800646F65512620656F66512720666F6751EC
:101EC8002820676F64C01BF065C01CF0070E1D6EEC
:101ED800D8901C321B321D2EFBD71B507F0B5A6E1D
:101EE80064517F0BAD6F1200010172510001925DC8
:101EF8001D6E01017351000193591E6E1DC027F01C
:101F08001EC028F0296A2A6A2AAE08D0000E276E59
:101F1800000E286E000E296E000E2A6E0101725105
:101F2800705D1D6E735171591E6E1DC01FF01EC06D
:101F380020F0216A226A27C001F028C002F029C0D7
:101F480003F02AC004F0800E056E3F0E066E000EE8
:101F5800076E000E086E0EEC19F001C00DF002C0FD
:101F68000EF003C00FF004C010F01FC011F020C025
:101F780012F021C013F022C014F0F5EC11F00DC0DE
:101F880027F00EC028F00FC029F010C02AF027C093
:101F980001F028C002F029C003F02AC004F027C0CD
:101FA80005F028C006F029C007F02AC008F00EEC9A
:101FB80019F001C00DF002C00EF003C00FF004C00C
:101FC80010F0800E116E3F0E126E000E136E000E92
:101FD800146EF5EC11F00DC023F00EC024F00FC004
:101FE80025F010C026F026BE11D02650251006E197
:101FF800810E235C3F0E2458D8A008D0800E236E93
:102008003F0E246E000E256E000E266E23C01BF0B8
:1020180024C01CF01200540E5B24D96EDA6A010E3B
:10202800DA22DF50126E00019B51136E9AC014F031
:1020380001015005D8A40DD01438F00B100B0F6E09
:10204800D89014300F0B0F100E6E1450E00B0E10BA
:10205800146E0001AE51D8A412009A519B11D8A455
:1020680026D012506BEC1DF012505CEC1DF05E0E89
:102078005B24D96EDA6A010EDA22DF50D8B405D0B3
:10208800020E066E12508DEC17F0C3C058F0C4C093
:1020980059F01E0E58240001966F000E5920976FB4
:1020A800190E5824946F000E5920956F1200145081
:1020B800D8B418D0010E116E000E106E080E11184B
:1020C800D8A402D0000E116E14B008D0D8901430E5
:1020D800146E102A112A070E1064F0D711505BEC09
:1020E80012F012001304D8A405D0FF0E8D6FF40E61
:1020F8008C6F1200020E1318D8A405D0000E8D6F35
:102108000C0E8C6F1200030E1318D8A41200000EC8
:102118008D6F000E8C6F1200000E456E000E446E1F
:10212800610E486E000E476E010E466E46C001F005
:1021380047C002F0000E046E050E036EC2EC1CF0E0
:10214800EB0E0124F66E710E0220F76E0900F5CF32
:1021580049F00A00F5CF4AF049C0F6FF4AC0F7FF38
:102168000800F550240AD8B447D049C0F6FF4AC041
:10217800F7FF0800F5504818D8A434D049C002F039
:102188004AC003F039EC19F049C001F04AC002F026
:102198001CEC1BF001500C08426E0250D8A0E82A33
:1021A8000008436E03D0200EE7EC1DF04206D8A0CD
:1021B80043064228F8E14328D8A4F5D7444A452ADB
:1021C80045BE10D0455004E1060E445CD8A00AD0A4
:1021D800000E456E000E446EA00E026E760E036E63
:1021E80039EC19F0464A472A47BEA0D7475004E1C0
:1021F800FA0E465CD8A09AD7482A7A0E486492D735
:1022080044504510D8B41200A00E026E760E036E2C
:1022180039EC19F012000250030B0A6E0250030B3E
:102228000A6E020E0A18D8A402D0020E07D0030EB6
:102238000A18D8A402D0010E01D0000E086E01C001
:1022480003F002C004F0050E056ED8900432033284
:10225800052EFBD70350070B066ED8900230046E8C
:102268000130036E03507F0B076E0150010B096E9E
:10227800800E0724D96EDA6A020EDA22DF500D6E5C
:1022880008500C0DF3CF03F0F4CF04F00D500326E3
:10229800000E0422180E03240B6E000E04200C6E90
:1022A80001015151D8A414D00950D8B42AD0020E33
:1022B8000618D8B426D0AA0E0D24D96EDA6A010EF3
:1022C800DA22DF50D8B41DD00B06D8A00C0619D0DE
:1022D800180E0D18D8B410D01D0E0D18D8B40CD087
:1022E800240E0D18D8B408D0290E0D18D8B404D06F
:1022F800300E0D18D8A405D00950D8B402D00B4A16
:102308000C2A00018C510B240B6E8D510C200C6E85
:102318000B5012000001A451D8A42BD0000E0E6E51
:10232800000E0D6E0DC00BF00EC00CF0050ED8900F
:102338000B360C36E82EFBD7000E0B24D96E020E96
:102348000C20DA6E000EDF6E0D4A0E2A0EBEEAD79A
:102358000E5004E1040E0D5CD8A0E4D7000E000175
:102368007D6F000E7C6F000E7B6F000E7A6F010E82
:10237800A46F760E016E010E026E1CEC1BF001506C
:102388000210D8B412007CC00BF07DC00CF0050E12
:10239800D8900B360C36E82EFBD7000E0B24016EB6
:1023A800020E0C20026E760E036E010E046E000EF5
:1023B800066E1E0E056E2FEC16F07CC07AF07DC0FE
:1023C8007BF000017C4B7D2B7DBF12007D5104E129
:1023D800040E7C5DD8A01200000E7D6F000E7C6F8D
:1023E8001200000E166E14AE0AD0141E131E121E12
:1023F800116C000E122213221422010E166E10AE5A
:102408000AD0101E0F1E0E1E0D6C000E0E220F227B
:102418001022010E161A000E176E000E186E000E0E
:10242800196E000E1A6E1150121013101410D8B431
:102438002AD0010E156E06D0D890113612361336F2
:102448001436152A14AEF8D7D89017361836193618
:102458001A3611500D5C12500E5813500F58145064
:102468001058D8A009D011500D5E12500E5A1350B2
:102478000F5A1450105A1780D8901432133212324F
:102488001132152EE1D71650D8B408D01A1E191ECD
:10249800181E176C000E182219221A2217C00DF0E8
:1024A80018C00EF019C00FF01AC010F012000B6E11
:1024B800540E5B24D96EDA6A010EDA22DF50096EF7
:1024C800640E0B24D96EDA6A010EDA22DF500A6E26
:1024D800580E5B24D96EDA6A010EDA22DF50D8B4BE
:1024E80005D00AC006F0095096EC1DF0F00E010167
:1024F800146F730E156F070E166F0BC017F16CC0B3
:1025080018F16DC019F16EC01AF15CC01BF151C110
:102518001CF15E0E5B24D96EDA6A010EDA22DF50F6
:102528001D6F600E5B24D96EDA6A010EDA22DF5065
:102538001E6FF70E1F6F560E5B24D96EDA6A010EF6
:10254800DA22DF50D8B41200000E0D6E140E0D24DE
:10255800D96EDA6A010EDA22DF500C6E0C50E5EC07
:1025680016F0F70E0C18D8B412000D2A3F0E0D64A1
:10257800EDD71200000E526E000E516E000E576E0F
:10258800120E026E7C0E036E39EC19F040D063EC2B
:1025980014F0AFEC1CF001C053F002C054F003C0BB
:1025A80055F004C056F002D056EC17F0AFEC1CF012
:1025B8005350015C4D6E545002584E6E555003589E
:1025C8004F6E56500458506E50504F104E1004E144
:1025D800FA0E4D5CD8A0E8D70D0EE7EC1DF0A3EC81
:1025E8001DF00009D8B403D0AFEC1DF0576E0D0EE6
:1025F8005718D8A408D0000E576EA00E026E760E9B
:10260800036E39EC19F0320E5126000E52221B0EC1
:102618005718D8A4BCD7A00E026E760E036E39ECFC
:1026280019F01200000E0A6E04AE0AD0041E031E32
:10263800021E016C000E022203220422010E0A6E01
:1026480008AE08D0081E071E061E056C000E0622DE
:10265800072208220550061007100810D8B424D005
:10266800010E096E06D0D8900536063607360836AC
:10267800092A08AEF8D70550015C065002580750E1
:10268800035808500458D8A008D00550015E0650D9
:10269800025A0750035A0850045AD8900832073291
:1026A80006320532092EE7D70A50D8B408D0041EDE
:1026B800031E021E016C000E02220322042201C026
:1026C80001F002C002F003C003F004C004F01200DD
:1026D800010E0101546F000E566F000E586F070E61
:1026E8005A6F000E5C6F000E5E6F000E606F000E7A
:1026F800626F010E556F010E576F000E596F020E73
:102708005B6F000E5D6F010E5F6F000E616F000E54
:10271800636F000E0A6E2C0E0A24F66EF76A720EAC
:10272800F722640E0A24D96EDA6A010EDA2208004A
:10273800F5CFDFFF0A2A070E0A64EDD7050E01015F
:102748004E6F1E0E4F6F000E506F000E516F960E9B
:10275800526F020E6D6FEE0E6C6F030E6F6FE80E08
:102768006E6F020E716FEE0E706F010E736F5E0E5C
:10277800726F1BEC1DF01200000E1F6E000E206E13
:10278800000E216E000E226E000198519911D8B4E6
:1027980003D0B551D8B43ED08E51C15D1D6E8F5156
:1027A800C2591E6E1DC001F01EC002F0036A046A01
:1027B800800E056E3E0E066E000E076E000E086E49
:1027C8000EEC19F001C023F002C024F003C025F07C
:1027D80004C026F023C00DF024C00EF025C00FF071
:1027E80026C010F06EC111F06FC112F0136A146A9E
:1027F800F5EC11F00DC023F00EC024F00FC025F049
:1028080010C026F023C01FF024C020F025C021F0FE
:1028180026C022F01FC01BF020C01CF01200000EC2
:10282800436E000E426E0001D505D611D8A428D0FB
:10283800440E026E750E036E39EC19F008D0A3EC45
:102848001DF00009D8B403D0AFEC1DF0436E1F0E85
:102858004364F5D74350E7EC1DF0A00E026E760EE8
:10286800036E39EC19F043C007F0086A24EC1AF03B
:10287800590E07180810D8A416D0010E426E13D0AE
:1028880020EE02F0D751D926D851DA22DECF0FF048
:10289800DDCF10F0F70E116E7E0E126E6DEC16F095
:1028A8000009D8A4EAD74250D8B412006CEC13F04F
:1028B800720E026E790E036E39EC19F01200280EB2
:1028C800026E7D0E036E39EC19F0F7EC1DF001C0B5
:1028D80003F002C004F06EEC1AF00C0E026E7D0ECE
:1028E800036E39EC19F0000E89EC1DF001C01BF0E5
:1028F80002C01CF01D6A1E6A040E1F6E9EEC0CF0CE
:102908001A0E026E7D0E036E39EC19F0EDEC1DF017
:1029180001C01BF002C01CF01D6A1E6A040E1F6E67
:102928009EEC0CF0500E026E7D0E036E39EC19F021
:10293800F2EC1DF001C01BF002C01CF01D6A1E6AFB
:10294800040E1F6E9EEC0CF01200760E016E010E46
:10295800026E7AC00BF07BC00CF0050ED8900B36D7
:102968000C36E82EFBD7000E0B24036E020E0C204B
:10297800046E000E066E1E0E056E2FEC16F000019A
:102988007A517B11D8A404D0000E7B6F040E7A6FA5
:102998007A07D8A07B07760E016E010E026E1CEC3A
:1029A8001BF001C07EF002C07FF0760E00017E258C
:1029B800806F010E7F21816F80C0D9FF81C0DAFF4F
:1029C800000EDF6E760E026E010E036E39EC19F002
:1029D8001200BA0E026E7C0E036E39EC19F000017B
:1029E8006C511B6E1C6A1D6A1E6A010E1F6E9EECDE
:1029F8000CF02E0EE7EC1DF000016D511B6E1C6AE9
:102A08001D6A1E6A010E1F6E9EEC0CF02E0EE7EC7E
:102A18001DF00A0E00016E6103D0300EE7EC1DF0C8
:102A280000016E511B6E1C6A1D6A1E6A010E1F6E24
:102A38009EEC0CF0F10E026E7E0E036E39EC19F06E
:102A48005D0E026E7D0E036E39EC19F0A00E026E5B
:102A5800760E036E39EC19F01200000E096E000EA6
:102A68000A6E000E0B6E000E0C6E05500610071055
:102A78000810D8B42AD0010E0D6E06D0D8900536AD
:102A88000636073608360D2A08AEF8D7D890093624
:102A98000A360B360C360550015C065002580750B2
:102AA800035808500458D8A009D00550015E0650B4
:102AB800025A0750035A0850045A0980D89008321D
:102AC8000732063205320D2EE1D709C001F00AC0DF
:102AD80002F00BC003F00CC004F0120025252525D8
:102AE8002525252525252525252525253030303062
:102AF800303030302F2E2E2E2D2C2C2C2424242414
:102B08002424242424242424242424242B2A2A2A64
:102B18002A2A2A2A2929292928272624232222223F
:102B2800222222222222222222222222222222227D
:102B38002222222222222222222222222120202074
:102B48002020202020202020202020201F1E1E1E84
:102B58001E1E1E1E1D1D1D1D1C1B1A18E40EF66EC2
:102B68002A0EF76E000EF86E02EE80F010EE80F07E
:102B78000900F5CFEEFFE550E150FAE1080EF66ED8
:102B8800390EF76E000EF86E01EEC2F010EE2BF063
:102B98000900F5CFEEFFE550E150FAE102EE00F052
:102BA800800EEE6AE806FDE101EE00F0C20EEE6A64
:102BB800E806FDE100EE60F0650EEE6AE806FDE16C
:102BC80000EE58F0070EEE6AE806FDE15F905F92AE
:102BD800000EF86E000126EF0EF0000E086E000ED3
:102BE800076E000E096E0250046E0350056E024A0D
:102BF800032A04C0F6FF05C0F7FFF86A050EF7645C
:102C080003D00800F55005D0F6CFE9FFF7CFEAFF6B
:102C1800EF509BEC1BF0066E0628D8B417D007C0FF
:102C280004F008C005F0043A053AF00E0516045001
:102C38000F0B0512F00E041606500424076E000E42
:102C48000520086E092A030E0964CDD707C002F0D3
:102C580008C003F0120001C009F002C00AF023D036
:102C68000506D8A006060350076E0450086E034AEE
:102C7800042A07C0F6FF08C0F7FFF86A09C0D9FFA1
:102C88000AC0DAFF094A0A2A050EF76403D00800C9
:102C9800F55005D0F6CFE9FFF7CFEAFFEF50DF6E2A
:102CA800DF50D8B40DD005500610D8B409D0D8D705
:102CB80009C0D9FF0AC0DAFF000EDF6E094A0A2AE6
:102CC8000506D8A006060528F3E10628D8B41200A0
:102CD800EFD71468010E156E34D00FC0F6FF10C080
:102CE800F7FFF86A050EF76403D00800F55005D021
:102CF800F6CFE9FFF7CFEAFFEF50136E1350076ED8
:102D0800086AD9EC19F00750166E0F4A102A11C03C
:102D1800F6FF12C0F7FF0800F550076E086AD9ECF5
:102D280019F00750176E114A122A17501618D8B4FE
:102D380002D0000E156E1650D8B407D01750D8B46C
:102D480004D014061428D8A4C8D715501200540E5D
:102D58005B24D96EDA6A010EDA22DF50306E78EC25
:102D68000FF01BC031F01CC032F000018251311845
:102D780004E183513218D8B4120031C02BF032C0AC
:102D88002CF0070E2D6ED8902C322B322D2EFBD71F
:102D98002B507F0B2E6E010E066E2EC007F03050A2
:102DA800E8EC1CF031507F0B2F6E210E066E2FC001
:102DB80007F03050E8EC1CF031C082F032C083F0EC
:102DC8001200056E0001AF51D8A40ED0960EA06F68
:102DD800010EA16F960E9E6F010E9F6F000E9D6FE4
:102DE800000E9C6F010EAF6F9DBF06D09D5121E173
:102DF800200E9C5DD8B012009EC0D9FF9FC0DAFF9C
:102E080005C0DFFF9E4B9F2B960E016E010E026ED2
:102E1800200E0126000E022201509E5D02509F598D
:102E2800D8A004D0960E9E6F010E9F6F9C4B9D2BD1
:102E380012001200026EDB0E0224D96EDA6A010E4D
:102E4800DA22DF50016E01460146C2500118830B99
:102E58000118C26E00F000F000F000F00F01458389
:102E680000F000F000F000F00F0145934493448116
:102E780000F000F000F000F000F000F000F000F0CA
:102E880000F000F000F000F00F014491C282C2B2DD
:102E9800FED7380E0224D96EDA6A010EDA22C4CFC0
:102EA800DFFF12005E50D8B404D0000E5E6EF5EC61
:102EB80009F05D50D8B413D0000E5D6E5DEC1BF0C8
:102EC800F7EC1DF0FF0E011400019A6F030E0214B7
:102ED8009B6FD5EC0EF009EC06F0B5EC1AF000018A
:102EE800B451D8B41200000EB46F8B80B9EC1BF04B
:102EF8007AEC1DF00001AB2B040EAB19D8A412001C
:102F0800000EAB6F000E83BA010E5B6EF2EC1BF085
:102F18001200076E07040F0BB009086E0850E5ECA5
:102F280016F00604D8B404D0020E0618D8A407D0A8
:102F38007D0EE5EC16F0000EE5EC16F006D07C0EE2
:102F4800E5EC16F0000EE5EC16F00850E5EC16F08E
:102F58000604D8B404D0030E0618D8A407D07F0EF0
:102F6800E5EC16F0000EE5EC16F012007E0EE5EC2E
:102F780016F0010EE5EC16F012000F01459F459B77
:102F880045994597459545934591449F9F0E44170C
:102F980044894451F30B0409446F030E4313030E91
:102FA8004317000EC26E000EC16EC09EC050F80BD3
:102FB8000109C06EC050C70B1009C06E000EC36E69
:102FC800000EC46E010EC26E458F000E0001F66F32
:102FD800960EF56F000EA36F000EA26F929C120062
:102FE800400E076EC00E0514056EFF0E0614066E21
:102FF80005C001F006C002F0D5EC1CF0000EF86E1A
:103008000650F76E05C0F6FF09D003C0D9FF04C00B
:10301800DAFFDF50F56E034A042A0D000706072879
:10302800D8A4F3D705C0F6FFA68EA69CA684A698BA
:10303800F29E550EA76EAA0EA76EA682F28EA694D1
:103048001200000E016E240E026EF40E036E000EC6
:10305800046E0E50106E0F50116E126A136A020E33
:10306800D8901036113612361336E82EF9D710C01C
:1030780005F011C006F012C007F013C008F031ECDB
:1030880015F0FF0E0124146EFF0E0220156E080EB7
:10309800706E900E716E240E726E14C075FF15500E
:1030A800766E1200000E016E240E026EF40E036E90
:1030B800000E046E0E50106E0F50116E126A136AD5
:1030C800020ED8901036113612361336E82EF9D77C
:1030D80010C005F011C006F012C007F013C008F0C8
:1030E80031EC15F0FF0E0124146EFF0E0220156E50
:1030F800080EB86E900EAB6E240EAC6E14C0AFFF07
:103108001550B06E12009E900001F851CF6EF7C0B6
:10311800CEFF5E50D8A4B32B010E7027000E71238A
:1031280072237323010E5E6EB22B040EB26504D0B7
:10313800010E5D6E000EB26FB12B310EB16504D079
:10314800010EB46F000EB16F7407000E755B765BED
:10315800775B7451751176117711D8A41200000E9F
:10316800B56F1200010E00016C6F030E6D6F0D0E2E
:103178006E6FA20E0101EF6F760EF06F010EF16F08
:10318800000E0001B56F000E0101EE6F1E0EED6F0F
:10319800000E5C6E94909492960E0F6E000E0E6E5A
:1031A80056EC18F07A0E0F6E120E0E6E25EC18F013
:1031B8004CEC1DF0C1EC17F0F28EF28C1200010EEF
:1031C8000E6E4E0E0C6E010E0D6E4E0E016E010E41
:1031D800026E7F0E046E800E036E280E056E9AEC4A
:1031E8001CF00CC0D9FF0DC0DAFFDE2805E1DE288F
:1031F800D8A402D0000E0E6E49EC1AF001017451E9
:10320800011804E175510218D8B402D0000E0E6EF0
:103218000E501200000E096E000E0A6E000E0B6EA4
:10322800000E0C6E01A008D00550092606500A228F
:1032380007500B2208500C22D89005360636073660
:103248000836D8900432033202320132015002109B
:1032580003100410D8A4E6D709C001F00AC002F090
:103268000BC003F00CC004F012000ED00A0E0618B2
:10327800D8A407D00D0EE7EC1DF00A0EE7EC1DF000
:1032880003D00650E7EC1DF00250046E0350056EA3
:10329800024A032A04C0F6FF05C0F7FFF86A050EC4
:1032A800F76403D00800F55005D0F6CFE9FFF7CF53
:1032B800EAFFEF50066E0650D8B41200D7D7000EBA
:1032C8000C6E000E0B6E09500A10D8B41CD0010EFB
:1032D8000D6E04D0D89009360A360D2A0AAEFAD7F0
:1032E800D8900B360C360950075C0A500858D8A0FD
:1032F80005D00950075E0A50085A0B80D8900A3248
:1033080009320D2EEDD70BC007F00CC008F01200E3
:1033180000019C519D11D8B41200A4A81200A0C0AD
:10332800D9FFA1C0DAFFDF50E1EC1DF00001A04B8E
:10333800A12B960E026E010E036E200E0226000EC1
:1033480003220250A05D0350A159D8A004D0960EC4
:10335800A06F010EA16F9C07D8A09D071200046EF4
:1033680004C003F003460346C2500318830B031836
:10337800C26E00F000F000F000F000F000F000F085
:1033880000F0C282C2B2FED7C4CF05F0066A05506B
:10339800066E056AC3500524056E000E0620066EEB
:1033A80005C001F006C002F01200BF0E096EFF0E44
:1033B8000A6E07C00BF008C00CF009500B260A5023
:1033C8000C220C5006E11A0E0B5CD8B002D0010E8C
:1033D80001D0000E0D6E0E6A0D500E10D8B406D036
:1033E800200E0710076E0850086E120007C007F07D
:1033F80008C008F01200350E026E740E036E39EC28
:1034080019F0DF0E026E750E036E39EC19F00F0E0F
:10341800026E750E036E39EC19F07F0E026E720E95
:10342800036E39EC19F0340E026E720E036E39EC2D
:1034380019F0C10E026E730E036E39EC19F012000A
:103448009F0E096EFF0E0A6E07C00BF008C00CF045
:1034580009500B260A500C220C5006E11A0E0B5C80
:10346800D8B002D0010E01D0000E0D6E0E6A0D50BC
:103478000E10D8B405D05F0E0714076E086A120044
:1034880007C007F008C008F01200000E066E000E14
:10349800056E4E0E076E010E086E260E046E000EA7
:1034A800096E0DD007C0D9FF08C0DAFFDF50036EE0
:1034B80003500526000E0622074A082A092A045046
:1034C800095CD8A0EFD7BA0E0518016EAB0E061826
:1034D800026E120003C005F004C006F00C0E076E61
:1034E800D89006320532072EFBD705503CEC1DF06C
:1034F80004503CEC1DF003C005F004C006F0040EB7
:10350800076ED89006320532072EFBD705503CECE3
:103518001DF003500F0B3CEC1DF012000F01459FEE
:1035280000F000F000F000F0000EC26E000EC16E58
:10353800C08EC050F80B0509C06EC050C70B1009EB
:10354800C06E000EC36E000EC46E010EC26E938272
:103558000F0139839388398993803981938A398B0C
:1035680012000001A851D8A408D0310EA7650AD0CE
:103578000FEC10F0010E000104D0C70EA66502D0B2
:10358800000EA86F83B808D0FA0EA76102D0050E06
:10359800A727000EA66F1200FA0EA66102D0050E2C
:1035A800A627000EA76F1200000E8D6E000E8C6EFF
:1035B800000E896E000E8A6E000E8B6E070E966ED8
:1035C8003F0E926E9368900E946EB70E956E000E35
:1035D8000F013A6F3969000E3B6F070E3C6F2F0ED3
:1035E800386F6168F19E8B848C961200540E5B24B0
:1035F800D96EDA6A010EDA22DF50276EC0EC13F0BA
:103608001BC028F01CC029F000018451281804E1CF
:1036180085512918D8B4120028C006F029C007F02F
:103628002750D6EC1BF028C084F029C085F0120082
:1036380001C003F002C004F002D0014A022A01C00E
:10364800F6FF02C0F7FFF86A050EF76403D008001A
:10365800F55005D0F6CFE9FFF7CFEAFFEF500009A4
:10366800D8A4EBD70350015C016E04500258026ED7
:103678001200000120EE02F0D751D926D851DA22E3
:10368800DECFF6FFDECFF7FF050EF76403D00800A4
:10369800F55005D0F6CFE9FFF7CFEAFFEF503F0A24
:1036A800D8A412007E0E026E7C0E036E39EC19F05F
:1036B800120092EC1AF00B0EB3EC19F001C0C3F033
:1036C80002C0C4F00A0EB3EC19F001C0C1F002C088
:1036D800C2F00D0EB3EC19F001C092F002C093F0E5
:1036E8000C0EB3EC19F001C08AF002C08BF0120086
:1036F800010E076E200E01180210D8B414D0F70E70
:10370800036EFF0E046E01C005F002C006F0035000
:10371800052604500622065004E1050E055CD8A0D3
:1037280002D0000E076E07C001F0026A1200016E97
:103738002F0E016406D03A0E016003D00150D00F5D
:103748001200400E016406D0470E016003D00150FC
:10375800C90F1200600E016406D0670E016003D025
:103768000150A90F1200FF0E12000101F151D8B447
:103778001200000189BF0AD0895104E10A0E885D50
:10378800D8A004D0000E896F000E886F8851891167
:10379800D8B48B82020E88198911D8B48B92884BC1
:1037A800892B12000B6E0B040F0BE0090C6E0C50EA
:1037B800E5EC16F006507F0BE5EC16F006C008F0B5
:1037C80007C009F0070E0A6E0934093208320A2EBA
:1037D800FBD708507F0BE5EC16F01200560E5B2461
:1037E800D96EDA6A010EDA22DF50D8B4120000016D
:1037F800AE51D8A41200F00EE5EC16F0730EE5EC0D
:1038080016F0300EE5EC16F0F70EE5EC16F01200A7
:103818000D0EE7EC1DF0000E036E000E026E200E7A
:10382800E7EC1DF0024A032A03BEF9D7035004E16E
:10383800200E025CD8A0F3D70D0EE7EC1DF01200A5
:10384800E00E036EFF0E046E01C005F002C006F024
:103858000350052604500622065006E15F0E055C5B
:10386800D8B002D0010E01D0000E016E026A12001B
:103878009F0E036EFF0E046E01C005F002C006F035
:103888000350052604500622065006E11A0E055C70
:10389800D8B002D0010E01D0000E016E026A1200EB
:1038A800BF0E036EFF0E046E01C005F002C006F0E5
:1038B8000350052604500622065006E11A0E055C40
:1038C800D8B002D0010E01D0000E016E026A1200BB
:1038D800D00E036EFF0E046E01C005F002C006F0A4
:1038E8000350052604500622065006E10A0E055C20
:1038F800D8B002D0010E01D0000E016E026A12008B
:1039080001000100010000010001000101000100A7
:103918000100000100010001000001020304050686
:0B392800070809BD7EB77E0D3E2000A1
:10393400000EF86E0450F76E03C0F6FF09D00900BC
:1039440001C0D9FF02C0DAFFF5CFDFFF014A022A26
:1039540005060528D8B41200F2D79D9070C005F072
:1039640071C006F072C007F073C008F09D8005C0F6
:1039740001F006C002F007C003F008C004F0120012
:1039840001500302F3CF05F0F4CF06F00150040216
:10399400F350062602500302F350062605C001F038
:1039A40006C002F01200000EF86E0250F76E01C05D
:1039B400F6FFA68EA69CA684A688F29E550EA76E38
:1039C400AA0EA76EA682F28EA6941200086E0804B0
:1039D4000F0BB009096E0950E5EC16F006507F0B89
:1039E400E5EC16F007507F0BE5EC16F01200086EBC
:1039F40008040F0B9009096E0950E5EC16F0065007
:103A04007F0BE5EC16F007507F0BE5EC16F0120087
:103A14005A50036E046A070ED89003360436E82E13
:103A2400FBD70001AD510324016E000E0420026E89
:103A3400120049EC1AF001C074F102C075F14E0E87
:103A4400036E010E046E7F0E066E800E056EF4EC9E
:103A540017F01200076E07040F0B8009086E085058
:103A6400E5EC16F006507F0BE5EC16F0000EE5ECE5
:103A740016F01200026E0F0E02160A0E026005D036
:103A84000250300FE7EC1DF012000250370FE7EC44
:103A94001DF01200540ECD6E000ECC6EE00ECF6EF3
:103AA400C00ECE6ECECFF7F0CFCFF8F09E909D80B3
:103AB400CD801200066E06040F0BB009076E075086
:103AC400E5EC16F0790EE5EC16F0000EE5EC16F0D8
:103AD4001200066E06040F0BB009076E0750E5ECE2
:103AE40016F0780EE5EC16F0000EE5EC16F0120078
:103AF400E90E0001985D030E9959D8A01200B55142
:103B0400D8A41200C1C08EF0C2C08FF01200046E9F
:103B1400380E0424D96EDA6A010EDA22DF50036EFD
:103B24000350016E026A1200076E07040F0BC009EE
:103B3400086E0850E5EC16F006507F0BE5EC16F025
:103B44001200000E9EBA010E016EABA204D0AB9E11
:103B5400AB8E000E016E01501200000E026EA3EC3B
:103B64001DF00009D8A4AECF02F00250120003ECFD
:103B74001EF0D8EC1AF0D4EC1DF04CEC1DF0120041
:103B8400036E03380F0B3CEC1DF003503CEC1DF0AE
:103B94001200000EF86E0250F76E01C0F6FF080026
:103BA400F5501200720ED36E040ED26E000E9B6E90
:103BB4001200016E01C0F5F00001F66B1200016EF7
:103BC400A4A8FED701C073FF1200016E9EA8FED701
:103BD40001C0ADFF1200C3C001F0C4C002F0120066
:103BE40092C001F093C002F01200A2C001F0A3C081
:103BF40002F01200AEC001F0026A120005EC1EF0E1
:0E3C04001200D09E1200FF0012005B50120052
:1071EA0000FC7E477A36CA7E47FE33F47E4720216A
:1071FA00E47E4720214C7E472628ED7E47DA29D5B2
:10720A007E47BC08C37E477C259C7E47003CDF7EC8
:10721A0047D61A9B7E4192116A7E412600FA7E0069
:10722A000000434B48454A1114177573616765207E
:10723A00696E666F726D6174696F6E3B20206F7440
:10724A00686572776973652C206120636F6D6D6163
:10725A006E64207768696368206578706563747303
:10726A00206174206C65617374206F6E6520617291
:10727A00672C200A00536F6D6520636F6D6D616E18
:10728A0064732C207768656E20656E746572656418
:10729A0020776974682074686520737769746368F5
:1072AA0020272D68656C7027206F7220273F272CB6
:1072BA002073686F7720636F6D6D616E64200A00BA
:1072CA004578616D706C653A20202070726573652F
:1072DA00742033203D2036372020207C20536574CB
:1072EA00204D494449205072676D20363720666F19
:1072FA0072205072657365742033200A0A0045783B
:10730A00616D706C653A202020636F6E6669672034
:10731A00206368616E203D203130202020205B539D
:10732A006574204D696469205478206368616E6EC3
:10733A00656C203D2031305D200A0A005573616773
:10734A00652023323A2020636F6E666967203C709D
:10735A006172616D3E205B3D5D203C76616C7565B6
:10736A003E202020207C2053657420706172616D5C
:10737A002E2076616C7565200A0055736167652059
:10738A0023323A2020707265736574203C707265EE
:10739A00233E205B3D5D203C76616C75653E202076
:1073AA0020207C20536574205072657365742076A2
:1073BA00616C7565200A007768656E20656E746574
:1073CA0072656420776974686F757420616E792CB0
:1073DA002073686F756C6420616C736F2073686FBB
:1073EA007720636F6D6D616E642075736167652EBA
:1073FA00200A0055736167652023313A2020707294
:10740A0065736574202020207C204C697374205099
:10741A007265736574204D494449205072676D2026
:10742A006E756D62657273200A0A00436F6D6D6135
:10743A006E6420617267277320616E64206F7074B6
:10744A00696F6E73206D7573742062652073657041
:10745A006172617465642062792073706163657317
:10746A002E0A0053656E64696E67205379732E4540
:10747A00782E20274944454E5427206D7367206390
:10748A006F6E74696E756F75736C7920746F204DA9
:10749A00494449204F5554200A0020202077686526
:1074AA007265203C706172616D3E206973206120B3
:1074BA006E69636B6E616D65206C697374656420B7
:1074CA0062792075736167652023312E200A0A00CC
:1074DA00766961204D494449207472616E736D6901
:1074EA00742071756575652E20204D65737361670B
:1074FA006520696E74657276616C20697320356DDA
:10750A00732E200A00546F20726563616C6C2061CF
:10751A002070726576696F75736C7920656E746513
:10752A0072656420636F6D6D616E642C2068697486
:10753A00204374726C2B522E0A00526573746F7258
:10754A00652070657273697374656E742064617402
:10755A006120746F20666163746F72792064656656
:10756A0061756C74733F2028592F4E293A200020E8
:10757A002D71203A20204D494449204F555420541A
:10758A005820517565756520746573742028736574
:10759A006E64204944454E54204020356D7329209D
:1075AA000A00202D74203A20204D494449204F5585
:1075BA00542054582074657374202873656E6420AF
:1075CA003078304620636F6E74696E756F75736CB0
:1075DA007929200A00546F206C69737420617661DE
:1075EA00696C61626C6520636F6D6D616E64732C8A
:1075FA00207479706520276C6327206F72202763B7
:10760A006D6473272E0A0044756D702061207061C5
:10761A006765202832353620627974657329206FB0
:10762A006620666C6173682070726F6772616D2084
:10763A006D656D6F72792E0A005573616765202337
:10764A00313A2020636F6E666967202020207C20F3
:10765A004C69737420636F6E666967276E20706168
:10766A0072616D2773200A0A0020202077686572EC
:10767A0065203C707265233E20697320746865201A
:10768A00507265736574206E756D6265722028315B
:10769A002E2E3829200A0A004261756572207B5213
:1076AA00454D497D2048616E64736574206D6B3267
:1076BA00202D2D205365727669636520506F727490
:1076CA0020434C49200A00202D66203A2020577278
:1076DA0069746520466C6173682064617461206214
:1076EA006C6F636B20286465737472756374697652
:1076FA006529200A0053656E64696E672030783008
:10770A004620636F6E74696E756F75736C79207439
:10771A006F204D49444920545820554152542E2E29
:10772A002E0A00202D70203A202053686F77204DB2
:10773A004944492050726573737572652064617497
:10774A00612076616C75652028313462290A00212E
:10775A00204572726F723A20436F6E6669672064C1
:10776A0061746120636F7272757074656420286435
:10777A00656661756C746564290A002D2D2D2D2DA1
:10778A002D2D2D2D2D2048616E6473657420506156
:10779A0072616D6574657273202D2D2D2D2D2D2D21
:1077AA002D2D2D0A0020204D696469204D6F6475C6
:1077BA006C6174696F6E20496E74657276616C20B3
:1077CA002831302E2E313030206D73290A002120C5
:1077DA004572726F723A20436F6E66696720646100
:1077EA007461206578636565647320626C6F636B8E
:1077FA002073697A650A00202D65203A2020536893
:10780A006F7720737461727475702073656C662D5E
:10781A0074657374204572726F7273200A00202097
:10782A004D6964692045787072657373696F6E205B
:10783A00496E74657276616C2028352E2E3530209B
:10784A006D73290A002D2D207768657265206164A1
:10785A006472206973207374617274206164647243
:10786A006573732028686578292E0A0020204D69DF
:10787A0064692045787072657373696F6E2043433B
:10788A00206E756D6265722028322C372C313129B1
:10789A000A0055736167653A202064696167202090
:1078AA003C6F7074696F6E3E20205B617267315D58
:1078BA00202E2E2E200A00202053656E642031349B
:1078CA002D6269742045787072657373696F6E20D2
:1078DA00646174612028302C31290A00202D6D2022
:1078EA003A202053686F77204D6F6465205377697B
:1078FA0074636820706F736974696F6E200A002060
:10790A0020546F7563682053656E736520546872DE
:10791A006573686F6C6420286D61782E3235302962
:10792A000A0020204D6964692050726F672E204337
:10793A0068616E676520456E61626C6564202830F7
:10794A002C31290A0020204D696469205379732E4D
:10795A004578636C2E4D736720456E61626C656471
:10796A002028302C31290A002A2044656661756C6A
:10797A007420636F6E66696775726174696F6E20D1
:10798A00726573746F7265642E0A002120496E76DF
:10799A00616C696420707265736574206F72204D22
:1079AA00494449207072676D2023200A0020204D27
:1079BA006F64756C6174696F6E20446561642D62D1
:1079CA00616E6420286D61782E353030290A0020D6
:1079DA002050726573737572652053656E736F728A
:1079EA00205370616E20286D61782E373530290A50
:1079FA000021204572726F723A204D6F64756C6176
:107A0A0074696F6E2053656E736F72206661756C50
:107A1A00740A0020204D6F64756C6174696F6E2062
:107A2A004D6178696D756D20286D61782E31303021
:107A3A0030290A00202D73203A202053686F7720BE
:107A4A006E6F7465206F6E2F6F6666205374617453
:107A5A0065200A00202056656C6F6369747920538B
:107A6A00656E736520456E61626C65642028302CF2
:107A7A0031290A0021204572726F723A20507265CC
:107A8A0073737572652053656E736F7220666175C4
:107A9A006C740A0020204D6964692042617369632D
:107AAA00204368616E6E656C2028312E2E3136298E
:107ABA00200A00202046696E676572696E67205346
:107ACA006368656D652028302C312C322C2E2E29C6
:107ADA000A00202050697463682D42656E64205341
:107AEA0070616E20286D61782E31303030290A009D
:107AFA002120496E76616C6964206E69636B6E61E0
:107B0A006D65206F722076616C75652E0A002020E3
:107B1A004C656761746F204D6F646520456E6162C4
:107B2A006C65642028302C31290A002020506974A1
:107B3A0063682042656E6420456E61626C656420EC
:107B4A0028302C31290A0020204D6F646520737774
:107B5A006974636820696E707574207374617465E2
:107B6A003A20002020546F75636820506164204CCD
:107B7A0061796F75742028302C31290A002A204E29
:107B8A006F2073656C662D74657374206572726FED
:107B9A0072732E0A00507265736574207C204D49F9
:107BAA004449205072676D2023200A0048697420D6
:107BBA005B4573635D20746F20657869742E2E2E81
:107BCA00200A005F5F5F5F5F5F5F5F5F5F5F5F5FAE
:107BDA005F5F5F5F5F5F5F5F0A005F5F5F5F5F5F5F
:107BEA005F7C5F5F5F5F5F5F5F5F5F5F5F5F5F0AD3
:107BFA0000606060606060607C60606060606060BF
:107C0A006060606060600A00486974205B45736365
:107C1A005D20746F20717569742E200A0A005573ED
:107C2A006167653A202064756D70205B61646472D7
:107C3A005D200A003F20556E646566696E656420A2
:107C4A00636F6D6D616E642E0A002120496E766144
:107C5A006C696420636F6D6D616E642E200A004842
:107C6A006974205B4573635D20746F20657869745D
:107C7A002E200A0055736167653A20202A205B721C
:107C8A00656D61726B5D200A002A204E6577207649
:107C9A00616C75652073617665643A2000554E44BF
:107CAA004546494E454420286572726F72290A007A
:107CBA004669726D776172652076657273696F6E57
:107CCA0020002D2D2D2D2D2D2D2D2D2D204D6F6488
:107CDA006520000D0A2A204D43552072657365748C
:107CEA00202A0A00203A204D494449205072676DE3
:107CFA00203D20004F46462F49444C452028302934
:107D0A000A00207C20506164305F4144433A2000DD
:107D1A00207C2050726573737572653A2000546F27
:107D2A00756368506164733A2030780050454E4458
:107D3A00494E47202831290A00504C4159494E479B
:107D4A00202832290A00207C204D6F64756C276E2A
:107D5A003A20004A756E20313220323032320048E1
:107D6A0069676820283129200A003C6F7074696F9E
:107D7A006E3E200A004C6F7720283029200A002AFC
:107D8A002050726573657420006368616E2020203C
:107D9A0020007468726573202020006578706E6315
:107DAA006320200066696E67736320200070627327
:107DBA0070616E20200070727370616E20200070F6
:107DCA00726368656E20200076656C73656E20208C
:107DDA000073797378656E2020006C656761746F33
:107DEA002020006D6F64696E742020006D6F646DD1
:107DFA0061782020007061646C61792020006578C8
:107E0A00706E31346220006D6F6462616E642000AE
:107E1A007062656E64656E20006578706E696E7456
:107E2A0020002020207C202020006578706E3134CC
:107E3A0062006D6F6462616E64007062656E646593
:107E4A006E0064656661756C74006578706E696E43
:107E5A0074006578706E63630066696E67736300A9
:107E6A00636F6E6669670070627370616E0070722C
:107E7A007370616E0070726368656E0076656C730C
:107E8A00656E0073797378656E006C656761746FEF
:107E9A0000707265736574006D6F64696E74006D4D
:107EAA006F646D6178007061646C61790037463087
:107EBA0030200064756D7020007761746368002D4E
:107ECA0068656C7000746872657300646961670044
:107EDA006368616E0064756D7000636D6473002081
:107EEA003A2000766572002C20006C63002D790020
:057EFA0024002A000035
:020000040020DA
:08000000FFFFFFFFFFFFFFFF00
:020000040030CA
:0E000000FF281F3CFFBF81FF0FC00FE00F4025
:00000001FF
